:020000040000FA
:1000000002082DE49007F003F0222201648C2222E2
:080010002222220164EE2222EB
:03001B000165502C
:030023000165B2C2
:03002B0001661457
:03003300016676ED
:03003B000166D883
:0300430001673A18
:03004B0001679CAE
:030053000167FE44
:03005B00016860D9
:030063000168C26F
:03006B0001692404
:030073000169869A
:10007B000169E8EB7002E72289828A831410E70496
:10008B00F593E022F593E49322BB000327F722F8C4
:10009B00EB89828A831410E706F593E028F022F5AA
:1000AB0093E4932822BB0002F722BB8000500989FE
:1000BB00828A838B931593F022EF8DF0A4A8F0CF57
:1000CB008CF0A428CE8DF0A42EFE22BC000BBE001B
:1000DB0029EF8DF084FFADF022E4CCF875F008EF3A
:1000EB002FFFEE33FEEC33FCEE9DEC984005FCEE5F
:1000FB009DFE0FD5F0E9E4CEFD22EDF8F5F0EE0014
:10010B008420D21CFEADF075F008EF2FFFED33FD10
:10011B004007985006D5F0F222C398FD0FD5F0EAB0
:10012B0022C2D5EC30E709B2D5E4C39DFDE49CFCBB
:10013B00EE30E716B2D5E4C39FFFE49EFE1200003B
:10014B00D6C3E49DFDE49CFC8004120000D630D5A0
:10015B0007C3E49FFFE49EFE22C5F0F8A3E028F05E
:10016B00C5F0F8E582158270021583E038F022A302
:10017B00F8E0C5F025F0F0E582158270021583E0FA
:10018B00C838F0E822EB7007E7F5F009E719228988
:10019B00828A831410E708F593E0F5F0A3E022F5CB
:1001AB0093E493F5F074019322BB000B09C5F02780
:1001BB00F7C5F01937F722F8EB89828A831410E719
:1001CB0007F593E802000164F59374019325F0F5AC
:1001DB00F0E4933822BB0006F709A7F01922BB8085
:1001EB0000500D89828A838B931593F0E5F0A3F071
:1001FB0022E88FF0A4CC8BF0A42CFCE98EF0A42C7D
:10020B00FC8AF0EDA42CFCEA8EF0A4CDA8F08BF0C8
:10021B00A42DCC3825F0FDE98FF0A42CCD35F0FCC6
:10022B00EB8EF0A4FEA9F0EB8FF0A4CFC5F02ECD92
:10023B0039FEE43CFCEAA42DCE35F0FDE43CFC2277
:10024B0075F008758200EF2FFFEE33FECD33CDCC6A
:10025B0033CCC58233C5829BED9AEC99E5829840ED
:10026B000CF582EE9BFEED9AFDEC99FC0FD5F0D6CA
:10027B00E4CEFBE4CDFAE4CCF9A88222B800C1B9F4
:10028B000059BA002DEC8BF084CFCECDFCE5F0CB32
:10029B00F97818EF2FFFEE33FEED33FDEC33FCEB6B
:1002AB0033FB10D703994004EB99FB0FD8E5E4F926
:1002BB00FA227818EF2FFFEE33FEED33FDEC33FC13
:1002CB00C933C910D7059BE99A4007EC9BFCE99A07
:1002DB00F90FD8E0E4C9FAE4CCFB2275F010EF2F4C
:1002EB00FFEE33FEED33FDCC33CCC833C810D7074C
:1002FB009BEC9AE899400AED9BFDEC9AFCE899F887
:10030B000FD5F0DAE4CDFBE4CCFAE4C8F922CFF454
:10031B00CFCEF4CECDF4CDCCF4CC22EB9FF5F0EADE
:10032B009E42F0E99D42F0E89C45F022E8600FEC1C
:10033B00C313FCED13FDEE13FEEF13FFD8F122E810
:10034B00600FEFC333FFEE33FEED33FDEC33FCD820
:10035B00F122EB7006E9F8020004FB89828A831410
:10036B0010E706F59302000507F59302000513BB92
:10037B000006E9F802000523BB8000500C89828A35
:10038B00838B9315930200039522ECF0A3EDF0A35E
:10039B00EEF0A3EFF022EB7006E9F80200052F89CF
:1003AB00828A831410E706F59302000541F5930248
:1003BB00000553BB001CD093D0F0D0E0F8D0E0C9BF
:1003CB00FBD0E0FAD0E0CBC8C0E0C0F0C093020095
:1003DB000538BB80005022D093D0F0D0E0F8D0E0AD
:1003EB00C9F582D0E0CAF583D0E0CB14C8C0E0C019
:1003FB00F0C09388930200054AD093D083D082D06B
:10040B00E0D0E0D0E0E473D093D083D082F8E493D3
:10041B007012740193700DA3A393F8740193F5827A
:10042B008883E4737402936860EFA3A3A380DF8BCC
:10043B00938A838982159353937FE473EF4E6022E3
:10044B00EF60010EEDBB0007F709DFFCA9F022BB43
:10045B008000500E89828A838B931593F0A3DFFC67
:10046B00DEFA22EB7008E709F608DFFA801B8982B7
:10047B008A831410E70AF593E0A3F608DFFA8009E4
:10048B00F593E493A3F608DFF9ECFAA9F0EDFB2260
:10049B0088F0EF60010E4E60F088F0ED60C514102F
:1004AB00E7E7CB700E88828C838B93E709F0A3DF91
:1004BB00FA80D61410E71C88848C858B9589828AE8
:1004CB0083F593758620E0F0A3A3DFFADEF875863B
:1004DB000080B688848C858B9589828A83F5937589
:1004EB008620E493F0A3A3DFF9DEF77586008099ED
:1004FB00E6FC08E6FD08E6FE08E6FF22E0FCA3E0CA
:10050B00FDA3E0FEA3E0FF22E493FC740193FD74D2
:10051B000293FE740393FF22ECF608EDF608EEF659
:10052B0008EFF622E6FB08E6FA08E6F922EBF608F6
:10053B00EAF608E9F622E0FBA3E0FAA3E0F922EBE6
:10054B00F0A3EAF0A3E9F022E493FB740193FA74AD
:10055B000293F9224842425F53535441540048429C
:10056B00425F4C5354415400554E495F50524F4DCE
:10057B0000554E495F464C415348004A50445F502A
:10058B00524F4D004A50445F464C41534800504433
:10059B00535F50524F4D005044535F464C415348AC
:1005AB000043435F50524F4D0043435F464C415312
:1005BB00480055475F50524F4D0055475F464C41E1
:1005CB005348004D5F50524F4D004D5F464C4153C9
:1005DB004800504F5745525F4F4E005245534554BC
:1005EB005F434D440052455345545F50474D0043C4
:1005FB004D444A554D505F46524F4D5F454C534508
:10060B000050474D4A554D505F46524F4D5F454C3C
:10061B00534500434D444A554D505F46524F4D5F35
:10062B0053454C460050474D4A554D505F46524F2F
:10063B004D5F53454C46000A3D3D3D3D3D3D3D3DE7
:10064B003D3D3D3D3D3D3D3D3D3D3D3D3D3D3D3DCF
:10065B003D3D3D3D3D3D3D3D3D3D3D3D3D3D3D3DBF
:10066B003D3D3D3D3D3D3D3D3D3D3D3D3D3D3D3DAF
:10067B003D000A2052756E6E696E674D6F64653A68
:10068B0020000A205265736574526561736F6E3A70
:10069B0020000A204E6577626F726E416464723A75
:1006AB0020000A204C6F676963616C416464723A85
:1006BB0020000A2056657273696F6E4E756D623A33
:1006CB0020000A20436F6D70696C65446174653A54
:1006DB00200030332F30312F3038002C20003038B1
:1006EB003A32333A3437000A5B436F6E66696745BB
:1006FB007865635D3A200046696C6553746172746A
:10070B00416464723D002C2046696C65456E644102
:10071B006464723D000A5B436F6E6669674578657A
:10072B00635D3A20496E76616C69642066696C651D
:10073B0020737461727420616464726573732E002C
:10074B000A5B436F6E666967457865635D3A20495E
:10075B006E76616C69642066696C6520656E6420D9
:10076B00616464726573732E000A5B436F6E666916
:10077B0067457865635D3A20496E76616C696420E4
:10078B00636F6D6D616E64206C656E6774682E09A6
:10079B00000A5B436F6E666967457865635D3A2057
:1007AB00436F6E666967206C6F672073706163655A
:1007BB002069732066756C6C2E000A2D2D2D2D2D46
:1007CB002D2D2D20000A436D646C656E203A2000A0
:1007DB000A436D64547970653A20000A436D644492
:1007EB006174613A20000A5265734C656E203A20A1
:1007FB00000A526573466C61673A20004B4F004FFD
:10080B004B000A526573446174613A20004E45589F
:10081B0054004552524F520041424F525400454EE4
:10082B00440075C7AA75C75575923F75C7AA75C79A
:10083B005575A21875C7AA75C755759D0275C7AAB8
:10084B0075C75575C6A0787FE4F6D8FD75815E0235
:10085B0000088802006D74E493A3F85407240CC8B5
:10086B00C333C4540F4420C8834004F4568001465C
:10087B00F6DFE4800C010204081020408090000990
:10088B0013E47E019360CCA3FF543F30E509541F62
:10089B00FEE493A360010ECF54E0B4E026E493FB97
:1008AB00A3E493FAA3E493F9A3E493C083C0821265
:1008BB000000B0D082D083A309E970010ADFEADE21
:1008CB00E880BE54C025E0602B408CE493A3FAE48F
:1008DB0093A3F8E493A3C8C582C8CAC583CA75930A
:1008EB0040F0759300A3C8C582C8CAC583CADFE3AD
:1008FB00DEE1808DE493A3F8E493A34003F680013B
:10090B00F208DFF40200088C602A001581055F8174
:10091B00056981057381057C81058681058F8105BC
:10092B00998105A28105AC8105B48105BD8105C501
:10093B008105CE8105D55500008105DD8105E68158
:10094B0005F08105FA81060C81061E810630003008
:10095B00332F30312F30380030383A32333A343786
:10096B0000AF1FEF75F01CA424A9F9740035F0FA41
:10097B007B411103A190400092EBF0A3EAF0A3E9B5
:10098B00F090400092E0FBA3E0FAA3E02406F9E428
:10099B003AFA11007E54F0FFBFF03DAF1FEF75F038
:1009AB001CA424ACF9740035F0FA7B411103A1901F
:1009BB00400092EBF0A3EAF0A3E9F090400092E044
:1009CB00FBA3E0FAA3E02406F9E43AFA11007E5403
:1009DB00F064F0700301119A90400092E0FBA3E0E9
:1009EB00FAA3E02402F9E43AFA11007E9040009554
:1009FB00F090400092E0FBA3E0FAA3E02406F9E4B8
:100A0B003AFA11007EC4540F90400096F0904000CB
:100A1B0095E0540F90400097F090400096E07003E3
:100A2B0001106C90400095E0546024E07003010BC2
:100A3B007E24E07003010D4124E07003010E892434
:100A4B0060600301119AAF1F7E0074992FF9EE3489
:100A5B0000FA7B4111007E64C06014AF1F74992FA4
:100A6B00F9EE3400FA11007E64806003010C7CAF58
:100A7B001F7E0074992FF9EE3400FA7B41748011BC
:100A8B0000B0AF1F74892FF9EE3401FA7B411100CE
:100A9B007EFF90400097E06F60030110FBAF1FEFEC
:100AAB0075F01CA424B5F9740035F0FA7B411101E3
:100ABB0090FF90400096E02FFFE435F0FED3EF94CB
:100ACB0000EE94204003010BFEAF1FEF75F01CA44A
:100ADB0024B2F9740035F0FA7B411103A1C003C0B5
:100AEB0002C00190400092E0FBA3E0FAA3E02407D0
:100AFB00F9E43AFA9040004AEBF0A3EAF0A3E9F0EC
:100B0B0090400096E09040004DF0D001D002D00311
:100B1B00116C8D90400096E0FDAF1FEF75F01CA49B
:100B2B0024B5F9740035F0FA7B41E48DF01101B472
:100B3B0090400096E0FDAF1FEF75F01CA424B2F9B6
:100B4B00740035F0FA09E970010AE48DF01101B473
:100B5B0090400095E05404FFE51F04FD113EA5EF06
:100B6B009040009730E106E04430011066E04410FD
:100B7B00011066AF1F7E0074992FF9EE3400FA7BDB
:100B8B004111007E64C06014AF1F74992FF9EE34CD
:100B9B0000FA11007E64806003010C7CAF1F7E00A5
:100BAB0074992FF9EE3400FA7B4174A01100B0AFA9
:100BBB001F74892FF9EE3401FA7B4111007EFF90EF
:100BCB00400097E06F60030110FBAF1FEF75F01C47
:100BDB00A424B5F9740035F0FA7B41110190FF9014
:100BEB00400096E02FFFE435F0FED3EF9400EE9437
:100BFB00204004A30110FBAF1FEF75F01CA424B21F
:100C0B00F9740035F0FA7B411103A1C003C002C097
:100C1B000190400092E0FBA3E0FAA3E02407F9E483
:100C2B003AFA9040004AEBF0A3EAF0A3E9F09040C7
:100C3B000096E09040004DF0D001D002D003116C33
:100C4B008D90400096E0FDAF1FEF75F01CA424B50E
:100C5B00F9740035F0FA7B41E48DF01101B490404A
:100C6B000095E05404FFE51F04FD113EA5EF30E1B4
:100C7B0007904000970110FB9040034CE004F0AF4D
:100C8B001FEF75F01CA424B5F9740035F0FA7B4105
:100C9B00110190F52B85F02AAF1FEF75F01CA424E2
:100CAB00AFF9740035F0FA1103A18B258A26892739
:100CBB00AF1FEF75F01CA424BDF9740035F0FA7B5F
:100CCB00411103A18B218A228923AF1F7E0074A1BE
:100CDB002FF9EE3400FA7B4111007EFF114FC7AFA5
:100CEB001FEF75F01CA424C3F9740035F0FA7B4197
:100CFB00E5288529F01101E0AB21AA22A923C00325
:100D0B00C002C001AF1FEF75F01CA424C0F9740022
:100D1B0035F0FA7B411103BED3E5299408E52894FD
:100D2B00004003011046E5294528904000977003C9
:100D3B0001106301105AAF1F7E0074992FF9EE3426
:100D4B0000FA7B4174C01100B090400097E0FFAEF9
:100D5B001FEE7C002489F9EC3401FA7B41EF110082
:100D6B00B090400092E0FBA3E0FAA3E02407F9E483
:100D7B003AFA11007EFFAE1FEE24A1F9EC3400FA13
:100D8B007B41EF1100B0AF1F7E0074A12FF9EE3441
:100D9B0000FA11007EC413135403FFAE1FEE248917
:100DAB00F9EC3401FA7B4111007EFE13131354034B
:100DBB006F6003010F0690400096E014F0AF1FEF39
:100DCB0075F01CA424AFF9740035F0FA7B411103C4
:100DDB00A1C003C002C00190400092E0FBA3E0FA67
:100DEB00A3E02408F9E43AFA9040004AEBF0A3EAB6
:100DFB00F0A3E9F090400096E09040004DF0D00158
:100E0B00D002D003116C8D90400096E0FDAF1FEF28
:100E1B0075F01CA424B5F9740035F0FA7B41E48D10
:100E2B00F01101E0AF1FEF75F01CA424AFF97400B3
:100E3B0035F0FA1103A190400096E07E0029F9EEFF
:100E4B003AFAC003C002C001AF1FEF75F01CA42417
:100E5B00B2F9740035F0FA7B411103BE9040009556
:100E6B00E05404FFE51F04FD113EA5EF90400097F1
:100E7B0030E105E044308003E04410011066AF1F01
:100E8B007E0074992FF9EE3400FA7B4174E0110067
:100E9B00B090400097E0FFAE1FEE7C002489F9EC88
:100EAB003401FA7B41EF1100B090400092E0FBA3BC
:100EBB00E0FAA3E02407F9E43AFA11007EFFAE1F33
:100ECB00EE24A1F9EC3400FA7B41EF1100B0AF1F17
:100EDB007E0074A12FF9EE3400FA11007EC41313B7
:100EEB005403FFAE1FEE2489F9EC3401FA7B411158
:100EFB00007EFE13131354036F600A90400097E0BB
:100F0B00443001106690400096E014F0AF1FEF756F
:100F1B00F01CA424AFF9740035F0FA7B411103A146
:100F2B00C003C002C00190400092E0FBA3E0FAA313
:100F3B00E02408F9E43AFA9040004AEBF0A3EAF017
:100F4B00A3E9F090400096E09040004DF0D001D026
:100F5B0002D003116C8D90400096E0FDAF1FEF7532
:100F6B00F01CA424B5F9740035F0FA7B41E48DF044
:100F7B001101E090400095E05404FFE51F04FD11C2
:100F8B003EA5EF30E10A90400097E0443001106637
:100F9B009040034CE004F0AF1FEF75F01CA424B598
:100FAB00F9740035F0FA7B41110190F52B85F02A8D
:100FBB00AF1FEF75F01CA424AFF9740035F0FA11D4
:100FCB0003A18B258A268927AF1FEF75F01CA4245C
:100FDB00BDF9740035F0FA7B411103A18B218A22F4
:100FEB008923AF1F7E0074A12FF9EE3400FA7B41E9
:100FFB0011007EFF114FC7AF1FEF75F01CA424C368
:10100B00F9740035F0FA7B41E5288529F01101E0F0
:10101B00AB21AA22A923C003C002C001AF1FEF75E9
:10102B00F01CA424C0F9740035F0FA7B411103BE07
:10103B00D3E5299408E5289400400A90400097E0F6
:10104B004450011147E5294528904000976009E07D
:10105B004470FFAD29011197E0452CFFE4FD011110
:10106B009790400095E0546024E0700301118D24AB
:10107B00E0700301118D24E0700301118D24606079
:10108B000301119AAF1F7E0074992FF9EE3400FA09
:10109B007B4111007E64E0602DAF1F74992FF9EE38
:1010AB003400FA11007E64A0601CAF1F74992FF9F5
:1010BB00EE3400FA11007E600D90400097E0443052
:1010CB00FFE4FD011197AF1F7E0074992FF9EE34E9
:1010DB0000FA7B41E41100B0AF1F74892FF9EE3495
:1010EB0001FA7B4111007EFF90400097E06F600991
:1010FB00E04430FFE4FD01119790400095E054046B
:10110B00FFE51F04FD113EA5EF30E10C9040009769
:10111B00E04430FFE4FD8074AF1FEF75F01CA42496
:10112B00C3F9740035F0FA7B41110190D39408E5B3
:10113B00F09400400C90400097E04410FF7D088035
:10114B004BAF1FEF75F01CA424C3F9740035F0FAF4
:10115B007B4111019045F0601DAF1FEF75F01CA492
:10116B0024C3F9740035F0FA110190FD90400097FB
:10117B00E04430FF801690400097E04430FFE4FDE0
:10118B00800A90400097E04430FFE4FD1138D422F0
:10119B007B827AFF790011007EF5247B0479FF11A5
:1011AB00007EF4FF1911007EB5070711007EF520B4
:1011BB0080037520FF9040034AE524F0A3E520F05F
:1011CB00E49040008AF09040008AE07E002499F978
:1011DB00EE3400FA7B4174601100B09040008AE05D
:1011EB002489F9EE3401FA7B4174FF1100B0904071
:1011FB00008AE024A1F9EE3400FA7B4174FF110060
:10120B00B09040008AE075F010A42410F9741035EA
:10121B00F0FA7B41C003C002C001E075F01CA424AE
:10122B00A9F9740035F0FA7B411103BE9040008A96
:10123B00E075F010A42410F9741135F0FA7B41C05D
:10124B0003C002C001E075F01CA424ACF974003596
:10125B00F0FA7B411103BE9040008AE0C43354E0A6
:10126B00FEE42400FFE43EFEE43404FDE433FCE43E
:10127B002FFFE43EFEED3401FDE43CA907AA06ABCB
:10128B0005C003C002C001E075F01CA424AFF974C3
:10129B000035F0FA7B411103BE9040008AE0540305
:1012AB0075F010A424A0F9741035F0FA7B41C0033B
:1012BB00C002C001E075F01CA424B7F9740035F02E
:1012CB00FA7B411103BE9040008AE0540375F01085
:1012DB00A424A0F9741135F0FA7B41C003C002C0FD
:1012EB0001E075F01CA424BAF9740035F0FA7B41C7
:1012FB001103BE9040008AE0C43354E0FEE42400A6
:10130B00FFE43EFEE43404FDE433FCE42FFFE43E53
:10131B00FEED3401FDE43CFCE42FFFE43EFEED3436
:10132B0001FDE43CA907AA06AB05C003C002C0013E
:10133B00E075F01CA424BDF9740035F0FA7B411163
:10134B0003BE9040008AE004F0E0640860030111E2
:10135B00D175C7AA75C75575A30911737975C7AA36
:10136B0075C75575E30911737975C7AA75C7557597
:10137B00A30111737975C7AA75C75575E30111736D
:10138B0079E490401000F090401100F09040100173
:10139B00F090401101F090401002F090401102F0DB
:1013AB0090401003F090401103F090401004F09027
:1013BB00401104F0904010057414F090401105F0AA
:1013CB009040100674FFF090401106F0904010070B
:1013DB00F090401107F0904010087415F0904011F8
:1013EB0008F09040100974FFF090401109F0904004
:1013FB00100AF09040110AF0E49040100BF090406E
:10140B00110BF09040100C74FFF09040110CF09009
:10141B0040100DF09040110DF09040100EF09040E8
:10142B00110EF09040100FF09040110FF0E4F5AB5F
:10143B00F5EBF5ACF5ECF5ADF5EDF5AEF5EEF5AF91
:10144B00F5EFF5B3F5F3F5B4F5F4F5B5F5F5F5B64C
:10145B00F5F6F5B7F5F7F5BBF5FBF5BCF5FCF5BD0A
:10146B00F5FDF5BEF5FEF5BFF5FF9040008A04F0E3
:10147B009040008AE075F010A42402F9741035F046
:10148B00FA7B41E41100B09040008AE075F010A4A3
:10149B002402F9741135F0FA7B41E41100B090404D
:1014AB00008AE075F010A42403F9741035F0FA7B70
:1014BB0041E41100B09040008AE075F010A42403C1
:1014CB00F9741135F0FA7B41E41100B09040008AB9
:1014DB00E075F010A42404F9741035F0FA7B41E4A4
:1014EB001100B09040008AE075F010A42404F97448
:1014FB001135F0FA7B41E41100B09040008AE075A1
:10150B00F010A42405F9741035F0FA7B41E41100B6
:10151B00B09040008AE075F010A42405F9741135E1
:10152B00F0FA7B41E41100B09040008AE075F010B6
:10153B00A42406F9741035F0FA7B41E41100B09045
:10154B0040008AE075F010A42406F9741135F0FA06
:10155B007B41E41100B09040008AE075F010A424A8
:10156B0007F9741035F0FA7B41E41100B09040009C
:10157B008AE075F010A42407F9741135F0FA7B4159
:10158B00E41100B09040008AE075F010A42408F933
:10159B00741035F0FA7B41E41100B09040008AE002
:1015AB0075F010A42408F9741135F0FA7B41E4119D
:1015BB0000B09040008AE075F010A42409F9741073
:1015CB0035F0FA7B41E41100B09040008AE075F0F1
:1015DB0010A42409F9741135F0FA7B41E41100B021
:1015EB009040008AE075F010A4240AF9741035F0CD
:1015FB00FA7B41E41100B09040008AE075F010A432
:10160B00240AF9741135F0FA7B41E41100B09040D3
:10161B00008AE075F010A4240BF9741035F0FA7BF6
:10162B0041E41100B09040008AE075F010A4240B47
:10163B00F9741135F0FA7B41E41100B09040008A47
:10164B00E075F010A4240CF9741035F0FA7B41E42A
:10165B001100B09040008AE075F010A4240CF974CE
:10166B001135F0FA7B41E41100B09040008AE0752F
:10167B00F010A4240DF9741035F0FA7B41E411003D
:10168B00B09040008AE075F010A4240DF974113568
:10169B00F0FA7B41E41100B09040008AE075F01045
:1016AB00A4240EF9741035F0FA7B41E41100B090CC
:1016BB0040008AE075F010A4240EF9741135F0FA8D
:1016CB007B41E41100B09040008AE004F0E064102C
:1016DB00600301147BE49040008AF09040008AE0A4
:1016EB00C3940450067F017D0180047F007D009030
:1016FB0040008AE075F01CA424A9F9740035F0FAB7
:10170B007B411103A1E92402F9E43AFAED1100B08F
:10171B009040008AE05403FDE075F01CA424A9F965
:10172B00740035F0FA7B411103A1E92403F9E43A83
:10173B00FAED1100B09040008AE0C394045006AF5C
:10174B0024AD078004AF20AD079040008AE075F010
:10175B001CA424A9F9740035F0FA7B411103A1E90B
:10176B002404F9E43AFAED1100B09040008AE075D8
:10177B00F01CA424A9F9740035F0FA7B411103A1E4
:10178B00E92405F9E43AFA74011100B09040008A9B
:10179B00E075F01CA424A9F9740035F0FA7B411113
:1017AB0003A1E92406F9E43AFA74F61100B090406B
:1017BB00008AE0C3940450067F057D0580047F04F6
:1017CB007D049040008AE075F01CA424ACF97400F1
:1017DB0035F0FA7B411103A1E92402F9E43AFAED61
:1017EB001100B09040008AE05403FDE075F01CA49A
:1017FB0024ACF9740035F0FA7B411103A1E9240301
:10180B00F9E43AFAED1100B09040008AE0C3940479
:10181B005006AF24AD078004AF20AD079040008A7F
:10182B00E075F01CA424ACF9740035F0FA7B41117F
:10183B0003A1E92404F9E43AFAED1100B090400059
:10184B008AE075F01CA424ACF9740035F0FA7B41E6
:10185B001103A1E92405F9E43AFA74011100B090DF
:10186B0040008AE075F01CA424ACF9740035F0FA42
:10187B007B411103A1E92406F9E43AFA74F611004D
:10188B00B09040008AE004F0E0640860030116E6C3
:10189B00E524D39403401875AB8075EB8075AC8051
:1018AB0075EC8075AD8075ED8075AE8075EE80E55D
:1018BB0020D39403401DE520F4601875AF8075EFBD
:1018CB008075B38075F38075B48075F48075B580C1
:1018DB0075F58075C7AA75C755E4F5A311737975AE
:1018EB00C7AA75C755E4F5E301737990400081EE03
:1018FB00F0A3EFF090400081E0FEA3E07806CEC3AA
:10190B0013CE13D8F9904002D211345E7D5511726B
:10191B00ACE4904002D1F090400081E0FEA3E0FFE8
:10192B007C007D151100C474002FF974403EFA7BC6
:10193B0001904002D1E07E0029F9EE3AFA11007EC7
:10194B00FD1172AC904002D1E004F0E0C39408406A
:10195B00C67DBE1172ACE4F55C904002D1F09040B4
:10196B0002D2E0FF116FB0904002D1E07C0024D393
:10197B00F9EC3402FA7B41EF1100B0904002D1E058
:10198B007E0024D3F9EE3402FA11007E655C2496B6
:10199B00F9EE3401FA7B4111007EF55C904002D1E7
:1019AB00E004F0E0C3940940B5904002D3E09040CE
:1019BB0002DEF0904002D4E0904002DDF090400255
:1019CB00D7E0904002E1F0904002D9E0904002DF76
:1019DB00F0904002DAE0904002E0F0904002DEE04E
:1019EB00FFC00790400081E0FEA3E0FF7C007D1567
:1019FB001100C4AC06AD07740D2DF974403CFA7B95
:101A0B0001D0E01100B0904002DDE0FFC007740E82
:101A1B002DF974403CFAD0E01100B0904002E1E0A7
:101A2B00FFC00790400081E0FEA3E0FF7C007D1526
:101A3B001100C4AC06AD07740F2DF974403CFAD0FD
:101A4B00E01100B0904002DFE0FFC00774102DF9E9
:101A5B0074403CFAD0E01100B0904002E0E0FFC0CF
:101A6B000790400081E0FEA3E0FF7C007D15110094
:101A7B00C4AC06AD0774112DF974403CFAD0E011DB
:101A8B0000B074122DF974403CFA74801100B090C0
:101A9B00400081E0FEA3E0FF7C007D151100C474C3
:101AAB00132FF974403EFA748075F0001101E0E5D4
:101ABB005C6003011DE374002FF974403EFA7B0157
:101ACB0011007E64106003011BAA904002DDE070E0
:101ADB0009A3E064AA7003011DE3904002DDE060FE
:101AEB0007A3E0D39480500E904002DDE0702EA34C
:101AFB00E0D3947F5027904002DEE0FFC007904078
:101B0B000081E0FEA3E0FF7C007D151100C4741280
:101B1B002FF974403EFA7B01D0E01100B0904002E7
:101B2B00E0E06410904002DE7038E054FE75F08007
:101B3B00A4FD904002DDE0C4333333548045F0FC08
:101B4B00904002DFE0FFA3E0C39FFFE49400FEEFB1
:101B5B00C4F8540FC868FFEEC454F0484CFEEF4D68
:101B6B008017E075F080A4FD904002DDE0C43333B4
:101B7B0033548045F0FEED4440FFC007C006904053
:101B8B000081E0FEA3E0FF7C007D151100C47413FF
:101B9B002FF974403EFA7B01D0E0D0F0011DE090AC
:101BAB00400081E0FEA3E0FF7C007D151100C474B2
:101BBB00002FF974403EFA7B0111007E642860030C
:101BCB00011DE3904002E1E07003011DE390400230
:101BDB00E1E0546024E0601824E0601D24E0602202
:101BEB0024606003011DE3904002E27402F080194F
:101BFB00904002E27404F08010904002E27408F00E
:101C0B008007904002E27410F0904002DDE020E784
:101C1B0003011D0AE0FEA3E07C002400FFEC3EFE66
:101C2B00C3EF9400FFEE9400FEE49401FDEC9400EE
:101C3B00FCC004A905AA06AB07904002E2E0FD7CBC
:101C4B00007E017F001100D6E4FCFDD0001101FCE9
:101C5B00904002CFEEF0A3EFF0904002CFE0FEA356
:101C6B00E0FF7C007D8011012CD3ED9440EC64806F
:101C7B009480904002CFE0FE4013A3E0FF7C007DF8
:101C8B008011012CEF2401FFE43EFE800AA3E0FF4C
:101C9B007C007D8011012C904002CDEEF0A3EFF083
:101CAB00904002CDE0FEA3E0C39480EE6480947F6D
:101CBB0050067F80C007800A904002CDE0A3E0FF72
:101CCB00C00790400081E0FEA3E0FF7C007D151172
:101CDB0000C4AC06AD0774122DF974403CFA7B01BD
:101CEB00D0E01100B0904002CFE0FEA3E0FF8FF0F8
:101CFB00C00674132DF974403CFAD0E0011DE0903E
:101D0B004002DDE0FEA3E07C002400FDEC3EFCC0C5
:101D1B0004C005904002E2E0FD7C007E017F0011D3
:101D2B0000D6D005D0041100C4904002CFEEF0A332
:101D3B00EFF0904002CFE0FEA3E0FF7C007D80112E
:101D4B00012CD3ED9440EC64809480904002CFE062
:101D5B00FE4013A3E0FF7C007D8011012CEF2401DA
:101D6B00FFE43EFE800AA3E0FF7C007D8011012C86
:101D7B00904002CDEEF0A3EFF0904002CDE0FEA339
:101D8B00E0D3947FEE6480948040067F80C0078010
:101D9B000A904002CDE0A3E0FFC00790400081E035
:101DAB00FEA3E0FF7C007D151100C4AC06AD0774EB
:101DBB00122DF974403CFA7B01D0E01100B0904039
:101DCB0002CFE0FEA3E0FF8FF0C00674132DF97471
:101DDB00403CFAD0E01101E022E4F55AF55BE55DF9
:101DEB00700B90400349E020E3037F01227F007ECC
:101DFB00807D037C001122A7BF01037F01227B049E
:101E0B007A80790411035D904003311103957908B1
:101E1B0011035D904003351103957B817A0679F2AE
:101E2B001156577B817A0779021156577B417A03FA
:101E3B0079317D04114C577B817A077911115657F3
:101E4B007B417A0379357D04114C5790400331E087
:101E5B00FCA3E0FDA3E0FEA3E0FF7B007A80790307
:101E6B007800C311032660097B817A077920012052
:101E7B00A390400335E0FCA3E0FDA3E0FEA3E0FF4D
:101E8B007B0C7A8079037800D311032640097B8180
:101E9B007A07794B0120A390400331E0FCA3E0FDCE
:101EAB00A3E0FEA3E0240CFFE43EFEE43DFDE43C96
:101EBB00FC9040033111039590400331A3A3E0FE46
:101ECB00A3E0FFC00690400335A3A3E0FEA3E0AC64
:101EDB0006D006C39FFFEC9ECF2401CF3400904069
:101EEB000339F0A3EFF090400339E0FEA3E04E700E
:101EFB00030122A490400331E0FCA3E0FDA3E0FE2C
:101F0B00A3E02400FFE43EFEED3401FDE43CA90711
:101F1B00AA06AB05C003C002C001783B7C037D4120
:101F2B00D001D002D0037E007F0211049B904003AE
:101F3B0031E0FCA3E0FDA3E0FEA3E02402FFE43EBE
:101F4B00FEE43DFDE43CFCE42FFFE43EFEED3401FA
:101F5B00FDE43CA907AA06AB05C003C002C001788B
:101F6B003D7C037D41D001D002D0037E007F011167
:101F7B00049B9040033BE0FEA3E02402FFE43EFE03
:101F8B0090400339E0FCA3E0FDD3EF9DEE9C40179E
:101F9B007B817A0779741156577B417A03793B7DA4
:101FAB0002114C577F01229040033BE0FEA3E0C39C
:101FBB009401F52BEE9400F52A90400331E0FCA33D
:101FCB00E0FDA3E0FEA3E02403FFE43EFEE43DFDC1
:101FDB00E43CFCE42FFFE43EFEED3401FDE43CA9C0
:101FEB0007AA06AB058D258A26892775210275223E
:101FFB00007523009040033DE0FF114FC790400355
:10200B0031E0F8A3E0F9A3E0FAA3E0FB9040033B37
:10201B00E0FEA3E02402FFE43EFEE4FCFDEB2FFF19
:10202B00EA3EFEED39FDEC38FC904003311103958F
:10203B0090400339E0FEA3E0FF9040033BE0FCA39C
:10204B00E02402FDE43CFCC3EF9DFFEE9C904003BB
:10205B0039F0A3EFF0E5292401FEE4352890400385
:10206B003EF0A3CEF09040033BE0FEA3E0FF255BE8
:10207B00CFE55A3ECF2402CF3400FE9040033EE022
:10208B00FCA3E02FFFEE3CCF2402CF3400C394809F
:10209B00400C7B817A07799C1156577F0122E529E9
:1020AB0045287011E52C5460646060099040034032
:1020BB007401F08006E490400340F07B417A037991
:1020CB003BC003C001AE5AAF5B74002FF974203EC6
:1020DB00A801FC7D02D001D0037E007F0211049B7E
:1020EB007402255BF55BE4355AF55A7B417A03792B
:1020FB003DC003C001AE5AAF5B74002FF974203E94
:10210B00A801FC7D02D001D0037E007F0111049B4E
:10211B00055BE55B7002055AAE2AAF2BAC5AAD5B83
:10212B0074002DF974203CA801FC7D02AB25AA2676
:10213B00A92711049BE52B255BF55BE52A355AF5A1
:10214B005A7B417A03793EC003C001AE5AAF5B7430
:10215B00002FF974203EA801FC7D02D001D0037E34
:10216B00007F0211049B7402255BF55BE4355AF585
:10217B005A7B417A037940C003C001AE5AAF5B74FE
:10218B00002FF974203EA801FC7D02D001D0037E04
:10219B00007F0111049B055BE55B7002055AAE28BD
:1021AB00AF29AC5AAD5B74002DF974203CA801FC2F
:1021BB007D02AB21AA22A92311049BE529255BF5FE
:1021CB005BE528355AF55A7B817A0779C511565745
:1021DB007B817A0779D01156577B417A03793B7D06
:1021EB0002114C577B817A0779DB1156577B417A69
:1021FB0003793D7D01114C577B817A0779E61156A6
:10220B0057AB25AA26A927AD2B114C577B817A07F3
:10221B0079F11156577B417A03793E7D02114C5768
:10222B007B817A0779FC11565790400340E0600898
:10223B007B817A08790780067B817A08790A1156A7
:10224B00577B817A08790D115657AB21AA22A92306
:10225B00AD29114C57E52945286003011EF1E52CEA
:10226B00546024E0601724E0601B24E0601F2460AE
:10227B006003011EF17B817A08791880167B817AC5
:10228B0008791D800E7B817A08792380067B817A01
:10229B00087929115657011EF17F002290400066E4
:1022AB00110395E4FFFE7D06FC90400066E0F8A369
:1022BB00E0F9A3E0FAA3E0FBC311032640037F017F
:1022CB002290400066E0FCA3E0FDA3E0FEA3E02427
:1022DB0004FFE43EFEED3401FDE43CA907AA06AB86
:1022EB000511035D8F4A8E498D488C4790400066DF
:1022FB00E0FCA3E0FDA3E0FEA3E02408FFE43EFE28
:10230B00ED3401FDE43CA907AA06AB0511035D8F73
:10231B004E8E4D8D4C8C4BE54E2401FFE4354DFE1E
:10232B00E54C3401FDE4354BA907AA06AB051101B9
:10233B0090F55085F04FE4F551F55290400066E072
:10234B00FCA3E0FDA3E0FEA3E0FFAB4AAA49A9482A
:10235B00A847C3110326604BE4FFFE7D02FC9040AF
:10236B000066E0F8A3E0F9A3E0FAA3E0FBC31103D6
:10237B0026700890400349E04440F07F007E807D4A
:10238B00037C0090400066E0F8A3E0F9A3E0FAA319
:10239B00E0FBC3110326700890400349E04420F092
:1023AB007F012290400066E0FCA3E0FDA3E0FEA3CA
:1023BB00E0240CFFE43EFEE43DFDE43CFCAB4EAA06
:1023CB004DA94CA84BC3110326504BE4FFFE7D02D5
:1023DB00FC90400066E0F8A3E0F9A3E0FAA3E0FB71
:1023EB00C3110326700890400349E04440F07F007E
:1023FB007E807D037C0090400066E0F8A3E0F9A3AB
:10240B00E0FAA3E0FBC3110326700890400349E0F8
:10241B004420F07F0122AF4AAE49AD48AC47904013
:10242B00035F110395C3E54E954AFFE54D9549FEB4
:10243B00E54C9548FDE54B9547FCEF2401FFE43E49
:10244B00FEE43DFDE43CFC90400363807090400350
:10245B0063E0FCA3E0FDA3E0FEA3E0FFE47B32FA24
:10246B00F9F8C3110326505A9040035FE0FCA3E038
:10247B00FDA3E0FEA3E0FF116E8090400363E0FC40
:10248B00A3E0FDA3E0FEA3E0C39432FFEE9400FEB5
:10249B00ED9400FDEC9400FC9040036311039590C8
:1024AB0040035FE0FCA3E0FDA3E0FEA3E02432FFCA
:1024BB00E43EFEE43DFDE43CFC9040035F110395DC
:1024CB00808BE4FFFEFDFC01255990400367E0FC87
:1024DB00A3E0FDA3E0FEA3E0FF90400363E0F8A3BD
:1024EB00E0F9A3E0FAA3E0FBD3110326406A904086
:1024FB000367E0FCA3E0FDA3E0FEA3E0FF90400335
:10250B005FE0F8A3E0F9A3E0FAA3E02FFFEA3EFEB9
:10251B00E93DFDE83CFCE42FFFE43EFEED3401FD1C
:10252B00E43CA907AA06AB0511007E2552F552E43F
:10253B003551F55190400367E0FCA3E0FDA3E0FEAD
:10254B00A3E02401FFE43EFEE43DFDE43CFC9040AF
:10255B0003671103950124D5E4FFFE7D02FC904037
:10256B000066E0F8A3E0F9A3E0FAA3E0FBC31103D4
:10257B0026701AE55065527004E54F655190400383
:10258B00496006E04440F08004E054BFF07F007ED9
:10259B00807D037C0090400066E0F8A3E0F9A3E0A7
:1025AB00FAA3E0FBC3110326701AE55065527004C1
:1025BB00E54F6551904003496006E04420F08004EC
:1025CB00E054DFF07F0022C3E52B9405E52A94004D
:1025DB00500301287CAB25AA26A927E92401F9E49D
:1025EB003AFA11007EFDAB25AA26A92711007EFF22
:1025FB00ED90400358CFF0A3EFF0C3E52B9405FF0C
:10260B00E52A9400FE90400358E0FCA3E06F7002B3
:10261B00EE6C600301287CAB25AA26A927E92403CD
:10262B00F9E43AFA11007EFFE4FCFDFE7808110391
:10263B004AC004C005C006C007AB25AA26A927E9D6
:10264B002402F9E43AFA11007EFFE4FCFDFE781057
:10265B0011034AD003D002D001D000EF4BFFEE4A5A
:10266B00FEED49FDEC48FCA804C005C006C007AB55
:10267B0025AA26A927E92404F9E43AFA11007EFFDA
:10268B00D003D002D001EF4BFFEAFEE9FDE8FC904E
:10269B0040035A1103959040035AA3E0FDA3E0FEBB
:1026AB00A3E0FFED540FFDE4FC9040035A1103959A
:1026BB00AB25AA26A927E92402F9E43AFA11007EF0
:1026CB0054F09040035EF0E06008E064406003016A
:1026DB00287C90400358E0FEA3E0FF9040035AE0B3
:1026EB00F8A3E0F9A3E0FAA3E0FBEF2BFFEE3AFE31
:1026FB00E439FDE438FCE4FBFA7910F8C311032646
:10270B00500301287C9040035EE0601B9040035A0D
:10271B00E0FCA3E0FDA3E0FEA3E0FFED4440FDECF5
:10272B009040035A110395AB25AA26A927E9240546
:10273B00F9E43A8B25F52689279040035AE0FCA350
:10274B00E0FDA3E0FEA3E0FFE4FBFA7902F8D3116E
:10275B00032640030127ED90400358E0FEA3E0FF62
:10276B009040035AE0F8A3E0F9A3E0FAA3E0FBEFF3
:10277B002BFFEE3AFEE439FDE438FCE4FBFA790476
:10278B00F8C3110326405B9040035AE0FCA3E0FD25
:10279B00A3E0FEA3E02400FFE43EFEED3401FDE4E4
:1027AB003CA907AA06AB05C003C002C001AB25AA12
:1027BB0026A92790400042EBF0A3EAF0A3E9F090A2
:1027CB00400358E0FFA3E090400045CFF0A3EFF0AB
:1027DB00D001D002D00311571BBF010301287C018C
:1027EB0028E59040035874FFF5F011017A45F0701D
:1027FB00030128E59040035AE0FCA3E0FDA3E0FEB3
:10280B00A3E0FFE4FBFA7902F8D3110326506B9097
:10281B0040035AE0FCA3E0FDA3E0FEA3E0FFE47954
:10282B0004F811032640539040035AE0FCA3E0FD4B
:10283B00A3E0FEA3E02400FFE43EFEED3401FDE443
:10284B003CA907AA06AB05C003C002C001AB25AA71
:10285B0026A92790400042EBF0A3EAF0A3E9F0A3EE
:10286B00E4F0A304F0D001D002D00311571BBF0139
:10287B003AE4F528F529752C30229040035AE0FCF8
:10288B00A3E0FDA3E0FEA3E02400FFE43EFEED3455
:10289B0001FDE43CA907AA06AB05A807AC06AB25CE
:1028AB00AA26A9277E007F0111049B9040035AE0C2
:1028BB00FCA3E0FDA3E0FEA3E02401FFE43EFEE465
:1028CB003DFDE43CFC9040035A1103957401252710
:1028DB00F527E43526F5260127EDE4F528F52975CE
:1028EB002C7022E52B6401452A60028030AB25AAAF
:1028FB0026A92711007E547F904002F3F0AB25AA46
:10290B0026A92711007E5480904002F4F0904002DB
:10291B00F3E0C394014006E0D394094009E4F528A1
:10292B00F529752C3022AB25AA26A92711007EABE1
:10293B0021AA22A9231100B0752800752901904006
:10294B0002F3E075F040A4FF904002F5E5F0F0A330
:10295B00EFF0E4904002F2F0904002F3E07E0024AE
:10296B0005F9EE3403FA7B4111007EFF904002F231
:10297B00E0C39F4003012BF4904002F4E07003018D
:10298B002AD0A3E0FEA3E0FF7C007D151100C474E8
:10299B000D2FF974403EFA7B0111007EFFAB21AA8B
:1029AB0022A9230529E529AC28700205281429F949
:1029BB00EA3CFAEF1100B0904002F5E0FEA3E0FF15
:1029CB007C001100C4740E2FF974403EFA7B011188
:1029DB00007EFFAB21AA22A9230529E529AC28708B
:1029EB000205281429F9EA3CFAEF1100B0904002D5
:1029FB00F5E0FEA3E0FF7C001100C4740F2FF97407
:102A0B00403EFA7B0111007EFFAB21AA22A92305D0
:102A1B0029E529AC28700205281429F9EA3CFAEFBC
:102A2B001100B0904002F5E0FEA3E0FF7C00110026
:102A3B00C474102FF974403EFA7B0111007EFFAB7A
:102A4B0021AA22A9230529E529AC287002052814FF
:102A5B0029F9EA3CFAEF1100B0904002F5E0FEA331
:102A6B00E0FF7C001100C474112FF974403EFA7B17
:102A7B000111007EFFAB21AA22A9230529E529AC70
:102A8B0028700205281429F9EA3CFAEF1100B090DE
:102A9B004002F5E0FEA3E0FF7C001100C474122F8E
:102AAB00F974403EFA7B0111007EFFAB21AA22A9EB
:102ABB00230529E529AC28700205281429F9EA3CDD
:102ACB00FAEF1100B0904002F5E0FEA3E0FF7C00AE
:102ADB007D151100C474132FF974403EFA7B01115C
:102AEB000190E5F0FFAB21AA22A9230529E529AC2A
:102AFB0028700205281429F9EA3CFAEF1100B0906E
:102B0B004002F5E0FEA3E0FF7C001100C474132F1C
:102B1B00F974403EFA7B01110190FFAB21AA22A967
:102B2B00230529E529AC28700205281429F9EA3C6C
:102B3B00FAEF1100B0904002F5E0FEA3E0FF7C003D
:102B4B001100C474092FF974403EFA7B0111035D27
:102B5B0011595DE47BE87A03F9F811028790400282
:102B6B00F7110395904002F7E0FCA3E0FDEC4D60FC
:102B7B000D74FFFFFEFDFC904002F7110395904092
:102B8B0002F7E0FCA3E0FDA3E0FEA3E0FF78081151
:102B9B000337AB21AA22A9230529E529AC2870020A
:102BAB0005281429F9EA3CFAEF1100B0904002F71E
:102BBB00A3A3A3E0FFAB21AA22A9230529E529ACF6
:102BCB0028700205281429F9EA3CFAEF1100B0909D
:102BDB004002F6E004F07007904002F5E004F0903C
:102BEB004002F2E004F0012963E5294528700375E2
:102BFB002C7022E52B6405452A6003012EE8AB25DA
:102C0B00AA26A927E92401F9E43AFA11007EFDABC3
:102C1B0025AA26A92711007EFFED90400351CFF086
:102C2B00A3EFF090400351E0FEA3E0D394FBEE94AE
:102C3B001F4003012EE8AB25AA26A927E92403F997
:102C4B00E43AFA11007EFFE4FCFDFE780811034A1A
:102C5B00C004C005C006C007AB25AA26A927E924D6
:102C6B0002F9E43AFA11007EFFE4FCFDFE78101144
:102C7B00034AD003D002D001D000EF4BFFEE4AFE47
:102C8B00ED49FDEC48FCA804C005C006C007AB2508
:102C9B00AA26A927E92404F9E43AFA11007EFFD009
:102CAB0003D002D001EF4BFFEAFEE9FDE8FC9040B8
:102CBB00035311039590400353A3E0FDA3E0FEA340
:102CCB00E0FFED540FFDE4FC90400353110395AB73
:102CDB0025AA26A927E92402F9E43AFA11007E5421
:102CEB00F090400357F090400351E0FEA3E0240521
:102CFB00F529E43EF528AB21AA22A923A801AC02B1
:102D0B00AD03AB25AA26A9277E007F0511049B9056
:102D1B00400357E024F07003012DEA24F070030107
:102D2B002E7624E0600724406003012EE8904003D8
:102D3B0051E0FEA3E0FF90400353E0F8A3E0F9A3BA
:102D4B00E0FAA3E0FBEF2BFFEE3AFEE439FDE438AB
:102D5B00FCE4FBFA7910F8C31103265003012EE8AB
:102D6B0090400357E0601B90400353E0FCA3E0FD51
:102D7B00A3E0FEA3E0FFED4440FDEC9040035311B4
:102D8B00039590400351E0FEA3E0FFC006C00790FF
:102D9B00400353E0FCA3E0FDA3E0FEA3E02400FF0F
:102DAB00E43EFEED3401FDE43CA907AA06AB05C0E9
:102DBB0003C002C001AB21AA22A923E92405F9E42F
:102DCB003AA801FCAD03D001D002D003D007D00646
:102DDB0011049BE52945286003012EF0012EE49098
:102DEB00400351E0FEA3E0FF90400353E0F8A3E063
:102DFB00F9A3E0FAA3E0FBEF2BFFEE3AFEE439FD7B
:102E0B00E438FCE4FBFA7910F8C3110326500301F4
:102E1B002EE890400351E0FEA3E0FFC006C00790F0
:102E2B00400353E0FCA3E0FDA3E0FEA3E02400FF7E
:102E3B00E43EFEED3481FDE43CA907AA06AB05C0D8
:102E4B0003C002C001AB21AA22A923E92405F9E49E
:102E5B003AA801FCAD03D001D002D003D007D006B5
:102E6B0011049BE5294528707C806E90400351E04E
:102E7B00FEA3E0FF90400353E0F8A3E0F9A3E0FAD0
:102E8B00A3E0FBEF2BFFEE3AFEE439FDE438FCE464
:102E9B00FB7A01F9F8C311032650028040904003DE
:102EAB0051E0FEA3E0FF90400353A3A3A3E0F97A04
:102EBB00007B00C003C002C001AB21AA22A923E9F9
:102ECB002405F9E43AA801FCAD03D001D002D003EC
:102EDB0011049BE5294528700C752C7022E4F5280C
:102EEB00F529752C3022E55D700B90400349E020ED
:102EFB00E3030131C7E513603FE4F508E47F01FE0E
:102F0B00FDFCA908A80111034AA905AA06AB07AF46
:102F1B0013E4FCFDFEEB5FFFEF600AE50804FF1115
:102F2B0050D0E4F511E50804FF115CB80508E5087D
:102F3B00C3940840C7E4F513E51C6003E4F511E501
:102F4B001E6003E4F511E51164026003E4F50BE583
:102F5B001114602C1460781470030130BE147003CC
:102F6B000131AD240460030131C7E4F51C75090977
:102F7B00F50AF51AF518E51E60030131C70131C4D6
:102F8B00AF09EF75F040A485F00CF50DAF09EF75A7
:102F9B00F040A485F00EF50FE509B4090301318A61
:102FAB00E47F01FEFDFCC3E5099401F9F811034A26
:102FBB00A905AA06AB07AF12E4FCFDFEEB5FFFEF22
:102FCB006033AF09115566AF09115CB80131A9E443
:102FDB00F51AF518E509C39409501DE47F01FEFDB0
:102FEB00FCC3E5099401F9F811034AAB07AF12EBE7
:102FFB005FFFEF700301310BAF097E0074052FF9F2
:10300B00EE3403FA7B4111007EFD7C00AF09EF75B6
:10301B00F040A42DFFEC35F0FEC3E50D9FE50C9EB3
:10302B0040030130BAAE0CAF0D7C007D151100C40E
:10303B0074082FF974403EFA7B0111007E6023AEB9
:10304B000CAF0D1100C474082FF974403EFA110037
:10305B007EC39401FFE50AA807088002C333D8FC9E
:10306B00600A050DE50D7090050C808CE47F01FE68
:10307B00FDFCC3E5099401F9F811034AA905AA0659
:10308B00AB07AF1BE4FCFDEB5FFFEF6003751801B3
:10309B00AF0DAE0C115AC2050DE50D7002050C05F6
:1030AB000BE518700AE50BC3951550030131C77575
:1030BB00110322E509C39409501CE47F01FEFDFCBA
:1030CB00C3E5099401F9F811034AAB07AF12EB5FA3
:1030DB00FFEF7002802AAF097E0074052FF9EE34E2
:1030EB0003FA7B4111007EFD7C00AF09EF75F040C8
:1030FB00A42DFFEC35F0FEC3E50F9FE50E9E4004BB
:10310B0075110422AE0EAF0F7C007D151100C47437
:10311B00082FF974403EFA7B0111007E6023AE0E3E
:10312B00AF0F1100C474082FF974403EFA11007EE2
:10313B00C39401FFE50AA807088002C333D8FC60DB
:10314B000A050FE50F708F050E808BAE0EAF0F7C4F
:10315B00007D151100C474092FF974403EFA7B01F0
:10316B0011035D11595DE47BEE7A02F9F8D311037B
:10317B00265049E51A600AE50D150D7002150C80F5
:10318B001DAF0FAE0E1118F6050FE50F7002050EF1
:10319B00E4F518C3E50F950DE50E950C401E751162
:1031AB000222E5090475F00A8485F009E50970022D
:1031BB000509E509B40902050A75110122E0FF11A1
:1031CB0031DD90400085E0FF1131DD90400085E05E
:1031DB00FF0DEF6409600301329AED6059C2AFC273
:1031EB00B5D2B5D2AFE4904002A2F00000000000CF
:1031FB0000000000000000000000000000000000C4
:10320B0000000000000000000000000000000000B3
:10321B0000000000000000000000000000000000A3
:10322B000000000000000000904002A2E004F0E06B
:10323B00B403B8013411C2AFC2B5E4904002A3F09D
:10324B000000000000000000000000000000000073
:10325B000000000000000000000000000000000063
:10326B000000000000000000000000000000000053
:10327B000000000000000000000000000090400271
:10328B00A3E004F0E0B403B8D2B5D2AF013411C35C
:10329B00EF9401FF7401A807088002C333D8FC9098
:1032AB004002A5F0E0F4A3F0ED70030133ABC2AF25
:1032BB00E09007F010F0A37401F000000000000094
:1032CB0000000000000000000000E4F0000000001F
:1032DB0000000000000000000000000000000000E3
:1032EB0000000000000000000000000000000000D3
:1032FB0000000000000000000000000000000000C3
:10330B0000000000000000000000000000000000B2
:10331B0000000000000000000000000000000000A2
:10332B000000000000000000000000000000000092
:10333B000000000000000000000000000000000082
:10334B000000000000000000000000000000000072
:10335B000000000000000000000000000000000062
:10336B000000000000000000000000000000000052
:10337B000000000000000000000000000000000042
:10338B000000000000000000000000000000000032
:10339B00000000000000000000000000D2AF8066BB
:1033AB00C2AF904002A6E09007F010F0A37401F0BA
:1033BB00E4904002A4F000000000000000000000B8
:1033CB0000000000000000000000000000000000F2
:1033DB0000000000000000000000000000000000E2
:1033EB0000000000000000000000000000000000D2
:1033FB00000000904002A4E004F0E0B403B8E490B5
:10340B0007F011F0D2AF0000000000000000000038
:10341B0000000000000000000000000000000000A1
:10342B000000000000000000000000000000000091
:10343B000000000000000000000000000000000081
:10344B000000000000000000000000000000000071
:10345B00000022F0E0FF90400052E4F0A3F0A3F054
:10346B00FBFAF99040004FEBF0A3EAF0A3E9F0EF81
:10347B0064096003013522C2B590400296F000004A
:10348B000000000000000000000000000000000031
:10349B000000000000000000000000000000000021
:1034AB000000000000000000000000000000000011
:1034BB00000000000000000000000090400296E0B9
:1034CB0004F0E0B419B8D2B5E490400297F00000D4
:1034DB0000000000000000000000000000000000E1
:1034EB0000000000000000000000000000000000D1
:1034FB0000000000000000000000000000000000C1
:10350B00000000000000000000000090400297E067
:10351B0004F0E0B419B822C3EF9401FF7401A807BB
:10352B00088002C333D8FC9040029AF0E0F4A3F079
:10353B00C2AFE09007F010F0A37401F000000000A0
:10354B000000000000000000000000000000000070
:10355B000000000000000000000000000000000060
:10356B000000000000000000000000000000000050
:10357B00000000009007F010E09040029CF0D2AFEA
:10358B009040004FE0FBA3E0FAA3E0F9EA494B605F
:10359B000A9040029CE0FFEF1100B0E490400298CB
:1035AB00F000000000000000000000000000000020
:1035BB000000000000000000000000000000000000
:1035CB0000000000000000000000000000000000F0
:1035DB000000000000000000000000000000904010
:1035EB000298E004F0E0B419B8C2AFE49007F01110
:1035FB00F0000000000000000000000000000000D0
:10360B0000000000000000000000000000000000AF
:10361B00000000000000000000000000000000009F
:10362B000000000000000000009007F010E0904048
:10363B00029CF0D2AF90400052E0FBA3E0FAA3E073
:10364B00F9EA494B600A9040029CE0FFEF1100B091
:10365B00E490400299F00000000000000000000020
:10366B00000000000000000000000000000000004F
:10367B00000000000000000000000000000000003F
:10368B00000000000000000000000000000000002F
:10369B0000000090400299E004F0E0B419B82290C9
:1036AB00400089EFF0ED6008E4904002B6F0A3F023
:1036BB00904002B6E0B401037F0122904002BB743C
:1036CB0001F0E4A3F0904002BEF0904002BD04F084
:1036DB00E4F55C90400089E0FF1134619040008973
:1036EB00E0FF7DF01172B2904002BEE0C39408403F
:1036FB0003013827114205904002B9EFF011420542
:10370B00904002BAEFF0904002B9E0B4010EA3E092
:10371B00B40109904002B67401F0FF22904002BA46
:10372B00E0FF904002B9E06F6008E0904002B8F013
:10373B008058904002B7E0FF904002BBE0C39F501F
:10374B001E904002BEE07E0024BFF9EE3402FA7BED
:10375B004111007EFF904002BDE05F6019800E902A
:10376B004002B7E0FF904002BBE0B5070990400272
:10377B00B87401F08006E4904002B8F0904002B8B3
:10378B00E07007904002BBE0A3F0904002B8E090DD
:10379B004002BE6018E07E0024BFF9EE3402FA7BD3
:1037AB004111007EFF904002BDE04F8017E07E008C
:1037BB0024BFF9EE3402FA7B4111007EFF904002E8
:1037CB00BDE0F45F1100B090400089E0FF90400233
:1037DB00B8E0FD1131DD904002BBE004F0904002F7
:1037EB00BDE025E0F0E060030136F2A3E07E0024AB
:1037FB00BFF9EE3402FA7B4111007E655C2496F929
:10380B00EE3401FA7B4111007EF55C904002BEE084
:10381B0004F0904002BD7401F00136F2E55C7007D4
:10382B00904002BFE070037F012290400089E07E50
:10383B00002405F9EE3403FA7B4111007EFD7C0078
:10384B0090400089E075F040A42DFEEC35F09040DF
:10385B0002C9F0A3CEF0904002C77409F07B417A05
:10386B000279BFC003C001904002C9E0FEA3E0FF94
:10387B007D151100C474002FF974403EA801FC7D26
:10388B0001D001D0037E007F0911049B9040008979
:10389B00E0FF7E002405F9EE3403FA7B417401113D
:1038AB000094904002BCE0904002B7F0E0601074CE
:1038BB00052FF9EE3403FA11007EC39440400790B4
:1038CB004002B67401F07F00229040007CEDF09036
:1038DB0040007BEFF0AF1F30E10CEF75F01CA42420
:1038EB00BAF97400800AEF75F01CA424B7F97400C0
:1038FB0035F0FA7B411103A19040008CEBF0A3EA69
:10390B00F0A3E9F09040007BE0AF1F30E20CEF75C5
:10391B00F01CA424ACF97400800AEF75F01CA424ED
:10392B00A9F9740035F0FA7B411103A19040008F87
:10393B00EBF0A3EAF0A3E9F0E51F5403240AFDE43E
:10394B00FBFF1152B4E51F5403240AFD7F011152F2
:10395B00B49040007BE05404FFE51F04FD7B801115
:10396B0052B49040008FE0FBA3E0FAA3E02406F9E9
:10397B00E43AFA74F61100B09040007BE0FF9040FF
:10398B00008CE0FBA3E0FAA3E02402F9E43AFAEF9F
:10399B001100B0E51FC39404AF205002AF24904038
:1039AB00008CE0FBA3E0FAA3E02403F9E43AFAEF7E
:1039BB001100B0E51F5403FF9040008CE0FBA3E027
:1039CB00FAA3E02404F9E43AFAEF1100B0904000B6
:1039DB008CE0FBA3E0FAA3E02405F9E43AFAE41146
:1039EB0000B09040007CE07003013AA6C454F04450
:1039FB000CFF9040008CE0FBA3E0FAA3E02406F957
:103A0B00E43AFAEF1100B09040008CE0FBA3E0FA2F
:103A1B00A3E02407F9E43AFAC003C002C001AF1FC8
:103A2B00EF75F01CA424C0F9740035F0FA7B41113A
:103A3B0003A19040004AEBF0A3EAF0A3E9F0904019
:103A4B00007CE09040004DF0D001D002D003116C0F
:103A5B008DAF1FEF75F01CA424C3F9740035F0FA79
:103A6B007B41110190FF9040007CE0FDC3EF9DFF77
:103A7B00E5F094008FF01101E09040007CE0FDAF89
:103A8B001FEF75F01CA424C0F9740035F0FA09E996
:103A9B0070010AE48DF01101B480169040008CE0A7
:103AAB00FBA3E0FAA3E02406F9E43AFA740C110044
:103ABB00B09040007BE05402FFE51F5403240AFD45
:103ACB007BC50152B490400087EFF0E075F040A445
:103ADB00FF904002B3E5F0F0A3EFF090400087E0D9
:103AEB007E002405F9EE3403FA7B41E41100B0901B
:103AFB004002B5F0904002B3E0FEA3E0FF7C007DF6
:103B0B00151100C474002FF974403EFA7B01E411C7
:103B1B0000B0904002B3E0FEA3E0FF1100C47401BB
:103B2B002FF974403EFAE41100B0904002B3E0FE6E
:103B3B00A3E0FF1100C474022FF974403EFAE411A4
:103B4B0000B0904002B3E0FEA3E0FF1100C4740389
:103B5B002FF974403EFAE41100B0904002B3E0FE3E
:103B6B00A3E0FF1100C474042FF974403EFAE41172
:103B7B0000B0904002B3E0FEA3E0FF1100C4740557
:103B8B002FF974403EFAE41100B0904002B3E0FE0E
:103B9B00A3E0FF1100C474062FF974403EFAE41140
:103BAB0000B0904002B3E0FEA3E0FF1100C4740725
:103BBB002FF974403EFAE41100B0904002B3E0FEDE
:103BCB00A3E0FF1100C474082FF974403EFAE4110E
:103BDB0000B0FFFEFDC005C006C007904002B3E079
:103BEB00FEA3E0FF7D151100C474092FF974403E4C
:103BFB00FAD007D006D00511037A904002B3E0FE4D
:103C0B00A3E0FF7C007D151100C4740D2FF97440E7
:103C1B003EFAE41100B0904002B3E0FEA3E0FF11C6
:103C2B0000C4740E2FF974403EFAE41100B09040BA
:103C3B0002B3E0FEA3E0FF1100C474102FF974402F
:103C4B003EFAE41100B0904002B3E0FEA3E0FF1196
:103C5B0000C474112FF974403EFAE41100B0904087
:103C6B0002B3E0FEA3E0FF1100C474122FF97440FD
:103C7B003EFA74801100B0904002B3E0FEA3E0FF67
:103C8B001100C474132FF974403EFA748075F00060
:103C9B001101E0904002B4E004F07007904002B3D1
:103CAB00E004F0904002B5E004F0E06440600301F2
:103CBB003AFF22E4F55DE55D904003487005740A18
:103CCB00F08003740BF0745A2406F9E43409FA7B80
:103CDB0081C003C002C00178467C037D41D001D076
:103CEB0002D0037E007F0211049B90400347E0C388
:103CFB00943090400341F078467C037D417B817A80
:103D0B0009795A7E007F0211049B90400346E0C361
:103D1B00943075F00AA4FFA3E0C394302F904003B6
:103D2B0042F0745A2403F9E43409FA7B81C003C0CE
:103D3B0002C00178467C037D41D001D002D0037EC6
:103D4B00007F0211049B90400346E0C3943075F052
:103D5B000AA4FFA3E0C394302F90400343F07846AE
:103D6B007C037D417B817A0979637E007F0211049C
:103D7B009B90400346E0C3943075F00AA4FFA3E088
:103D8B00C394302F90400344F074632403F9E4345C
:103D9B0009FA7B81C003C002C00178467C037D41D8
:103DAB00D001D002D0037E007F0211049B90400310
:103DBB0046E0C3943075F00AA4FFA3E0C394302F00
:103DCB0090400345F07B017A00790111007E904011
:103DDB000349F0E41100B09040034C74FFF09040A5
:103DEB000341E0C454F0FFA3E04F9040034DF0902B
:103DFB00400343E09040034EF090400344E090407A
:103E0B00034FF090400345E090400350F030DE123A
:103E1B0075C7AA75C755C2DEE490400349F0191166
:103E2B0000B0E4FFFE7D02FC1122A77F007E807DA7
:103E3B00037C001122A7E55D704390400349E054D9
:103E4B0007701D7B087AF0791411007E20E04890F2
:103E5B00400349E020E640E07B017A0079018015C0
:103E6B007B017A00790011007E702C90400349E0B1
:103E7B0020E624E0091100B0116EAF801A11772DE6
:103E8B0090400349E054077006E04410F08008901E
:103E9B00400349E054EFF001740B90400083EDF0C8
:103EAB00EF6003013F8DE014B40F00400301405C51
:103EBB0090003ECA75F003A4C58325F0C58373013A
:103ECB003EF7013F01013F0B013F15013F1F013F32
:103EDB0029013F33013F3D013F47013F51013F5B0B
:103EEB00013F65013F6F013F79013F839040008B9C
:103EFB00E5ABF001405C9040008BE5ACF001405C21
:103F0B009040008BE5ADF001405C9040008BE5AE3E
:103F1B00F001405C9040008BE5AFF001405C9040BD
:103F2B00008BE5B3F001405C9040008BE5B4F001F1
:103F3B00405C9040008BE5B5F001405C9040008BFD
:103F4B00E5B6F001405C9040008BE5B7F001405CBA
:103F5B009040008BE5BBF001405C9040008BE5BCD2
:103F6B00F001405C9040008BE5BDF001405C90405F
:103F7B00008BE5BEF001405C9040008BE5BFF0018B
:103F8B00405C90400083E014B40F00400301405CA0
:103F9B0090003FAA75F003A4C58325F0C583730178
:103FAB003FD7013FE0013FE9013FF2013FFB0140F9
:103FBB000401400D01401601401F01402801403112
:103FCB0001403A01404301404C0140559040008B69
:103FDB00E5EBF0807C9040008BE5ECF0807390403B
:103FEB00008BE5EDF0806A9040008BE5EEF0806190
:103FFB009040008BE5EFF080589040008BE5F3F09C
:10400B00804F9040008BE5F4F080469040008BE5AC
:10401B00F5F0803D9040008BE5F6F0803490400049
:10402B008BE5F7F0802B9040008BE5FBF080229026
:10403B0040008BE5FCF080199040008BE5FDF08093
:10404B00109040008BE5FEF080079040008BE5FF61
:10405B00F09040008BE0FF22E52B6403452A6003C0
:10406B000140FBAB25AA26A927E92401F9E43AFA7A
:10407B0011007EFFE4FCFDFE780811034AC004C06A
:10408B0005C006C007AB25AA26A92711007EFFE4B1
:10409B00FCFDFE781011034AD003D002D001D000F2
:1040AB00EF4BFFEE4AFEED49FDEC48FCA804C005C2
:1040BB00C006C007AB25AA26A927E92402F9E43AD2
:1040CB00FA11007EFFD003D002D001EF4BFFEAFEC6
:1040DB00E9FDE8FC9040039211039590400392E0B8
:1040EB00FCA3E0FDA3E0FEA3E0FF1122A7BF0109A3
:1040FB00E4F528F529752C302275280075290AAFAF
:10410B004AAE49AD48AC477810110337AB21AA2210
:10411B00A923EF1100B0AF4AAE49AD48AC477808C0
:10412B00110337AB21AA22A923E92401F9E43AFAB6
:10413B00EF1100B0AF4AAE49AD48AC47AB21AA2254
:10414B00A923E92402F9E43AFAEF1100B0AF4EAE1D
:10415B004DAD4CAC4B7810110337AB21AA22A923E0
:10416B00E92403F9E43AFAEF1100B0AF4EAE4DADCE
:10417B004CAC4B7808110337AB21AA22A923E924B5
:10418B0004F9E43AFAEF1100B0AF4EAE4DAD4CACC2
:10419B004BAB21AA22A923E92405F9E43AFAEF1142
:1041AB0000B0E54FFFAB21AA22A923E92406F9E4CD
:1041BB003AFAEF1100B0AF50AB21AA22A923E924A0
:1041CB0007F9E43AFAEF1100B0E551FFAB21AA224F
:1041DB00A923E92408F9E43AFAEF1100B0AF52AB86
:1041EB0021AA22A923E92409F9E43AFAEF1100B034
:1041FB00E52945287003752C702290400089E0FF5B
:10420B00EF640960030142BCC2AFC2B500000000FD
:10421B00000000000000000000000000D2B500000C
:10422B000000000000000000000000000000000083
:10423B000000000000000000000000000000000073
:10424B000000000000000000000000000000000063
:10425B00000000000000A2B533904002A1F0D2AFE5
:10426B00E49040029DF00000000000000000000000
:10427B000000000000000000000000000000000033
:10428B000000000000000000000000000000000023
:10429B000000000000000000000000000000000013
:1042AB000000009040029DE004F0E0B403B801432D
:1042BB0094C3EF9401FF7401A807088002C333D89D
:1042CB00FC9040029FF0E0F4A3F0C2AFE09007F047
:1042DB0010F0A37401F000000000000000000000CB
:1042EB00000000000000E4F00000000000000000EF
:1042FB0000000000000000000000000000000000B3
:10430B0000000000000000000000000000000000A2
:10431B000000000000000000000000000000000092
:10432B009007F010E0904002A1F0D2AFE0FF904078
:10433B00029FE0FEEF5E904002A1F0E49040029EEF
:10434B00F000000000000000000000000000000072
:10435B000000000000000000000000000000000052
:10436B000000000000000000000000000000000042
:10437B000000000000000000000000000000904062
:10438B00029EE004F0E0B403B8904002A1E07F008D
:10439B0060027F01221143AC1143AC1143AC1143BA
:1043AB00AC00000000000000000000000000000056
:1043BB0000000000000000000000000000000000F2
:1043CB0000000000000000000000000000000000E2
:1043DB0000000000000000000000000000000000D2
:1043EB0000000000000000000000000000000000C2
:1043FB0000000000000000000000000000000000B2
:10440B0000000000000000000000000000000000A1
:10441B000000000000000000000000000000000091
:10442B000000000000000000000000000000000081
:10443B000000000000000000000000000000000071
:10444B000000000000000000000000000000000061
:10445B000000000000000000000000000000000051
:10446B000000000000000000000000000000000041
:10447B000000000000000000000000000000000031
:10448B000000000000000000000000000000000021
:10449B000000000000000000000000000000000011
:1044AB000000000000000000000000000000000001
:1044BB0000000000000000000000000000000000F1
:1044CB0000000000000000000000000000000000E1
:1044DB0000000000000000000000000000000000D1
:1044EB0000000000000000000000000000000000C1
:1044FB0000000000000000000000000000000000B1
:10450B0000000000000000000000000000000000A0
:10451B000000000000000000000000000000000090
:10452B00000000000000000000000000000022E579
:10453B005D640170030146CB90400317E014607477
:10454B001470030146078000E49040030FF0904085
:10455B00030FE07E002418F9EE3403FA7B411100BF
:10456B007EB401449040030FE0FFE4FCFDFB7A4076
:10457B00F9F81101FCE42FFFE43EFEED3402FDE4FB
:10458B003CFCE42FFFE43EFEED3401FDE43CA907C7
:10459B00AA06AB0590400310EDF0A3EAF0A3E9F0F7
:1045AB00904003177401F0229040030FE004F0E0F9
:1045BB00B4089B22C2AFD2B39002055574AAF090F7
:1045CB000202AA7455F0900205557480F074AAF09B
:1045DB00900202AA7455F090400310E0FBA3E0FA9E
:1045EB00A3E0F974301100B0D2AF1172D790400331
:1045FB0013110395904003177402F022904003109F
:10460B00E0FBA3E0FAA3E0F911007E30E719C2B397
:10461B009040030FE07E002418F9EE3403FA7B413F
:10462B00E41100B00146BF90400310E0FBA3E0FA99
:10463B00A3E0F911007E30E54490400310E0FBA3AA
:10464B00E0FAA3E0F911007E30E718C2B390400303
:10465B000FE07E002418F9EE3403FA7B41E41100DD
:10466B00B08018C2B39040030FE07E002418F9EE1F
:10467B003403FA7B4174021100B0E480379040039D
:10468B0013E0FCA3E0FDA3E0FEA3E0FF11595DE402
:10469B007B987A3AF9F8C31103265024C2B39040A1
:1046AB00030FE07E002418F9EE3403FA7B41740209
:1046BB001100B0E490400317F09002088874F0F0FA
:1046CB0022C3E52B9401FFE52A9400FE7C007D09B3
:1046DB001100D6904002EBEFF0C3E52B9401E52AD5
:1046EB0094004037E52B9401FFE52A9400FE7C00F3
:1046FB007D091100D6ED4C7022E0D394404002802E
:10470B001AAB25AA26A92711007E904002EAF0E0F9
:10471B00C394014006E0D394094009E4F528F52938
:10472B00752C3022904002EAE0C39401FF7401A87B
:10473B0007088002C333D8FC4213751C01E47F01C8
:10474B00FEFDFC904002EAE0C39401F9F811034A24
:10475B00110319EF521E751D01A3E0FF904002EAF1
:10476B00E07C002405F9EC3403FA7B41EF1100B037
:10477B00904002EAE075F040A4FF904002ECE5F0B7
:10478B00F0A3EFF0E4904002E9F0904002EBE0FF81
:10479B00904002E9E0C39F400301483FAB25AA26A6
:1047AB00A927E92401F9E43AFAE075F009A429F9FB
:1047BB00EA35F0FAC003C001904002ECE0FEA3E042
:1047CB00FF7C007D151100C474002FF974403EA8C6
:1047DB0001FC7D01D001D0037E007F0911049B9069
:1047EB004002ECE0FEA3E0FF7C007D151100C474D9
:1047FB00082FF974403EFA7B0111007ED3940940D7
:10480B0019904002ECE0FEA3E0FF1100C474082FE6
:10481B00F974403EFA74091100B0904002EDE004C7
:10482B00F07007904002ECE004F0904002E9E004E5
:10483B00F0014795E4F528F529752C70229040007E
:10484B0055EBF0A3EAF0A3E9F090400055E0FBA391
:10485B00E0FAA3E0F911007EFD540FFF74017E0016
:10486B00A807088005C333CE33CED8F9F5588E5739
:10487B00EDC45407FF7401A807088002C333D8FCAA
:10488B00F5591176B3EF60037F012211715E9040F1
:10489B000055E0FBA3E0FAA3E02401117253904012
:1048AB000055E0FBA3E0FAA3E02402117253904001
:1048BB000055E0FBA3E0FAA3E024031172539040F0
:1048CB000055E0FBA3E0FAA3E02404F9E43AFA1163
:1048DB00007EFF1171F511719990400058E0FBA318
:1048EB00E0FAA3E0F911719590400058E0FBA3E0CA
:1048FB00FAA3E0240111719190400058E0FBA3E072
:10490B00FAA3E0240211719190400058E0FBA3E060
:10491B00FAA3E02403F9E43AFAEF1100B0E49007AC
:10492B00F003F090400055E0FBA3E0FAA3E0240174
:10493B00F9E43AFA11007E547FFF90400058E0FBF7
:10494B00A3E0FAA3E0F911007E6F601490400055CC
:10495B00E0FBA3E0FAA3E0F911007E44801100B064
:10496B0090400055E0FBA3E0FAA3E02402F9E43AFF
:10497B00FA11007EFF90400058E0FBA3E0FAA3E0A1
:10498B002401F9E43AFA11007E6F6014904000554F
:10499B00E0FBA3E0FAA3E0F911007E44801100B024
:1049AB007F0022E52B6401452A7073AB25AA26A94B
:1049BB002711007E9040037CF0E0FF7B417A037966
:1049CB007F115FA7BF0103014AFF752800752903FB
:1049DB009040037CE0AB21AA22A9231100B09040A8
:1049EB00037FE0FEA3E0EEFFAB21AA22A923E9247B
:1049FB0001F9E43AFAEF1100B09040037FE0A3E035
:104A0B00FFAB21AA22A923E92402F9E43AFAEF1118
:104A1B0000B0E52945286003014B07014AFBE52B54
:104A2B006403452A6003014AFFAB25AA26A9271177
:104A3B00007E9040037CF0AB25AA26A927E9240130
:104A4B00F9E43AFA11007EFEAB25AA26A927E92440
:104A5B0002F9E43AFA11007E7C002400FFEC3E9050
:104A6B0040037DF0A3EFF0752800752901904003FA
:104A7B007CE0AB21AA22A9231100B09040037D74E6
:104A8B00FFF5F011017A45F060609040037CE0FF88
:104A9B007B417A03797F115FA7BF0102805690405B
:104AAB00037FE0FEA3E0EEFFAB21AA22A923AC28F3
:104ABB00AD29E92DF9EA3CFAEF1100B09040037FE4
:104ACB00E0A3E0FFAB21AA22A923E5292401FDE401
:104ADB003528FCE92DF9EA3CFAEF1100B0740225F8
:104AEB0029F529E43528F5288091E5294528700C0E
:104AFB00752C7022E4F528F529752C3022AE2AAFDF
:104B0B002B7C007D051100D690400373EFF0AE2A8D
:104B1B00AF2B7C007D051100D6ED4C700CE0C394DF
:104B2B00014006E0D3940A40028076E4F528F5298B
:104B3B00AB25AA26A9279040005BEBF0A3EAF0A3D4
:104B4B00E9F090400373E075F005A4AB21AA22A90C
:104B5B002329F9EA35F0FA9040005EEBF0A3EAF076
:104B6B00A3E9F0E490400372F090400373E0FF90F0
:104B7B00400372E0C39F50639040005EE0F9A3E0F6
:104B8B00FAA3E090400058C9F0A3EAF0A3E9F09033
:104B9B0040005BE0FBA3E0FAA3E0F9114848BF013A
:104BAB0009E4F528F529752C30229040005BE0FBD9
:104BBB00A3E0FAA3E02405F9E43AFA9040005BEB9A
:104BCB00F0A3EAF0A3E9F09040005FE475F0041164
:104BDB00016490400372E004F0808EAB21AA22A9FD
:104BEB0023AE029040005EA3E0FAA3E0AC02C399AF
:104BFB00F529EC9EF528AB25AA26A9279040005B4A
:104C0B00EBF0A3EAF0A3E9F0AB21AA22A923A3EBD3
:104C1B00F0A3EAF0A3E9F090400373E075F005A46C
:104C2B00FFAEF09040005EE0FBA3E0FAA3E0F8AC2F
:104C3B0002AD039040005BE0FBA3E0FAA3E0F911A7
:104C4B00049BE52945287003752C70229040006A5F
:104C5B00EBF0A3EAF0A3E9F0A3EDF0E075F002A40A
:104C6B00FF90400389E0FCA3E02FFFE5F03CFED36F
:104C7B00EF9440EE941F4003014D97E49040038561
:104C8B00F09040006DE0FF90400385E0C39F400330
:104C9B00014D979040006AE0FBA3E0FAA3E0F99086
:104CAB00400385E0FF7E00E92FF9EE3AFAC003C01E
:104CBB0002C00178867C037D41D001D002D0037FF6
:104CCB000111049B90400386E0C4540FA3F0904065
:104CDB000386E0540F90400388F090400387E0C3B5
:104CEB00940A5006E02430F0800890400387E024BB
:104CFB0037F090400388E0C3940A5006E02430F06C
:104D0B00800890400388E02437F090400387E0FF51
:104D1B00C00790400389E0FEA3E0FFE42FFFEE34D1
:104D2B0020FEE433FDE433FCE42FFFE43EFEED34E0
:104D3B0001FDE43CA907AA06AB05D0E01100B09039
:104D4B00400388E0FFC007A3E0FEA3E0FFE42FFFD2
:104D5B00EE3420FEE433FDE433FCEF2401FFE43EAC
:104D6B00FEED3401FDE43CA907AA06AB05D0E0112A
:104D7B0000B09040038AE02402F090400389E034B5
:104D8B0000F090400385E004F0014C8C2290400031
:104D9B0085EFF0FBE47F01FEFDFCC3EB9401F9F81A
:104DAB0011034AA804A905AA06AB07AF1BE4FCFD37
:104DBB00FEEB5FFFEF7003014EA61131C890400070
:104DCB0085E0FF1D1131DD904000851131C8904009
:104DDB000085E0C39401FF7401A807088002C33368
:104DEB00D8FC904002A8F0E0F4A3F0C2AFE090072B
:104DFB00F010F0A37401F0E4904002A7F000000063
:104E0B000000000000000000000000000000000097
:104E1B000000000000000000000000000000000087
:104E2B000000000000000000000000000000000077
:104E3B0000000000000000000000904002A7E0040A
:104E4B00F0E0B403B89007F01074FFF0D2AF00009D
:104E5B000000000000000000000000000000000047
:104E6B000000000000000000000000000000000037
:104E7B000000000000000000000000000000000027
:104E8B000000000000000000000000000000000017
:104E9B00000000000000000000002290400085E0B0
:104EAB00FF7D441172B222E52B452A6009E4F528F7
:104EBB00F529752C3022904002E47401F0904002E9
:104ECB00E4E0FF115566904002E4E004F0E0D39477
:104EDB000940EA752800752908AB21AA22A923E508
:104EEB00121100B0AB21AA22A923E92401F9E43A5B
:104EFB00FAE5151100B0904002FDE0C454F0FF90AC
:104F0B004002FCE0C4333354C04FFF904002FEE03C
:104F1B0025E025E04FFFA3E04FFFAB21AA22A923F9
:104F2B00E92402F9E43AFAEF1100B090400301E0F2
:104F3B00C454F0FF90400300E0C4333354C04FFF20
:104F4B0090400302E025E025E04FFFA3E04FFFABCD
:104F5B0021AA22A923E92403F9E43AFAEF1100B0BC
:104F6B0090400304E0C4333354C0FFAB21AA22A901
:104F7B0023E92404F9E43AFAEF1100B0AB21AA2299
:104F8B00A923E92405F9E43AFAE5161100B0AB219F
:104F9B00AA22A923E92406F9E43AFAE5101100B094
:104FAB00AB21AA22A923E92407F9E43AFAE51B115C
:104FBB0000B0E52945287003752C702290400084C1
:104FCB00EFF0541F110412501B00502401502D02FE
:104FDB00503603503F04504805505106505A075065
:104FEB00630E506C0F507510507E115087125090FD
:104FFB001350991450A21550AB1650B41750BD183E
:10500B0050C61900005012E4F528F529752C3022F2
:10501B0090400084E0FF01778790400084E0FF011F
:10502B00775590400084E0FF01779790400084E033
:10503B00FF0177A290400084E0FF0177AD90400024
:10504B0084E0FF0176CE90400084E0FF0177B890BA
:10505B00400084E0FF01776690400084E0FF01741C
:10506B004B90400084E0FF01746B90400084E0FFA4
:10507B0001748B90400084E0FF0175AA904000847E
:10508B00E0FF0174CB90400084E0FF0174AB9040D3
:10509B000084E0FF01754B90400084E0FF0174EB4E
:1050AB0090400084E0FF01750B90400084E0FF010D
:1050BB00752B90400084E0FF0175C990400084E09F
:1050CB00FF1175E822EF75F040A4FF904002B0E5A8
:1050DB00F0F0A3EFF0E4904002B2F0E4FFFEFDFC31
:1050EB00C005C006C007904002B0E0FEA3E0FF7D04
:1050FB00151100C474092FF974403EFA7B01D007D7
:10510B00D006D00511037A904002B0E0FEA3E0FF79
:10511B007C007D151100C4740D2FF974403EFAE428
:10512B001100B0904002B0E0FEA3E0FF1100C47488
:10513B000E2FF974403EFAE41100B0904002B0E03B
:10514B00FEA3E0FF1100C474102FF974403EFAE483
:10515B001100B0904002B0E0FEA3E0FF1100C47458
:10516B00112FF974403EFAE41100B0904002B0E008
:10517B00FEA3E0FF1100C474122FF974403EFA74C1
:10518B00801100B0904002B0E0FEA3E0FF1100C41C
:10519B0074132FF974403EFA748075F0001101E01E
:1051AB00904002B1E004F07007904002B0E004F0D0
:1051BB00904002B2E004F0E0644060030150E6224C
:1051CB00E52B6401452A60030152ABAB25AA26A946
:1051DB002711007E9040039EF0E0705CAB21AA2269
:1051EB00A9231100B090400396E0FFAB21AA22A99E
:1051FB0023E92401F9E43AFAEF1100B09040039748
:10520B00E0FFAB21AA22A923E92402F9E43AFAEF41
:10521B001100B090400398E0FFAB21AA22A923E92B
:10522B002403F9E43AFAEF1100B07528007529044C
:10523B00E5294528707280649040039EE0640170FC
:10524B005FAB21AA22A923041100B090400399E07F
:10525B00FFAB21AA22A923E92401F9E43AFAEF11C1
:10526B0000B09040039AE0FFAB21AA22A923E924C6
:10527B0002F9E43AFAEF1100B09040039BE0FFAB68
:10528B0021AA22A923E92403F9E43AFAEF1100B089
:10529B00752800752904E5294528700C752C70229A
:1052AB00E4F528F529752C3022EF7073ED14B40F4B
:1052BB0000400301539B900052D075F003A4C583AB
:1052CB0025F0C583730152FD0153000153030153B4
:1052DB000601530901530C01530F015312015315CE
:1052EB0001531801531B01531E0153210153240178
:1052FB0053278BAB228BAC228BAD228BAE228BAF89
:10530B00228BB3228BB4228BB5228BB6228BB72286
:10531B008BBB228BBC228BBD228BBE228BBF22ED83
:10532B0014B40F00506A9000534075F003A4C5836A
:10533B0025F0C5837301536D0153700153730153F2
:10534B007601537901537C01537F015382015385BD
:10535B0001538801538B01538E01539101539401D7
:10536B0053978BEB228BEC228BED228BEE228BEF68
:10537B00228BF3228BF4228BF5228BF6228BF722D6
:10538B008BFB228BFC228BFD228BFE22AF038FFF2C
:10539B0022E52B6401452A6002801AAB25AA26A9B7
:1053AB002711007E904002E6F0E0C394014006E036
:1053BB00D394094009E4F528F529752C3022904047
:1053CB0002E6E0AB21AA22A9231100B075280075D3
:1053DB002901904002E6E075F040A4FFA3E5F0F050
:1053EB00A3EFF0E4904002E5F0904002E6E07E008F
:1053FB002405F9EE3403FA7B4111007EFF90400245
:10540B00E5E0C39F5066904002E7E0FEA3E0FF7C1F
:10541B00007D151100C474002FF974403EFA7B0116
:10542B00C003C002C001AB21AA22A923AE28AF2919
:10543B00E92FF9EA3EA801FCAD03D001D002D0035D
:10544B007E007F0911049B74092529F529E4352871
:10545B00F528904002E8E004F07007904002E7E086
:10546B0004F0904002E5E004F00153F4E5294528EF
:10547B007003752C7022E52B6401452A6002801A9B
:10548B00AB25AA26A92711007E904002EFF0E0C3BE
:10549B0094014006E0D394094009E4F528F52975F9
:1054AB002C3022AB25AA26A92711007EAB21AA22DC
:1054BB00A9231100B0752800752901904002EFE077
:1054CB0075F040A4FFA3E5F0F0A3EFF0E4904002E9
:1054DB00EEF0904002EFE07E002405F9EE3403FA83
:1054EB007B4111007EFF904002EEE0C39F50629023
:1054FB004002F0E0FEA3E0FF7C007D151100C474B8
:10550B00122FF974403EFA7B01C003C002C001ABFD
:10551B0021AA22A923AE28AF29E92FF9EA3EA80137
:10552B00FCAD03D001D002D0037E007F0111049BA0
:10553B000529E52970020528904002F1E004F0707E
:10554B0007904002F0E004F0904002EEE004F0809F
:10555B0081E52945287003752C702290400086EF59
:10556B00F0E0FF7C0024FBF9EC3402FA7B41E41100
:10557B0000B0EF64097003015649E5186003751A12
:10558B000190400086E0FFC39401FE7401A8060859
:10559B008002C333D8FC904002AAF07B417A027997
:1055AB00ABC003C002C00109904000527441F0A38C
:1055BB007402F0A3E9F0D001D002D00311346E9045
:1055CB004002AAE0FFA3E05FFF904002AAE0B5070C
:1055DB001490400086E07E0024FBF9EE3402FA7B47
:1055EB004174028056904002AAE0FF904002ACE06A
:1055FB005F701490400086E07E0024FBF9EE3402CD
:10560B00FA7B417401803490400086E0FF7DCC1121
:10561B0072B290400086E0FF7DB41172B2904000F0
:10562B0086E0FF11420BEF701590400086E07E0084
:10563B0024FBF9EE3402FA7B4174031100B022F51E
:10564B0083759340E0FBA3E0FAA3E0F9904000726E
:10565B00EBF0A3EAF0A3E9F0E490400384F0904070
:10566B000072E0FBA3E0FAA3E0F990400384E0FFB3
:10567B00E92FF9E43AFA11007E601690400384E0BA
:10568B00D39464400301571A90400384E004F080E4
:10569B00CD90400384E0FF90400389E0FCA3E0FD44
:1056AB00EF2DFFE43CFED3EF9440EE941F5060903F
:1056BB00400384E0FF7E00C006C00790400389E0F2
:1056CB00FEA3E0FFE42FFFEE3420FEE433FDE433D2
:1056DB00FCE42FFFE43EFEED3401FDE43CA907AAF8
:1056EB0006AB05A807AC0690400072E0FBA3E0FAFE
:1056FB00A3E0F9D007D00611049B90400384E0FF90
:10570B009040038AE02FF090400389E03400F022B0
:10571B009040003FEBF0A3EAF0A3E9F0E55DB401A4
:10572B00037F0122D2B390400045E07002A3E070EA
:10573B000CC2B39002088874F0F07F0022C2AF90C5
:10574B0002055574AAF0900202AA7455F090020556
:10575B005574A0F090400042E0FBA3E0FAA3E0F9FF
:10576B0011007EFF9040003FE0FBA3E0FAA3E0F9BD
:10577B00EF1100B0D2AFE4F55EE55EC394C8504FB5
:10578B0090400042E0FBA3E0FAA3E0F911007EFF9A
:10579B009040003FE0FBA3E0FAA3E0F911007EB5D7
:1057AB00072990400046E024FFF090400045E0348C
:1057BB00FFF090400040E475F0011101649040004F
:1057CB0043E475F001110164015731055E80AAC2F3
:1057DB00B39002088874F0F07F0122E52B64044536
:1057EB002A600301589AAB25AA26A92711007E909F
:1057FB0040039FF0E07044AB25AA26A927E92401BA
:10580B00F9E43AFA11007E90400396F0AB25AA26F4
:10581B00A927E92402F9E43AFA11007E9040039794
:10582B00F0AB25AA26A927E92403F9E43AFA1100DB
:10583B007E90400398F0116CDA804B9040039FE010
:10584B006401704BAB25AA26A927E92401F9E43A98
:10585B00FA11007E90400399F0AB25AA26A927E9FF
:10586B002402F9E43AFA11007E9040039AF0AB253A
:10587B00AA26A927E92403F9E43AFA11007E9040FD
:10588B00039BF0116D27E4F528F529752C7022E4A4
:10589B00F528F529752C3022E490400389F0A3F00C
:1058AB007B817A0679421156577B817A06797D1175
:1058BB00565790400348E075F00E84E5F075F00301
:1058CB00A42415F582E4340011564A7B817A0679BB
:1058DB008D11565790400349E0540775F003A424EB
:1058EB0000F582E4340011564A7B817A06799D11CA
:1058FB0056577B417A03794A7D01114C577B817A4C
:10590B000679AD1156577B417A03794B7D01114CCA
:10591B00577B817A0679BD1156577B417A03794DB6
:10592B007D04114C577B817A0679CD1156577B81BB
:10593B007A0679DD1156577B817A0679E61156572F
:10594B007B817A0679E91156577B817A0679420178
:10595B005657D310AF01C3C0D09040006E110395C2
:10596B009040006EE0FCA3E0FDA3E0FEA3E0FFABE4
:10597B0056AA55A954A853C3110326504EE55624D5
:10598B0001FFE43555FEE43554FDE43553FCC0040A
:10599B00C005C006C0079040006EE0F8A3E0F9A375
:1059AB00E0FAA3E0FBC374FF9BFF74FF9AFE74FF46
:1059BB0099FD74FF98FCD003D002D001D000EF2BDF
:1059CB00FFEE3AFEED39FDEC38801F9040006EE0A3
:1059DB00F8A3E0F9A3E0FAA3E0FBC3E5569BFFE5D0
:1059EB00559AFEE55499FDE55398FC9040037811C8
:1059FB00039590400378E0FCA3E0FDA3E0FEA3E059
:105A0B00FFD0D092AF22E55D700B90400349E020B0
:105A1B00E303015AC19040030EE070077D017F093B
:105A2B001136AAE51D6003E4F514E5141460401467
:105A3B00605A24026003015AC1E4F51D904002E351
:105A4B0004F0E47F01FEFDFC904002E3E0C394010F
:105A5B00F9F811034AAB07AF1EEB5FFFEF6004755C
:105A6B00140122904002E3E004F0E0B409D4229048
:105A7B004002E3E0FF113AD0904002E3E0FF7D01EA
:105A8B001136AABF0102801275140222904002E364
:105A9B00E0FFE4FD1136AABF011CE47F01FEFDFC13
:105AAB00904002E3E0C39401F9F811034A11031982
:105ABB00EF521EE4F514229040007FEEF0A3EFF0BE
:105ACB009040007FE0FEA3E07806CEC313CE13D840
:105ADB00F9904002CB11345E904002CBE0FF7D5534
