:020000040002F8
:100000000202083A0002000000037FF0EB7002E7F2
:100010002289828A831410E704F593E022F593E4A1
:100020009322BB000327F722F8EB89828A831410FE
:10003000E706F593E028F022F593E4932822BB002D
:1000400002F722BB8000500989828A838B93159323
:10005000F022EF8DF0A4A8F0CF8CF0A428CE8DF084
:10006000A42EFE22BC000BBE0029EF8DF084FFAD54
:10007000F022E4CCF875F008EF2FFFEE33FEEC33FE
:10008000FCEE9DEC984005FCEE9DFE0FD5F0E9E4FA
:10009000CEFD22EDF8F5F0EE008420D21CFEADF08E
:1000A00075F008EF2FFFED33FD4007985006D5F0AF
:1000B000F222C398FD0FD5F0EA22C2D5EC30E70951
:1000C000B2D5E4C39DFDE49CFCEE30E716B2D5E466
:1000D000C39FFFE49EFE12020064C3E49DFDE49C06
:1000E000FC80041202006430D507C3E49FFFE49E45
:1000F000FE22C5F0F8A3E028F0C5F0F8E5821582ED
:1001000070021583E038F022A3F8E0C5F025F0F086
:10011000E582158270021583E0C838F0E822EB70A2
:1001200007E7F5F009E7192289828A831410E708A6
:10013000F593E0F5F0A3E022F593E493F5F0740174
:100140009322BB000B09C5F027F7C5F01937F7223A
:10015000F8EB89828A831410E707F593E80202001E
:10016000F2F59374019325F0F5F0E4933822BB0087
:1001700006F709A7F01922BB8000500D89828A83F7
:100180008B931593F0E5F0A3F022E88FF0A4CC8BCD
:10019000F0A42CFCE98EF0A42CFC8AF0EDA42CFC3D
:1001A000EA8EF0A4CDA8F08BF0A42DCC3825F0FD7C
:1001B000E98FF0A42CCD35F0FCEB8EF0A4FEA9F075
:1001C000EB8FF0A4CFC5F02ECD39FEE43CFCEAA4C1
:1001D0002DCE35F0FDE43CFC2275F008758200EF71
:1001E0002FFFEE33FECD33CDCC33CCC58233C58269
:1001F0009BED9AEC99E58298400CF582EE9BFEED22
:100200009AFDEC99FC0FD5F0D6E4CEFBE4CDFAE4F0
:10021000CCF9A88222B800C1B90059BA002DEC8BE4
:10022000F084CFCECDFCE5F0CBF97818EF2FFFEEC0
:1002300033FEED33FDEC33FCEB33FB10D703994079
:1002400004EB99FB0FD8E5E4F9FA227818EF2FFFB9
:10025000EE33FEED33FDEC33FCC933C910D7059BFB
:10026000E99A4007EC9BFCE99AF90FD8E0E4C9FA57
:10027000E4CCFB2275F010EF2FFFEE33FEED33FDE3
:10028000CC33CCC833C810D7079BEC9AE899400A06
:10029000ED9BFDEC9AFCE899F80FD5F0DAE4CDFB84
:1002A000E4CCFAE4C8F922CFF4CFCEF4CECDF4CD2D
:1002B000CCF4CC22EB9FF5F0EA9E42F0E99D42F0AF
:1002C000E89C45F022E8600FECC313FCED13FDEE53
:1002D00013FEEF13FFD8F122E8600FEFC333FFEEF8
:1002E00033FEED33FDEC33FCD8F122EB7006E9F878
:1002F000020204B889828A831410E706F593020289
:1003000004C4F593020204D0BB0006E9F80202051A
:1003100009BB8000500C89828A838B93159302025B
:10032000034022EB7006E9F8020204E089828A8326
:100330001410E706F593020204EDF593020204F9A6
:10034000ECF0A3EDF0A3EEF0A3EFF022EB7006E9E2
:10035000F80202051589828A831410E706F59302D4
:10036000020537F59302020560F8EB7006E9C80252
:1003700002051E89828A831410E707F593E80202BA
:100380000540F59302020560BB001CD093D0F0D06D
:10039000E0F8D0E0C9FBD0E0FAD0E0CBC8C0E0C0C4
:1003A000F0C0930202052EBB80005022D093D0F003
:1003B000D0E0F8D0E0C9F582D0E0CAF583D0E0CB38
:1003C00014C8C0E0C0F0C093889302020557D093D0
:1003D000D083D082D0E0D0E0D0E0E473D093D0835B
:1003E000D082F8E4937012740193700DA3A393F874
:1003F000740193F5828883E4737402936860EFA3B9
:10040000A3A380DFEF4E6022EF60010EEDBB00077B
:10041000F709DFFCA9F022BB8000500E89828A8395
:100420008B931593F0A3DFFCDEFA22EB7008E7094B
:10043000F608DFFA801B89828A831410E70AF59395
:10044000E0A3F608DFFA8009F593E493A3F608DF4A
:10045000F9ECFAA9F0EDFB2288F0EF60010E4E6096
:10046000F088F0ED60C51410E7E7CB700E88828C41
:10047000838B93E709F0A3DFFA80D61410E71C887A
:10048000848C858B9589828A83F593758620E0F02C
:10049000A3A3DFFADEF875860080B688848C858B8E
:1004A0009589828A83F593758620E493F0A3A3DF70
:1004B000F9DEF77586008099E6FC08E6FD08E6FEA1
:1004C00008E6FF22E0FCA3E0FDA3E0FEA3E0FF229C
:1004D000E493FC740193FD740293FE740393FF2272
:1004E000E6FB08E6F908E6FA08E6CBF822E0F8A30E
:1004F000E0F9A3E0FAA3E0FB22E493F8740193F996
:10050000740293FA740393FB22ECF608EDF608EEFE
:10051000F608EFF622E6FB08E6FA08E6F922FAE624
:10052000FB0808E6F925F0F618E6CA3AF622EBF6DB
:1005300008EAF608E9F622E0FBA3E0FAA3E0F922D4
:10054000F8E0FBA3A3E0F925F0F0E5821582700244
:100550001583E0FA38F022EBF0A3EAF0A3E9F022E9
:10056000E493FB740193FA740293F9224842425FC8
:100570005353544154004842425F4C535441540039
:10058000554E495F50524F4D00554E495F464C41C4
:100590005348004A50445F50524F4D004A50445F08
:1005A000464C415348005044535F50524F4D005009
:1005B00044535F464C4153480043435F50524F4DB4
:1005C0000043435F464C4153480055475F50524FEC
:1005D0004D0055475F464C415348004D5F50524FC8
:1005E0004D004D5F464C41534800504F5745525FB8
:1005F0004F4E0052455345545F434D4400524553BE
:1006000045545F50474D00434D444A554D505F4659
:10061000524F4D5F454C53450050474D4A554D5044
:100620005F46524F4D5F454C534500434D444A553C
:100630004D505F46524F4D5F53454C460050474D1D
:100640004A554D505F46524F4D5F53454C46000A48
:100650003D3D3D3D3D3D3D3D3D3D3D3D3D3D3D3DCA
:100660003D3D3D3D3D3D3D3D3D3D3D3D3D3D3D3DBA
:100670003D3D3D3D3D3D3D3D3D3D3D3D3D3D3D3DAA
:100680003D3D3D3D3D3D3D3D3D000A2052756E6E78
:10069000696E674D6F64653A20000A205265736584
:1006A00074526561736F6E3A20000A204E6577625E
:1006B0006F726E416464723A20000A204C6F676961
:1006C00063616C416464723A20000A20566572735B
:1006D000696F6E4E756D623A20000A20436F6D702F
:1006E000696C65446174653A200030372F32322FCF
:1006F0003038002C200031303A33363A3238000A94
:100700005B436F6E666967457865635D3A200046B6
:10071000696C655374617274416464723D002C208D
:1007200046696C65456E64416464723D000A5B43D2
:100730006F6E666967457865635D3A20496E7661DC
:100740006C69642066696C652073746172742061E1
:100750006464726573732E000A5B436F6E6669672B
:10076000457865635D3A20496E76616C6964206600
:10077000696C6520656E6420616464726573732EB4
:10078000000A5B436F6E666967457865635D3A2072
:10079000496E76616C696420636F6D6D616E642073
:1007A0006C656E6774682E09000A5B436F6E66693C
:1007B00067457865635D3A20436F6E666967206CB4
:1007C0006F672073706163652069732066756C6C58
:1007D0002E000A2D2D2D2D2D2D2D2D20000A436D9F
:1007E000646C656E203A20000A436D64547970652C
:1007F0003A20000A436D64446174613A20000A5251
:1008000065734C656E203A20000A526573466C6130
:10081000673A20004B4F004F4B000A52657344610A
:1008200074613A20004E455854004552524F5200D0
:1008300041424F525400454E440075C7AA75C755F2
:1008400075923F75C7AA75C75575A21875C7AA7561
:10085000C755759D0275C7AA75C75575C6A0787F1F
:10086000E4F6D8FD75815E020208950202BE26E418
:1008700093A3F85407240CC8C333C4540F4420C8AE
:10088000834004F456800146F6DFE4800C01020444
:10089000081020408090020920E47E019360CCA3E0
:1008A000FF543F30E509541FFEE493A360010ECFCF
:1008B00054E0B4E026E493FBA3E493FAA3E493F9B1
:1008C000A3E493C083C0821202003ED082D083A3EF
:1008D00009E970010ADFEADEE880BE54C025E06065
:1008E0002B408CE493A3FAE493A3F8E493A3C8C544
:1008F00082C8CAC583CA759340F0759302A3C8C560
:1009000082C8CAC583CADFE3DEE1808DE493A3F821
:10091000E493A34003F68001F208DFF40202089991
:10092000602A083B83056C830576830580830589EF
:1009300083059383059C8305A68305AF8305B9834F
:1009400005C18305CA8305D28305DB8305E255080B
:10095000268305EA8305F38305FD830607830619CD
:1009600083062B83063D0030372F32322F3038007C
:1009700031303A33363A32380090400780E0FCA3F9
:10098000E0FDA3E0FEA3E0FF51A9DBA804A905AAAE
:1009900006AB0790400040E0FEA3E0FFE4FCFDC38F
:1009A0005102B450034118DA51C375904007805189
:1009B0000340E490400BA0F090400BA0E0FF75F0E6
:1009C000CDA4244DF582E5F03400F583EF2583F5C1
:1009D00083759340E4F0A3F090400BA0E004F0E0B6
:1009E000B404D551B9D95188D851B04951B5B2E400
:1009F00090400BA0F090400BA0E0FF7E007C017DBA
:100A0000CD51005274442FF974003EFA9040001EFC
:100A10007441F0A3EAF0A3E9F09040001EE0FBA3CC
:100A2000E0FAA3E0240DF9E43AFAE4F5F051016E9E
:100A30009040001EE0FBA3E0FAA3E0240BF9E43AA7
:100A4000FAE4F5F051016E9040001EE0FBA3E0FADD
:100A5000A3E0246BF9E43AFA5102EB9040001EA3A4
:100A6000E0FAA3E024CBF9E43AFA51030890400BF2
:100A7000A0E0FF9040001EE0FBA3E0FAA3E02439D1
:100A8000F9EA3401FA514EB390400BA0E0FF9040D8
:100A9000001EE0FBA3E0FAA3E02460F9EA3401FAC7
:100AA000514EB390400BA0E0FF516D8C9040001E62
:100AB000E0FBA3E0FAA3E02413F9E43AFAC002C091
:100AC0000151011EFFAEF09040001EA3E0FAA3E02A
:100AD000240DF9E43AFA51011EFDEE45F0FEEF4D0A
:100AE000FFD001D002EE8FF051016E9040001EE069
:100AF000FBA3E0FAA3E02411F9E43AFAC002C00132
:100B000051011EFFAEF09040001EA3E0FAA3E024C6
:100B10000BF9E43AFA51011EFDEE45F0FEEF4DFFF0
:100B2000D001D002EE8FF051016E9040001EE0FB2C
:100B3000A3E0FAA3E0F951000C700CE92403F9E4F6
:100B40003AFA740151003E9040001EE0FBA3E0FA27
:100B5000A3E02408F9E43AFA51000CB405149040DB
:100B6000001EA3E0FAA3E02403F9E43AFA74055165
:100B7000003E9040001EE0FBA3E0FAA3E02403F94E
:100B8000E43AFA51000C14B40C0040034116EC9006
:100B9000020B9E75F003A4C58325F0C58373410B3A
:100BA000C2410C14410C54410CFC410D8D410DC748
:100BB000410E21410EE8410F7441106A4111484134
:100BC00012539040001EE0FBA3E0FAA3E0F95100AD
:100BD0000C70034116ECE92408F9E43AFA51000CD0
:100BE000B40102801B9040001EE0FBA3E0FAA3E0EA
:100BF0002408F9E43AFA51000C640360034116EC4E
:100C00009040001EA3E0FAA3E02403F9E43AFA744A
:100C1000024112A59040077FE0700351C744904005
:100C20000BA0E0FF51BF6051C3759040001EE0FB78
:100C3000A3E0FAA3E02404F9E43AFA51030890404F
:100C4000001EE0FBA3E0FAA3E02403F9E43AFA74FF
:100C5000034112A59040001EE0FBA3E0FAA3E024AC
:100C600004F9E43AFA5102EB51A9DBA804A905AA58
:100C700006AB079040077CE0FEA3E0FFE4FCFDD359
:100C80005102B47F0040027F0190400BA2EFF0E0E0
:100C9000601E9040001EE0FBA3E0FAA3E02409F9E7
:100CA000E43AFA51011E4402FFE5F08FF051016E63
:100CB00090400BA0E0FF51BDA2EF700A90400BA244
:100CC000E070034116EC90400BA0E0FF51B2E651FA
:100CD000C3759040001EE0FBA3E0FAA3E02404F9F2
:100CE000E43AFA5103089040001EE0FBA3E0FAA3A7
:100CF000E02403F9E43AFA74044112A59040001E7E
:100D0000E0FBA3E0FAA3E02404F9E43AFA5102EB91
:100D100051A9DBA804A905AA06AB0790400042E050
:100D2000FEA3E0FFE4FCFDD35102B47F0040027F4C
:100D30000190400BA2EFF0E0601E9040001EE0FB2F
:100D4000A3E0FAA3E02409F9E43AFA51011E442091
:100D5000FFE5F08FF051016E90400BA0E0FF51B025
:100D6000D4EF700A90400BA2E070034116EC904063
:100D70000BA0E0FF51BF9D9040001EE0FBA3E0FAF6
:100D8000A3E02403F9E43AFA74064112A590400B5B
:100D9000A0E0FF51C6C99040001EE0FBA3E0FAA30B
:100DA000E02408F9E43AFA51000CB40504E45100D7
:100DB0003E9040001EE0FBA3E0FAA3E02403F9E428
:100DC0003AFA74014112A59040001EE0FBA3E0FA3C
:100DD000A3E02408F9E43AFA51000CB4031490405B
:100DE000001EA3E0FAA3E02403F9E43AFA740741F1
:100DF00012A59040001EE0FBA3E0FAA3E02408F94E
:100E0000E43AFA51000C640260034116EC90400091
:100E10001EA3E0FAA3E02403F9E43AFA74054112B0
:100E2000A59040001EE0FBA3E0FAA3E02408F9E44B
:100E30003AFA51000CB402149040001EA3E0FAA349
:100E4000E02403F9E43AFA740B4112A59040001E25
:100E5000E0FBA3E0FAA3E02408F9E43AFA51000C1D
:100E6000B404149040001EA3E0FAA3E02403F9E4C4
:100E70003AFA740B4112A59040001EE0FBA3E0FA81
:100E8000A3E02417F9E43AFA51011EFFAEF09040B6
:100E9000001EA3E0FAA3E0240DF9E43AFA51011E82
:100EA000FDE5F05EFEED5FFF90400BA3EEF0A3EFDB
:100EB000F090400BA3E0A3E0543FFF90400BA3E46D
:100EC000F0A3EFF090400BA3E0FEA3E04E600341DF
:100ED00016EC9040001EE0FBA3E0FAA3E02403F927
:100EE000E43AFA74084112A59040001EE0FBA3E02A
:100EF000FAA3E02408F9E43AFA51000CB402149081
:100F000040001EA3E0FAA3E02403F9E43AFA740BCC
:100F10004112A59040001EE0FBA3E0FAA3E02408E4
:100F2000F9E43AFA51000CB404149040001EA3E016
:100F3000FAA3E02403F9E43AFA740B4112A59040B5
:100F40000BA0E0FF51B45451C3759040001EE0FB6C
:100F5000A3E0FAA3E02404F9E43AFA51030890402C
:100F6000001EE0FBA3E0FAA3E02403F9E43AFA74DC
:100F7000094112A59040001EE0FBA3E0FAA3E02483
:100F800008F9E43AFA51000CB402149040001EA390
:100F9000E0FAA3E02403F9E43AFA740B4112A590B5
:100FA00040001EE0FBA3E0FAA3E02408F9E43AFACB
:100FB00051000CB404149040001EA3E0FAA3E024F6
:100FC00003F9E43AFA740B4112A59040001EE0FBCD
:100FD000A3E0FAA3E02404F9E43AFA5102EB51A9A0
:100FE000DBA804A905AA06AB0790400778E0FEA39A
:100FF000E0FFE4FCFDD35102B450034116EC9040F5
:10100000001EE0FBA3E0FAA3E024C0F9EA3401FAF1
:1010100051000CFF9040001EA3E0FAA3E024BFF9AA
:10102000EA3401FAEF51003E90400BA0E0FFE4FDEE
:10103000FC518C6A90400BA0E0FF51B70351C3757F
:101040009040001EE0FBA3E0FAA3E02404F9E43A98
:10105000FA5103089040001EE0FBA3E0FAA3E0244D
:1010600003F9E43AFA740A4112A59040001EE0FB2D
:10107000A3E0FAA3E02408F9E43AFA51000CB40220
:10108000149040001EA3E0FAA3E02403F9E43AFA26
:10109000740B4112A59040001EE0FBA3E0FAA3E010
:1010A0002408F9E43AFA51000CB404149040001EEC
:1010B000A3E0FAA3E02403F9E43AFA740B4112A581
:1010C0009040001EE0FBA3E0FAA3E02404F9E43A18
:1010D000FA5102EB51A9DBA804A905AA06AB0790B7
:1010E00040077AE0FEA3E0FFE4FCFDD35102B47FA9
:1010F0000040027F0190400BA2EFF0E0601E9040A4
:10110000001EE0FBA3E0FAA3E02409F9E43AFA5157
:10111000011E4480FFE5F08FF051016E90400BA05E
:10112000E0FF51AB40EF700A90400BA2E07003412A
:1011300016EC9040001EE0FBA3E0FAA3E02403F9C4
:10114000E43AFA740C4112A590400BA0E0FF51ABB9
:1011500040EF70169040001EE0FBA3E0FAA3E024ED
:1011600003F9E43AFA74064112A590400BA0E0FF9F
:1011700074FFFDFC518C6A9040001EE0FBA3E0FA76
:10118000A3E024C3F9EA3401FA51000CFF904000B7
:101190001EA3E0FAA3E024BFF9EA3401FA51000CDF
:1011A000D39F501951B97A9040001EE0FBA3E0FA9A
:1011B000A3E02403F9E43AFA74064112A590400032
:1011C0001EE0FBA3E0FAA3E024C1F9EA3401FA51DE
:1011D000000C603751000CFF9040001EA3E0FAA302
:1011E000E024BFF9EA3401FA51000CD39F400341D7
:1011F00016EC51B97A9040001EE0FBA3E0FAA3E0A0
:101200002403F9E43AFA74064112A59040001EE066
:10121000FBA3E0FAA3E024C9F9EA3401FA5102EB96
:101220009040001EA3E0FAA3E024D9F9E43AFA5171
:101230000323D35102B440034116EC51B97A9040D4
:10124000001EE0FBA3E0FAA3E02403F9E43AFA74F9
:101250000680529040001EE0FBA3E0FAA3E02408C1
:10126000F9E43AFA51000CB402139040001EA3E0D6
:10127000FAA3E02403F9E43AFA740B8028904000C2
:101280001EE0FBA3E0FAA3E02408F9E43AFA5100D7
:101290000CB404179040001EA3E0FAA3E02403F965
:1012A000E43AFA740B51003E4116EC90400BA0E07A
:1012B000FF9040001EE0FBA3E0FAA3E02459F9E40C
:1012C0003AFA51850490400BA0E0FF9040001EE0E8
:1012D000FBA3E0FAA3E024B9F9E43AFA51850490BB
:1012E000400BA0E0FF9040001EE0FBA3E0FAA3E06B
:1012F00024D9F9E43AFA51850490400BA0E0FF901C
:1013000040001EE0FBA3E0FAA3E024F9F9E43AFA76
:1013100051850490400BA0E0FF9040001EE0FBA32D
:10132000E0FAA3E02419F9EA3401FA518504904067
:10133000001EE0FBA3E0FAA3E02413F9E43AFAC0AC
:1013400002C00151011EFFAEF09040001EA3E0FA62
:10135000A3E0240DF9E43AFA51011EFDEE45F0FE3A
:10136000EF4DFFD001D002EE8FF051016E904000A2
:101370001EE0FBA3E0FAA3E02411F9E43AFAC0026C
:10138000C00151011EFFAEF09040001EA3E0FAA381
:10139000E0240BF9E43AFA51011EFDEE45F0FEEFB0
:1013A0004DFFD001D002EE8FF051016E9040001E33
:1013B000E0FBA3E0FAA3E02417F9E43AFA51011E96
:1013C000FFAEF09040001EA3E0FAA3E0240BF9E486
:1013D0003AFA51011EFDE5F05EFEED5FFF90400B15
:1013E000A5EEF0A3EFF090400BA5E0FEA3E04E7059
:1013F0000341154B9040001EE0FBA3E0FAA3E0245C
:1014000003F9E43AFA740B51003E90400BA7E4F064
:10141000A304F0E490400BA1F090400BA7E0FEA3E2
:10142000E04E70034116EC90400BA7E0FEA3E0FFF6
:1014300090400BA5E0FCA3E0FDEC5EFEED5F4E707E
:101440000341152C9040001EE0FBA3E0FAA3E0242A
:1014500049F9E43AFA90400BA1E07E0029F9EE3A0E
:10146000FA51000C2401FFEE33FEC3EF9409EE6441
:1014700080948050229040001EA3E0FAA3E024490B
:10148000F9E43AFA90400BA1E07E0029F9EE3AFA2D
:1014900051000C04FF80027F099040001EE0FBA376
:1014A000E0FAA3E02449F9E43AFA90400BA1E07C89
:1014B0000029F9EC3AFAEF51003E9040001EE0FBA3
:1014C000A3E0FAA3E02439F9E43AFA90400BA1E052
:1014D0007E0029F9EE3AFA51000C60509040001E4F
:1014E000A3E0FAA3E02439F9E43AFA90400BA1E032
:1014F00029F9EE3AFA51000CFF9040001EA3E0FAE1
:10150000A3E02449F9E43AFA90400BA1E029F9EC70
:101510003AFA51000CC39F40139040001EA3E0FA1A
:10152000A3E02408F9E43AFAE451003E90400BA706
:10153000E0FEA3E025E0FFEE3390400BA7F0A3EF21
:10154000F090400BA1E004F041141990400BA0E092
:10155000FF51AB40EF703290400BA0E0FF75F0CD33
:10156000A4244DF582E5F03400F583EF2583F5835F
:10157000C083C082759340E04404FFA3E0759340AC
:10158000D082D083CFF0A3EFF09040001EE0FBA309
:10159000E0FAA3E024C2F9EA3401FA51000C6051E8
:1015A00051000CFF9040001EA3E0FAA3E024BFF915
:1015B000EA3401FA51000CD39F40034116A6904033
:1015C000001EE0FBA3E0FAA3E024C2F9EA3401FA2A
:1015D00051000CFF9040001EA3E0FAA3E024BFF9E5
:1015E000EA3401FA51000CC39F40034116EC411646
:1015F000DF9040001EE0FBA3E0FAA3E0246BF9E4D7
:101600003AFA5102EB9040001EA3E0FAA3E024B99D
:10161000F9E43AFA510323D35102B4502C9040001C
:101620001EE0FBA3E0FAA3E024CBF9E43AFA51026E
:10163000EB9040001EA3E0FAA3E024B9F9E43AFAE3
:10164000510323D35102B44002805B9040001EE05E
:10165000FBA3E0FAA3E0245DF9E43AFA5102EB902F
:1016600040001EA3E0FAA3E024B9F9E43AFA5103DA
:1016700023C35102B4500280669040001EE0FBA3D9
:10168000E0FAA3E024C5F9EA3401FA5102EB9040F4
:10169000001EA3E0FAA3E024B9F9E43AFA510323C7
:1016A000D35102B4400C90400BA0E0FF74FFFDFC4E
:1016B00080379040001EE0FBA3E0FAA3E024C5F9C8
:1016C000EA3401FA5102EB9040001EA3E0FAA3E0D5
:1016D00024B9F9E43AFA510323C35102B4500D90EE
:1016E000400BA0E0FF7D017C00518C6A9040001E01
:1016F000E0FBA3E0FAA3E0240FF9E43AFAC002C049
:101700000151011EFFAEF09040001EA3E0FAA3E0DD
:101710002409F9E43AFA51011EFDEE45F0FEEF4DC1
:10172000FFD001D002EE8FF051016E9040001EE01C
:10173000FBA3E0FAA3E02415F9E43AFA51011EFFF5
:10174000AEF09040001EA3E0FAA3E02409F9E43AC9
:10175000FA51011EFDE5F05EFEED5FFF90400BA526
:10176000EEF0A3EFF090400BA5E0FEA3E04E700377
:101770004118CA9040001EE0FBA3E0FAA3E0240356
:10178000F9E43AFA740551003E90400BA7E4F0A347
:1017900004F0E490400BA1F090400BA7E0FEA3E022
:1017A0004E70034118CA90400BA7E0FEA3E0FF90E3
:1017B000400BA5E0FCA3E0FDEC5EFEED5F4E700388
:1017C0004118AB9040001EE0FBA3E0FAA3E02429FF
:1017D000F9E43AFA90400BA1E07E0029F9EE3AFADA
:1017E00051000C2401FFEE33FEC3EF9409EE648038
:1017F000948050229040001EA3E0FAA3E02429F92F
:10180000E43AFA90400BA1E07E0029F9EE3AFA5151
:10181000000C04FF80027F099040001EE0FBA3E063
:10182000FAA3E02429F9E43AFA90400BA1E07C0005
:1018300029F9EC3AFAEF51003E9040001EE0FBA37C
:10184000E0FAA3E02419F9E43AFA90400BA1E07E13
:101850000029F9EE3AFA51000C60509040001EA3A6
:10186000E0FAA3E02419F9E43AFA90400BA1E02948
:10187000F9EE3AFA51000CFF9040001EA3E0FAA3E3
:10188000E02429F9E43AFA90400BA1E029F9EC3A76
:10189000FA51000CC39F40139040001EA3E0FAA32E
:1018A000E02408F9E43AFAE451003E90400BA7E046
:1018B000FEA3E025E0FFEE3390400BA7F0A3EFF08E
:1018C00090400BA1E004F041179890400BA0E00479
:1018D000F0E0C3940450034109F522AB25AA26A9E0
:1018E0002790400021EBF0A3EAF0A3E9F09040003C
:1018F00021E0FBA3E475F001510108A9F0FA5100C1
:101900000C14600604700B412633E52B6401452A54
:101910006003412633AB21AA22A92390400021EB8A
:10192000F0A3EAF0A3E9F090400021E0FBA3E47506
:10193000F001510108A9F0FA740151003EE4904011
:101940000BA9F090400BA9E0FF7E007C017DCD51FA
:10195000005274442FF974003EFA904000277441FD
:10196000F0A3EAF0A3E9F090400027E0FBA3E0FA3F
:10197000A3E02403F9E43AFA51000CFF904000215F
:10198000E0FBA3E475F001510108A9F0FAEF510062
:101990003E90400027E0FBA3E0FAA3E02415F9E421
:1019A0003AFA51011EE5F0FF90400021E0FBA3E46C
:1019B00075F001510108A9F0FAEF51003E90400086
:1019C00027E0FBA3E0FAA3E02415F9E43AFA510179
:1019D0001EFF90400021E0FBA3E475F001510108D7
:1019E000A9F0FAEF51003E90400027E0FBA3E0FA97
:1019F000A3E02409F9E43AFA51011EE5F0FF904012
:101A00000021E0FBA3E475F001510108A9F0FAEF11
:101A100051003E90400027E0FBA3E0FAA3E0240938
:101A2000F9E43AFA51011EFF90400021E0FBA3E4E3
:101A300075F001510108A9F0FAEF51003E90400005
:101A400027E0FBA3E0FAA3E0240FF9E43AFA5101FE
:101A50001EE5F0FF90400021E0FBA3E475F001518A
:101A60000108A9F0FAEF51003E90400027E0FBA3E7
:101A7000E0FAA3E0240FF9E43AFA51011EFF904086
:101A80000021E0FBA3E475F001510108A9F0FAEF91
:101A900051003E90400027E0FBA3E0FAA3E0240FB2
:101AA000F9E43AFAE4F5F051016E90400027E0FBCA
:101AB000A3E0FAA3E02417F9E43AFA51011EE5F095
:101AC000FF90400021E0FBA3E475F001510108A95B
:101AD000F0FAEF51003E90400027E0FBA3E0FAA3AC
:101AE000E02417F9E43AFA51011EFF90400021E08A
:101AF000FBA3E475F001510108A9F0FAEF51003E93
:101B000090400027E0FBA3E0FAA3E0240DF9E43ABB
:101B1000FA51011EE5F0FF90400021E0FBA3E475BF
:101B2000F001510108A9F0FAEF51003E9040002762
:101B3000E0FBA3E0FAA3E0240DF9E43AFA51011E18
:101B4000FF90400021E0FBA3E475F001510108A9DA
:101B5000F0FAEF51003E90400027E0FBA3E0FAA32B
:101B6000E0240BF9E43AFA51011EE5F0FF90400041
:101B700021E0FBA3E475F001510108A9F0FAEF514F
:101B8000003E90400027E0FBA3E0FAA3E0240BF91D
:101B9000E43AFA51011EFF90400021E0FBA3E475F6
:101BA000F001510108A9F0FAEF51003E90400027E2
:101BB000E0FBA3E0FAA3E02413F9E43AFA51011E92
:101BC000E5F0FF90400021E0FBA3E475F001510136
:101BD00008A9F0FAEF51003E90400027E0FBA3E097
:101BE000FAA3E02413F9E43AFA51011EFF904000F1
:101BF00021E0FBA3E475F001510108A9F0FAEF51CF
:101C0000003E90400027E0FBA3E0FAA3E02413F994
:101C1000E43AFAE4F5F051016E90400027E0FBA3AE
:101C2000E0FAA3E02411F9E43AFA51011EE5F0FFCD
:101C300090400021E0FBA3E475F001510108A9F0F8
:101C4000FAEF51003E90400027E0FBA3E0FAA3E04A
:101C50002411F9E43AFA51011EFF90400021E0FB03
:101C6000A3E475F001510108A9F0FAEF51003E908C
:101C7000400027E0FBA3E0FAA3E02411F9E43AFADC
:101C8000E4F5F051016E90400027E0FBA3E0FAA3D9
:101C9000E02419F9E43AFA90400024EBF0A3EAF0CA
:101CA000A3E9F0E490400BAAF090400024E0FBA3ED
:101CB000E475F001510108A9F0FA51000C540FC469
:101CC00054F0FF90400024E0FBA3E475F0015101C3
:101CD00008A9F0FA51000C540F4FFF90400021E08A
:101CE000FBA3E475F001510108A9F0FAEF51003EA1
:101CF00090400BAAE004F0E0B408AE90400027E06A
:101D0000FBA3E0FAA3E02429F9E43AFA9040002486
:101D1000EBF0A3EAF0A3E9F0E490400BAAF09040C6
:101D20000024E0FBA3E475F001510108A9F0FA5189
:101D3000000C540FC454F0FF90400024E0FBA3E4D7
:101D400075F001510108A9F0FA51000C540F4FFF32
:101D500090400021E0FBA3E475F001510108A9F0D7
:101D6000FAEF51003E90400BAAE004F0E0B408AE58
:101D700090400027E0FBA3E0FAA3E02439F9E43A1D
:101D8000FA90400024EBF0A3EAF0A3E9F0E49040DD
:101D90000BAAF090400024E0FBA3E475F001510190
:101DA00008A9F0FA51000C540FC454F0FF90400001
:101DB00024E0FBA3E475F001510108A9F0FA5100F9
:101DC0000C540F4FFF90400021E0FBA3E475F0019D
:101DD000510108A9F0FAEF51003E90400BAAE0042F
:101DE000F0E0B408AE90400027E0FBA3E0FAA3E0E7
:101DF0002449F9E43AFA90400024EBF0A3EAF0A376
:101E0000E9F0E490400BAAF090400024E0FBA3E44A
:101E100075F001510108A9F0FA51000C540FC45497
:101E2000F0FF90400024E0FBA3E475F001510108AD
:101E3000A9F0FA51000C540F4FFF90400021E0FB35
:101E4000A3E475F001510108A9F0FAEF51003E90AA
:101E5000400BAAE004F0E0B408AE90400027E0FB9D
:101E6000A3E0FAA3E024C2F9EA3401FA51000CFF1E
:101E700090400021E0FBA3E475F001510108A9F0B6
:101E8000FAEF51003E90400027E0FBA3E0FAA3E008
:101E900024C5F9EA3401FA5102EB78185102C590D1
:101EA000400021E0FBA3E475F001510108A9F0FA1C
:101EB000EF51003E90400027E0FBA3E0FAA3E024AE
:101EC000C5F9EA3401FA5102EB78105102C590408D
:101ED0000021E0FBA3E475F001510108A9F0FAEF3D
:101EE00051003E90400027E0FBA3E0FAA3E024C5A8
:101EF000F9EA3401FA5102EB78085102C59040002A
:101F000021E0FBA3E475F001510108A9F0FAEF51BB
:101F1000003E90400027E0FBA3E0FAA3E024C5F9CF
:101F2000EA3401FA5102EB90400021E0FBA3E47592
:101F3000F001510108A9F0FAEF51003E904000274E
:101F4000E0FBA3E0FAA3E024BFF9EA3401FA510070
:101F50000CFF90400021E0FBA3E475F00151010863
:101F6000A9F0FAEF51003E90400027E0FBA3E0FA11
:101F7000A3E02479F9E43AFA5102EB78085102C55A
:101F800090400021E0FBA3E475F001510108A9F0A5
:101F9000FAEF51003E90400027E0FBA3E0FAA3E0F7
:101FA0002479F9E43AFA5102EB90400021E0FBA3D6
:101FB000E475F001510108A9F0FAEF51003E90409C
:101FC0000027E0FBA3E0FAA3E02499F9E43AFA51F0
:101FD00002EB78085102C590400021E0FBA3E475B4
:101FE000F001510108A9F0FAEF51003E904000279E
:101FF000E0FBA3E0FAA3E02499F9E43AFA5102EBFA
:1020000090400021E0FBA3E475F001510108A9F024
:10201000FAEF51003E90400027E0FBA3E0FAA3E076
:1020200024B9F9E43AFA5102EB78185102C590400C
:102030000021E0FBA3E475F001510108A9F0FAEFDB
:1020400051003E90400027E0FBA3E0FAA3E024B952
:10205000F9E43AFA5102EB78105102C590400021A0
:10206000E0FBA3E475F001510108A9F0FAEF51007B
:102070003E90400027E0FBA3E0FAA3E024B9F9E496
:102080003AFA5102EB78085102C590400021E0FB7A
:10209000A3E475F001510108A9F0FAEF51003E9058
:1020A000400027E0FBA3E0FAA3E024B9F9E43AFA00
:1020B0005102EB90400021E0FBA3E475F0015101D7
:1020C00008A9F0FAEF51003E90400027E0FBA3E0A2
:1020D000FAA3E024BDF9E43AFA5102EB7818510270
:1020E000C590400021E0FBA3E475F001510108A96F
:1020F000F0FAEF51003E90400027E0FBA3E0FAA386
:10210000E024BDF9E43AFA5102EB78105102C5908F
:10211000400021E0FBA3E475F001510108A9F0FAA9
:10212000EF51003E90400027E0FBA3E0FAA3E0243B
:10213000BDF9E43AFA5102EB78085102C59040002B
:1021400021E0FBA3E475F001510108A9F0FAEF5179
:10215000003E90400027E0FBA3E0FAA3E024BDF995
:10216000E43AFA5102EB90400021E0FBA3E475F061
:1021700001510108A9F0FAEF51003E90400027E01C
:10218000FBA3E0FAA3E024CBF9E43AFA5102EB789E
:10219000185102C590400021E0FBA3E475F0015105
:1021A0000108A9F0FAEF51003E90400027E0FBA3A0
:1021B000E0FAA3E024CBF9E43AFA5102EB781051AB
:1021C00002C590400021E0FBA3E475F00151010835
:1021D000A9F0FAEF51003E90400027E0FBA3E0FA9F
:1021E000A3E024CBF9E43AFA5102EB78085102C596
:1021F00090400021E0FBA3E475F001510108A9F033
:10220000FAEF51003E90400027E0FBA3E0FAA3E084
:1022100024CBF9E43AFA5102EB90400021E0FBA311
:10222000E475F001510108A9F0FAEF51003E904029
:102230000027E0FBA3E0FAA3E0245DF9E43AFA51B9
:1022400002EB78185102C590400021E0FBA3E47531
:10225000F001510108A9F0FAEF51003E904000272B
:10226000E0FBA3E0FAA3E0245DF9E43AFA5102EBC3
:1022700078105102C590400021E0FBA3E475F00105
:10228000510108A9F0FAEF51003E90400027E0FB11
:10229000A3E0FAA3E0245DF9E43AFA5102EB7808EE
:1022A0005102C590400021E0FBA3E475F00151010B
:1022B00008A9F0FAEF51003E90400027E0FBA3E0B0
:1022C000FAA3E0245DF9E43AFA5102EB90400021D0
:1022D000E0FBA3E475F001510108A9F0FAEF510009
:1022E0003E90400027E0FBA3E0FAA3E0246BF9E472
:1022F0003AFA5102EB78185102C590400021E0FBF8
:10230000A3E475F001510108A9F0FAEF51003E90E5
:10231000400027E0FBA3E0FAA3E0246BF9E43AFADB
:102320005102EB78105102C590400021E0FBA3E47C
:1023300075F001510108A9F0FAEF51003E904000FC
:1023400027E0FBA3E0FAA3E0246BF9E43AFA510298
:10235000EB78085102C590400021E0FBA3E475F042
:1023600001510108A9F0FAEF51003E90400027E02A
:10237000FBA3E0FAA3E0246BF9E43AFA5102EB90F4
:10238000400021E0FBA3E475F001510108A9F0FA37
:10239000EF51003E90400027E0FBA3E0FAA3E024C9
:1023A000D9F9E43AFA5102EB78085102C59040009D
:1023B00021E0FBA3E475F001510108A9F0FAEF5107
:1023C000003E90400027E0FBA3E0FAA3E024D9F907
:1023D000E43AFA5102EB90400021E0FBA3E475F0EF
:1023E00001510108A9F0FAEF51003E90400027E0AA
:1023F000FBA3E0FAA3E024F9F9E43AFA5102EB78FE
:10240000085102C590400021E0FBA3E475F00151A2
:102410000108A9F0FAEF51003E90400027E0FBA32D
:10242000E0FAA3E024F9F9E43AFA5102EB90400013
:1024300021E0FBA3E475F001510108A9F0FAEF5186
:10244000003E90400027E0FBA3E0FAA3E02419F946
:10245000EA3401FA5102EB78185102C5904000218C
:10246000E0FBA3E475F001510108A9F0FAEF510077
:102470003E90400027E0FBA3E0FAA3E02419F9EA2C
:102480003401FA5102EB78105102C590400021E06E
:10249000FBA3E475F001510108A9F0FAEF51003EE9
:1024A00090400027E0FBA3E0FAA3E02419F9EA3406
:1024B00001FA5102EB78085102C590400021E0FB7F
:1024C000A3E475F001510108A9F0FAEF51003E9024
:1024D000400027E0FBA3E0FAA3E02419F9EA340165
:1024E000FA5102EB90400021E0FBA3E475F00151AA
:1024F0000108A9F0FAEF51003E90400027E0FBA34D
:10250000E0FAA3E0243AF9EA3401FA51000CFF9012
:10251000400021E0FBA3E475F001510108A9F0FAA5
:10252000EF51003E90400027E0FBA3E0FAA3E02437
:1025300061F9EA3401FA51000CFF90400021E0FB00
:10254000A3E475F001510108A9F0FAEF51003E90A3
:10255000400027E0FBA3E0FAA3E02495F9EA340168
:10256000FA51011EE5F0FF90400021E0FBA3E47565
:10257000F001510108A9F0FAEF51003E9040002708
:10258000E0FBA3E0FAA3E02495F9EA3401FA510153
:102590001EFF90400021E0FBA3E475F0015101080B
:1025A000A9F0FAEF51003E90400027E0FBA3E0FACB
:1025B000A3E02499F9EA3401FA51011EE5F0FF90F5
:1025C000400021E0FBA3E475F001510108A9F0FAF5
:1025D000EF51003E90400027E0FBA3E0FAA3E02487
:1025E00099F9EA3401FA51011EFF90400021E0FB05
:1025F000A3E475F001510108A9F0FAEF51003E90F3
:10260000400BA9E004F0E064046003411943AB21EE
:10261000AA22A923AE0290400021A3E0FAA3E0ACD5
:1026200002C399F529EC9EF528E5294528700C751B
:102630002C7022E4F528F529752C3022C3E52B9463
:1026400001E52A94005003412F80AB25AA26A92733
:102650009040002AEBF0A3EAF0A3E9F09040002AB2
:10266000E0FBA3E475F001510108A9F0FA51000C58
:102670001470034129F4147003412BC514700341F5
:102680002D9924036003412F80E52B6403452A60C4
:102690000BE52B640D452A6003412F809040002AF2
:1026A000E0FBA3E475F001510108A9F0FA51000C18
:1026B00090400BADF0E0D394034003412F80904055
:1026C000002AE0FBA3E475F001510108A9F0FA51DA
:1026D000000C90400BAEF0E52B640D452A600341E1
:1026E00027EB9040002AE0FBA3E475F001510108BC
:1026F000A9F0FA51000CFE9040002AE0FBA3E4751B
:10270000F001510108A9F0FA51000CFDEDFF9040D5
:102710000040EEF0A3EFF09040002AE0FBA3E47548
:10272000F001510108A9F0FA51000CFE9040002A76
:10273000E0FBA3E475F001510108A9F0FA51000C87
:10274000FDEDFF9040077CEEF0A3EFF09040002AF3
:10275000E0FBA3E475F001510108A9F0FA51000C67
:10276000FE9040002AE0FBA3E475F001510108A9A6
:10277000F0FA51000CFDEDFF90400042EEF0A3EFA7
:10278000F09040002AE0FBA3E475F001510108A994
:10279000F0FA51000CFE9040002AE0FBA3E475F033
:1027A00001510108A9F0FA51000CFDEDFF9040071E
:1027B00078EEF0A3EFF09040002AE0FBA3E475F080
:1027C00001510108A9F0FA51000CFE9040002AE0E6
:1027D000FBA3E475F001510108A9F0FA51000CFDCA
:1027E000EDFF9040077AEEF0A3EFF090400BADE0E4
:1027F000FF7E007C017DCD51005274442FF974009E
:102800003EFA904000307441F0A3EAF0A3E9F09062
:10281000400030E0FBA3E0FAA3E0F9740151003E70
:1028200090400BAEE0FF90400030E0FBA3E0FAA345
:10283000E02408F9E43AFAEF51003E51000C640339
:10284000601B90400030E0FBA3E0FAA3E02408F90D
:10285000E43AFA51000C64016003412F77E4FFFE73
:10286000FDFC90400030E0FBA3E0FAA3E02465F912
:10287000E43AFA510308E4FFFEFDFC90400030E02A
:10288000FBA3E0FAA3E024C5F9E43AFA510308E413
:10289000FFFEFDFC90400030E0FBA3E0FAA3E02443
:1028A00085F9E43AFA510308E4FFFEFDFC9040008C
:1028B00030E0FBA3E0FAA3E024E5F9E43AFA51039F
:1028C00008E4FFFEFDFC90400030E0FBA3E0FAA32B
:1028D000E02405F9EA3401FA510308E4FFFEFDFCA7
:1028E00090400030E0FBA3E0FAA3E02425F9EA34AD
:1028F00001FA510308E4FFFEFDFC90400030E0FBCC
:10290000A3E0FAA3E02473F9E43AFA510308E4FFE0
:10291000FEFDFC90400030E0FBA3E0FAA3E024D3EE
:10292000F9E43AFA510308E4FFFEFDFC9040003060
:10293000E0FBA3E0FAA3E02493F9E43AFA51030898
:10294000E4FFFEFDFC90400030E0FBA3E0FAA3E0D2
:1029500024F3F9E43AFA510308E4FFFEFDFC904049
:102960000030E0FBA3E0FAA3E02413F9EA3401FA13
:10297000510308E4FFFEFDFC90400030E0FBA3E0C3
:10298000FAA3E02433F9EA3401FA510308E4904051
:102990000BACF090400030E0FBA3E0FAA3E0242968
:1029A000F9E43AFA90400BACE07E0029F9EE3AFAED
:1029B000E451003E90400BACE004F0E0B410D4E4ED
:1029C00090400BACF090400030E0FBA3E0FAA3E0B5
:1029D0002449F9E43AFA90400BACE07E0029F9EE84
:1029E0003AFAE451003E90400BACE004F0E0B41041
:1029F000D4412F77E52B6451452A6003412F80E4B1
:102A000090400BABF090400BABE0FF7E007C017D73
:102A1000CD51005274442FF974003EFA90400030BA
:102A20007441F0A3EAF0A3E9F09040002AE0FBA390
:102A3000E475F001510108A9F0FA51000CFE904034
:102A4000002AE0FBA3E475F001510108A9F0FA5156
:102A5000000CFDEDFF90400030E0FBA3E0FAA3E0A6
:102A60002415F9E43AFAEE8FF051016E9040002AF5
:102A7000E0FBA3E475F001510108A9F0FA51000C44
:102A8000FE9040002AE0FBA3E475F001510108A983
:102A9000F0FA51000CFDEDFF90400030E0FBA3E0A8
:102AA000FAA3E02417F9E43AFAEE8FF051016E90A0
:102AB000400030E0FBA3E0FAA3E02419F9E43AFA7D
:102AC0009040002DEBF0A3EAF0A3E9F0E490400B76
:102AD000ACF09040002AE0FBA3E0FAA3E0F951003B
:102AE0000CC4540FFF9040002DE0FBA3E475F001EF
:102AF000510108A9F0FAEF51003E9040002AE0FB96
:102B0000A3E475F001510108A9F0FA51000C540F2B
:102B1000FF9040002DE0FBA3E475F001510108A9EE
:102B2000F0FAEF51003E90400BACE004F0E0B40846
:102B3000A190400030E0FBA3E0FAA3E02439F9E4DF
:102B40003AFA9040002DEBF0A3EAF0A3E9F0E4900C
:102B5000400BACF09040002AE0FBA3E0FAA3E0F9C0
:102B600051000CC4540FFF9040002DE0FBA3E4750E
:102B7000F001510108A9F0FAEF51003E9040002AFF
:102B8000E0FBA3E475F001510108A9F0FA51000C33
:102B9000540FFF9040002DE0FBA3E475F0015101BC
:102BA00008A9F0FAEF51003E90400BACE004F0E0D1
:102BB000B408A190400BABE004F0E0640460034172
:102BC0002A05412F77E52B6415452A6003412F80A4
:102BD000E490400BABF09040002AE0FBA3E475F0DA
:102BE00001510108A9F0FA51000CFF90400BABE035
:102BF000FE75F0CDA42406F582E5F03402F583EEEF
:102C00002583F583759340EFF09040002AE0FBA305
:102C1000E475F001510108A9F0FA51000CFFE4FC41
:102C2000FDFE78185102D890400BABE0FB75F0CD5B
:102C3000A42409F582E5F03402F583EB2583F583BE
:102C400075934051034090400BABE0FF75F0CDA46D
:102C50002409F582E5F03402F583EF2583F583C07E
:102C600083C082759340E0F8A3E0F9A3E0FAA3E003
:102C7000FBC000C001C002C0039040002AE0FBA3DB
:102C8000E475F001510108A9F0FA51000CFFE4FCD1
:102C9000FDFE78105102D8D003D002D001D000EB55
:102CA0004FFFEA4EFEE94DFDE84CFC759340D082A3
:102CB000D08351034090400BABE0FF75F0CDA424CE
:102CC00009F582E5F03402F583EF2583F583C083AF
:102CD000C082759340E0F8A3E0F9A3E0FAA3E0FB1B
:102CE000C000C001C002C0039040002AE0FBA3E482
:102CF00075F001510108A9F0FA51000CFFE4FCFD48
:102D0000FE78085102D8D003D002D001D000EB4F9A
:102D1000FFEA4EFEE94DFDE84CFC759340D082D0B1
:102D20008351034090400BABE0FF75F0CDA4240924
:102D3000F582E5F03402F583EF2583F583C083C087
:102D400082759340E0F8A3E0F9A3E0FAA3E0FBC0AA
:102D500000C001C002C0039040002AE0FBA3E4755C
:102D6000F001510108A9F0FA51000CFFD003D00284
:102D7000D001D000EB4FFFEAFEE9FDE8FC7593407F
:102D8000D082D08351034090400BABE004F0E0646C
:102D9000046003412BD6412F77E52B6407452A6059
:102DA00003412F809040002AE0FBA3E475F001511D
:102DB0000108A9F0FA51000C90400BABF0E0D3945D
:102DC000034003412F809040002AE0FBA3E475F00C
:102DD00001510108A9F0FA51000CFF90400BABE043
:102DE000FE75F0CDA42406F582E5F03402F583EEFD
:102DF0002583F583759340EFF09040002AE0FBA314
:102E0000E475F001510108A9F0FA51000CFFE4FC4F
:102E1000FDFE78185102D890400BABE0FB75F0CD69
:102E2000A42409F582E5F03402F583EB2583F583CC
:102E300075934051034090400BABE0FF75F0CDA47B
:102E40002409F582E5F03402F583EF2583F583C08C
:102E500083C082759340E0F8A3E0F9A3E0FAA3E011
:102E6000FBC000C001C002C0039040002AE0FBA3E9
:102E7000E475F001510108A9F0FA51000CFFE4FCDF
:102E8000FDFE78105102D8D003D002D001D000EB63
:102E90004FFFEA4EFEE94DFDE84CFC759340D082B1
:102EA000D08351034090400BABE0FF75F0CDA424DC
:102EB00009F582E5F03402F583EF2583F583C083BD
:102EC000C082759340E0F8A3E0F9A3E0FAA3E0FB29
:102ED000C000C001C002C0039040002AE0FBA3E490
:102EE00075F001510108A9F0FA51000CFFE4FCFD56
:102EF000FE78085102D8D003D002D001D000EB4FA9
:102F0000FFEA4EFEE94DFDE84CFC759340D082D0BF
:102F10008351034090400BABE0FF75F0CDA4240932
:102F2000F582E5F03402F583EF2583F583C083C095
:102F300082759340E0F8A3E0F9A3E0FAA3E0FBC0B8
:102F400000C001C002C0039040002AE0FBA3E4756A
:102F5000F001510108A9F0FA51000CFFD003D00292
:102F6000D001D000EB4FFFEAFEE9FDE8FC7593408D
:102F7000D082D083510340E4F528F529752C7022C6
:102F8000E4F528F529752C3022AF1FEF75F01CA44D
:102F900024FBF9740835F0FA7B4151034C9040084A
:102FA000E4EBF0A3EAF0A3E9F0904008E4E0FBA32F
:102FB000E0FAA3E02406F9E43AFA51000C54F0FFD9
:102FC000BFF03DAF1FEF75F01CA424FEF974083567
:102FD000F0FA7B4151034C904008E4EBF0A3EAF097
:102FE000A3E9F0904008E4E0FBA3E0FAA3E02406A4
:102FF000F9E43AFA51000C54F064F070034137B729
:10300000904008E4E0FBA3E0FAA3E02402F9E43AEC
:10301000FA51000C904008E7F0904008E4E0FBA370
:10302000E0FAA3E02406F9E43AFA51000CC4540F84
:10303000904008E8F0904008E7E0540F904008E91D
:10304000F0904008E8E07003413689904008E7E0DE
:10305000546024E0700341319B24E0700341335EEF
:1030600024E070034134A6246060034137B7AF1FEA
:103070007E0074EB2FF9EE3408FA7B4151000C64AA
:10308000C06014AF1F74EB2FF9EE3408FA51000C36
:1030900064806003413299AF1F7E0074EB2FF9EE1C
:1030A0003408FA7B41748051003EAF1F74DB2FF966
:1030B000EE3409FA7B4151000CFF904008E9E06FC3
:1030C0006003413718AF1FEF75F01CA42407F97493
:1030D0000935F0FA7B4151011EFF904008E8E02FCE
:1030E000FFE435F0FED3EF9400EE9420400341322C
:1030F0001BAF1FEF75F01CA42404F9740935F0FA16
:103100007B4151034CC003C002C001904008E4E081
:10311000FBA3E0FAA3E02407F9E43AFA904008841C
:10312000EBF0A3EAF0A3E9F0904008E8E090400853
:1031300087F0D001D002D00351BC77904008E8E07E
:10314000FDAF1FEF75F01CA42407F9740935F0FAE0
:103150007B41E48DF0510142904008E8E0FDAF1F53
:10316000EF75F01CA42404F9740935F0FA09E9702C
:10317000010AE48DF0510142904008E7E05404FF59
:10318000E51F04FD518AACEF904008E930E106E00C
:103190004430413683E04410413683AF1F7E0074D3
:1031A000EB2FF9EE3408FA7B4151000C64C0601437
:1031B000AF1F74EB2FF9EE3408FA51000C648060F5
:1031C00003413299AF1F7E0074EB2FF9EE3408FAF9
:1031D0007B4174A051003EAF1F74DB2FF9EE340920
:1031E000FA7B4151000CFF904008E9E06F60034119
:1031F0003718AF1FEF75F01CA42407F9740935F0D8
:10320000FA7B4151011EFF904008E8E02FFFE435B2
:10321000F0FED3EF9400EE94204004A3413718AFA2
:103220001FEF75F01CA42404F9740935F0FA7B41F2
:1032300051034CC003C002C001904008E4E0FBA36E
:10324000E0FAA3E02407F9E43AFA90400884EBF0AE
:10325000A3EAF0A3E9F0904008E8E090400887F086
:10326000D001D002D00351BC77904008E8E0FDAF18
:103270001FEF75F01CA42407F9740935F0FA7B419F
:10328000E48DF0510142904008E7E05404FFE51F4F
:1032900004FD518AACEF30E107904008E94137184E
:1032A00090400C3DE004F0AF1FEF75F01CA4240724
:1032B000F9740935F0FA7B4151011EF52B85F02A8E
:1032C000AF1FEF75F01CA42401F9740935F0FA5111
:1032D000034C8B258A268927AF1FEF75F01CA42489
:1032E0000FF9740935F0FA7B4151034C8B218A2286
:1032F0008923AF1F7E0074F32FF9EE3408FA7B4167
:1033000051000CFF519D12AF1FEF75F01CA4241546
:10331000F9740935F0FA7B41E5288529F051016EF1
:10332000AB21AA22A923C003C002C001AF1FEF75C1
:10333000F01CA42412F9740935F0FA7B415103887A
:10334000D3E5299408E52894004003413663E52934
:103350004528904008E97003413680413677AF1F19
:103360007E0074EB2FF9EE3408FA7B4174C05100F3
:103370003E904008E9E0FFAE1FEE7C0024DBF9EC54
:103380003409FA7B41EF51003E904008E4E0FBA392
:10339000E0FAA3E02407F9E43AFA51000CFFAE1F6B
:1033A000EE24F3F9EC3408FA7B41EF51003EAF1FF5
:1033B0007E0074F32FF9EE3408FA51000CC4131395
:1033C0005403FFAE1FEE24DBF9EC3409FA7B4151C4
:1033D000000CFE13131354036F6003413523904018
:1033E00008E8E014F0AF1FEF75F01CA42401F97495
:1033F0000935F0FA7B4151034CC003C002C0019073
:103400004008E4E0FBA3E0FAA3E02408F9E43AFA78
:1034100090400884EBF0A3EAF0A3E9F0904008E8BC
:10342000E090400887F0D001D002D00351BC7790E3
:103430004008E8E0FDAF1FEF75F01CA42407F97405
:103440000935F0FA7B41E48DF051016EAF1FEF7545
:10345000F01CA42401F9740935F0FA51034C904092
:1034600008E8E07E0029F9EE3AFAC003C002C00184
:10347000AF1FEF75F01CA42404F9740935F0FA7B32
:1034800041510388904008E7E05404FFE51F04FD24
:10349000518AACEF904008E930E105E04430800308
:1034A000E04410413683AF1F7E0074EB2FF9EE34F9
:1034B00008FA7B4174E051003E904008E9E0FFAE1D
:1034C0001FEE7C0024DBF9EC3409FA7B41EF51005C
:1034D0003E904008E4E0FBA3E0FAA3E02407F9E40F
:1034E0003AFA51000CFFAE1FEE24F3F9EC3408FA5F
:1034F0007B41EF51003EAF1F7E0074F32FF9EE3495
:1035000008FA51000CC413135403FFAE1FEE24DB62
:10351000F9EC3409FA7B4151000CFE1313135403E8
:103520006F600A904008E9E04430413683904008DB
:10353000E8E014F0AF1FEF75F01CA42401F9740942
:1035400035F0FA7B4151034CC003C002C0019040EA
:1035500008E4E0FBA3E0FAA3E02408F9E43AFA90D7
:10356000400884EBF0A3EAF0A3E9F0904008E8E01B
:1035700090400887F0D001D002D00351BC77904032
:1035800008E8E0FDAF1FEF75F01CA42407F97409EB
:1035900035F0FA7B41E48DF051016E904008E7E090
:1035A0005404FFE51F04FD518AACEF30E10A90405E
:1035B00008E9E0443041368390400C3DE004F0AF30
:1035C0001FEF75F01CA42407F9740935F0FA7B414C
:1035D00051011EF52B85F02AAF1FEF75F01CA424B6
:1035E00001F9740935F0FA51034C8B258A26892795
:1035F000AF1FEF75F01CA4240FF9740935F0FA7BA6
:103600004151034C8B218A228923AF1F7E0074F322
:103610002FF9EE3408FA7B4151000CFF519D12AF97
:103620001FEF75F01CA42415F9740935F0FA7B41DD
:10363000E5288529F051016EAB21AA22A923C003F8
:10364000C002C001AF1FEF75F01CA42412F9740969
:1036500035F0FA7B41510388D3E5299408E5289495
:1036600000400A904008E9E04450413764E52945AC
:1036700028904008E96009E04470FFAD294137B463
:10368000E0452CFFE4FD4137B4904008E7E054608A
:1036900024E070034137AA24E070034137AA24E0F4
:1036A00070034137AA246060034137B7AF1F7E0023
:1036B00074EB2FF9EE3408FA7B4151000C64E060A2
:1036C0002DAF1F74EB2FF9EE3408FA51000C64A0F3
:1036D000601CAF1F74EB2FF9EE3408FA51000C6038
:1036E0000D904008E9E04430FFE4FD4137B4AF1FDE
:1036F0007E0074EB2FF9EE3408FA7B41E451003E72
:10370000AF1F74DB2FF9EE3409FA7B4151000CFF37
:10371000904008E9E06F6009E04430FFE4FD413784
:10372000B4904008E7E05404FFE51F04FD518AAC63
:10373000EF30E10C904008E9E04430FFE4FD807494
:10374000AF1FEF75F01CA42415F9740935F0FA7B4E
:103750004151011ED39408E5F09400400C904008BC
:10376000E9E04410FF7D08804BAF1FEF75F01CA40B
:103770002415F9740935F0FA7B4151011E45F060BA
:103780001DAF1FEF75F01CA42415F9740935F0FA6C
:1037900051011EFD904008E9E04430FF8016904042
:1037A00008E9E04430FFE4FD800A904008E9E04485
:1037B00030FFE4FD517F2322E52B452A6009E4F523
:1037C00028F529752C3022AB21AA22A9239040008C
:1037D00033EBF0A3EAF0A3E9F0904008697441F0FC
:1037E000A37400F0A37433F07B417A00793F7F012A
:1037F000518135904008697441F0A37400F0A374BE
:1038000033F07B417A07797E7F01518135E4904026
:103810000BAFF090400BAFE0FF7E007C017DCD51FF
:10382000005274442FF974003EFA904000367441FF
:10383000F0A3EAF0A3E9F090400036E0FBA3E0FA41
:10384000A3E02401F9E43AFA904008697441F0A336
:103850007400F0A37433F07F01518135904000363D
:10386000E0FBA3E0FAA3E02402F9E43AFA9040086E
:10387000697441F0A37400F0A37433F07F015181A7
:103880003590400036E0FBA3E0FAA3E02415F9E40C
:103890003AFA904008697441F0A37400F0A37433BD
:1038A000F07F02518135E490400BB0F0904000363B
:1038B000E0FBA3E0FAA3E02419F9E43AFA90400B04
:1038C000B0E075F002A429F9EA35F0FA90400869F1
:1038D0007441F0A37400F0A37433F0E4FF51813518
:1038E00090400BB0E004F0E0C3940840BF9040006B
:1038F00036E0FBA3E0FAA3E02417F9E43AFA90409B
:1039000008697441F0A37400F0A37433F07F02518E
:103910008135E490400BB0F090400036E0FBA3E02E
:10392000FAA3E02439F9E43AFA90400BB0E075F0DC
:1039300002A429F9EA35F0FA904008697441F0A32D
:103940007400F0A37433F0E4FF51813590400BB064
:10395000E004F0E0C3940840BF90400036E0FBA3D1
:10396000E0FAA3E0245DF9E43A5181239040003667
:10397000E0FBA3E0FAA3E02461F9E43A518123904B
:10398000400036E0FBA3E0FAA3E0246BF9E43A51EF
:10399000812390400036E0FBA3E0FAA3E0246FF916
:1039A000E43A51812390400036E0FBA3E0FAA3E023
:1039B00024BDF9E43A51812390400036E0FBA3E0B6
:1039C000FAA3E024C1F9E43A51812390400036E0A3
:1039D000FBA3E0FAA3E024CBF9E43A518123904021
:1039E0000036E0FBA3E0FAA3E024CFF9E43A5181EA
:1039F0002390400036E0FBA3E0FAA3E024DDF9E4E5
:103A00003A51812390400036E0FBA3E0FAA3E02482
:103A1000E1F9E43A51812390400036E0FBA3E0FA5B
:103A2000A3E024EBF9E43A51812390400036E0FB17
:103A3000A3E0FAA3E024EFF9E43A51812390400097
:103A400036E0FBA3E0FAA3E024FDF9E43A51812338
:103A500090400036E0FBA3E0FAA3E0240151811F6F
:103A600090400036E0FBA3E0FAA3E0240B51811F55
:103A700090400036E0FBA3E0FAA3E0240F51811F41
:103A800090400036E0FBA3E0FAA3E0241D51811F23
:103A900090400036E0FBA3E0FAA3E0242151811F0F
:103AA00090400036E0FBA3E0FAA3E0242B51811FF5
:103AB00090400036E0FBA3E0FAA3E0242F51811FE1
:103AC00090400036E0FBA3E0FAA3E02439F9EA34A1
:103AD00001FA904008697441F0A37400F0A37433B4
:103AE000F07F0151813590400036E0FBA3E0FAA35E
:103AF000E0244051811F90400036E0FBA3E0FAA390
:103B0000E0244AF9EA3401FA904008697441F0A3CC
:103B10007400F0A37433F07F01518135904000367A
:103B2000E0FBA3E0FAA3E0244B51811F9040003654
:103B3000E0FBA3E0FAA3E02455F9EA3401FA90404F
:103B400008697441F0A37400F0A37433F07F01514D
:103B5000813590400036E0FBA3E0FAA3E024565103
:103B6000811F90400036E0FBA3E0FAA3E02460F957
:103B7000EA3401FA904008697441F0A37400F0A39C
:103B80007433F07F0151813590400036E0FBA3E0B3
:103B9000FAA3E0246751811F90400036E0FBA3E0C8
:103BA000FAA3E02471F9EA3401FA904008697441FB
:103BB000F0A37400F0A37433F07F0151813590407D
:103BC0000036E0FBA3E0FAA3E0247251811F90408D
:103BD0000036E0FBA3E0FAA3E0247CF9EA3401FA22
:103BE000904008697441F0A37400F0A37433F07F2F
:103BF0000151813590400036E0FBA3E0FAA3E024B8
:103C00007D51811FE490400BB0F090400BB0E07507
:103C1000F006A4FF90400036E0FBA3E0FAA3E02FFB
:103C2000F9EA35F0FAE92487F9EA3401FA90400814
:103C3000697441F0A37400F0A37433F07F015181E3
:103C40003590400BB0E075F006A4FF90400036E0E0
:103C5000FBA3E0FAA3E02FF9EA35F0FAE92488F9AA
:103C6000EA3401FA904008697441F0A37400F0A3AB
:103C70007433F07F0151813590400BB0E075F00650
:103C8000A4FF90400036E0FBA3E0FAA3E02FF9EA9E
:103C900035F0FAE92489F9EA3401FA9040086974A8
:103CA00041F0A37400F0A37433F07F045181359088
:103CB000400BB0E004F0E0C394025003413C0A9092
:103CC000400036E0FBA3E0FAA3E02493F9EA3401D4
:103CD000FA904008697441F0A37400F0A37433F0C3
:103CE0007F0151813590400036E0FBA3E0FAA3E06C
:103CF0002494F9EA3401FA904008697441F0A374FD
:103D000000F0A37433F07F0151813590400036E01C
:103D1000FBA3E0FAA3E02497F9EA3401FA90400803
:103D2000697441F0A37400F0A37433F07F015181F2
:103D30003590400036E0FBA3E0FAA3E02498F9EACE
:103D40003401FA904008697441F0A37400F0A37440
:103D500033F07F01518135E490400BB0F090400B7F
:103D6000B0E075F00CA4FF90400036E0FBA3E0FA51
:103D7000A3E02FF9EA35F0FAE9249BF9EA3401FAD5
:103D8000904008697441F0A37400F0A37433F07F8D
:103D90000251813590400BB0E075F00CA4FF9040CB
:103DA0000036E0FBA3E0FAA3E02FF9EA35F0FAE9E8
:103DB000249DF9EA3401FA904008697441F0A37433
:103DC00000F0A37433F07F0251813590400BB0E0D6
:103DD00075F00CA4FF90400036E0FBA3E0FAA3E0EE
:103DE0002FF9EA35F0FAE9249FF9EA3401FA904014
:103DF00008697441F0A37400F0A37433F07F02519A
:103E0000813590400BB0E075F00CA4FF9040003677
:103E1000E0FBA3E0FAA3E02FF9EA35F0FAE924A1E8
:103E2000F9EA3401FA904008697441F0A37400F093
:103E3000A37433F07F0251813590400BB0E075F0F0
:103E40000CA4FF90400036E0FBA3E0FAA3E02FF9BA
:103E5000EA35F0FAE924A3F9EA3401FA9040086956
:103E60007441F0A37400F0A37433F07F04518135E2
:103E700090400BB0E004F0E0C394035003413D5D7B
:103E800090400036E0FBA3E0FAA3E024C0F9EA3456
:103E900001FA904008697441F0A37400F0A37433F0
:103EA000F07F0151813590400036E0FBA3E0FAA39A
:103EB000E024C1F9EA3401FA904008697441F0A3A2
:103EC0007400F0A37433F07F0151813590400036C7
:103ED000E0FBA3E0FAA3E024C2F9EA3401FA90403F
:103EE00008697441F0A37400F0A37433F07F0151AA
:103EF000813590400036E0FBA3E0FAA3E024C3F94B
:103F0000EA3401FA904008697441F0A37400F0A308
:103F10007433F07F0151813590400036E0FBA3E01F
:103F2000FAA3E024C4F9EA3401FA90400869744124
:103F3000F0A37400F0A37433F07F015181359040F9
:103F40000036E0FBA3E0FAA3E024C551811F9040B6
:103F50000036E0FBA3E0FAA3E024C951811F9040A2
:103F60000BAFE004F0E0C394045003413813AB21DD
:103F7000AA22A923AE0290400033A3E0FAA3E0AC4A
:103F800002C399F529EC9EF528E5294528700375AB
:103F90002C7022E52B64167004E52A64036009E4A2
:103FA000F528F529752C3022AB25AA26A9279040A3
:103FB0000039EBF0A3EAF0A3E9F0904008737441F4
:103FC000F0A37400F0A37439F07B417A00793F7F4D
:103FD00001517364904008737441F0A37400F0A31E
:103FE0007439F07B417A07797E7F01517364E490E4
:103FF000400BB1F090400BB1E0FF7E007C017DCD25
:1040000051005274442FF974003EFA9040003C7401
:1040100041F0A3EAF0A3E9F09040003CE0FBA3E00C
:10402000FAA3E02401F9E43AFA904008737441F0ED
:10403000A37400F0A37439F07F01517364904000C1
:104040003CE0FBA3E0FAA3E02402F9E43AFA904052
:1040500008737441F0A37400F0A37439F07F015128
:1040600073649040003CE0FBA3E0FAA3E02415F960
:10407000E43AFA904008737441F0A37400F0A3741A
:1040800039F07F02517364E490400BB2F09040002D
:104090003CE0FBA3E0FAA3E02419F9E43AFA9040EB
:1040A0000BB2E075F002A429F9EA35F0FA90400865
:1040B000737441F0A37400F0A37439F0E4FF5173FA
:1040C0006490400BB2E004F0E0C3940840BF90401D
:1040D000003CE0FBA3E0FAA3E02417F9E43AFA90ED
:1040E0004008737441F0A37400F0A37439F07F02A8
:1040F000517364E490400BB2F09040003CE0FBA3AD
:10410000E0FAA3E02439F9E43AFA90400BB2E07502
:10411000F002A429F9EA35F0FA904008737441F0EE
:10412000A37400F0A37439F0E4FF51736490400B62
:10413000B2E004F0E0C3940840BF9040003CE0FBD4
:10414000A3E0FAA3E0245DF9E43A517352904000F1
:104150003CE0FBA3E0FAA3E02461F9E43A51735296
:104160009040003CE0FBA3E0FAA3E0246BF9E43AC2
:104170005173529040003CE0FBA3E0FAA3E0246FAF
:10418000F9E43A5173529040003CE0FBA3E0FAA3FB
:10419000E024BDF9E43A5173529040003CE0FBA3A7
:1041A000E0FAA3E024C1F9E43A5173529040003C94
:1041B000E0FBA3E0FAA3E024CBF9E43A5173529078
:1041C00040003CE0FBA3E0FAA3E024CFF9E43A513D
:1041D00073529040003CE0FBA3E0FAA3E024DDF939
:1041E000E43A5173529040003CE0FBA3E0FAA3E0B4
:1041F00024E1F9E43A5173529040003CE0FBA3E023
:10420000FAA3E024EBF9E43A5173529040003CE009
:10421000FBA3E0FAA3E024EFF9E43A517352904093
:10422000003CE0FBA3E0FAA3E024FDF9E43A51737B
:10423000529040003CE0FBA3E0FAA3E0240151735C
:104240004E9040003CE0FBA3E0FAA3E0240B517346
:104250004E9040003CE0FBA3E0FAA3E0240F517332
:104260004E9040003CE0FBA3E0FAA3E0241D517314
:104270004E9040003CE0FBA3E0FAA3E02421517300
:104280004E9040003CE0FBA3E0FAA3E0242B5173E6
:104290004E9040003CE0FBA3E0FAA3E0242F5173D2
:1042A0004E9040003CE0FBA3E0FAA3E02439F9EA99
:1042B0003401FA904008737441F0A37400F0A374C1
:1042C00039F07F015173649040003CE0FBA3E0FAB9
:1042D000A3E0244051734E9040003CE0FBA3E0FA81
:1042E000A3E0244AF9EA3401FA904008737441F0DB
:1042F000A37400F0A37439F07F01517364904000FF
:104300003CE0FBA3E0FAA3E0244B51734E90400045
:104310003CE0FBA3E0FAA3E02455F9EA3401FA906B
:104320004008737441F0A37400F0A37439F07F0166
:104330005173649040003CE0FBA3E0FAA3E02456F4
:1043400051734E9040003CE0FBA3E0FAA3E02460F0
:10435000F9EA3401FA904008737441F0A37400F054
:10436000A37439F07F015173649040003CE0FBA3DB
:10437000E0FAA3E0246751734E9040003CE0FBA3B9
:10438000E0FAA3E02471F9EA3401FA90400873746A
:1043900041F0A37400F0A37439F07F01517364906D
:1043A00040003CE0FBA3E0FAA3E0247251734E907E
:1043B00040003CE0FBA3E0FAA3E0247CF9EA3401EE
:1043C000FA904008737441F0A37400F0A37439F0BC
:1043D0007F015173649040003CE0FBA3E0FAA3E04E
:1043E000247D51734EE490400BB2F090400BB2E04C
:1043F00075F006A4FF9040003CE0FBA3E0FAA3E0C8
:104400002FF9EA35F0FAE92487F9EA3401FA904005
:1044100008737441F0A37400F0A37439F07F015164
:10442000736490400BB2E075F006A4FF9040003C2E
:10443000E0FBA3E0FAA3E02FF9EA35F0FAE92488DB
:10444000F9EA3401FA904008737441F0A37400F063
:10445000A37439F07F0151736490400BB2E075F0A2
:1044600006A4FF9040003CE0FBA3E0FAA3E02FF994
:10447000EA35F0FAE92489F9EA3401FA9040087340
:104480007441F0A37400F0A37439F07F0451736495
:1044900090400BB2E004F0E0C3940250034143EBC0
:1044A0009040003CE0FBA3E0FAA3E02493F9EA3457
:1044B00001FA904008737441F0A37400F0A37439BA
:1044C000F07F015173649040003CE0FBA3E0FAA34D
:1044D000E02494F9EA3401FA904008737441F0A39F
:1044E0007400F0A37439F07F015173649040003C74
:1044F000E0FBA3E0FAA3E02497F9EA3401FA904044
:1045000008737441F0A37400F0A37439F07F015173
:1045100073649040003CE0FBA3E0FAA3E02498F928
:10452000EA3401FA904008737441F0A37400F0A3D8
:104530007439F07F01517364E490400BB2F0904005
:104540000BB2E075F00CA4FF9040003CE0FBA3E050
:10455000FAA3E02FF9EA35F0FAE9249BF9EA3401ED
:10456000FA904008737441F0A37400F0A37439F01A
:104570007F0251736490400BB2E075F00CA4FF9081
:1045800040003CE0FBA3E0FAA3E02FF9EA35F0FAA3
:10459000E9249DF9EA3401FA904008737441F0A3CC
:1045A0007400F0A37439F07F0251736490400BB231
:1045B000E075F00CA4FF9040003CE0FBA3E0FAA300
:1045C000E02FF9EA35F0FAE9249FF9EA3401FA908C
:1045D0004008737441F0A37400F0A37439F07F02B3
:1045E00051736490400BB2E075F00CA4FF90400052
:1045F0003CE0FBA3E0FAA3E02FF9EA35F0FAE92466
:10460000A1F9EA3401FA904008737441F0A37400F0
:10461000F0A37439F07F0251736490400BB2E075DF
:10462000F00CA4FF9040003CE0FBA3E0FAA3E02FD5
:10463000F9EA35F0FAE924A3F9EA3401FA904008DE
:10464000737441F0A37400F0A37439F07F045173C4
:104650006490400BB2E004F0E0C394035003414582
:104660003E9040003CE0FBA3E0FAA3E024C0F9EA5E
:104670003401FA904008737441F0A37400F0A374FD
:1046800039F07F015173649040003CE0FBA3E0FAF5
:10469000A3E024C1F9EA3401FA904008737441F0B0
:1046A000A37400F0A37439F07F015173649040004B
:1046B0003CE0FBA3E0FAA3E024C2F9EA3401FA905B
:1046C0004008737441F0A37400F0A37439F07F01C3
:1046D0005173649040003CE0FBA3E0FAA3E024C3E4
:1046E000F9EA3401FA904008737441F0A37400F0C1
:1046F000A37439F07F015173649040003CE0FBA348
:10470000E0FAA3E024C4F9EA3401FA904008737493
:1047100041F0A37400F0A37439F07F0151736490E9
:1047200040003CE0FBA3E0FAA3E024C551734E90A7
:1047300040003CE0FBA3E0FAA3E024C951734E9093
:10474000400BB1E004F0E0C394045003413FF4E4B3
:10475000F528F529752C70227B827AFF79005100AB
:104760000CF5247B0479FF51000CF4FF1951000C67
:10477000B5070751000CF52080037520FF90400C11
:104780003BE524F0A3E520F0E4904008DCF0904005
:1047900008DCE07E0024EBF9EE3408FA7B4174601B
:1047A00051003E904008DCE024DBF9EE3409FA7B4E
:1047B0004174FF51003E904008DCE024F3F9EE34F0
:1047C00008FA7B4174FF51003E904008DCE075F030
:1047D00010A42410F9741035F0FA7B41C003C00214
:1047E000C001E075F01CA424FBF9740835F0FA7BD5
:1047F00041510388904008DCE075F010A42410F9C2
:10480000741135F0FA7B41C003C002C001E075F0BD
:104810001CA424FEF9740835F0FA7B4151038890FA
:104820004008DCE0C43354E0FEE42400FFE43EFE34
:10483000E43404FDE433FCE42FFFE43EFEED3401F8
:10484000FDE43CA907AA06AB05C003C002C001E015
:1048500075F01CA42401F9740935F0FA7B41510369
:1048600088904008DCE0540375F010A424A0F9748B
:104870001035F0FA7B41C003C002C001E075F01CA6
:10488000A42409F9740935F0FA7B4151038890405A
:1048900008DCE0540375F010A424A0F9741135F07D
:1048A000FA7B41C003C002C001E075F01CA4240CD7
:1048B000F9740935F0FA7B41510388904008DCE037
:1048C000C43354E0FEE42400FFE43EFEE43404FD7F
:1048D000E433FCE42FFFE43EFEED3401FDE43CFC58
:1048E000E42FFFE43EFEED3401FDE43CA907AA06F7
:1048F000AB05C003C002C001E075F01CA4240FF991
:10490000740935F0FA7B41510388904008DCE004DB
:10491000F0E06408600341478E75C7AA75C75575F6
:10492000A30951C41775C7AA75C75575E30951C4C2
:104930001775C7AA75C75575A30151C41775C7AABE
:1049400075C75575E30151C417E490401000F0900D
:10495000401100F090401001F090401101F09040A3
:104960001002F090401102F090401003F0904011BE
:1049700003F090401004F090401104F090401005B6
:104980007414F090401105F09040100674FFF09000
:10499000401106F090401007F090401107F0904051
:1049A00010087415F090401108F09040100974FF41
:1049B000F090401109F09040100AF09040110AF078
:1049C000E49040100BF09040110BF09040100C74EC
:1049D000FFF09040110CF09040100DF09040110D40
:1049E000F09040100EF09040110EF09040100FF03B
:1049F0009040110FF0E4F5ABF5EBF5ACF5ECF5AD4F
:104A0000F5EDF5AEF5EEF5AFF5EFF5B3F5F3F5B47D
:104A1000F5F4F5B5F5F5F5B6F5F6F5B7F5F7F5BB3B
:104A2000F5FBF5BCF5FCF5BDF5FDF5BEF5FEF5BFF6
:104A3000F5FF904008DC04F0904008DCE075F010D1
:104A4000A42402F9741035F0FA7B41E451003E9041
:104A50004008DCE075F010A42402F9741135F0FA76
:104A60007B41E451003E904008DCE075F010A42446
:104A700003F9741035F0FA7B41E451003E90400890
:104A8000DCE075F010A42403F9741135F0FA7B41D1
:104A9000E451003E904008DCE075F010A42404F9D5
:104AA000741035F0FA7B41E451003E904008DCE0A0
:104AB00075F010A42404F9741135F0FA7B41E45127
:104AC000003E904008DCE075F010A42405F9741055
:104AD00035F0FA7B41E451003E904008DCE075F08F
:104AE00010A42405F9741135F0FA7B41E451003E1D
:104AF000904008DCE075F010A42406F9741035F03D
:104B0000FA7B41E451003E904008DCE075F010A4CF
:104B10002406F9741135F0FA7B41E451003E9040CF
:104B200008DCE075F010A42407F9741035F0FA7B66
:104B300041E451003E904008DCE075F010A42407E9
:104B4000F9741135F0FA7B41E451003E904008DCE5
:104B5000E075F010A42408F9741035F0FA7B41E4F4
:104B600051003E904008DCE075F010A42408F97470
:104B70001135F0FA7B41E451003E904008DCE075CD
:104B8000F010A42409F9741035F0FA7B41E45100C7
:104B90003E904008DCE075F010A42409F97411354A
:104BA000F0FA7B41E451003E904008DCE075F010E3
:104BB000A4240AF9741035F0FA7B41E451003E90C8
:104BC0004008DCE075F010A4240AF9741135F0FAFD
:104BD0007B41E451003E904008DCE075F010A424D5
:104BE0000BF9741035F0FA7B41E451003E90400817
:104BF000DCE075F010A4240BF9741135F0FA7B4158
:104C0000E451003E904008DCE075F010A4240CF95B
:104C1000741035F0FA7B41E451003E904008DCE02E
:104C200075F010A4240CF9741135F0FA7B41E451AD
:104C3000003E904008DCE075F010A4240DF97410DB
:104C400035F0FA7B41E451003E904008DCE075F01D
:104C500010A4240DF9741135F0FA7B41E451003EA3
:104C6000904008DCE075F010A4240EF9741035F0C3
:104C7000FA7B41E451003E904008DCE075F010A45E
:104C8000240EF9741135F0FA7B41E451003E904056
:104C900008DCE004F0E064106003414A38E490402E
:104CA00008DCF0904008DCE0C3940450067F017DEE
:104CB0000180047F007D00904008DCE075F01CA4BA
:104CC00024FBF9740835F0FA7B4151034CE92402C6
:104CD000F9E43AFAED51003E904008DCE05403FD5F
:104CE000E075F01CA424FBF9740835F0FA7B4151FF
:104CF000034CE92403F9E43AFAED51003E904008F0
:104D0000DCE0C394045006AF24AD078004AF20ADAF
:104D100007904008DCE075F01CA424FBF97408350A
:104D2000F0FA7B4151034CE92404F9E43AFAED51DD
:104D3000003E904008DCE075F01CA424FBF97408E8
:104D400035F0FA7B4151034CE92405F9E43AFA7451
:104D50000151003E904008DCE075F01CA424FBF9F2
:104D6000740835F0FA7B4151034CE92406F9E43A22
:104D7000FA74F651003E904008DCE0C394045006FB
:104D80007F057D0580047F047D04904008DCE0758C
:104D9000F01CA424FEF9740835F0FA7B4151034C51
:104DA000E92402F9E43AFAED51003E904008DCE0D3
:104DB0005403FDE075F01CA424FEF9740835F0FAE4
:104DC0007B4151034CE92403F9E43AFAED51003EEA
:104DD000904008DCE0C394045006AF24AD07800483
:104DE000AF20AD07904008DCE075F01CA424FEF96C
:104DF000740835F0FA7B4151034CE92404F9E43A94
:104E0000FAED51003E904008DCE075F01CA424FE51
:104E1000F9740835F0FA7B4151034CE92405F9E4B3
:104E20003AFA740151003E904008DCE075F01CA491
:104E300024FEF9740835F0FA7B4151034CE924064D
:104E4000F9E43AFA74F651003E904008DCE004F0D0
:104E5000E064086003414CA3E524D3940340187533
:104E6000AB8075EB8075AC8075EC8075AD8075EDB1
:104E70008075AE8075EE80E520D39403401DE5205B
:104E8000F4601875AF8075EF8075B38075F3807529
:104E9000B48075F48075B58075F58075C7AA75C73F
:104EA00055E4F5A351C41775C7AA75C755E4F5E3D2
:104EB00041C417904008B2EBF0A3EAF0A3E9F090E8
:104EC0004008B1EFF07E007C017DCD51005274515D
:104ED0002FF974003EFA904000037441F0A3EAF009
:104EE000A3E9F0744F2FF974003EFAA37441F0A3C4
:104EF000EAF0A3E9F0904008B2E0FBA3E0FAA3E0F7
:104F00002402F9E43AFA51000C6049E4FFFEFD1C6A
:104F1000904008B2A3E0FAA3E0240BF9E43AFA5176
:104F20000308904008B2E0FBA3E0FAA3E02407F9ED
:104F3000E43AFA5102EB904008B2A3E0FAA3E0246D
:104F400003F9E43AFA510323D35102B45003415018
:104F5000BC414FE5904008B2E0FBA3E0FAA3E02497
:104F60000BF9E43AFA5102EBEC4D4E4F700341500D
:104F70006590400003E0FBA3E0FAA3E0F9C003C0A2
:104F800002C00151011EFFAEF0904008B2E0FBA349
:104F9000E0FAA3E0240FF9E43AFA51011EFDEE45D0
:104FA000F0FEEF4DFFD001D002D003EE8FF05101A3
:104FB0006E904008B2E0FBA3E0FAA3E0240BF9E412
:104FC0003AFA5102EB51A9DB904008B2E0FBA3E0B2
:104FD000FAA3E02407F9E43AFA510323C35102B4D7
:104FE00040034153A290400003E0FBA3E0FAA3E09A
:104FF000F9C003C002C00151011EFFAEF09040088D
:10500000B2E0FBA3E0FAA3E0240FF9E43AFA51017D
:105010001EFDEE45F0FEEF4DFFD001D002D003EEB5
:105020008FF051016E90400006E0FBA3E0FAA3E090
:10503000F9C003C002C00151011EFFAEF09040084C
:10504000B2E0FBA3E0FAA3E0240FF9E43AFA51013D
:105050001EFDEE45F0FEEF4DFFD001D002D003EE75
:105060008FF041016E90400003E0FBA3E0FAA3E063
:10507000F9C003C002C00151011EFFAEF09040080C
:10508000B2E0FBA3E0FAA3E0240FF9E43AFA5101FD
:105090001EFDEE45F0FEEF4DFFD001D002D003EE35
:1050A0008FF051016E51C375904008B2E0FBA3E050
:1050B000FAA3E0240BF9E43AFA410308904008B25D
:1050C000E0FBA3E0FAA3E02401F9E43AFA51000C72
:1050D00090400B87F0E490400B85F090400B85E00A
:1050E0006038904008B2E0FBA3E0FAA3E0241CF98A
:1050F000E43AFA90400000EBF0A3EAF0A3E9F051A3
:10510000000CFF90400B87E0FEC3EF6480F8EE6474
:1051100080987F0050027F018036904008B2E0FB0B
:10512000A3E0FAA3E02411F9E43AFA90400000EB7E
:10513000F0A3EAF0A3E9F051000CFF90400B87E0E8
:10514000FED3EF6480F8EE6480987F0040027F0118
:1051500090400B88EFF090400B88E06008E4FFFE81
:10516000FDFC41524090400003E0FBA3E0FAA3E0C5
:10517000F9C003C002C00151011EFFAEF090400013
:1051800000E0FBA3E0FAA3E02409F9E43AFA5101B4
:105190001EFDEE45F0FEEF4DFFD001D002D003EE34
:1051A0008FF051016E90400000E0FBA3E0FAA3E015
:1051B0002401F9E43AFA5102EBEC4D4E4F700280B3
:1051C0003A90400000E0FBA3E0FAA3E02405F9E4F4
:1051D0003AFA5102EBEC4D4E4F60625102EB51A98D
:1051E000DB90400000E0FBA3E0FAA3E02401F9E437
:1051F0003AFA510323C35102B4505990400006E0DB
:10520000FBA3E0FAA3E0F9C003C002C00151011EF4
:10521000FFAEF090400000E0FBA3E0FAA3E0240919
:10522000F9E43AFA51011EFDEE45F0FEEF4DFFD0D4
:1052300001D002D003EE8FF051016E801751C3757B
:1052400090400000E0FBA3E0FAA3E02405F9E43A73
:10525000FA51030890400B85E004F0E0C39402503B
:10526000034150DB904008B2E0FBA3E0FAA3E0F971
:1052700051000C70034153A2E490400B86F0904023
:1052800008B1E0FF7E007C017DCD51005274CB2F30
:10529000F974013EFA90400B86E075F006A429F9F6
:1052A000EA35F0FA904000097441F0A3EAF0A3E96E
:1052B000F090400009E0FBA3E0FAA3E0F951000CF4
:1052C000FF90400B87E0C36480F8EF648098400350
:1052D00041539390400009A3A3E02401F9E43AFA72
:1052E00051000CFF90400B87E0FED3EF6480F8EE96
:1052F000648098400341539390400009A3E0FAA3CF
:10530000E02402F9E43AFA5102EB904008B1E0FBE4
:1053100075F0CDA4240FF582E5F03401F583EB257B
:1053200083F583759340E0F8A3E0F9A3E0FAA3E0E6
:10533000FBC35102B45029904008B1E0FF75F0CD95
:10534000A4240FF582E5F03401F583EF2583F5837E
:10535000759340E0FCA3E0FDA3E0FEA3E0FF801412
:1053600090400009E0FBA3E0FAA3E02402F9E43A4C
:10537000FA5102EB904008B1E0FB75F0CDA4240F88
:10538000F582E5F03401F583EB2583F583759340D1
:1053900051034090400B86E004F0E064026003415A
:1053A000527E22904008C8EEF0A3EFF0904008C86B
:1053B000E0FEA3E07806CEC313CE13D8F990400BDD
:1053C0002451788E7D5551C34AE490400B23F090D0
:1053D0004008C8E0FEA3E0FF7C007D155100527438
:1053E000002FF974403EFA7B0190400B23E07E00D1
:1053F00029F9EE3AFA51000CFD51C34A90400B23B3
:10540000E004F0E0C3940840C67DBE51C34AE4F511
:105410005C90400B23F090400B24E0FF51C04E9075
:10542000400B23E07C002425F9EC340BFA7B41EFA0
:1054300051003E90400B23E07E002425F9EE340B12
:10544000FA51000C655C24E8F9EE3409FA7B41510D
:10545000000CF55C90400B23E004F0E0C39409409D
:10546000B590400B25E090400B30F090400B26E0CB
:1054700090400B2FF090400B29E090400B33F090C0
:10548000400B2BE090400B31F090400B2CE0904013
:105490000B32F090400B30E0FFC007904008C8E0AE
:1054A000FEA3E0FF7C007D15510052AC06AD0774F1
:1054B0000D2DF974403CFA7B01D0E051003E904044
:1054C0000B2FE0FFC007740E2DF974403CFAD0E0BA
:1054D00051003E90400B33E0FFC007904008C8E009
:1054E000FEA3E0FF7C007D15510052AC06AD0774B1
:1054F0000F2DF974403CFAD0E051003E90400B3142
:10550000E0FFC00774102DF974403CFAD0E0510060
:105510003E90400B32E0FFC007904008C8E0FEA379
:10552000E0FF7C007D15510052AC06AD0774112DD3
:10553000F974403CFAD0E051003E74122DF97440E9
:105540003CFA748051003E904008C8E0FEA3E0FFA2
:105550007C007D1551005274132FF974403EFA748B
:105560008075F00051016EE55C6003415890740055
:105570002FF974403EFA7B0151000C641060034126
:10558000565790400B2FE07009A3E064AA700341C6
:10559000589090400B2FE06007A3E0D39480500E0A
:1055A00090400B2FE0702EA3E0D3947F50279040C3
:1055B0000B30E0FFC007904008C8E0FEA3E0FF7C8E
:1055C000007D1551005274122FF974403EFA7B0190
:1055D000D0E051003E90400B32E0641090400B3020
:1055E0007038E054FE75F080A4FD90400B2FE0C4AD
:1055F000333333548045F0FC90400B31E0FFA3E09F
:10560000C39FFFE49400FEEFC4F8540FC868FFEE98
:10561000C454F0484CFEEF4D8017E075F080A4FDB7
:1056200090400B2FE0C4333333548045F0FEED44FB
:1056300040FFC007C006904008C8E0FEA3E0FF7C22
:10564000007D1551005274132FF974403EFA7B010E
:10565000D0E0D0F041588D904008C8E0FEA3E0FFB4
:105660007C007D1551005274002FF974403EFA7B86
:105670000151000C6428600341589090400B33E0C6
:10568000700341589090400B33E0546024E0601860
:1056900024E0601D24E06022246060034158909063
:1056A000400B347402F0801990400B347404F08085
:1056B0001090400B347408F0800790400B34741045
:1056C000F090400B2FE020E7034157B7E0FEA3E046
:1056D0007C002400FFEC3EFEC3EF9400FFEE94003C
:1056E000FEE49401FDEC9400FCC004A905AA06ABFD
:1056F0000790400B34E0FD7C007E017F0051006488
:10570000E4FCFDD00051018A90400B21EEF0A3EFA4
:10571000F090400B21E0FEA3E0FF7C007D80510073
:10572000BAD3ED9440EC6480948090400B21E0FE6D
:105730004013A3E0FF7C007D805100BAEF2401FFFD
:10574000E43EFE800AA3E0FF7C007D805100BA9019
:10575000400B1FEEF0A3EFF090400B1FE0FEA3E024
:10576000C39480EE6480947F50067F80C007800AD7
:1057700090400B1FE0A3E0FFC007904008C8E0FE88
:10578000A3E0FF7C007D15510052AC06AD077412FA
:105790002DF974403CFA7B01D0E051003E90400B63
:1057A00021E0FEA3E0FF8FF0C00674132DF97440D2
:1057B0003CFAD0E041588D90400B2FE0FEA3E07CF6
:1057C000002400FDEC3EFCC004C00590400B34E01A
:1057D000FD7C007E017F00510064D005D0045100A3
:1057E0005290400B21EEF0A3EFF090400B21E0FE31
:1057F000A3E0FF7C007D805100BAD3ED9440EC64BF
:1058000080948090400B21E0FE4013A3E0FF7C00D9
:105810007D805100BAEF2401FFE43EFE800AA3E040
:10582000FF7C007D805100BA90400B1FEEF0A3EF8B
:10583000F090400B1FE0FEA3E0D3947FEE648094D1
:105840008040067F80C007800A90400B1FE0A3E0E5
:10585000FFC007904008C8E0FEA3E0FF7C007D1574
:10586000510052AC06AD0774122DF974403CFA7B1E
:1058700001D0E051003E90400B21E0FEA3E0FF8FFD
:10588000F0C00674132DF974403CFAD0E051016E5B
:1058900022E4F55AF55BE55D700B90400C3AE02090
:1058A000E3037F01227F007E807D037C0051614203
:1058B000BF01037F01227B047A8079045102EB90BF
:1058C000400C2251034079085102EB90400C2651C4
:1058D00003407B837A0679FF51A6D57B837A0779CB
:1058E0000F51A6D57B417A0C79227D04519BD17B47
:1058F000837A07791E51A6D57B417A0C79267D04DF
:10590000519BD190400C22E0FCA3E0FDA3E0FEA35C
:10591000E0FF7B007A8079037800C35102B460090C
:105920007B837A07792D415B5090400C26E0FCA3E5
:10593000E0FDA3E0FEA3E0FF7B0C7A807903780012
:10594000D35102B440097B837A077958415B509068
:10595000400C22E0FCA3E0FDA3E0FEA3E0240CFF4A
:10596000E43EFEE43DFDE43CFC90400C225103404B
:1059700090400C22A3A3E0FEA3E0FFC00690400CE1
:1059800026A3A3E0FEA3E0AC06D006C39FFFEC9ED7
:10599000CF2401CF340090400C2AF0A3EFF09040C8
:1059A0000C2AE0FEA3E04E7003415D5190400C22B2
:1059B000E0FCA3E0FDA3E0FEA3E02400FFE43EFE44
:1059C000ED3401FDE43CA907AA06AB05C003C00203
:1059D000C001782C7C0C7D41D001D002D0037E0028
:1059E0007F0251045890400C22E0FCA3E0FDA3E0AC
:1059F000FEA3E02402FFE43EFEE43DFDE43CFCE4C3
:105A00002FFFE43EFEED3401FDE43CA907AA06ABFE
:105A100005C003C002C001782E7C0C7D41D001D0AE
:105A200002D0037E007F0151045890400C2CE0FE10
:105A3000A3E02402FFE43EFE90400C2AE0FCA3E039
:105A4000FDD3EF9DEE9C40177B837A07798151A6A9
:105A5000D57B417A0C792C7D02519BD17F0122901C
:105A6000400C2CE0FEA3E0C39401F52BEE9400F56E
:105A70002A90400C22E0FCA3E0FDA3E0FEA3E0247A
:105A800003FFE43EFEE43DFDE43CFCE42FFFE43E86
:105A9000FEED3401FDE43CA907AA06AB058D258A7D
:105AA00026892775210275220075230090400C2E4F
:105AB000E0FF519D1290400C22E0F8A3E0F9A3E032
:105AC000FAA3E0FB90400C2CE0FEA3E02402FFE4EC
:105AD0003EFEE4FCFDEB2FFFEA3EFEED39FDEC3827
