:020000040000FA
:0A0000000208B9E49007F003F022B3
:03000B0001B9F93F
:0300130001BA5BD4
:03001B0001BABD6A
:0300230001BB1FFF
:03002B0001BB8195
:0300330001BBE32B
:03003B0001BC45C0
:0300430001BCA756
:03004B0001BD09EB
:0300530001BD6B81
:03005B0001BDCD17
:0300630001BE2FAC
:03006B0001BE9142
:0300730001BEF3D8
:10007B0001BF55EB7002E72289828A831410E704D3
:10008B00F593E022F593E49322BB000327F722F8C4
:10009B00EB89828A831410E706F593E028F022F5AA
:1000AB0093E4932822BB0002F722BB8000500989FE
:1000BB00828A838B931593F022EF8DF0A4A8F0CF57
:1000CB008CF0A428CE8DF0A42EFE22BC000BBE001B
:1000DB0029EF8DF084FFADF022E4CCF875F008EF3A
:1000EB002FFFEE33FEEC33FCEE9DEC984005FCEE5F
:1000FB009DFE0FD5F0E9E4CEFD22EDF8F5F0EE0014
:10010B008420D21CFEADF075F008EF2FFFED33FD10
:10011B004007985006D5F0F222C398FD0FD5F0EAB0
:10012B0022C2D5EC30E709B2D5E4C39DFDE49CFCBB
:10013B00EE30E716B2D5E4C39FFFE49EFE1200003B
:10014B00D6C3E49DFDE49CFC8004120000D630D5A0
:10015B0007C3E49FFFE49EFE22C5F0F8A3E028F05E
:10016B00C5F0F8E582158270021583E038F022A302
:10017B00F8E0C5F025F0F0E582158270021583E0FA
:10018B00C838F0E822EB7007E7F5F009E719228988
:10019B00828A831410E708F593E0F5F0A3E022F5CB
:1001AB0093E493F5F074019322BB000B09C5F02780
:1001BB00F7C5F01937F722F8EB89828A831410E719
:1001CB0007F593E802000164F59374019325F0F5AC
:1001DB00F0E4933822BB0006F709A7F01922BB8085
:1001EB0000500D89828A838B931593F0E5F0A3F071
:1001FB0022E88FF0A4CC8BF0A42CFCE98EF0A42C7D
:10020B00FC8AF0EDA42CFCEA8EF0A4CDA8F08BF0C8
:10021B00A42DCC3825F0FDE98FF0A42CCD35F0FCC6
:10022B00EB8EF0A4FEA9F0EB8FF0A4CFC5F02ECD92
:10023B0039FEE43CFCEAA42DCE35F0FDE43CFC2277
:10024B0075F008758200EF2FFFEE33FECD33CDCC6A
:10025B0033CCC58233C5829BED9AEC99E5829840ED
:10026B000CF582EE9BFEED9AFDEC99FC0FD5F0D6CA
:10027B00E4CEFBE4CDFAE4CCF9A88222B800C1B9F4
:10028B000059BA002DEC8BF084CFCECDFCE5F0CB32
:10029B00F97818EF2FFFEE33FEED33FDEC33FCEB6B
:1002AB0033FB10D703994004EB99FB0FD8E5E4F926
:1002BB00FA227818EF2FFFEE33FEED33FDEC33FC13
:1002CB00C933C910D7059BE99A4007EC9BFCE99A07
:1002DB00F90FD8E0E4C9FAE4CCFB2275F010EF2F4C
:1002EB00FFEE33FEED33FDCC33CCC833C810D7074C
:1002FB009BEC9AE899400AED9BFDEC9AFCE899F887
:10030B000FD5F0DAE4CDFBE4CCFAE4C8F922CFF454
:10031B00CFCEF4CECDF4CDCCF4CC22EB9FF5F0EADE
:10032B009E42F0E99D42F0E89C45F022E8600FEC1C
:10033B00C313FCED13FDEE13FEEF13FFD8F122E810
:10034B00600FEFC333FFEE33FEED33FDEC33FCD820
:10035B00F122EB7006E9F80200053789828A8314D3
:10036B0010E706F59302000543F5930200054FBB1A
:10037B000006E9F802000588BB8000500C89828AD0
:10038B00838B931593020003B222EB7006E9F802FC
:10039B0000055F89828A831410E706F59302000536
:1003AB006CF59302000578ECF0A3EDF0A3EEF0A34F
:1003BB00EFF022EB7006E9F80200059489828A833C
:1003CB001410E706F593020005B6F593020005DF5E
:1003DB00F8EB7006E9C80200059D89828A83141028
:1003EB00E707F593E8020005BFF593020005DFBBB5
:1003FB00001CD093D0F0D0E0F8D0E0C9FBD0E0FAED
:10040B00D0E0CBC8C0E0C0F0C093020005ADBB800C
:10041B00005022D093D0F0D0E0F8D0E0C9F582D0D4
:10042B00E0CAF583D0E0CB14C8C0E0C0F0C093881D
:10043B0093020005D6D093D083D082D0E0D0E0D009
:10044B00E0E473D093D083D082F8E49370127401FC
:10045B0093700DA3A393F8740193F5828883E473CF
:10046B007402936860EFA3A3A380DF8B938A8389C5
:10047B0082159353937FE473EF4E6022EF60010E6E
:10048B00EDBB0007F709DFFCA9F022BB8000500E83
:10049B0089828A838B931593F0A3DFFCDEFA22EB20
:1004AB007008E709F608DFFA801B89828A8314102B
:1004BB00E70AF593E0A3F608DFFA8009F593E493D6
:1004CB00A3F608DFF9ECFAA9F0EDFB2288F0EF6058
:1004DB00010E4E60F088F0ED60C51410E7E7CB70AD
:1004EB000E88828C838B93E709F0A3DFFA80D614F6
:1004FB0010E71C88848C858B9589828A83F593758C
:10050B008620E0F0A3A3DFFADEF875860080B688BC
:10051B00848C858B9589828A83F593758620E493E9
:10052B00F0A3A3DFF9DEF77586008099E6FC08E6F9
:10053B00FD08E6FE08E6FF22E0FCA3E0FDA3E0FEDB
:10054B00A3E0FF22E493FC740193FD740293FE7409
:10055B000393FF22E6FB08E6F908E6FA08E6CBF878
:10056B0022E0F8A3E0F9A3E0FAA3E0FB22E493F87E
:10057B00740193F9740293FA740393FB22ECF6085B
:10058B00EDF608EEF608EFF622E6FB08E6FA08E6CB
:10059B00F922FAE6FB0808E6F925F0F618E6CA3A5E
:1005AB00F622EBF608EAF608E9F622E0FBA3E0FAFE
:1005BB00A3E0F922F8E0FBA3A3E0F925F0F0E58234
:1005CB00158270021583E0FA38F022EBF0A3EAF003
:1005DB00A3E9F022E493FB740193FA740293F922DA
:1005EB004842425F5353544154004842425F4C537C
:1005FB0054415400554E495F50524F4D00554E4992
:10060B005F464C415348004A50445F50524F4D0097
:10061B004A50445F464C415348005044535F50523C
:10062B004F4D005044535F464C4153480043435F8A
:10063B0050524F4D0043435F464C41534800554782
:10064B005F50524F4D0055475F464C415348004D4C
:10065B005F50524F4D004D5F464C41534800504F39
:10066B005745525F4F4E0052455345545F434D44DF
:10067B000052455345545F50474D00434D444A5536
:10068B004D505F46524F4D5F454C53450050474DC3
:10069B004A554D505F46524F4D5F454C53450043B5
:1006AB004D444A554D505F46524F4D5F53454C4656
:1006BB000050474D4A554D505F46524F4D5F534585
:1006CB004C46000A3D3D3D3D3D3D3D3D3D3D3D3DA7
:1006DB003D3D3D3D3D3D3D3D3D3D3D3D3D3D3D3D3F
:1006EB003D3D3D3D3D3D3D3D3D3D3D3D3D3D3D3D2F
:1006FB003D3D3D3D3D3D3D3D3D3D3D3D3D000A20AC
:10070B0052756E6E696E674D6F64653A20000A20F4
:10071B005265736574526561736F6E3A20000A20DF
:10072B004E6577626F726E416464723A20000A20E4
:10073B004C6F676963616C416464723A20000A20F4
:10074B0056657273696F6E4E756D623A20000A20A2
:10075B00436F6D70696C65446174653A2000303786
:10076B002F32322F3038002C200031303A33363ACA
:10077B003130000A5B436F6E666967457865635D70
:10078B003A200046696C65537461727441646472FB
:10079B003D002C2046696C65456E64416464723D76
:1007AB00000A5B436F6E666967457865635D3A2047
:1007BB00496E76616C69642066696C65207374613F
:1007CB00727420616464726573732E000A5B436FED
:1007DB006E666967457865635D3A20496E76616C34
:1007EB0069642066696C6520656E6420616464725F
:1007FB006573732E000A5B436F6E66696745786598
:10080B00635D3A20496E76616C696420636F6D6D30
:10081B00616E64206C656E6774682E09000A5B4319
:10082B006F6E666967457865635D3A20436F6E66E8
:10083B006967206C6F672073706163652069732033
:10084B0066756C6C2E000A2D2D2D2D2D2D2D2D202A
:10085B00000A436D646C656E203A20000A436D6498
:10086B00547970653A20000A436D64446174613AAF
:10087B0020000A5265734C656E203A20000A5265BF
:10088B0073466C61673A20004B4F004F4B000A5286
:10089B006573446174613A20004E455854004552CB
:1008AB00524F520041424F525400454E440075C7BF
:1008BB00AA75C75575923F75C7AA75C75575A21806
:1008CB0075C7AA75C755759D0275C7AA75C75575A6
:1008DB00C6A0787FE4F6D8FD75815E02000914028C
:1008EB0000C463E493A3F85407240CC8C333C45463
:1008FB000F4420C8834004F456800146F6DFE480A1
:10090B000C01020408102040809000099FE47E0136
:10091B009360CCA3FF543F30E509541FFEE493A32F
:10092B0060010ECF54E0B4E026E493FBA3E493FA0A
:10093B00A3E493F9A3E493C083C082120000B0D068
:10094B0082D083A309E970010ADFEADEE880BE5496
:10095B00C025E0602B408CE493A3FAE493A3F8E466
:10096B0093A3C8C582C8CAC583CA759340F0759353
:10097B0000A3C8C582C8CAC583CADFE3DEE1808D88
:10098B00E493A3F8E493A34003F68001F208DFF4A9
:10099B0002000918602A083B8105EB8105F58105EA
:1009AB00FF81060881061281061B81062581062E12
:1009BB0081063881064081064981065181065A819C
:1009CB00066155082681066981067281067C8106BF
:1009DB00868106988106AA8106BC0030372F3232F9
:1009EB002F30380031303A33363A313000904007EF
:1009FB0080E0FCA3E0FDA3E0FEA3E0FF11AA5AA850
:100A0B0004A905AA06AB0790400040E0FEA3E0FF57
:100A1B00E4FCFDC3110326500301195911C9B2900F
:100A2B004007801103B2E490400BA0F090400BA064
:100A3B00E0FF75F0CDA4244DF582E5F03400F5838D
:100A4B00EF2583F583759340E4F0A3F090400BA062
:100A5B00E004F0E0B404D511C01611895711B0C8E9
:100A6B0011B631E490400BA0F090400BA0E0FF7E5C
:100A7B00007C017DCD1100C474442FF974003EFA43
:100A8B009040001E7441F0A3EAF0A3E9F0904000FF
:100A9B001EE0FBA3E0FAA3E0240DF9E43AFAE4F537
:100AAB00F01101E09040001EE0FBA3E0FAA3E0246C
:100ABB000BF9E43AFAE4F5F01101E09040001EE086
:100ACB00FBA3E0FAA3E0246BF9E43AFA11035D907F
:100ADB0040001EA3E0FAA3E024CBF9E43AFA110399
:100AEB007A90400BA0E0FF9040001EE0FBA3E0FAE1
:100AFB00A3E02439F9EA3401FA114F3290400BA0EC
:100B0B00E0FF9040001EE0FBA3E0FAA3E02460F9B5
:100B1B00EA3401FA114F3290400BA0E0FF116E0B3B
:100B2B009040001EE0FBA3E0FAA3E02413F9E43AA3
:100B3B00FAC002C001110190FFAEF09040001EA35D
:100B4B00E0FAA3E0240DF9E43AFA110190FDEE4529
:100B5B00F0FEEF4DFFD001D002EE8FF01101E090CF
:100B6B0040001EE0FBA3E0FAA3E02411F9E43AFAFB
:100B7B00C002C001110190FFAEF09040001EA3E037
:100B8B00FAA3E0240BF9E43AFA110190FDEE45F0DB
:100B9B00FEEF4DFFD001D002EE8FF01101E090403F
:100BAB00001EE0FBA3E0FAA3E0F911007E700CE954
:100BBB002403F9E43AFA74011100B09040001EE0EE
:100BCB00FBA3E0FAA3E02408F9E43AFA11007EB49F
:100BDB0005149040001EA3E0FAA3E02403F9E43AC5
:100BEB00FA74051100B09040001EE0FBA3E0FAA3DD
:100BFB00E02403F9E43AFA11007E14B40C0040032C
:100C0B0001176B90000C1D75F003A4C58325F0C56F
:100C1B008373010C41010C93010CD3010D7B010E6D
:100C2B000C010E46010EA0010F67010FF30110E935
:100C3B000111C70112D29040001EE0FBA3E0FAA302
:100C4B00E0F911007E700301176BE92408F9E43A0F
:100C5B00FA11007EB40102801B9040001EE0FBA342
:100C6B00E0FAA3E02408F9E43AFA11007E64036089
:100C7B000301176B9040001EA3E0FAA3E02403F9D5
:100C8B00E43AFA74020113249040077FE0700311D9
:100C9B00CD8190400BA0E0FF11C59D11C9B29040D2
:100CAB00001EE0FBA3E0FAA3E02404F9E43AFA11F6
:100CBB00037A9040001EE0FBA3E0FAA3E02403F9C3
:100CCB00E43AFA74030113249040001EE0FBA3E006
:100CDB00FAA3E02404F9E43AFA11035D11AA5AA825
:100CEB0004A905AA06AB079040077CE0FEA3E0FF32
:100CFB00E4FCFDD31103267F0040027F0190400BE3
:100D0B00A2EFF0E0601E9040001EE0FBA3E0FAA310
:100D1B00E02409F9E43AFA1101904402FFE5F08F5F
:100D2B00F01101E090400BA0E0FF11C3DFEF700A60
:100D3B0090400BA2E0700301176B90400BA0E0FFFB
:100D4B0011B36511C9B29040001EE0FBA3E0FAA3FA
:100D5B00E02404F9E43AFA11037A9040001EE0FB18
:100D6B00A3E0FAA3E02403F9E43AFA740401132490
:100D7B009040001EE0FBA3E0FAA3E02404F9E43A60
:100D8B00FA11035D11AA5AA804A905AA06AB07908C
:100D9B00400042E0FEA3E0FFE4FCFDD31103267FFD
:100DAB000040027F0190400BA2EFF0E0601E9040EC
:100DBB00001EE0FBA3E0FAA3E02409F9E43AFA11E0
:100DCB0001904420FFE5F08FF01101E090400BA063
:100DDB00E0FF11B153EF700A90400BA2E0700301DA
:100DEB00176B90400BA0E0FF11C5DA9040001EE09E
:100DFB00FBA3E0FAA3E02403F9E43AFA7406011327
:100E0B002490400BA0E0FF11CD069040001EE0FBAC
:100E1B00A3E0FAA3E02408F9E43AFA11007EB40542
:100E2B0004E41100B09040001EE0FBA3E0FAA3E045
:100E3B002403F9E43AFA74010113249040001EE0F4
:100E4B00FBA3E0FAA3E02408F9E43AFA11007EB41C
:100E5B0003149040001EA3E0FAA3E02403F9E43A44
:100E6B00FA74070113249040001EE0FBA3E0FAA3E1
:100E7B00E02408F9E43AFA11007E640260030117DA
:100E8B006B9040001EA3E0FAA3E02403F9E43AFAC6
:100E9B0074050113249040001EE0FBA3E0FAA3E0CD
:100EAB002408F9E43AFA11007EB402149040001EB3
:100EBB00A3E0FAA3E02403F9E43AFA740B01132438
:100ECB009040001EE0FBA3E0FAA3E02408F9E43A0B
:100EDB00FA11007EB404149040001EA3E0FAA3E0C4
:100EEB002403F9E43AFA740B0113249040001EE03A
:100EFB00FBA3E0FAA3E02417F9E43AFA110190FFFF
:100F0B00AEF09040001EA3E0FAA3E0240DF9E43A02
:100F1B00FA110190FDE5F05EFEED5FFF90400BA333
:100F2B00EEF0A3EFF090400BA3E0A3E0543FFF9053
:100F3B00400BA3E4F0A3EFF090400BA3E0FEA3E083
:100F4B004E600301176B9040001EE0FBA3E0FAA379
:100F5B00E02403F9E43AFA74080113249040001ECC
:100F6B00E0FBA3E0FAA3E02408F9E43AFA11007ECF
:100F7B00B402149040001EA3E0FAA3E02403F9E4AA
:100F8B003AFA740B0113249040001EE0FBA3E0FA25
:100F9B00A3E02408F9E43AFA11007EB4041490405B
:100FAB00001EA3E0FAA3E02403F9E43AFA740B0160
:100FBB00132490400BA0E0FF11B4D311C9B29040A1
:100FCB00001EE0FBA3E0FAA3E02404F9E43AFA11D3
:100FDB00037A9040001EE0FBA3E0FAA3E02403F9A0
:100FEB00E43AFA74090113249040001EE0FBA3E0DD
:100FFB00FAA3E02408F9E43AFA11007EB402149043
:10100B0040001EA3E0FAA3E02403F9E43AFA740BC0
:10101B000113249040001EE0FBA3E0FAA3E0240898
:10102B00F9E43AFA11007EB404149040001EA3E0D8
:10103B00FAA3E02403F9E43AFA740B011324904069
:10104B00001EE0FBA3E0FAA3E02404F9E43AFA1152
:10105B00035D11AA5AA804A905AA06AB079040077D
:10106B0078E0FEA3E0FFE4FCFDD31103265003015F
:10107B00176B9040001EE0FBA3E0FAA3E024C0F93D
:10108B00EA3401FA11007EFF9040001EA3E0FAA3A0
:10109B00E024BFF9EA3401FAEF1100B090400BA045
:1010AB00E0FFE4FDFC118CE990400BA0E0FF11B7D1
:1010BB008211C9B29040001EE0FBA3E0FAA3E0242A
:1010CB0004F9E43AFA11037A9040001EE0FBA3E026
:1010DB00FAA3E02403F9E43AFA740A0113249040CA
:1010EB00001EE0FBA3E0FAA3E02408F9E43AFA11AE
:1010FB00007EB402149040001EA3E0FAA3E0240388
:10110B00F9E43AFA740B0113249040001EE0FBA3A0
:10111B00E0FAA3E02408F9E43AFA11007EB40414CF
:10112B009040001EA3E0FAA3E02403F9E43AFA741A
:10113B000B0113249040001EE0FBA3E0FAA3E02474
:10114B0004F9E43AFA11035D11AA5AA804A905AAF5
:10115B0006AB079040077AE0FEA3E0FFE4FCFDD36B
:10116B001103267F0040027F0190400BA2EFF0E0BD
:10117B00601E9040001EE0FBA3E0FAA3E02409F9F7
:10118B00E43AFA1101904480FFE5F08FF01101E091
:10119B0090400BA0E0FF11ABBFEF700A90400BA289
:1011AB00E0700301176B9040001EE0FBA3E0FAA375
:1011BB00E02403F9E43AFA740C01132490400BA0D9
:1011CB00E0FF11ABBFEF70169040001EE0FBA3E0F9
:1011DB00FAA3E02403F9E43AFA74060113249040CD
:1011EB000BA0E0FF74FFFDFC118CE99040001EE0AA
:1011FB00FBA3E0FAA3E024C3F9EA3401FA11007E61
:10120B00FF9040001EA3E0FAA3E024BFF9EA3401EB
:10121B00FA11007ED39F501911BFB79040001EE00A
:10122B00FBA3E0FAA3E02403F9E43AFA74060113F2
:10123B00249040001EE0FBA3E0FAA3E024C1F9EAEE
:10124B003401FA11007E603711007EFF9040001EC2
:10125B00A3E0FAA3E024BFF9EA3401FA11007ED32C
:10126B009F400301176B11BFB79040001EE0FBA31B
:10127B00E0FAA3E02403F9E43AFA7406011324908C
:10128B0040001EE0FBA3E0FAA3E024C9F9EA340115
:10129B00FA11035D9040001EA3E0FAA3E024D9F9F4
:1012AB00E43AFA110395D3110326400301176B118E
:1012BB00BFB79040001EE0FBA3E0FAA3E02403F9C4
:1012CB00E43AFA740680529040001EE0FBA3E0FA69
:1012DB00A3E02408F9E43AFA11007EB4021390401B
:1012EB00001EA3E0FAA3E02403F9E43AFA740B809E
:1012FB00289040001EE0FBA3E0FAA3E02408F9E4E9
:10130B003AFA11007EB404179040001EA3E0FAA332
:10131B00E02403F9E43AFA740B1100B001176B9057
:10132B00400BA0E0FF9040001EE0FBA3E0FAA3E01F
:10133B002459F9E43AFA11858390400BA0E0FF9011
:10134B0040001EE0FBA3E0FAA3E024B9F9E43AFA6B
:10135B0011858390400BA0E0FF9040001EE0FBA3A3
:10136B00E0FAA3E024D9F9E43AFA11858390400B13
:10137B00A0E0FF9040001EE0FBA3E0FAA3E024F9FD
:10138B00F9E43AFA11858390400BA0E0FF904000FE
:10139B001EE0FBA3E0FAA3E02419F9EA3401FA11E9
:1013AB0085839040001EE0FBA3E0FAA3E02413F931
:1013BB00E43AFAC002C001110190FFAEF090400078
:1013CB001EA3E0FAA3E0240DF9E43AFA110190FD13
:1013DB00EE45F0FEEF4DFFD001D002EE8FF0110184
:1013EB00E09040001EE0FBA3E0FAA3E02411F9E437
:1013FB003AFAC002C001110190FFAEF09040001EFE
:10140B00A3E0FAA3E0240BF9E43AFA110190FDEE04
:10141B0045F0FEEF4DFFD001D002EE8FF01101E051
:10142B009040001EE0FBA3E0FAA3E02417F9E43A96
:10143B00FA110190FFAEF09040001EA3E0FAA3E07A
:10144B00240BF9E43AFA110190FDE5F05EFEED5F35
:10145B00FF90400BA5EEF0A3EFF090400BA5E0FE44
:10146B00A3E04E70030115CA9040001EE0FBA3E001
:10147B00FAA3E02403F9E43AFA740B1100B090409C
:10148B000BA7E4F0A304F0E490400BA1F090400B09
:10149B00A7E0FEA3E04E700301176B90400BA7E093
:1014AB00FEA3E0FF90400BA5E0FCA3E0FDEC5EFE8D
:1014BB00ED5F4E70030115AB9040001EE0FBA3E007
:1014CB00FAA3E02449F9E43AFA90400BA1E07E003C
:1014DB0029F9EE3AFA11007E2401FFEE33FEC3EF39
:1014EB009409EE6480948050229040001EA3E0FA91
:1014FB00A3E02449F9E43AFA90400BA1E07E0029DD
:10150B00F9EE3AFA11007E04FF80027F0990400049
:10151B001EE0FBA3E0FAA3E02449F9E43AFA904079
:10152B000BA1E07C0029F9EC3AFAEF1100B09040E6
:10153B00001EE0FBA3E0FAA3E02439F9E43AFA90A9
:10154B00400BA1E07E0029F9EE3AFA11007E6050C3
:10155B009040001EA3E0FAA3E02439F9E43AFA9094
:10156B00400BA1E029F9EE3AFA11007EFF90400002
:10157B001EA3E0FAA3E02449F9E43AFA90400BA148
:10158B00E029F9EC3AFA11007EC39F40139040001A
:10159B001EA3E0FAA3E02408F9E43AFAE41100B040
:1015AB0090400BA7E0FEA3E025E0FFEE3390400B4D
:1015BB00A7F0A3EFF090400BA1E004F0011498907A
:1015CB00400BA0E0FF11ABBFEF703290400BA0E0DF
:1015DB00FF75F0CDA4244DF582E5F03400F583EFD3
:1015EB002583F583C083C082759340E04404FFA339
:1015FB00E0759340D082D083CFF0A3EFF090400002
:10160B001EE0FBA3E0FAA3E024C2F9EA3401FA11CD
:10161B00007E605111007EFF9040001EA3E0FAA3F4
:10162B00E024BFF9EA3401FA11007ED39F40030195
:10163B0017259040001EE0FBA3E0FAA3E024C2F9BB
:10164B00EA3401FA11007EFF9040001EA3E0FAA3DA
:10165B00E024BFF9EA3401FA11007EC39F40030175
:10166B00176B01175E9040001EE0FBA3E0FAA3E0AE
:10167B00246BF9E43AFA11035D9040001EA3E0FAE3
:10168B00A3E024B9F9E43AFA110395D311032650D8
:10169B002C9040001EE0FBA3E0FAA3E024CBF9E47E
:1016AB003AFA11035D9040001EA3E0FAA3E024B9BF
:1016BB00F9E43AFA110395D31103264002805B90AB
:1016CB0040001EE0FBA3E0FAA3E0245DF9E43AFA44
:1016DB0011035D9040001EA3E0FAA3E024B9F9E4E6
:1016EB003AFA110395C3110326500280669040000D
:1016FB001EE0FBA3E0FAA3E024C5F9EA3401FA11DA
:10170B00035D9040001EA3E0FAA3E024B9F9E43A8C
:10171B00FA110395D3110326400C90400BA0E0FF68
:10172B0074FFFDFC80379040001EE0FBA3E0FAA3A2
:10173B00E024C5F9EA3401FA11035D9040001EA3C1
:10174B00E0FAA3E024B9F9E43AFA110395C31103C3
:10175B0026500D90400BA0E0FF7D017C00118CE921
:10176B009040001EE0FBA3E0FAA3E0240FF9E43A5B
:10177B00FAC002C001110190FFAEF09040001EA311
:10178B00E0FAA3E02409F9E43AFA110190FDEE45E1
:10179B00F0FEEF4DFFD001D002EE8FF01101E09083
:1017AB0040001EE0FBA3E0FAA3E02415F9E43AFAAB
:1017BB00110190FFAEF09040001EA3E0FAA3E024CD
:1017CB0009F9E43AFA110190FDE5F05EFEED5FFFD9
:1017DB0090400BA5EEF0A3EFF090400BA5E0FEA31D
:1017EB00E04E70030119499040001EE0FBA3E0FAA4
:1017FB00A3E02403F9E43AFA74051100B090400B0E
:10180B00A7E4F0A304F0E490400BA1F090400BA7E9
:10181B00E0FEA3E04E700301194990400BA7E0FED8
:10182B00A3E0FF90400BA5E0FCA3E0FDEC5EFEED1A
:10183B005F4E700301192A9040001EE0FBA3E0FAF3
:10184B00A3E02429F9E43AFA90400BA1E07E0029A9
:10185B00F9EE3AFA11007E2401FFEE33FEC3EF944A
:10186B0009EE6480948050229040001EA3E0FAA3FE
:10187B00E02429F9E43AFA90400BA1E07E0029F923
:10188B00EE3AFA11007E04FF80027F099040001EA1
:10189B00E0FBA3E0FAA3E02429F9E43AFA90400B29
:1018AB00A1E07C0029F9EC3AFAEF1100B09040006E
:1018BB001EE0FBA3E0FAA3E02419F9E43AFA904006
:1018CB000BA1E07E0029F9EE3AFA11007E605090F0
:1018DB0040001EA3E0FAA3E02419F9E43AFA904081
:1018EB000BA1E029F9EE3AFA11007EFF9040001EA1
:1018FB00A3E0FAA3E02429F9E43AFA90400BA1E023
:10190B0029F9EC3AFA11007EC39F40139040001E58
:10191B00A3E0FAA3E02408F9E43AFAE41100B0904A
:10192B00400BA7E0FEA3E025E0FFEE3390400BA7B2
:10193B00F0A3EFF090400BA1E004F00118179040DA
:10194B000BA0E004F0E0C394045003010A7422AB33
:10195B0025AA26A92790400021EBF0A3EAF0A3E9E2
:10196B00F090400021E0FBA3E475F00111017AA98E
:10197B00F0FA11007E14600604700B0126B2E52B01
:10198B006401452A60030126B2AB21AA22A9239048
:10199B00400021EBF0A3EAF0A3E9F090400021E036
:1019AB00FBA3E475F00111017AA9F0FA740111009F
:1019BB00B0E490400BA9F090400BA9E0FF7E007CB7
:1019CB00017DCD1100C474442FF974003EFA904090
:1019DB0000277441F0A3EAF0A3E9F090400027E060
:1019EB00FBA3E0FAA3E02403F9E43AFA11007EFF2B
:1019FB0090400021E0FBA3E475F00111017AA9F0FE
:101A0B00FAEF1100B090400027E0FBA3E0FAA3E04F
:101A1B002415F9E43AFA110190E5F0FF904000210A
:101A2B00E0FBA3E475F00111017AA9F0FAEF1100C4
:101A3B00B090400027E0FBA3E0FAA3E02415F9E403
:101A4B003AFA110190FF90400021E0FBA3E475F0FE
:101A5B000111017AA9F0FAEF1100B090400027E0D4
:101A6B00FBA3E0FAA3E02409F9E43AFA110190E5AB
:101A7B00F0FF90400021E0FBA3E475F00111017A27
:101A8B00A9F0FAEF1100B090400027E0FBA3E0FAB9
:101A9B00A3E02409F9E43AFA110190FF90400021E8
:101AAB00E0FBA3E475F00111017AA9F0FAEF110044
:101ABB00B090400027E0FBA3E0FAA3E0240FF9E489
:101ACB003AFA110190E5F0FF90400021E0FBA3E40E
:101ADB0075F00111017AA9F0FAEF1100B0904000F6
:101AEB0027E0FBA3E0FAA3E0240FF9E43AFA110193
:101AFB0090FF90400021E0FBA3E475F00111017A07
:101B0B00A9F0FAEF1100B090400027E0FBA3E0FA38
:101B1B00A3E0240FF9E43AFAE4F5F01101E0904068
:101B2B000027E0FBA3E0FAA3E02417F9E43AFA114B
:101B3B000190E5F0FF90400021E0FBA3E475F0017C
:101B4B0011017AA9F0FAEF1100B090400027E0FBE9
:101B5B00A3E0FAA3E02417F9E43AFA110190FF90FD
:101B6B00400021E0FBA3E475F00111017AA9F0FA22
:101B7B00EF1100B090400027E0FBA3E0FAA3E024B4
:101B8B000DF9E43AFA110190E5F0FF90400021E0E5
:101B9B00FBA3E475F00111017AA9F0FAEF1100B083
:101BAB0090400027E0FBA3E0FAA3E0240DF9E43A10
:101BBB00FA110190FF90400021E0FBA3E475F001C6
:101BCB0011017AA9F0FAEF1100B090400027E0FB69
:101BDB00A3E0FAA3E0240BF9E43AFA110190E5F043
:101BEB00FF90400021E0FBA3E475F00111017AA9FD
:101BFB00F0FAEF1100B090400027E0FBA3E0FAA34E
:101C0B00E0240BF9E43AFA110190FF90400021E037
:101C1B00FBA3E475F00111017AA9F0FAEF1100B002
:101C2B0090400027E0FBA3E0FAA3E02413F9E43A89
:101C3B00FA110190E5F0FF90400021E0FBA3E47561
:101C4B00F00111017AA9F0FAEF1100B090400027D2
:101C5B00E0FBA3E0FAA3E02413F9E43AFA110190B4
:101C6B00FF90400021E0FBA3E475F00111017AA97C
:101C7B00F0FAEF1100B090400027E0FBA3E0FAA3CD
:101C8B00E02413F9E43AFAE4F5F01101E090400096
:101C9B0027E0FBA3E0FAA3E02411F9E43AFA1101DF
:101CAB0090E5F0FF90400021E0FBA3E475F00111FB
:101CBB00017AA9F0FAEF1100B090400027E0FBA3E6
:101CCB00E0FAA3E02411F9E43AFA110190FF9040F5
:101CDB000021E0FBA3E475F00111017AA9F0FAEF02
:101CEB001100B090400027E0FBA3E0FAA3E0241121
:101CFB00F9E43AFAE4F5F01101E090400027E0FB3B
:101D0B00A3E0FAA3E02419F9E43AFA90400024EB9B
:101D1B00F0A3EAF0A3E9F0E490400BAAF0904000A6
:101D2B0024E0FBA3E475F00111017AA9F0FA11008C
:101D3B007E540FC454F0FF90400024E0FBA3E475E5
:101D4B00F00111017AA9F0FA11007E540F4FFF90A8
:101D5B00400021E0FBA3E475F00111017AA9F0FA30
:101D6B00EF1100B090400BAAE004F0E0B408AE9085
:101D7B00400027E0FBA3E0FAA3E02429F9E43AFAB8
:101D8B0090400024EBF0A3EAF0A3E9F0E490400BC1
:101D9B00AAF090400024E0FBA3E475F00111017A56
:101DAB00A9F0FA11007E540FC454F0FF90400024A8
:101DBB00E0FBA3E475F00111017AA9F0FA11007EA2
:101DCB00540F4FFF90400021E0FBA3E475F001118D
:101DDB00017AA9F0FAEF1100B090400BAAE004F0E1
:101DEB00E0B408AE90400027E0FBA3E0FAA3E024A8
:101DFB0039F9E43AFA90400024EBF0A3EAF0A3E9B6
:101E0B00F0E490400BAAF090400024E0FBA3E475B3
:101E1B00F00111017AA9F0FA11007E540FC454F0AD
:101E2B00FF90400024E0FBA3E475F00111017AA9B7
:101E3B00F0FA11007E540F4FFF90400021E0FBA3FE
:101E4B00E475F00111017AA9F0FAEF1100B090409E
:101E5B000BAAE004F0E0B408AE90400027E0FBA32F
:101E6B00E0FAA3E02449F9E43AFA90400024EBF0BD
:101E7B00A3EAF0A3E9F0E490400BAAF09040002411
:101E8B00E0FBA3E475F00111017AA9F0FA11007ED1
:101E9B00540FC454F0FF90400024E0FBA3E475F012
:101EAB000111017AA9F0FA11007E540F4FFF9040F7
:101EBB000021E0FBA3E475F00111017AA9F0FAEF20
:101ECB001100B090400BAAE004F0E0B408AE9040D3
:101EDB000027E0FBA3E0FAA3E024C2F9EA3401FAFD
:101EEB0011007EFF90400021E0FBA3E475F001118F
:101EFB00017AA9F0FAEF1100B090400027E0FBA3A4
:101F0B00E0FAA3E024C5F9EA3401FA11035D78186D
:101F1B0011033790400021E0FBA3E475F0011101A0
:101F2B007AA9F0FAEF1100B090400027E0FBA3E094
:101F3B00FAA3E024C5F9EA3401FA11035D78101114
:101F4B00033790400021E0FBA3E475F00111017A07
:101F5B00A9F0FAEF1100B090400027E0FBA3E0FAE4
:101F6B00A3E024C5F9EA3401FA11035D78081103E3
:101F7B003790400021E0FBA3E475F00111017AA931
:101F8B00F0FAEF1100B090400027E0FBA3E0FAA3BA
:101F9B00E024C5F9EA3401FA11035D90400021E019
:101FAB00FBA3E475F00111017AA9F0FAEF1100B06F
:101FBB0090400027E0FBA3E0FAA3E024BFF9EA344A
:101FCB0001FA11007EFF90400021E0FBA3E475F0C5
:101FDB000111017AA9F0FAEF1100B090400027E04F
:101FEB00FBA3E0FAA3E02479F9E43AFA11035D7854
:101FFB000811033790400021E0FBA3E475F00111B9
:10200B00017AA9F0FAEF1100B090400027E0FBA392
:10201B00E0FAA3E02479F9E43AFA11035D90400069
:10202B0021E0FBA3E475F00111017AA9F0FAEF119D
:10203B0000B090400027E0FBA3E0FAA3E02499F95D
:10204B00E43AFA11035D780811033790400021E060
:10205B00FBA3E475F00111017AA9F0FAEF1100B0BE
:10206B0090400027E0FBA3E0FAA3E02499F9E43ABF
:10207B00FA11035D90400021E0FBA3E475F0011120
:10208B00017AA9F0FAEF1100B090400027E0FBA312
:10209B00E0FAA3E024B9F9E43AFA11035D781811D8
:1020AB00033790400021E0FBA3E475F00111017AA6
:1020BB00A9F0FAEF1100B090400027E0FBA3E0FA83
:1020CB00A3E024B9F9E43AFA11035D781011033750
:1020DB0090400021E0FBA3E475F00111017AA9F017
:1020EB00FAEF1100B090400027E0FBA3E0FAA3E069
:1020FB0024B9F9E43AFA11035D78081103379040DB
:10210B000021E0FBA3E475F00111017AA9F0FAEFCD
:10211B001100B090400027E0FBA3E0FAA3E024B944
:10212B00F9E43AFA11035D90400021E0FBA3E4755A
:10213B00F00111017AA9F0FAEF1100B090400027DD
:10214B00E0FBA3E0FAA3E024BDF9E43AFA11035D46
:10215B00781811033790400021E0FBA3E475F001E0
:10216B0011017AA9F0FAEF1100B090400027E0FBC3
:10217B00A3E0FAA3E024BDF9E43AFA11035D781069
:10218B0011033790400021E0FBA3E475F00111012E
:10219B007AA9F0FAEF1100B090400027E0FBA3E022
:1021AB00FAA3E024BDF9E43AFA11035D78081103B0
:1021BB003790400021E0FBA3E475F00111017AA9EF
:1021CB00F0FAEF1100B090400027E0FBA3E0FAA378
:1021DB00E024BDF9E43AFA11035D90400021E0FBE5
:1021EB00A3E475F00111017AA9F0FAEF1100B09098
:1021FB00400027E0FBA3E0FAA3E024CBF9E43AFA92
:10220B0011035D781811033790400021E0FBA3E424
:10221B0075F00111017AA9F0FAEF1100B0904000AE
:10222B0027E0FBA3E0FAA3E024CBF9E43AFA11038D
:10223B005D781011033790400021E0FBA3E475F0AB
:10224B000111017AA9F0FAEF1100B090400027E0DC
:10225B00FBA3E0FAA3E024CBF9E43AFA11035D788F
:10226B000811033790400021E0FBA3E475F0011146
:10227B00017AA9F0FAEF1100B090400027E0FBA320
:10228B00E0FAA3E024CBF9E43AFA11035D904000A5
:10229B0021E0FBA3E475F00111017AA9F0FAEF112B
:1022AB0000B090400027E0FBA3E0FAA3E0245DF927
:1022BB00E43AFA11035D781811033790400021E0DE
:1022CB00FBA3E475F00111017AA9F0FAEF1100B04C
:1022DB0090400027E0FBA3E0FAA3E0245DF9E43A89
:1022EB00FA11035D781011033790400021E0FBA336
:1022FB00E475F00111017AA9F0FAEF1100B09040EA
:10230B000027E0FBA3E0FAA3E0245DF9E43AFA111D
:10231B00035D780811033790400021E0FBA3E475BF
:10232B00F00111017AA9F0FAEF1100B090400027EB
:10233B00E0FBA3E0FAA3E0245DF9E43AFA11035DB4
:10234B0090400021E0FBA3E475F00111017AA9F0A4
:10235B00FAEF1100B090400027E0FBA3E0FAA3E0F6
:10236B00246BF9E43AFA11035D78181103379040A6
:10237B000021E0FBA3E475F00111017AA9F0FAEF5B
:10238B001100B090400027E0FBA3E0FAA3E0246B20
:10239B00F9E43AFA11035D781011033790400021EC
:1023AB00E0FBA3E475F00111017AA9F0FAEF11003B
:1023BB00B090400027E0FBA3E0FAA3E0246BF9E424
:1023CB003AFA11035D780811033790400021E0FBC6
:1023DB00A3E475F00111017AA9F0FAEF1100B090A6
:1023EB00400027E0FBA3E0FAA3E0246BF9E43AFA00
:1023FB0011035D90400021E0FBA3E475F001110196
:10240B007AA9F0FAEF1100B090400027E0FBA3E0AF
:10241B00FAA3E024D9F9E43AFA11035D7808110321
:10242B003790400021E0FBA3E475F00111017AA97C
:10243B00F0FAEF1100B090400027E0FBA3E0FAA305
:10244B00E024D9F9E43AFA11035D90400021E0FB56
:10245B00A3E475F00111017AA9F0FAEF1100B09025
:10246B00400027E0FBA3E0FAA3E024F9F9E43AFAF1
:10247B0011035D780811033790400021E0FBA3E4C2
:10248B0075F00111017AA9F0FAEF1100B09040003C
:10249B0027E0FBA3E0FAA3E024F9F9E43AFA1103ED
:1024AB005D90400021E0FBA3E475F00111017AA9D6
:1024BB00F0FAEF1100B090400027E0FBA3E0FAA385
:1024CB00E02419F9EA3401FA11035D781811033786
:1024DB0090400021E0FBA3E475F00111017AA9F013
:1024EB00FAEF1100B090400027E0FBA3E0FAA3E065
:1024FB002419F9EA3401FA11035D781011033790AE
:10250B00400021E0FBA3E475F00111017AA9F0FA78
:10251B00EF1100B090400027E0FBA3E0FAA3E0240A
:10252B0019F9EA3401FA11035D7808110337904069
:10253B000021E0FBA3E475F00111017AA9F0FAEF99
:10254B001100B090400027E0FBA3E0FAA3E02419B0
:10255B00F9EA3401FA11035D90400021E0FBA3E49A
:10256B0075F00111017AA9F0FAEF1100B09040005B
:10257B0027E0FBA3E0FAA3E0243AF9EA3401FA11CD
:10258B00007EFF90400021E0FBA3E475F0011101F8
:10259B007AA9F0FAEF1100B090400027E0FBA3E01E
:1025AB00FAA3E02461F9EA3401FA11007EFF9040AE
:1025BB000021E0FBA3E475F00111017AA9F0FAEF19
:1025CB001100B090400027E0FBA3E0FAA3E02495B4
:1025DB00F9EA3401FA110190E5F0FF90400021E097
:1025EB00FBA3E475F00111017AA9F0FAEF1100B029
:1025FB0090400027E0FBA3E0FAA3E02495F9EA342E
:10260B0001FA110190FF90400021E0FBA3E475F06B
:10261B000111017AA9F0FAEF1100B090400027E008
:10262B00FBA3E0FAA3E02499F9EA3401FA11019033
:10263B00E5F0FF90400021E0FBA3E475F0011101F0
:10264B007AA9F0FAEF1100B090400027E0FBA3E06D
:10265B00FAA3E02499F9EA3401FA110190FF9040B2
:10266B000021E0FBA3E475F00111017AA9F0FAEF68
:10267B001100B090400BA9E004F0E064046003018A
:10268B0019C2AB21AA22A923AE0290400021A3E0DC
:10269B00FAA3E0AC02C399F529EC9EF528E5294590
:1026AB0028700C752C7022E4F528F529752C302236
:1026BB00C3E52B9401E52A94005003012FFFAB25B2
:1026CB00AA26A9279040002AEBF0A3EAF0A3E9F091
:1026DB009040002AE0FBA3E475F00111017AA9F008
:1026EB00FA11007E147003012A73147003012C4439
:1026FB00147003012E1824036003012FFFE52B64D4
:10270B0003452A600BE52B640D452A6003012FFF5F
:10271B009040002AE0FBA3E475F00111017AA9F0C7
:10272B00FA11007E90400BADF0E0D394034003010F
:10273B002FFF9040002AE0FBA3E475F00111017A12
:10274B00A9F0FA11007E90400BAEF0E52B640D451D
:10275B002A600301286A9040002AE0FBA3E475F08D
:10276B000111017AA9F0FA11007EFE9040002AE0D7
:10277B00FBA3E475F00111017AA9F0FA11007EFDBB
:10278B00EDFF90400040EEF0A3EFF09040002AE008
:10279B00FBA3E475F00111017AA9F0FA11007EFE9A
:1027AB009040002AE0FBA3E475F00111017AA9F037
:1027BB00FA11007EFDEDFF9040077CEEF0A3EFF0E9
:1027CB009040002AE0FBA3E475F00111017AA9F017
:1027DB00FA11007EFE9040002AE0FBA3E475F001A5
:1027EB0011017AA9F0FA11007EFDEDFF9040004235
:1027FB00EEF0A3EFF09040002AE0FBA3E475F001AC
:10280B0011017AA9F0FA11007EFE9040002AE0FB3C
:10281B00A3E475F00111017AA9F0FA11007EFDED28
:10282B00FF90400778EEF0A3EFF09040002AE0FB1A
:10283B00A3E475F00111017AA9F0FA11007EFE9064
:10284B0040002AE0FBA3E475F00111017AA9F0FA2C
:10285B0011007EFDEDFF9040077AEEF0A3EFF090B4
:10286B00400BADE0FF7E007C017DCD1100C47444B4
:10287B002FF974003EFA904000307441F0A3EAF057
:10288B00A3E9F090400030E0FBA3E0FAA3E0F97479
:10289B00011100B090400BAEE0FF90400030E0FB28
:1028AB00A3E0FAA3E02408F9E43AFAEF1100B0111F
:1028BB00007E6403601B90400030E0FBA3E0FAA3B2
:1028CB00E02408F9E43AFA11007E64016003012F59
:1028DB00F6E4FFFEFDFC90400030E0FBA3E0FAA322
:1028EB00E02465F9E43AFA11037AE4FFFEFDFC906B
:1028FB00400030E0FBA3E0FAA3E024C5F9E43AFA88
:10290B0011037AE4FFFEFDFC90400030E0FBA3E0F6
:10291B00FAA3E02485F9E43AFA11037AE4FFFEFD09
:10292B00FC90400030E0FBA3E0FAA3E024E5F9E4DF
:10293B003AFA11037AE4FFFEFDFC90400030E0FB15
:10294B00A3E0FAA3E02405F9EA3401FA11037AE4CF
:10295B00FFFEFDFC90400030E0FBA3E0FAA3E02477
:10296B0025F9EA3401FA11037AE4FFFEFDFC9040ED
:10297B000030E0FBA3E0FAA3E02473F9E43AFA1188
:10298B00037AE4FFFEFDFC90400030E0FBA3E0FA8D
:10299B00A3E024D3F9E43AFA11037AE4FFFEFDFC39
:1029AB0090400030E0FBA3E0FAA3E02493F9E43A73
:1029BB00FA11037AE4FFFEFDFC90400030E0FBA32C
:1029CB00E0FAA3E024F3F9E43AFA11037AE4FFFE08
:1029DB00FDFC90400030E0FBA3E0FAA3E02413F9E8
:1029EB00EA3401FA11037AE4FFFEFDFC904000305B
:1029FB00E0FBA3E0FAA3E02433F9EA3401FA110374
:102A0B007AE490400BACF090400030E0FBA3E0FA8E
:102A1B00A3E02429F9E43AFA90400BACE07E0029BC
:102A2B00F9EE3AFAE41100B090400BACE004F0E0A0
:102A3B00B410D4E490400BACF090400030E0FBA31A
:102A4B00E0FAA3E02449F9E43AFA90400BACE07EBB
:102A5B000029F9EE3AFAE41100B090400BACE00417
:102A6B00F0E0B410D4012FF6E52B6451452A600336
:102A7B00012FFFE490400BABF090400BABE0FF7EDF
:102A8B00007C017DCD1100C474442FF974003EFA13
:102A9B00904000307441F0A3EAF0A3E9F0904000BD
:102AAB002AE0FBA3E475F00111017AA9F0FA1100F9
:102ABB007EFE9040002AE0FBA3E475F00111017A41
:102ACB00A9F0FA11007EFDEDFF90400030E0FBA372
:102ADB00E0FAA3E02415F9E43AFAEE8FF01101E0E5
:102AEB009040002AE0FBA3E475F00111017AA9F0F4
:102AFB00FA11007EFE9040002AE0FBA3E475F00182
:102B0B0011017AA9F0FA11007EFDEDFF9040003023
:102B1B00E0FBA3E0FAA3E02417F9E43AFAEE8FF016
:102B2B001101E090400030E0FBA3E0FAA3E0241990
:102B3B00F9E43AFA9040002DEBF0A3EAF0A3E9F0A8
:102B4B00E490400BACF09040002AE0FBA3E0FAA32A
:102B5B00E0F911007EC4540FFF9040002DE0FBA361
:102B6B00E475F00111017AA9F0FAEF1100B0904071
:102B7B00002AE0FBA3E475F00111017AA9F0FA1128
:102B8B00007E540FFF9040002DE0FBA3E475F00195
:102B9B0011017AA9F0FAEF1100B090400BACE004F0
:102BAB00F0E0B408A190400030E0FBA3E0FAA3E012
:102BBB002439F9E43AFA9040002DEBF0A3EAF0A3A4
:102BCB00E9F0E490400BACF09040002AE0FBA3E06E
:102BDB00FAA3E0F911007EC4540FFF9040002DE0E2
:102BEB00FBA3E475F00111017AA9F0FAEF1100B023
:102BFB009040002AE0FBA3E475F00111017AA9F0E3
:102C0B00FA11007E540FFF9040002DE0FBA3E475FA
:102C1B00F00111017AA9F0FAEF1100B090400BAC62
:102C2B00E004F0E0B408A190400BABE004F0E064EA
:102C3B00046003012A84012FF6E52B6415452A60F5
:102C4B0003012FFFE490400BABF09040002AE0FB18
:102C5B00A3E475F00111017AA9F0FA11007EFF903F
:102C6B00400BABE0FE75F0CDA42406F582E5F03405
:102C7B0002F583EE2583F583759340EFF0904000CA
:102C8B002AE0FBA3E475F00111017AA9F0FA110017
:102C9B007EFFE4FCFDFE781811034A90400BABE07D
:102CAB00FB75F0CDA42409F582E5F03402F583EB36
:102CBB002583F5837593401103B290400BABE0FF76
:102CCB0075F0CDA42409F582E5F03402F583EF25E8
:102CDB0083F583C083C082759340E0F8A3E0F9A32A
:102CEB00E0FAA3E0FBC000C001C002C003904000AB
:102CFB002AE0FBA3E475F00111017AA9F0FA1100A7
:102D0B007EFFE4FCFDFE781011034AD003D002D005
:102D1B0001D000EB4FFFEA4EFEE94DFDE84CFC7590
:102D2B009340D082D0831103B290400BABE0FF7580
:102D3B00F0CDA42409F582E5F03402F583EF258369
:102D4B00F583C083C082759340E0F8A3E0F9A3E05C
:102D5B00FAA3E0FBC000C001C002C0039040002AF0
:102D6B00E0FBA3E475F00111017AA9F0FA11007EE2
:102D7B00FFE4FCFDFE780811034AD003D002D0011A
:102D8B00D000EB4FFFEA4EFEE94DFDE84CFC75938E
:102D9B0040D082D0831103B290400BABE0FF75F0B3
:102DAB00CDA42409F582E5F03402F583EF2583F5F4
:102DBB0083C083C082759340E0F8A3E0F9A3E0FAE7
:102DCB00A3E0FBC000C001C002C0039040002AE09A
:102DDB00FBA3E475F00111017AA9F0FA11007EFF53
:102DEB00D003D002D001D000EB4FFFEAFEE9FDE8A3
:102DFB00FC759340D082D0831103B290400BABE0B3
:102E0B0004F0E064046003012C55012FF6E52B64FC
:102E1B0007452A6003012FFF9040002AE0FBA3E443
:102E2B0075F00111017AA9F0FA11007E90400BABFD
:102E3B00F0E0D394034003012FFF9040002AE0FB06
:102E4B00A3E475F00111017AA9F0FA11007EFF904D
:102E5B00400BABE0FE75F0CDA42406F582E5F03413
:102E6B0002F583EE2583F583759340EFF0904000D8
:102E7B002AE0FBA3E475F00111017AA9F0FA110025
:102E8B007EFFE4FCFDFE781811034A90400BABE08B
:102E9B00FB75F0CDA42409F582E5F03402F583EB44
:102EAB002583F5837593401103B290400BABE0FF84
:102EBB0075F0CDA42409F582E5F03402F583EF25F6
:102ECB0083F583C083C082759340E0F8A3E0F9A338
:102EDB00E0FAA3E0FBC000C001C002C003904000B9
:102EEB002AE0FBA3E475F00111017AA9F0FA1100B5
:102EFB007EFFE4FCFDFE781011034AD003D002D014
:102F0B0001D000EB4FFFEA4EFEE94DFDE84CFC759E
:102F1B009340D082D0831103B290400BABE0FF758E
:102F2B00F0CDA42409F582E5F03402F583EF258377
:102F3B00F583C083C082759340E0F8A3E0F9A3E06A
:102F4B00FAA3E0FBC000C001C002C0039040002AFE
:102F5B00E0FBA3E475F00111017AA9F0FA11007EF0
:102F6B00FFE4FCFDFE780811034AD003D002D00128
:102F7B00D000EB4FFFEA4EFEE94DFDE84CFC75939C
:102F8B0040D082D0831103B290400BABE0FF75F0C1
:102F9B00CDA42409F582E5F03402F583EF2583F502
:102FAB0083C083C082759340E0F8A3E0F9A3E0FAF5
:102FBB00A3E0FBC000C001C002C0039040002AE0A8
:102FCB00FBA3E475F00111017AA9F0FA11007EFF61
:102FDB00D003D002D001D000EB4FFFEAFEE9FDE8B1
:102FEB00FC759340D082D0831103B2E4F528F52908
:102FFB00752C7022E4F528F529752C3022AF1FEFC4
:10300B0075F01CA424FBF9740835F0FA7B4111030D
:10301B00BE904008E4EBF0A3EAF0A3E9F09040087F
:10302B00E4E0FBA3E0FAA3E02406F9E43AFA11008A
:10303B007E54F0FFBFF03DAF1FEF75F01CA424FED4
:10304B00F9740835F0FA7B411103BE904008E4EBAC
:10305B00F0A3EAF0A3E9F0904008E4E0FBA3E0FA68
:10306B00A3E02406F9E43AFA11007E54F064F07000
:10307B0003013836904008E4E0FBA3E0FAA3E02418
:10308B0002F9E43AFA11007E904008E7F09040080C
:10309B00E4E0FBA3E0FAA3E02406F9E43AFA11001A
:1030AB007EC4540F904008E8F0904008E7E0540FBE
:1030BB00904008E9F0904008E8E070030137089071
:1030CB004008E7E0546024E0700301321A24E070FA
:1030DB00030133DD24E07003013525246060030117
:1030EB003836AF1F7E0074EB2FF9EE3408FA7B41B4
:1030FB0011007E64C06014AF1F74EB2FF9EE34081F
:10310B00FA11007E64806003013318AF1F7E0074D8
:10311B00EB2FF9EE3408FA7B4174801100B0AF1F2E
:10312B0074DB2FF9EE3409FA7B4111007EFF9040DE
:10313B0008E9E06F6003013797AF1FEF75F01CA430
:10314B002407F9740935F0FA7B41110190FF904087
:10315B0008E8E02FFFE435F0FED3EF9400EE942067
:10316B00400301329AAF1FEF75F01CA42404F974CD
:10317B000935F0FA7B411103BEC003C002C00190B8
:10318B004008E4E0FBA3E0FAA3E02407F9E43AFAF1
:10319B0090400884EBF0A3EAF0A3E9F0904008E834
:1031AB00E090400887F0D001D002D00311C2B49058
:1031BB004008E8E0FDAF1FEF75F01CA42407F9747D
:1031CB000935F0FA7B41E48DF01101B4904008E829
:1031DB00E0FDAF1FEF75F01CA42404F9740935F062
:1031EB00FA09E970010AE48DF01101B4904008E787
:1031FB00E05404FFE51F04FD118B2BEF904008E911
:10320B0030E106E04430013702E04410013702AFF1
:10321B001F7E0074EB2FF9EE3408FA7B4111007E10
:10322B0064C06014AF1F74EB2FF9EE3408FA110071
:10323B007E64806003013318AF1F7E0074EB2FF99F
:10324B00EE3408FA7B4174A01100B0AF1F74DB2F72
:10325B00F9EE3409FA7B4111007EFF904008E9E05A
:10326B006F6003013797AF1FEF75F01CA42407F9AC
:10327B00740935F0FA7B41110190FF904008E8E0AA
:10328B002FFFE435F0FED3EF9400EE94204004A31F
:10329B00013797AF1FEF75F01CA42404F97409359F
:1032AB00F0FA7B411103BEC003C002C0019040087D
:1032BB00E4E0FBA3E0FAA3E02407F9E43AFA904038
:1032CB000884EBF0A3EAF0A3E9F0904008E8E09063
:1032DB00400887F0D001D002D00311C2B49040084F
:1032EB00E8E0FDAF1FEF75F01CA42407F974093556
:1032FB00F0FA7B41E48DF01101B4904008E7E05403
:10330B0004FFE51F04FD118B2BEF30E10790400804
:10331B00E901379790400C3DE004F0AF1FEF75F0DB
:10332B001CA42407F9740935F0FA7B41110190F5BF
:10333B002B85F02AAF1FEF75F01CA42401F974093B
:10334B0035F0FA1103BE8B258A268927AF1FEF753F
:10335B00F01CA4240FF9740935F0FA7B411103BE5C
:10336B008B218A228923AF1F7E0074F32FF9EE3451
:10337B0008FA7B4111007EFF119D91AF1FEF75F095
:10338B001CA42415F9740935F0FA7B41E52885292D
:10339B00F01101E0AB21AA22A923C003C002C00196
:1033AB00AF1FEF75F01CA42412F9740935F0FA7BEA
:1033BB00411103FAD3E5299408E528940040030151
:1033CB0036E2E5294528904008E970030136FF01F4
:1033DB0036F6AF1F7E0074EB2FF9EE3408FA7B4103
:1033EB0074C01100B0904008E9E0FFAE1FEE7C0006
:1033FB0024DBF9EC3409FA7B41EF1100B090400863
:10340B00E4E0FBA3E0FAA3E02407F9E43AFA1100A5
:10341B007EFFAE1FEE24F3F9EC3408FA7B41EF117B
:10342B0000B0AF1F7E0074F32FF9EE3408FA1100D1
:10343B007EC413135403FFAE1FEE24DBF9EC3409E7
:10344B00FA7B4111007EFE13131354036F600301CB
:10345B0035A2904008E8E014F0AF1FEF75F01CA404
:10346B002401F9740935F0FA7B411103BEC003C086
:10347B0002C001904008E4E0FBA3E0FAA3E02408BB
:10348B00F9E43AFA90400884EBF0A3EAF0A3E9F0F0
:10349B00904008E8E090400887F0D001D002D003BC
:1034AB0011C2B4904008E8E0FDAF1FEF75F01CA40B
:1034BB002407F9740935F0FA7B41E48DF01101E032
:1034CB00AF1FEF75F01CA42401F9740935F0FA1144
:1034DB0003BE904008E8E07E0029F9EE3AFAC003FB
:1034EB00C002C001AF1FEF75F01CA42404F97409CE
:1034FB0035F0FA7B411103FA904008E7E05404FFE2
:10350B00E51F04FD118B2BEF904008E930E105E03E
:10351B0044308003E04410013702AF1F7E0074EB90
:10352B002FF9EE3408FA7B4174E01100B09040089B
:10353B00E9E0FFAE1FEE7C0024DBF9EC3409FA7BEB
:10354B0041EF1100B0904008E4E0FBA3E0FAA3E0E8
:10355B002407F9E43AFA11007EFFAE1FEE24F3F9CB
:10356B00EC3408FA7B41EF1100B0AF1F7E0074F30F
:10357B002FF9EE3408FA11007EC413135403FFAE77
:10358B001FEE24DBF9EC3409FA7B4111007EFE13AC
:10359B00131354036F600A904008E9E0443001377D
:1035AB0002904008E8E014F0AF1FEF75F01CA42464
:1035BB0001F9740935F0FA7B411103BEC003C00257
:1035CB00C001904008E4E0FBA3E0FAA3E02408F973
:1035DB00E43AFA90400884EBF0A3EAF0A3E9F09008
:1035EB004008E8E090400887F0D001D002D00311EA
:1035FB00C2B4904008E8E0FDAF1FEF75F01CA424A7
:10360B0007F9740935F0FA7B41E48DF01101E09074
:10361B004008E7E05404FFE51F04FD118B2BEF304E
:10362B00E10A904008E9E0443001370290400C3D3C
:10363B00E004F0AF1FEF75F01CA42407F9740935F3
:10364B00F0FA7B41110190F52B85F02AAF1FEF7536
:10365B00F01CA42401F9740935F0FA1103BE8B2573
:10366B008A268927AF1FEF75F01CA4240FF9740964
:10367B0035F0FA7B411103BE8B218A228923AF1FC0
:10368B007E0074F32FF9EE3408FA7B4111007EFFB4
:10369B00119D91AF1FEF75F01CA42415F97409351A
:1036AB00F0FA7B41E5288529F01101E0AB21AA2234
:1036BB00A923C003C002C001AF1FEF75F01CA424E7
:1036CB0012F9740935F0FA7B411103FAD3E5299409
:1036DB0008E5289400400A904008E9E0445001377F
:1036EB00E3E5294528904008E96009E04470FFAD07
:1036FB0029013833E0452CFFE4FD013833904008B5
:10370B00E7E0546024E0700301382924E0700301E2
:10371B00382924E07003013829246060030138360E
:10372B00AF1F7E0074EB2FF9EE3408FA7B411100CA
:10373B007E64E0602DAF1F74EB2FF9EE3408FA11A5
:10374B00007E64A0601CAF1F74EB2FF9EE3408FAF7
:10375B0011007E600D904008E9E04430FFE4FD016C
:10376B003833AF1F7E0074EB2FF9EE3408FA7B4130
:10377B00E41100B0AF1F74DB2FF9EE3409FA7B4173
:10378B0011007EFF904008E9E06F6009E04430FFD4
:10379B00E4FD013833904008E7E05404FFE51F04D3
:1037AB00FD118B2BEF30E10C904008E9E04430FF2A
:1037BB00E4FD8074AF1FEF75F01CA42415F9740998
:1037CB0035F0FA7B41110190D39408E5F094004059
:1037DB000C904008E9E04410FF7D08804BAF1FEFD1
:1037EB0075F01CA42415F9740935F0FA7B4111010D
:1037FB009045F0601DAF1FEF75F01CA42415F974F4
:10380B000935F0FA110190FD904008E9E04430FFD2
:10381B008016904008E9E04430FFE4FD800A9040B8
:10382B0008E9E04430FFE4FD117FA222E52B452A95
:10383B006009E4F528F529752C3022AB21AA22A9C1
:10384B002390400033EBF0A3EAF0A3E9F09040089B
:10385B00697441F0A37400F0A37433F07B417A00D8
:10386B00793F7F011181B4904008697441F0A374D2
:10387B0000F0A37433F07B417A07797E7F011181CD
:10388B00B4E490400BAFF090400BAFE0FF7E007CB8
:10389B00017DCD1100C474442FF974003EFA9040A1
:1038AB0000367441F0A3EAF0A3E9F090400036E053
:1038BB00FBA3E0FAA3E02401F9E43AFA904008698B
:1038CB007441F0A37400F0A37433F07F011181B441
:1038DB0090400036E0FBA3E0FAA3E02402F9E43ABF
:1038EB00FA904008697441F0A37400F0A37433F0AC
:1038FB007F011181B490400036E0FBA3E0FAA3E016
:10390B002415F9E43AFA904008697441F0A3740065
:10391B00F0A37433F07F021181B4E490400BB0F04C
:10392B0090400036E0FBA3E0FAA3E02419F9E43A57
:10393B00FA90400BB0E075F002A429F9EA35F0FAE1
:10394B00904008697441F0A37400F0A37433F0E461
:10395B00FF1181B490400BB0E004F0E0C394084039
:10396B00BF90400036E0FBA3E0FAA3E02417F9E494
:10397B003AFA904008697441F0A37400F0A37433D1
:10398B00F07F021181B4E490400BB0F09040003610
:10399B00E0FBA3E0FAA3E02439F9E43AFA90400BF8
:1039AB00B0E075F002A429F9EA35F0FA9040086905
:1039BB007441F0A37400F0A37433F0E4FF1181B4ED
:1039CB0090400BB0E004F0E0C3940840BF9040007F
:1039DB0036E0FBA3E0FAA3E0245DF9E43A1181A2FF
:1039EB0090400036E0FBA3E0FAA3E02461F9E43A4F
:1039FB001181A290400036E0FBA3E0FAA3E0246B18
:103A0B00F9E43A1181A290400036E0FBA3E0FAA35F
:103A1B00E0246FF9E43A1181A290400036E0FBA359
:103A2B00E0FAA3E024BDF9E43A1181A290400036FC
:103A3B00E0FBA3E0FAA3E024C1F9E43A1181A290E0
:103A4B00400036E0FBA3E0FAA3E024CBF9E43A1103
:103A5B0081A290400036E0FBA3E0FAA3E024CFF96B
:103A6B00E43A1181A290400036E0FBA3E0FAA3E018
:103A7B0024DDF9E43A1181A290400036E0FBA3E08B
:103A8B00FAA3E024E1F9E43A1181A290400036E078
:103A9B00FBA3E0FAA3E024EBF9E43A1181A29040F6
:103AAB000036E0FBA3E0FAA3E024EFF9E43A11813E
:103ABB00A290400036E0FBA3E0FAA3E024FDF9E47A
:103ACB003A1181A290400036E0FBA3E0FAA3E02478
:103ADB000111819E90400036E0FBA3E0FAA3E024A5
:103AEB000B11819E90400036E0FBA3E0FAA3E0248B
:103AFB000F11819E90400036E0FBA3E0FAA3E02477
:103B0B001D11819E90400036E0FBA3E0FAA3E02458
:103B1B002111819E90400036E0FBA3E0FAA3E02444
:103B2B002B11819E90400036E0FBA3E0FAA3E0242A
:103B3B002F11819E90400036E0FBA3E0FAA3E02416
:103B4B0039F9EA3401FA904008697441F0A3740022
:103B5B00F0A37433F07F011181B490400036E0FB89
:103B6B00A3E0FAA3E0244011819E90400036E0FBD5
:103B7B00A3E0FAA3E0244AF9EA3401FA9040086979
:103B8B007441F0A37400F0A37433F07F011181B47E
:103B9B0090400036E0FBA3E0FAA3E0244B11819E9A
:103BAB0090400036E0FBA3E0FAA3E02455F9EA3499
:103BBB0001FA904008697441F0A37400F0A37433C8
:103BCB00F07F011181B490400036E0FBA3E0FAA333
:103BDB00E0245611819E90400036E0FBA3E0FAA34F
:103BEB00E02460F9EA3401FA904008697441F0A3CB
:103BFB007400F0A37433F07F011181B49040003650
:103C0B00E0FBA3E0FAA3E0246711819E904000360D
:103C1B00E0FBA3E0FAA3E02471F9EA3401FA904047
:103C2B0008697441F0A37400F0A37433F07F0111A1
:103C3B0081B490400036E0FBA3E0FAA3E0247211BC
:103C4B00819E90400036E0FBA3E0FAA3E0247CF9D0
:103C5B00EA3401FA904008697441F0A37400F0A3B0
:103C6B007433F07F011181B490400036E0FBA3E088
:103C7B00FAA3E0247D11819EE490400BB0F09040BC
:103C8B000BB0E075F006A4FF90400036E0FBA3E01C
:103C9B00FAA3E02FF9EA35F0FAE92487F9EA3401BF
:103CAB00FA904008697441F0A37400F0A37433F0E8
:103CBB007F011181B490400BB0E075F006A4FF902A
:103CCB00400036E0FBA3E0FAA3E02FF9EA35F0FA67
:103CDB00E92488F9EA3401FA904008697441F0A3A9
:103CEB007400F0A37433F07F011181B490400BB0DA
:103CFB00E075F006A4FF90400036E0FBA3E0FAA3CA
:103D0B00E02FF9EA35F0FAE92489F9EA3401FA905F
:103D1B004008697441F0A37400F0A37433F07F047E
:103D2B001181B490400BB0E004F0E0C39402500357
:103D3B00013C8990400036E0FBA3E0FAA3E024931A
:103D4B00F9EA3401FA904008697441F0A37400F069
:103D5B00A37433F07F011181B490400036E0FBA3D4
:103D6B00E0FAA3E02494F9EA3401FA90400869746C
:103D7B0041F0A37400F0A37433F07F011181B49070
:103D8B00400036E0FBA3E0FAA3E02497F9EA340104
:103D9B00FA904008697441F0A37400F0A37433F0F7
:103DAB007F011181B490400036E0FBA3E0FAA3E061
:103DBB002498F9EA3401FA904008697441F0A3742D
:103DCB0000F0A37433F07F011181B4E490400BB089
:103DDB00F090400BB0E075F00CA4FF90400036E083
:103DEB00FBA3E0FAA3E02FF9EA35F0FAE9249BF9FB
:103DFB00EA3401FA904008697441F0A37400F0A30F
:103E0B007433F07F021181B490400BB0E075F00C6D
:103E1B00A4FF90400036E0FBA3E0FAA3E02FF9EA01
:103E2B0035F0FAE9249DF9EA3401FA9040086974F7
:103E3B0041F0A37400F0A37433F07F021181B490AE
:103E4B00400BB0E075F00CA4FF90400036E0FBA3F4
:103E5B00E0FAA3E02FF9EA35F0FAE9249FF9EA3406
:103E6B0001FA904008697441F0A37400F0A3743315
:103E7B00F07F021181B490400BB0E075F00CA4FF01
:103E8B0090400036E0FBA3E0FAA3E02FF9EA35F00F
:103E9B00FAE924A1F9EA3401FA904008697441F077
:103EAB00A37400F0A37433F07F021181B490400B24
:103EBB00B0E075F00CA4FF90400036E0FBA3E0FAF5
:103ECB00A3E02FF9EA35F0FAE924A3F9EA3401FA71
:103EDB00904008697441F0A37400F0A37433F07F31
:103EEB00041181B490400BB0E004F0E0C394035094
:103EFB0003013DDC90400036E0FBA3E0FAA3E02495
:103F0B00C0F9EA3401FA904008697441F0A37400D7
:103F1B00F0A37433F07F011181B490400036E0FBC5
:103F2B00A3E0FAA3E024C1F9EA3401FA904008694E
:103F3B007441F0A37400F0A37433F07F011181B4CA
:103F4B0090400036E0FBA3E0FAA3E024C2F9EA3488
:103F5B0001FA904008697441F0A37400F0A3743324
:103F6B00F07F011181B490400036E0FBA3E0FAA38F
:103F7B00E024C3F9EA3401FA904008697441F0A3D4
:103F8B007400F0A37433F07F011181B490400036BC
:103F9B00E0FBA3E0FAA3E024C4F9EA3401FA904071
:103FAB0008697441F0A37400F0A37433F07F01111E
:103FBB0081B490400036E0FBA3E0FAA3E024C511E6
:103FCB00819E90400036E0FBA3E0FAA3E024C911E8
:103FDB00819E90400BAFE004F0E0C39404500301CA
:103FEB003892AB21AA22A923AE0290400033A3E062
:103FFB00FAA3E0AC02C399F529EC9EF528E5294517
:10400B00287003752C7022E52B64167004E52A6466
:10401B00036009E4F528F529752C3022AB25AA2677
:10402B00A92790400039EBF0A3EAF0A3E9F0904008
:10403B0008737441F0A37400F0A37439F07B417AD8
:10404B0000793F7F011173E3904008737441F0A333
:10405B007400F0A37439F07B417A07797E7F0111EC
:10406B0073E3E490400BB1F090400BB1E0FF7E00A6
:10407B007C017DCD1100C474442FF974003EFA907D
:10408B0040003C7441F0A3EAF0A3E9F09040003CFF
:10409B00E0FBA3E0FAA3E02401F9E43AFA9040082C
:1040AB00737441F0A37400F0A37439F07F011173A2
:1040BB00E39040003CE0FBA3E0FAA3E02402F9E428
:1040CB003AFA904008737441F0A37400F0A374396A
:1040DB00F07F011173E39040003CE0FBA3E0FAA3F7
:1040EB00E02415F9E43AFA904008737441F0A37494
:1040FB0000F0A37439F07F021173E3E490400BB22C
:10410B00F09040003CE0FBA3E0FAA3E02419F9E4B3
:10411B003AFA90400BB2E075F002A429F9EA35F0B7
:10412B00FA904008737441F0A37400F0A37439F053
:10413B00E4FF1173E390400BB2E004F0E0C394088A
:10414B0040BF9040003CE0FBA3E0FAA3E02417F94A
:10415B00E43AFA904008737441F0A37400F0A3742E
:10416B0039F07F021173E3E490400BB2F090400002
:10417B003CE0FBA3E0FAA3E02439F9E43AFA9040DF
:10418B000BB2E075F002A429F9EA35F0FA90400879
:10419B00737441F0A37400F0A37439F0E4FF11734E
:1041AB00E390400BB2E004F0E0C3940840BF9040B2
:1041BB00003CE0FBA3E0FAA3E0245DF9E43A1173C1
:1041CB00D19040003CE0FBA3E0FAA3E02461F9E4CA
:1041DB003A1173D19040003CE0FBA3E0FAA3E0243A
:1041EB006BF9E43A1173D19040003CE0FBA3E0FA89
:1041FB00A3E0246FF9E43A1173D19040003CE0FB4B
:10420B00A3E0FAA3E024BDF9E43A1173D190400086
:10421B003CE0FBA3E0FAA3E024C1F9E43A1173D12B
:10422B009040003CE0FBA3E0FAA3E024CBF9E43A96
:10423B001173D19040003CE0FBA3E0FAA3E024CF44
:10424B00F9E43A1173D19040003CE0FBA3E0FAA3F0
:10425B00E024DDF9E43A1173D19040003CE0FBA37C
:10426B00E0FAA3E024E1F9E43A1173D19040003C69
:10427B00E0FBA3E0FAA3E024EBF9E43A1173D1904D
:10428B0040003CE0FBA3E0FAA3E024EFF9E43A1191
:10429B0073D19040003CE0FBA3E0FAA3E024FDF9CE
:1042AB00E43A1173D19040003CE0FBA3E0FAA3E0A9
:1042BB0024011173CD9040003CE0FBA3E0FAA3E096
:1042CB00240B1173CD9040003CE0FBA3E0FAA3E07C
:1042DB00240F1173CD9040003CE0FBA3E0FAA3E068
:1042EB00241D1173CD9040003CE0FBA3E0FAA3E04A
:1042FB0024211173CD9040003CE0FBA3E0FAA3E036
:10430B00242B1173CD9040003CE0FBA3E0FAA3E01B
:10431B00242F1173CD9040003CE0FBA3E0FAA3E007
:10432B002439F9EA3401FA904008737441F0A3740C
:10433B0000F0A37439F07F011173E39040003CE06F
:10434B00FBA3E0FAA3E024401173CD9040003CE0C6
:10435B00FBA3E0FAA3E0244AF9EA3401FA904008FF
:10436B00737441F0A37400F0A37439F07F011173DF
:10437B00E39040003CE0FBA3E0FAA3E0244B117375
:10438B00CD9040003CE0FBA3E0FAA3E02455F9EA12
:10439B003401FA904008737441F0A37400F0A374D5
:1043AB0039F07F011173E39040003CE0FBA3E0FA8E
:1043BB00A3E024561173CD9040003CE0FBA3E0FA40
:1043CB00A3E02460F9EA3401FA904008737441F0D9
:1043DB00A37400F0A37439F07F011173E3904000D4
:1043EB003CE0FBA3E0FAA3E024671173CD904000FF
:1043FB003CE0FBA3E0FAA3E02471F9EA3401FA9064
:10440B004008737441F0A37400F0A37439F07F017A
:10441B001173E39040003CE0FBA3E0FAA3E02472AD
:10442B001173CD9040003CE0FBA3E0FAA3E0247CA9
:10443B00F9EA3401FA904008737441F0A37400F068
:10444B00A37439F07F011173E39040003CE0FBA3B0
:10445B00E0FAA3E0247D1173CDE490400BB2F09011
:10446B00400BB2E075F006A4FF9040003CE0FBA3CC
:10447B00E0FAA3E02FF9EA35F0FAE92487F9EA34F8
:10448B0001FA904008737441F0A37400F0A37439DF
:10449B00F07F011173E390400BB2E075F006A4FFBF
:1044AB009040003CE0FBA3E0FAA3E02FF9EA35F0E3
:1044BB00FAE92488F9EA3401FA904008737441F060
:1044CB00A37400F0A37439F07F011173E390400BD8
:1044DB00B2E075F006A4FF9040003CE0FBA3E0FACD
:1044EB00A3E02FF9EA35F0FAE92489F9EA3401FA65
:1044FB00904008737441F0A37400F0A37439F07FFB
:10450B00041173E390400BB2E004F0E0C39402504B
:10451B000301446A9040003CE0FBA3E0FAA3E024D3
:10452B0093F9EA3401FA904008737441F0A37400D4
:10453B00F0A37439F07F011173E39040003CE0FB72
:10454B00A3E0FAA3E02494F9EA3401FA904008734B
:10455B007441F0A37400F0A37439F07F011173E37D
:10456B009040003CE0FBA3E0FAA3E02497F9EA3487
:10457B0001FA904008737441F0A37400F0A37439EE
:10458B00F07F011173E39040003CE0FBA3E0FAA342
:10459B00E02498F9EA3401FA904008737441F0A3CF
:1045AB007400F0A37439F07F011173E3E490400BB6
:1045BB00B2F090400BB2E075F00CA4FF9040003CC1
:1045CB00E0FBA3E0FAA3E02FF9EA35F0FAE9249B2C
:1045DB00F9EA3401FA904008737441F0A37400F0C7
:1045EB00A37439F07F021173E390400BB2E075F0C6
:1045FB000CA4FF9040003CE0FBA3E0FAA3E02FF9F2
:10460B00EA35F0FAE9249DF9EA3401FA904008738F
:10461B007441F0A37400F0A37439F07F021173E3BB
:10462B0090400BB2E075F00CA4FF9040003CE0FB17
:10463B00A3E0FAA3E02FF9EA35F0FAE9249FF9EAAF
:10464B003401FA904008737441F0A37400F0A37422
:10465B0039F07F021173E390400BB2E075F00CA4BC
:10466B00FF9040003CE0FBA3E0FAA3E02FF9EA3512
:10467B00F0FAE924A1F9EA3401FA90400873744185
:10468B00F0A37400F0A37439F07F021173E3904030
:10469B000BB2E075F00CA4FF9040003CE0FBA3E0F4
:1046AB00FAA3E02FF9EA35F0FAE924A3F9EA340189
:1046BB00FA904008737441F0A37400F0A37439F0BE
:1046CB007F041173E390400BB2E004F0E0C394035A
:1046DB0050030145BD9040003CE0FBA3E0FAA3E092
:1046EB0024C0F9EA3401FA904008737441F0A374C2
:1046FB0000F0A37439F07F011173E39040003CE0AC
:10470B00FBA3E0FAA3E024C1F9EA3401FA904008D4
:10471B00737441F0A37400F0A37439F07F0111732B
:10472B00E39040003CE0FBA3E0FAA3E024C2F9EAEB
:10473B003401FA904008737441F0A37400F0A37431
:10474B0039F07F011173E39040003CE0FBA3E0FAEA
:10475B00A3E024C3F9EA3401FA904008737441F0E2
:10476B00A37400F0A37439F07F011173E390400040
:10477B003CE0FBA3E0FAA3E024C4F9EA3401FA908D
:10478B004008737441F0A37400F0A37439F07F01F7
:10479B001173E39040003CE0FBA3E0FAA3E024C5D7
:1047AB001173CD9040003CE0FBA3E0FAA3E024C9D9
:1047BB001173CD90400BB1E004F0E0C394045003AF
:1047CB00014073E4F528F529752C70227B827AFF62
:1047DB00790011007EF5247B0479FF11007EF4FF34
:1047EB001911007EB5070711007EF5208003752097
:1047FB00FF90400C3BE524F0A3E520F0E49040084B
:10480B00DCF0904008DCE07E0024EBF9EE3408FA93
:10481B007B4174601100B0904008DCE024DBF9EEC2
:10482B003409FA7B4174FF1100B0904008DCE0249E
:10483B00F3F9EE3408FA7B4174FF1100B090400895
:10484B00DCE075F010A42410F9741035F0FA7B41FC
:10485B00C003C002C001E075F01CA424FBF974086E
:10486B0035F0FA7B411103FA904008DCE075F0104B
:10487B00A42410F9741135F0FA7B41C003C002C0B7
:10488B0001E075F01CA424FEF9740835F0FA7B41A5
:10489B001103FA904008DCE0C43354E0FEE424003A
:1048AB00FFE43EFEE43404FDE433FCE42FFFE43E7E
:1048BB00FEED3401FDE43CA907AA06AB05C003C01D
:1048CB0002C001E075F01CA42401F9740935F0FA5B
:1048DB007B411103FA904008DCE0540375F010A4FF
:1048EB0024A0F9741035F0FA7B41C003C002C0015B
:1048FB00E075F01CA42409F9740935F0FA7B411119
:10490B0003FA904008DCE0540375F010A424A0F9DE
:10491B00741135F0FA7B41C003C002C001E075F0A1
:10492B001CA4240CF9740935F0FA7B411103FA909D
:10493B004008DCE0C43354E0FEE42400FFE43EFE18
:10494B00E43404FDE433FCE42FFFE43EFEED3401DC
:10495B00FDE43CFCE42FFFE43EFEED3401FDE43CC2
:10496B00A907AA06AB05C003C002C001E075F01C85
:10497B00A4240FF9740935F0FA7B411103FA904026
:10498B0008DCE004F0E06408600301480D75C7AA79
:10499B0075C75575A30911CA5475C7AA75C755753F
:1049AB00E30911CA5475C7AA75C75575A30111CA76
:1049BB005475C7AA75C75575E30111CA54E49040E5
:1049CB001000F090401100F090401001F090401159
:1049DB0001F090401002F090401102F09040100353
:1049EB00F090401103F090401004F090401104F04F
:1049FB00904010057414F090401105F09040100693
:104A0B0074FFF090401106F090401007F0904011A9
:104A1B0007F0904010087415F090401108F090408A
:104A2B00100974FFF090401109F09040100AF090BB
:104A3B0040110AF0E49040100BF09040110BF090F5
:104A4B0040100C74FFF09040110CF09040100DF0E2
:104A5B009040110DF09040100EF09040110EF09020
:104A6B0040100FF09040110FF0E4F5ABF5EBF5AC07
:104A7B00F5ECF5ADF5EDF5AEF5EEF5AFF5EFF5B310
:104A8B00F5F3F5B4F5F4F5B5F5F5F5B6F5F6F5B7CB
:104A9B00F5F7F5BBF5FBF5BCF5FCF5BDF5FDF5BE86
:104AAB00F5FEF5BFF5FF904008DC04F0904008DC04
:104ABB00E075F010A42402F9741035F0FA7B41E490
:104ACB001100B0904008DCE075F010A42402F974DA
:104ADB001135F0FA7B41E41100B0904008DCE07531
:104AEB00F010A42403F9741035F0FA7B41E41100A3
:104AFB00B0904008DCE075F010A42403F974113574
:104B0B00F0FA7B41E41100B0904008DCE075F01046
:104B1B00A42404F9741035F0FA7B41E41100B09031
:104B2B004008DCE075F010A42404F9741135F0FA98
:104B3B007B41E41100B0904008DCE075F010A42438
:104B4B0005F9741035F0FA7B41E41100B090400880
:104B5B00DCE075F010A42405F9741135F0FA7B41F3
:104B6B00E41100B0904008DCE075F010A42406F9C5
:104B7B00741035F0FA7B41E41100B0904008DCE092
:104B8B0075F010A42406F9741135F0FA7B41E41189
:104B9B0000B0904008DCE075F010A42407F9741005
:104BAB0035F0FA7B41E41100B0904008DCE075F081
:104BBB0010A42407F9741135F0FA7B41E41100B00D
:104BCB00904008DCE075F010A42408F9741035F05F
:104BDB00FA7B41E41100B0904008DCE075F010A4C2
:104BEB002408F9741135F0FA7B41E41100B09040C0
:104BFB0008DCE075F010A42409F9741035F0FA7B89
:104C0B0041E41100B0904008DCE075F010A42409D9
:104C1B00F9741135F0FA7B41E41100B0904008DCD7
:104C2B00E075F010A4240AF9741035F0FA7B41E416
:104C3B001100B0904008DCE075F010A4240AF97460
:104C4B001135F0FA7B41E41100B0904008DCE075BF
:104C5B00F010A4240BF9741035F0FA7B41E4110029
:104C6B00B0904008DCE075F010A4240BF9741135FA
:104C7B00F0FA7B41E41100B0904008DCE075F010D5
:104C8B00A4240CF9741035F0FA7B41E41100B090B8
:104C9B004008DCE075F010A4240CF9741135F0FA1F
:104CAB007B41E41100B0904008DCE075F010A424C7
:104CBB000DF9741035F0FA7B41E41100B090400807
:104CCB00DCE075F010A4240DF9741135F0FA7B417A
:104CDB00E41100B0904008DCE075F010A4240EF94C
:104CEB00741035F0FA7B41E41100B0904008DCE021
:104CFB0075F010A4240EF9741135F0FA7B41E41110
:104D0B0000B0904008DCE004F0E064106003014A5E
:104D1B00B7E4904008DCF0904008DCE0C39404500A
:104D2B00067F017D0180047F007D00904008DCE060
:104D3B0075F01CA424FBF9740835F0FA7B411103C0
:104D4B00BEE92402F9E43AFAED1100B0904008DC18
:104D5B00E05403FDE075F01CA424FBF9740835F056
:104D6B00FA7B411103BEE92403F9E43AFAED110091
:104D7B00B0904008DCE0C394045006AF24AD07802C
:104D8B0004AF20AD07904008DCE075F01CA424FBB9
:104D9B00F9740835F0FA7B411103BEE92404F9E4F8
:104DAB003AFAED1100B0904008DCE075F01CA42439
:104DBB00FBF9740835F0FA7B411103BEE92405F9C0
:104DCB00E43AFA74011100B0904008DCE075F01C75
:104DDB00A424FBF9740835F0FA7B411103BEE924D6
:104DEB0006F9E43AFA74F61100B0904008DCE0C31F
:104DFB00940450067F057D0580047F047D0490405C
:104E0B0008DCE075F01CA424FEF9740835F0FA7B7D
:104E1B00411103BEE92402F9E43AFAED1100B09016
:104E2B004008DCE05403FDE075F01CA424FEF9748B
:104E3B000835F0FA7B411103BEE92403F9E43AFA91
:104E4B00ED1100B0904008DCE0C394045006AF2491
:104E5B00AD078004AF20AD07904008DCE075F01C77
:104E6B00A424FEF9740835F0FA7B411103BEE92442
:104E7B0004F9E43AFAED1100B0904008DCE075F06B
:104E8B001CA424FEF9740835F0FA7B411103BEE92A
:104E9B002405F9E43AFA74011100B0904008DCE003
:104EAB0075F01CA424FEF9740835F0FA7B4111034C
:104EBB00BEE92406F9E43AFA74F61100B090400802
:104ECB00DCE004F0E064086003014D22E524D39498
:104EDB0003401875AB8075EB8075AC8075EC8075F5
:104EEB00AD8075ED8075AE8075EE80E520D39403B3
:104EFB00401DE520F4601875AF8075EF8075B380A9
:104F0B0075F38075B48075F48075B58075F5807513
:104F1B00C7AA75C755E4F5A311CA5475C7AA75C7B7
:104F2B0055E4F5E301CA54904008B2EBF0A3EAF064
:104F3B00A3E9F0904008B1EFF07E007C017DCD112C
:104F4B0000C474512FF974003EFA90400003744171
:104F5B00F0A3EAF0A3E9F0744F2FF974003EFAA323
:104F6B007441F0A3EAF0A3E9F0904008B2E0FBA390
:104F7B00E0FAA3E02402F9E43AFA11007E6049E476
:104F8B00FFFEFD1C904008B2A3E0FAA3E0240BF94E
:104F9B00E43AFA11037A904008B2E0FBA3E0FAA3DB
:104FAB00E02407F9E43AFA11035D904008B2A3E05C
:104FBB00FAA3E02403F9E43AFA110395D31103267B
:104FCB00500301513B015064904008B2E0FBA3E059
:104FDB00FAA3E0240BF9E43AFA11035DEC4D4E4FC2
:104FEB0070030150E490400003E0FBA3E0FAA3E060
:104FFB00F9C003C002C001110190FFAEF090400850
:10500B00B2E0FBA3E0FAA3E0240FF9E43AFA1101B2
:10501B0090FDEE45F0FEEF4DFFD001D002D003EE38
:10502B008FF01101E0904008B2E0FBA3E0FAA3E09F
:10503B00240BF9E43AFA11035D11AA5A904008B215
:10504B00E0FBA3E0FAA3E02407F9E43AFA11039595
:10505B00C3110326400301542190400003E0FBA33E
:10506B00E0FAA3E0F9C003C002C001110190FFAE4A
:10507B00F0904008B2E0FBA3E0FAA3E0240FF9E4C0
:10508B003AFA110190FDEE45F0FEEF4DFFD001D045
:10509B0002D003EE8FF01101E090400006E0FBA37D
:1050AB00E0FAA3E0F9C003C002C001110190FFAE0A
:1050BB00F0904008B2E0FBA3E0FAA3E0240FF9E480
:1050CB003AFA110190FDEE45F0FEEF4DFFD001D005
:1050DB0002D003EE8FF00101E090400003E0FBA350
:1050EB00E0FAA3E0F9C003C002C001110190FFAECA
:1050FB00F0904008B2E0FBA3E0FAA3E0240FF9E440
:10510B003AFA110190FDEE45F0FEEF4DFFD001D0C4
:10511B0002D003EE8FF01101E011C9B2904008B23A
:10512B00E0FBA3E0FAA3E0240BF9E43AFA01037ADB
:10513B00904008B2E0FBA3E0FAA3E02401F9E43AC3
:10514B00FA11007E90400B87F0E490400B85F090B5
:10515B00400B85E06038904008B2E0FBA3E0FAA377
:10516B00E0241CF9E43AFA90400000EBF0A3EAF0DB
:10517B00A3E9F011007EFF90400B87E0FEC3EF64C4
:10518B0080F8EE6480987F0050027F01803690405B
:10519B0008B2E0FBA3E0FAA3E02411F9E43AFA9099
:1051AB00400000EBF0A3EAF0A3E9F011007EFF90C2
:1051BB00400B87E0FED3EF6480F8EE6480987F00AD
:1051CB0040027F0190400B88EFF090400B88E0602D
:1051DB0008E4FFFEFDFC0152BF90400003E0FBA37F
:1051EB00E0FAA3E0F9C003C002C001110190FFAEC9
:1051FB00F090400000E0FBA3E0FAA3E02409F9E4FF
:10520B003AFA110190FDEE45F0FEEF4DFFD001D0C3
:10521B0002D003EE8FF01101E090400000E0FBA301
:10522B00E0FAA3E02401F9E43AFA11035DEC4D4EE8
:10523B004F7002803A90400000E0FBA3E0FAA3E03D
:10524B002405F9E43AFA11035DEC4D4E4F606211FF
:10525B00035D11AA5A90400000E0FBA3E0FAA3E023
:10526B002401F9E43AFA110395C31103265059901E
:10527B00400006E0FBA3E0FAA3E0F9C003C002C0C4
:10528B0001110190FFAEF090400000E0FBA3E0FAAB
:10529B00A3E02409F9E43AFA110190FDEE45F0FE82
:1052AB00EF4DFFD001D002D003EE8FF01101E08063
:1052BB001711C9B290400000E0FBA3E0FAA3E02471
:1052CB0005F9E43AFA11037A90400B85E004F0E01B
:1052DB00C39402500301515A904008B2E0FBA3E083
:1052EB00FAA3E0F911007E7003015421E490400B06
:1052FB0086F0904008B1E0FF7E007C017DCD11006F
:10530B00C474CB2FF974013EFA90400B86E075F014
:10531B0006A429F9EA35F0FA904000097441F0A38C
:10532B00EAF0A3E9F090400009E0FBA3E0FAA3E068
:10533B00F911007EFF90400B87E0C36480F8EF64A7
:10534B008098400301541290400009A3A3E024016C
:10535B00F9E43AFA11007EFF90400B87E0FED3EFA1
:10536B006480F8EE64809840030154129040000969
:10537B00A3E0FAA3E02402F9E43AFA11035D9040AA
:10538B0008B1E0FB75F0CDA4240FF582E5F03401F4
:10539B00F583EB2583F583759340E0F8A3E0F9A340
:1053AB00E0FAA3E0FBC31103265029904008B1E0BB
:1053BB00FF75F0CDA4240FF582E5F03401F583EFF2
:1053CB002583F583759340E0FCA3E0FDA3E0FEA3EA
:1053DB00E0FF801490400009E0FBA3E0FAA3E02477
:1053EB0002F9E43AFA11035D904008B1E0FB75F065
:1053FB00CDA4240FF582E5F03401F583EB2583F57D
:10540B00837593401103B290400B86E004F0E06487
:10541B000260030152FD22904008C8EEF0A3EFF0AA
:10542B00904008C8E0FEA3E07806CEC313CE13D895
:10543B00F990400B2411790D7D5511C987E49040EB
:10544B000B23F0904008C8E0FEA3E0FF7C007D1525
:10545B001100C474002FF974403EFA7B0190400B8D
:10546B0023E07E0029F9EE3AFA11007EFD11C9877F
:10547B0090400B23E004F0E0C3940840C67DBE11BE
:10548B00C987E4F55C90400B23F090400B24E0FFC0
:10549B0011C68B90400B23E07C002425F9EC340BD8
:1054AB00FA7B41EF1100B090400B23E07E002425E6
:1054BB00F9EE340BFA11007E655C24E8F9EE340941
:1054CB00FA7B4111007EF55C90400B23E004F0E089
:1054DB00C3940940B590400B25E090400B30F09001
:1054EB00400B26E090400B2FF090400B29E09040B2
:1054FB000B33F090400B2BE090400B31F090400BB6
:10550B002CE090400B32F090400B30E0FFC0079046
:10551B004008C8E0FEA3E0FF7C007D151100C4AC81
:10552B0006AD07740D2DF974403CFA7B01D0E011E8
:10553B0000B090400B2FE0FFC007740E2DF97440A4
:10554B003CFAD0E01100B090400B33E0FFC0079065
:10555B004008C8E0FEA3E0FF7C007D151100C4AC41
:10556B0006AD07740F2DF974403CFAD0E01100B072
:10557B0090400B31E0FFC00774102DF974403CFADA
:10558B00D0E01100B090400B32E0FFC00790400814
:10559B00C8E0FEA3E0FF7C007D151100C4AC06AD96
:1055AB000774112DF974403CFAD0E01100B074125D
:1055BB002DF974403CFA74801100B0904008C8E09B
:1055CB00FEA3E0FF7C007D151100C474132FF9744A
:1055DB00403EFA748075F0001101E0E55C60030158
:1055EB00590F74002FF974403EFA7B0111007E6451
:1055FB001060030156D690400B2FE07009A3E064B6
:10560B00AA700301590F90400B2FE06007A3E0D362
:10561B009480500E90400B2FE0702EA3E0D3947F1C
:10562B00502790400B30E0FFC007904008C8E0FEC9
:10563B00A3E0FF7C007D151100C474122FF9744098
:10564B003EFA7B01D0E01100B090400B32E06410C9
:10565B0090400B307038E054FE75F080A4FD904004
:10566B000B2FE0C4333333548045F0FC90400B31A7
:10567B00E0FFA3E0C39FFFE49400FEEFC4F8540FD8
:10568B00C868FFEEC454F0484CFEEF4D8017E07530
:10569B00F080A4FD90400B2FE0C43333335480458E
:1056AB00F0FEED4440FFC007C006904008C8E0FE86
:1056BB00A3E0FF7C007D151100C474132FF9744017
:1056CB003EFA7B01D0E0D0F001590C904008C8E0C5
:1056DB00FEA3E0FF7C007D151100C474002FF9744C
:1056EB00403EFA7B0111007E6428600301590F9044
:1056FB00400B33E0700301590F90400B33E05460C3
:10570B0024E0601824E0601D24E060222460600324
:10571B0001590F90400B347402F0801990400B34F8
:10572B007404F0801090400B347408F080079040A4
:10573B000B347410F090400B2FE020E70301583628
:10574B00E0FEA3E07C002400FFEC3EFEC3EF9400E0
:10575B00FFEE9400FEE49401FDEC9400FCC004A960
:10576B0005AA06AB0790400B34E0FD7C007E017F61
:10577B00001100D6E4FCFDD0001101FC90400B2180
:10578B00EEF0A3EFF090400B21E0FEA3E0FF7C00D6
:10579B007D8011012CD3ED9440EC6480948090407B
:1057AB000B21E0FE4013A3E0FF7C007D8011012C58
:1057BB00EF2401FFE43EFE800AA3E0FF7C007D8026
:1057CB0011012C90400B1FEEF0A3EFF090400B1F3C
:1057DB00E0FEA3E0C39480EE6480947F50067F804C
:1057EB00C007800A90400B1FE0A3E0FFC00790406A
:1057FB0008C8E0FEA3E0FF7C007D151100C4AC06D9
:10580B00AD0774122DF974403CFA7B01D0E0110006
:10581B00B090400B21E0FEA3E0FF8FF0C0067413A5
:10582B002DF974403CFAD0E001590C90400B2FE05D
:10583B00FEA3E07C002400FDEC3EFCC004C0059000
:10584B00400B34E0FD7C007E017F001100D6D005BB
:10585B00D0041100C490400B21EEF0A3EFF0904068
:10586B000B21E0FEA3E0FF7C007D8011012CD3ED2A
:10587B009440EC6480948090400B21E0FE4013A395
:10588B00E0FF7C007D8011012CEF2401FFE43EFE44
:10589B00800AA3E0FF7C007D8011012C90400B1F40
:1058AB00EEF0A3EFF090400B1FE0FEA3E0D3947F4C
:1058BB00EE6480948040067F80C007800A90400B86
:1058CB001FE0A3E0FFC007904008C8E0FEA3E0FF85
:1058DB007C007D151100C4AC06AD0774122DF97454
:1058EB00403CFA7B01D0E01100B090400B21E0FE70
:1058FB00A3E0FF8FF0C00674132DF974403CFAD06F
:10590B00E01101E022E4F55AF55BE55D700B904088
:10591B000C3AE020E3037F01227F007E807D037C35
:10592B00001161C1BF01037F01227B047A807904DE
:10593B0011035D90400C221103B2790811035D90A5
:10594B00400C261103B27B817A07797E11A7547B19
:10595B00817A07798E11A7547B417A0C79227D04C9
:10596B00119C507B817A07799D11A7547B417A0C4E
:10597B0079267D04119C5090400C22E0FCA3E0FDA5
:10598B00A3E0FEA3E0FF7B007A8079037800C311CC
:10599B00032660097B817A0779AC015BCF90400CC1
:1059AB0026E0FCA3E0FDA3E0FEA3E0FF7B0C7A80E6
:1059BB0079037800D311032640097B817A0779D7C5
:1059CB00015BCF90400C22E0FCA3E0FDA3E0FEA323
:1059DB00E0240CFFE43EFEE43DFDE43CFC90400C77
:1059EB00221103B290400C22A3A3E0FEA3E0FFC060
:1059FB000690400C26A3A3E0FEA3E0AC06D006C3A2
:105A0B009FFFEC9ECF2401CF340090400C2AF0A3D3
:105A1B00EFF090400C2AE0FEA3E04E7003015DD046
:105A2B0090400C22E0FCA3E0FDA3E0FEA3E02400E9
:105A3B00FFE43EFEED3401FDE43CA907AA06AB05ED
:105A4B00C003C002C001782C7C0C7D41D001D00278
:105A5B00D0037E007F021104D790400C22E0FCA300
:105A6B00E0FDA3E0FEA3E02402FFE43EFEE43DFDE7
:105A7B00E43CFCE42FFFE43EFEED3401FDE43CA9E5
:105A8B0007AA06AB05C003C002C001782E7C0C7DB3
:105A9B0041D001D002D0037E007F011104D790408A
:105AAB000C2CE0FEA3E02402FFE43EFE90400C2A07
:105ABB00E0FCA3E0FDD3EF9DEE9C40177B817A08C1
:105ACB00790011A7547B417A0C792C7D02119C50E3
:105ADB007F012290400C2CE0FEA3E0C39401F52B38
