:020000040002F8
:10000000020207860002000000037FF0EB7002E7A7
:100010002289828A831410E704F593E022F593E4A1
:100020009322BB000327F722F8EB89828A831410FE
:10003000E706F593E028F022F593E4932822BB002D
:1000400002F722BB8000500989828A838B93159323
:10005000F022EF8DF0A4A8F0CF8CF0A428CE8DF084
:10006000A42EFE22BC000BBE0029EF8DF084FFAD54
:10007000F022E4CCF875F008EF2FFFEE33FEEC33FE
:10008000FCEE9DEC984005FCEE9DFE0FD5F0E9E4FA
:10009000CEFD22EDF8F5F0EE008420D21CFEADF08E
:1000A00075F008EF2FFFED33FD4007985006D5F0AF
:1000B000F222C398FD0FD5F0EA22C2D5EC30E70951
:1000C000B2D5E4C39DFDE49CFCEE30E716B2D5E466
:1000D000C39FFFE49EFE12020064C3E49DFDE49C06
:1000E000FC80041202006430D507C3E49FFFE49E45
:1000F000FE22C5F0F8A3E028F0C5F0F8E5821582ED
:1001000070021583E038F022A3F8E0C5F025F0F086
:10011000E582158270021583E0C838F0E822EB70A2
:1001200007E7F5F009E7192289828A831410E708A6
:10013000F593E0F5F0A3E022F593E493F5F0740174
:100140009322BB000B09C5F027F7C5F01937F7223A
:10015000F8EB89828A831410E707F593E80202001E
:10016000F2F59374019325F0F5F0E4933822BB0087
:1001700006F709A7F01922BB8000500D89828A83F7
:100180008B931593F0E5F0A3F022E88FF0A4CC8BCD
:10019000F0A42CFCE98EF0A42CFC8AF0EDA42CFC3D
:1001A000EA8EF0A4CDA8F08BF0A42DCC3825F0FD7C
:1001B000E98FF0A42CCD35F0FCEB8EF0A4FEA9F075
:1001C000EB8FF0A4CFC5F02ECD39FEE43CFCEAA4C1
:1001D0002DCE35F0FDE43CFC2275F008758200EF71
:1001E0002FFFEE33FECD33CDCC33CCC58233C58269
:1001F0009BED9AEC99E58298400CF582EE9BFEED22
:100200009AFDEC99FC0FD5F0D6E4CEFBE4CDFAE4F0
:10021000CCF9A88222B800C1B90059BA002DEC8BE4
:10022000F084CFCECDFCE5F0CBF97818EF2FFFEEC0
:1002300033FEED33FDEC33FCEB33FB10D703994079
:1002400004EB99FB0FD8E5E4F9FA227818EF2FFFB9
:10025000EE33FEED33FDEC33FCC933C910D7059BFB
:10026000E99A4007EC9BFCE99AF90FD8E0E4C9FA57
:10027000E4CCFB2275F010EF2FFFEE33FEED33FDE3
:10028000CC33CCC833C810D7079BEC9AE899400A06
:10029000ED9BFDEC9AFCE899F80FD5F0DAE4CDFB84
:1002A000E4CCFAE4C8F922CFF4CFCEF4CECDF4CD2D
:1002B000CCF4CC22EB9FF5F0EA9E42F0E99D42F0AF
:1002C000E89C45F022E8600FECC313FCED13FDEE53
:1002D00013FEEF13FFD8F122E8600FEFC333FFEEF8
:1002E00033FEED33FDEC33FCD8F122EB7006E9F878
:1002F0000202045489828A831410E706F5930202ED
:100300000460F5930202046CBB0006E9F8020204E3
:100310007CBB8000500C89828A838B9315930202E8
:10032000032322ECF0A3EDF0A3EEF0A3EFF022EB19
:100330007006E9F80202048889828A831410E706AD
:10034000F5930202049AF593020204ACBB001CD0A0
:1003500093D0F0D0E0F8D0E0C9FBD0E0FAD0E0CB09
:10036000C8C0E0C0F0C09302020491BB80005022DC
:10037000D093D0F0D0E0F8D0E0C9F582D0E0CAF553
:1003800083D0E0CB14C8C0E0C0F0C09388930202D1
:1003900004A3D093D083D082D0E0D0E0D0E0E47347
:1003A000EF4E6022EF60010EEDBB0007F709DFFCA6
:1003B000A9F022BB8000500E89828A838B9315930B
:1003C000F0A3DFFCDEFA22EB7008E709F608DFFA9B
:1003D000801B89828A831410E70AF593E0A3F6084C
:1003E000DFFA8009F593E493A3F608DFF9ECFAA9A4
:1003F000F0EDFB2288F0EF60010E4E60F088F0ED2A
:1004000060C51410E7E7CB700E88828C838B93E76E
:1004100009F0A3DFFA80D61410E71C88848C858B42
:100420009589828A83F593758620E0F0A3A3DFFA8D
:10043000DEF875860080B688848C858B9589828AE3
:1004400083F593758620E493F0A3A3DFF9DEF775B7
:1004500086008099E6FC08E6FD08E6FE08E6FF2235
:10046000E0FCA3E0FDA3E0FEA3E0FF22E493FC7424
:100470000193FD740293FE740393FF22ECF608EDE2
:10048000F608EEF608EFF622E6FB08E6FA08E6F9CB
:1004900022EBF608EAF608E9F622E0FBA3E0FAA36D
:1004A000E0F922EBF0A3EAF0A3E9F022E493FB7475
:1004B0000193FA740293F9224842425F5353544124
:1004C00054004842425F4C5354415400554E495FDA
:1004D00050524F4D00554E495F464C415348004ADB
:1004E00050445F50524F4D004A50445F464C415378
:1004F00048005044535F50524F4D005044535F46A4
:100500004C4153480043435F50524F4D0043435FBB
:10051000464C4153480055475F50524F4D00554798
:100520005F464C415348004D5F50524F4D004D5F68
:10053000464C41534800504F5745525F4F4E005272
:10054000455345545F434D440052455345545F5015
:10055000474D00434D444A554D505F46524F4D5F05
:10056000454C53450050474D4A554D505F46524FFC
:100570004D5F454C534500434D444A554D505F46F1
:10058000524F4D5F53454C460050474D4A554D50D4
:100590005F46524F4D5F53454C46000A3D3D3D3D41
:1005A0003D3D3D3D3D3D3D3D3D3D3D3D3D3D3D3D7B
:1005B0003D3D3D3D3D3D3D3D3D3D3D3D3D3D3D3D6B
:1005C0003D3D3D3D3D3D3D3D3D3D3D3D3D3D3D3D5B
:1005D0003D3D3D3D3D000A2052756E6E696E674D92
:1005E0006F64653A20000A20526573657452656134
:1005F000736F6E3A20000A204E6577626F726E410B
:100600006464723A20000A204C6F676963616C4130
:100610006464723A20000A2056657273696F6E4EE8
:10062000756D623A20000A20436F6D70696C6544F5
:100630006174653A200030312F31372F3039002C6A
:10064000200030363A35363A3539000A5B436F6E52
:10065000666967457865635D3A200046696C655355
:1006600074617274416464723D002C2046696C654B
:10067000456E64416464723D000A5B436F6E666957
:1006800067457865635D3A20496E76616C696420E0
:1006900066696C652073746172742061646472654C
:1006A00073732E000A5B436F6E66696745786563F6
:1006B0005D3A20496E76616C69642066696C6520DC
:1006C000656E6420616464726573732E000A5B4317
:1006D0006F6E666967457865635D3A20496E76613D
:1006E0006C696420636F6D6D616E64206C656E670C
:1006F00074682E09000A5B436F6E6669674578650A
:10070000635D3A20436F6E666967206C6F67207384
:10071000706163652069732066756C6C2E000A2D0C
:100720002D2D2D2D2D2D2D20000A436D646C656E11
:10073000203A20000A436D64547970653A20000A1B
:10074000436D64446174613A20000A5265734C65DC
:100750006E203A20000A526573466C61673A2000A9
:100760004B4F004F4B000A526573446174613A204D
:10077000004E455854004552524F520041424F528C
:100780005400454E440075C7AA75C75575923F750C
:10079000C7AA75C75575A21875C7AA75C755759D9F
:1007A0000275C7AA75C75575C6A0787FE4F6D8FD4F
:1007B00075815E020207E102026CCFE493A3F85454
:1007C00007240CC8C333C4540F4420C8834004F426
:1007D00056800146F6DFE4800C0102040810204038
:1007E000809002086CE47E019360CCA3FF543F30FC
:1007F000E509541FFEE493A360010ECF54E0B4E07A
:1008000026E493FBA3E493FAA3E493F9A3E493C04F
:1008100083C0821202003ED082D083A309E9700116
:100820000ADFEADEE880BE54C025E0602B408CE49D
:1008300093A3FAE493A3F8E493A3C8C582C8CAC5F6
:1008400083CA759340F0759302A3C8C582C8CAC510
:1008500083CADFE3DEE1808DE493A3F8E493A34051
:1008600003F68001F208DFF4020207E5602A0015B2
:100870008304B88304C28304CC8304D58304DF8358
:1008800004E88304F28304FB83050583050D8305D7
:100890001683051E83052783052E55000083053624
:1008A00083053F8305498305538305658305778366
:1008B00005890030312F31372F30390030363A3545
:1008C000363A353900AF1FEF75F01CA424AFF97428
:1008D0000035F0FA7B4151032F90400098EBF0A3D4
:1008E000EAF0A3E9F090400098E0FBA3E0FAA3E06F
:1008F0002406F9E43AFA51000C54F0FFBFF03DAF82
:100900001FEF75F01CA424B2F9740035F0FA7B4196
:1009100051032F90400098EBF0A3EAF0A3E9F09088
:10092000400098E0FBA3E0FAA3E02406F9E43AFAD9
:1009300051000C54F064F070034110F390400098A3
:10094000E0FBA3E0FAA3E02402F9E43AFA51000C38
:100950009040009BF090400098E0FBA3E0FAA3E0F9
:100960002406F9E43AFA51000CC4540F9040009C5C
:10097000F09040009BE0540F9040009DF0904000AC
:100980009CE07003410FC59040009BE0546024E060
:100990007003410AD724E07003410C9A24E07003ED
:1009A000410DE2246060034110F3AF1F7E00749F8D
:1009B0002FF9EE3400FA7B4151000C64C06014AF93
:1009C0001F749F2FF9EE3400FA51000C648060030D
:1009D000410BD5AF1F7E00749F2FF9EE3400FA7BD8
:1009E00041748051003EAF1F748F2FF9EE3401FA2D
:1009F0007B4151000CFF9040009DE06F600341106F
:100A000054AF1FEF75F01CA424BBF9740035F0FA45
:100A10007B4151011EFF9040009CE02FFFE435F028
:100A2000FED3EF9400EE94204003410B57AF1FEF2D
:100A300075F01CA424B8F9740035F0FA7B41510319
:100A40002FC003C002C00190400098E0FBA3E0FA71
:100A5000A3E02407F9E43AFA9040004AEBF0A3EA55
:100A6000F0A3E9F09040009CE09040004DF0D001F0
:100A7000D002D0035168DA9040009CE0FDAF1FEF38
:100A800075F01CA424BBF9740035F0FA7B41E48DA9
:100A9000F05101429040009CE0FDAF1FEF75F01C4B
:100AA000A424B8F9740035F0FA09E970010AE48D5C
:100AB000F05101429040009BE05404FFE51F04FD0B
:100AC000513FF5EF9040009D30E106E04430410F8A
:100AD000BFE04410410FBFAF1F7E00749F2FF9EE9F
:100AE0003400FA7B4151000C64C06014AF1F749F46
:100AF0002FF9EE3400FA51000C64806003410BD5ED
:100B0000AF1F7E00749F2FF9EE3400FA7B4174A072
:100B100051003EAF1F748F2FF9EE3401FA7B415123
:100B2000000CFF9040009DE06F6003411054AF1F28
:100B3000EF75F01CA424BBF9740035F0FA7B415129
:100B4000011EFF9040009CE02FFFE435F0FED3EF44
:100B50009400EE94204004A3411054AF1FEF75F0B1
:100B60001CA424B8F9740035F0FA7B4151032FC05E
:100B700003C002C00190400098E0FBA3E0FAA3E0AC
:100B80002407F9E43AFA9040004AEBF0A3EAF0A314
:100B9000E9F09040009CE09040004DF0D001D00280
:100BA000D0035168DA9040009CE0FDAF1FEF75F074
:100BB0001CA424BBF9740035F0FA7B41E48DF0519C
:100BC00001429040009BE05404FFE51F04FD513FAB
:100BD000F5EF30E1079040009D41105490400352E2
:100BE000E004F0AF1FEF75F01CA424BBF9740035CE
:100BF000F0FA7B4151011EF52B85F02AAF1FEF75EE
:100C0000F01CA424B5F9740035F0FA51032F8B259C
:100C10008A268927AF1FEF75F01CA424C3F974003E
:100C200035F0FA7B4151032F8B218A228923AF1F94
:100C30007E0074A72FF9EE3400FA7B4151000CFFBF
:100C4000514EE8AF1FEF75F01CA424C9F9740035AC
:100C5000F0FA7B41E5288529F051016EAB21AA22EB
:100C6000A923C003C002C001AF1FEF75F01CA4246C
:100C7000C6F9740035F0FA7B4151034CD3E5299451
:100C800008E52894004003410F9FE529452890403E
:100C9000009D7003410FBC410FB3AF1F7E00749FD6
:100CA0002FF9EE3400FA7B4174C051003E904000B1
:100CB0009DE0FFAE1FEE7C00248FF9EC3401FA7B3F
:100CC00041EF51003E90400098E0FBA3E0FAA3E022
:100CD0002407F9E43AFA51000CFFAE1FEE24A7F9FD
:100CE000EC3400FA7B41EF51003EAF1F7E0074A749
:100CF0002FF9EE3400FA51000CC413135403FFAE65
:100D00001FEE248FF9EC3401FA7B4151000CFE13E5
:100D1000131354036F6003410E5F9040009CE01476
:100D2000F0AF1FEF75F01CA424B5F9740035F0FA8C
:100D30007B4151032FC003C002C00190400098E0E6
:100D4000FBA3E0FAA3E02408F9E43AFA9040004A51
:100D5000EBF0A3EAF0A3E9F09040009CE0904000A3
:100D60004DF0D001D002D0035168DA9040009CE0F1
:100D7000FDAF1FEF75F01CA424BBF9740035F0FA29
:100D80007B41E48DF051016EAF1FEF75F01CA42480
:100D9000B5F9740035F0FA51032F9040009CE07EC5
:100DA0000029F9EE3AFAC003C002C001AF1FEF7587
:100DB000F01CA424B8F9740035F0FA7B4151034CBF
:100DC0009040009BE05404FFE51F04FD513FF5EF08
:100DD0009040009D30E105E044308003E044104144
:100DE0000FBFAF1F7E00749F2FF9EE3400FA7B41D6
:100DF00074E051003E9040009DE0FFAE1FEE7C008D
:100E0000248FF9EC3401FA7B41EF51003E90400011
:100E100098E0FBA3E0FAA3E02407F9E43AFA5100D2
:100E20000CFFAE1FEE24A7F9EC3400FA7B41EF5122
:100E3000003EAF1F7E0074A72FF9EE3400FA510078
:100E40000CC413135403FFAE1FEE248FF9EC3401CE
:100E5000FA7B4151000CFE13131354036F600A9088
:100E600040009DE04430410FBF9040009CE014F0F2
:100E7000AF1FEF75F01CA424B5F9740035F0FA7BB0
:100E80004151032FC003C002C00190400098E0FB15
:100E9000A3E0FAA3E02408F9E43AFA9040004AEB10
:100EA000F0A3EAF0A3E9F09040009CE09040004DF0
:100EB000F0D001D002D0035168DA9040009CE0FDF0
:100EC000AF1FEF75F01CA424BBF9740035F0FA7B5A
:100ED00041E48DF051016E9040009BE05404FFE529
:100EE0001F04FD513FF5EF30E10A9040009DE044C2
:100EF00030410FBF90400352E004F0AF1FEF75F098
:100F00001CA424BBF9740035F0FA7B4151011EF595
:100F10002B85F02AAF1FEF75F01CA424B5F97400DF
:100F200035F0FA51032F8B258A268927AF1FEF75DD
:100F3000F01CA424C3F9740035F0FA7B4151032F4F
:100F40008B218A228923AF1F7E0074A72FF9EE34EC
:100F500000FA7B4151000CFF514EE8AF1FEF75F0D6
:100F60001CA424C9F9740035F0FA7B41E5288529D1
:100F7000F051016EAB21AA22A923C003C002C00117
:100F8000AF1FEF75F01CA424C6F9740035F0FA7B8E
:100F90004151034CD3E5299408E5289400400A9078
:100FA00040009DE044504110A0E5294528904000B4
:100FB0009D6009E04470FFAD294110F0E0452CFF31
:100FC000E4FD4110F09040009BE0546024E0700389
:100FD0004110E624E070034110E624E07003411064
:100FE000E6246060034110F3AF1F7E00749F2FF969
:100FF000EE3400FA7B4151000C64E0602DAF1F74A9
:101000009F2FF9EE3400FA51000C64A0601CAF1F52
:10101000749F2FF9EE3400FA51000C600D904000DF
:101020009DE04430FFE4FD4110F0AF1F7E00749F4F
:101030002FF9EE3400FA7B41E451003EAF1F748F6C
:101040002FF9EE3401FA7B4151000CFF9040009DD6
:10105000E06F6009E04430FFE4FD4110F090400093
:101060009BE05404FFE51F04FD513FF5EF30E10C18
:101070009040009DE04430FFE4FD8074AF1FEF75A9
:10108000F01CA424C9F9740035F0FA7B4151011E0B
:10109000D39408E5F09400400C9040009DE044108B
:1010A000FF7D08804BAF1FEF75F01CA424C9F974B5
:1010B0000035F0FA7B4151011E45F0601DAF1FEF76
:1010C00075F01CA424C9F9740035F0FA51011EFD15
:1010D0009040009DE04430FF80169040009DE04429
:1010E00030FFE4FD800A9040009DE04430FFE4FDC5
:1010F00051382D227B827AFF790051000CF5247B38
:101100000479FF51000CF4FF1951000CB507075189
:10111000000CF52080037520FF90400350E524F07B
:10112000A3E520F0E490400090F090400090E07E35
:1011300000249FF9EE3400FA7B41746051003E9028
:10114000400090E0248FF9EE3401FA7B4174FF51A6
:10115000003E90400090E024A7F9EE3400FA7B4175
:1011600074FF51003E90400090E075F010A42410F0
:10117000F9741035F0FA7B41C003C002C001E0757C
:10118000F01CA424AFF9740035F0FA7B4151034CF4
:1011900090400090E075F010A42410F9741135F01F
:1011A000FA7B41C003C002C001E075F01CA424B268
:1011B000F9740035F0FA7B4151034C90400090E007
:1011C000C43354E0FEE42400FFE43EFEE43404FDB6
:1011D000E433FCE42FFFE43EFEED3401FDE43CA9E2
:1011E00007AA06AB05C003C002C001E075F01CA44D
:1011F00024B5F9740035F0FA7B4151034C9040005E
:1012000090E0540375F010A424A0F9741035F0FA9E
:101210007B41C003C002C001E075F01CA424BDF9ED
:10122000740035F0FA7B4151034C90400090E0543B
:101230000375F010A424A0F9741135F0FA7B41C0B5
:1012400003C002C001E075F01CA424C0F97400358D
:10125000F0FA7B4151034C90400090E0C43354E0DD
:10126000FEE42400FFE43EFEE43404FDE433FCE449
:101270002FFFE43EFEED3401FDE43CFCE42FFFE4EF
:101280003EFEED3401FDE43CA907AA06AB05C00310
:10129000C002C001E075F01CA424C3F9740035F04D
:1012A000FA7B4151034C90400090E004F0E0640868
:1012B000600341112A75C7AA75C75575A309516FF7
:1012C000BE75C7AA75C75575E309516FBE75C7AA24
:1012D00075C75575A301516FBE75C7AA75C75575FA
:1012E000E301516FBEE490401000F090401100F017
:1012F00090401001F090401101F090401002F090E9
:10130000401102F090401003F090401103F0904023
:101310001004F090401104F0904010057414F09007
:10132000401105F09040100674FFF090401106F057
:1013300090401007F090401107F09040100874158D
:10134000F090401108F09040100974FFF0904011A7
:1013500009F09040100AF09040110AF0E49040101B
:101360000BF09040110BF09040100C74FFF0904087
:10137000110CF09040100DF09040110DF0904010C5
:101380000EF09040110EF09040100FF09040110FB1
:10139000F0E4F5ABF5EBF5ACF5ECF5ADF5EDF5AE50
:1013A000F5EEF5AFF5EFF5B3F5F3F5B4F5F4F5B506
:1013B000F5F5F5B6F5F6F5B7F5F7F5BBF5FBF5BCC4
:1013C000F5FCF5BDF5FDF5BEF5FEF5BFF5FF90406A
:1013D000009004F090400090E075F010A42402F911
:1013E000741035F0FA7B41E451003E90400090E0EB
:1013F00075F010A42402F9741135F0FA7B41E45120
:10140000003E90400090E075F010A42403F97410A1
:1014100035F0FA7B41E451003E90400090E075F0D9
:1014200010A42403F9741135F0FA7B41E451003E15
:1014300090400090E075F010A42404F9741035F089
:10144000FA7B41E451003E90400090E075F010A41A
:101450002404F9741135F0FA7B41E451003E9040C8
:101460000090E075F010A42405F9741035F0FA7BB3
:1014700041E451003E90400090E075F010A4240536
:10148000F9741135F0FA7B41E451003E9040009030
:10149000E075F010A42406F9741035F0FA7B41E4ED
:1014A00051003E90400090E075F010A42406F974BD
:1014B0001135F0FA7B41E451003E90400090E07518
:1014C000F010A42407F9741035F0FA7B41E45100C0
:1014D0003E90400090E075F010A42407F974113597
:1014E000F0FA7B41E451003E90400090E075F0102E
:1014F000A42408F9741035F0FA7B41E451003E90C1
:10150000400090E075F010A42408F9741135F0FA49
:101510007B41E451003E90400090E075F010A4241F
:1015200009F9741035F0FA7B41E451003E90400017
:1015300090E075F010A42409F9741135F0FA7B419C
:10154000E451003E90400090E075F010A4240AF9A8
:10155000741035F0FA7B41E451003E90400090E079
:1015600075F010A4240AF9741135F0FA7B41E451A6
:10157000003E90400090E075F010A4240BF9741028
:1015800035F0FA7B41E451003E90400090E075F068
:1015900010A4240BF9741135F0FA7B41E451003E9C
:1015A00090400090E075F010A4240CF9741035F010
:1015B000FA7B41E451003E90400090E075F010A4A9
:1015C000240CF9741135F0FA7B41E451003E90404F
:1015D0000090E075F010A4240DF9741035F0FA7B3A
:1015E00041E451003E90400090E075F010A4240DBD
:1015F000F9741135F0FA7B41E451003E90400090BF
:10160000E075F010A4240EF9741035F0FA7B41E473
:1016100051003E90400090E075F010A4240EF97443
:101620001135F0FA7B41E451003E90400090E00417
:10163000F0E0641060034113D4E490400090F09017
:10164000400090E0C3940450067F017D0180047F38
:10165000007D0090400090E075F01CA424AFF97468
:101660000035F0FA7B4151032FE92402F9E43AFAFC
:10167000ED51003E90400090E05403FDE075F01CF9
:10168000A424AFF9740035F0FA7B4151032FE9240B
:1016900003F9E43AFAED51003E90400090E0C39423
:1016A000045006AF24AD078004AF20AD0790400082
:1016B00090E075F01CA424AFF9740035F0FA7B417A
:1016C00051032FE92404F9E43AFAED51003E904029
:1016D0000090E075F01CA424AFF9740035F0FA7B9B
:1016E0004151032FE92405F9E43AFA740151003E0F
:1016F00090400090E075F01CA424AFF9740035F020
:10170000FA7B4151032FE92406F9E43AFA74F651C1
:10171000003E90400090E0C3940450067F057D0594
:1017200080047F047D0490400090E075F01CA424A8
:10173000B2F9740035F0FA7B4151032FE92402F924
:10174000E43AFAED51003E90400090E05403FDE091
:1017500075F01CA424B2F9740035F0FA7B415103F2
:101760002FE92403F9E43AFAED51003E904000904D
:10177000E0C394045006AF24AD078004AF20AD074A
:1017800090400090E075F01CA424B2F9740035F08C
:10179000FA7B4151032FE92404F9E43AFAED5100B0
:1017A0003E90400090E075F01CA424B2F97400351E
:1017B000F0FA7B4151032FE92405F9E43AFA740168
:1017C00051003E90400090E075F01CA424B2F974E2
:1017D0000035F0FA7B4151032FE92406F9E43AFA87
:1017E00074F651003E90400090E004F0E064086020
:1017F0000341163FE524D39403401875AB8075EB85
:101800008075AC8075EC8075AD8075ED8075AE80AF
:1018100075EE80E520D39403401DE520F460187533
:10182000AF8075EF8075B38075F38075B48075F403
:101830008075B58075F58075C7AA75C755E4F5A3A1
:10184000516FBE75C7AA75C755E4F5E3416FBE90E9
:10185000400087EEF0A3EFF090400087E0FEA3E0A9
:101860007806CEC313CE13D8F9904002D85133B7BF
:101870007D55516EF1E4904002D7F090400087E032
:10188000FEA3E0FF7C007D1551005274002FF97417
:10189000403EFA7B01904002D7E07E0029F9EE3A03
:1018A000FA51000CFD516EF1904002D7E004F0E0D7
:1018B000C3940840C67DBE516EF1E4F55C904002D1
:1018C000D7F0904002D8E0FF516BBA904002D7E0C9
:1018D0007C0024D9F9EC3402FA7B41EF51003E90B0
:1018E0004002D7E07E0024D9F9EE3402FA51000C10
:1018F000655C249CF9EE3401FA7B4151000CF55CE7
:10190000904002D7E004F0E0C3940940B590400253
:10191000D9E0904002E4F0904002DAE0904002E327
:10192000F0904002DDE0904002E7F0904002DFE0FE
:10193000904002E5F0904002E0E0904002E6F09036
:101940004002E4E0FFC00790400087E0FEA3E0FF14
:101950007C007D15510052AC06AD07740D2DF97455
:10196000403CFA7B01D0E051003E904002E3E0FFB2
:10197000C007740E2DF974403CFAD0E051003E903F
:101980004002E7E0FFC00790400087E0FEA3E0FFD1
:101990007C007D15510052AC06AD07740F2DF97413
:1019A000403CFAD0E051003E904002E5E0FFC00725
:1019B00074102DF974403CFAD0E051003E90400282
:1019C000E6E0FFC00790400087E0FEA3E0FF7C0058
:1019D0007D15510052AC06AD0774112DF974403CD1
:1019E000FAD0E051003E74122DF974403CFA748034
:1019F00051003E90400087E0FEA3E0FF7C007D1593
:101A000051005274132FF974403EFA748075F0003F
:101A100051016EE55C6003411D3C74002FF9744078
:101A20003EFA7B0151000C64106003411B0390409F
:101A300002E3E07009A3E064AA7003411D3C9040FA
:101A400002E3E06007A3E0D39480500E904002E3ED
:101A5000E0702EA3E0D3947F5027904002E4E0FF93
:101A6000C00790400087E0FEA3E0FF7C007D155199
:101A7000005274122FF974403EFA7B01D0E05100FD
:101A80003E904002E6E06410904002E47038E0547A
:101A9000FE75F080A4FD904002E3E0C4333333547C
:101AA0008045F0FC904002E5E0FFA3E0C39FFFE427
:101AB0009400FEEFC4F8540FC868FFEEC454F04819
:101AC0004CFEEF4D8017E075F080A4FD904002E3DE
:101AD000E0C4333333548045F0FEED4440FFC0078B
:101AE000C00690400087E0FEA3E0FF7C007D15511A
:101AF000005274132FF974403EFA7B01D0E0D0F00D
:101B0000411D3990400087E0FEA3E0FF7C007D1579
:101B100051005274002FF974403EFA7B0151000CC1
:101B200064286003411D3C904002E7E07003411DC2
:101B30003C904002E7E0546024E0601824E0601D1F
:101B400024E0602224606003411D3C904002E87460
:101B500002F08019904002E87404F0801090400276
:101B6000E87408F08007904002E87410F09040029A
:101B7000E3E020E703411C63E0FEA3E07C002400D7
:101B8000FFEC3EFEC3EF9400FFEE9400FEE49401F0
:101B9000FDEC9400FCC004A905AA06AB0790400226
:101BA000E8E0FD7C007E017F00510064E4FCFDD094
:101BB0000051018A904002D5EEF0A3EFF090400270
:101BC000D5E0FEA3E0FF7C007D805100BAD3ED9408
:101BD00040EC64809480904002D5E0FE4013A3E086
:101BE000FF7C007D805100BAEF2401FFE43EFE80BF
:101BF0000AA3E0FF7C007D805100BA904002D3EE42
:101C0000F0A3EFF0904002D3E0FEA3E0C39480EE97
:101C10006480947F50067F80C007800A904002D382
:101C2000E0A3E0FFC00790400087E0FEA3E0FF7C58
:101C3000007D15510052AC06AD0774122DF97440A9
:101C40003CFA7B01D0E051003E904002D5E0FEA37B
:101C5000E0FF8FF0C00674132DF974403CFAD0E019
:101C6000411D39904002E3E0FEA3E07C002400FD2A
:101C7000EC3EFCC004C005904002E8E0FD7C007E24
:101C8000017F00510064D005D00451005290400201
:101C9000D5EEF0A3EFF0904002D5E0FEA3E0FF7C8C
:101CA000007D805100BAD3ED9440EC648094809024
:101CB0004002D5E0FE4013A3E0FF7C007D80510090
:101CC000BAEF2401FFE43EFE800AA3E0FF7C007D22
:101CD000805100BA904002D3EEF0A3EFF0904002A2
:101CE000D3E0FEA3E0D3947FEE6480948040067F2F
:101CF00080C007800A904002D3E0A3E0FFC00790B5
:101D0000400087E0FEA3E0FF7C007D15510052AC4F
:101D100006AD0774122DF974403CFA7B01D0E051F6
:101D2000003E904002D5E0FEA3E0FF8FF0C00674B5
:101D3000132DF974403CFAD0E051016E22E4F55ABB
:101D4000F55BE55D700B9040034FE020E3037F01FE
:101D5000227F007E807D037C00512200BF01037F33
:101D600001227B047A8079045102EB9040033751C1
:101D7000032379085102EB9040033B5103237B83FB
:101D80007A06794B5157C87B837A06795B5157C8DD
:101D90007B417A0379377D04514DA77B837A06799D
:101DA0006A5157C87B417A03793B7D04514DA79016
:101DB000400337E0FCA3E0FDA3E0FEA3E0FF7B00CF
:101DC0007A8079037800C35102B460097B837A0674
:101DD0007979411FFC9040033BE0FCA3E0FDA3E0C8
:101DE000FEA3E0FF7B0C7A8079037800D35102B424
:101DF00040097B837A0679A4411FFC90400337E0B9
:101E0000FCA3E0FDA3E0FEA3E0240CFFE43EFEE41F
:101E10003DFDE43CFC9040033751032390400337E1
:101E2000A3A3E0FEA3E0FFC0069040033BA3A3E012
:101E3000FEA3E0AC06D006C39FFFEC9ECF2401CFEB
:101E400034009040033FF0A3EFF09040033FE0FEEA
:101E5000A3E04E70034121FD90400337E0FCA3E076
:101E6000FDA3E0FEA3E02400FFE43EFEED3401FD0F
:101E7000E43CA907AA06AB05C003C002C001784133
:101E80007C037D41D001D002D0037E007F0251034C
:101E9000F490400337E0FCA3E0FDA3E0FEA3E024C0
:101EA00002FFE43EFEE43DFDE43CFCE42FFFE43EA3
:101EB000FEED3401FDE43CA907AA06AB05C003C052
:101EC00002C00178437C037D41D001D002D0037E63
:101ED000007F015103F490400341E0FEA3E024029F
:101EE000FFE43EFE9040033FE0FCA3E0FDD3EF9D06
:101EF000EE9C40177B837A0679CD5157C87B417A97
:101F00000379417D02514DA77F012290400341E0BA
:101F1000FEA3E0C39401F52BEE9400F52A90400354
:101F200037E0FCA3E0FDA3E0FEA3E02403FFE43ED2
:101F3000FEE43DFDE43CFCE42FFFE43EFEED340115
:101F4000FDE43CA907AA06AB058D258A26892775DD
:101F5000210275220075230090400343E0FF514E9B
:101F6000E890400337E0F8A3E0F9A3E0FAA3E0FB30
:101F700090400341E0FEA3E02402FFE43EFEE4FCC7
:101F8000FDEB2FFFEA3EFEED39FDEC38FC904003FF
:101F9000375103239040033FE0FEA3E0FF9040034E
:101FA00041E0FCA3E02402FDE43CFCC3EF9DFFEE16
:101FB0009C9040033FF0A3EFF0E5292401FEE435B7
:101FC0002890400344F0A3CEF090400341E0FEA3EC
:101FD000E0FF255BCFE55A3ECF2402CF3400FE90D0
:101FE000400344E0FCA3E02FFFEE3CCF2402CF34BB
:101FF00000C39480400C7B837A0679F55157C87FE3
:102000000122E52945287011E52C546064606009BF
:10201000904003467401F08006E490400346F07B54
:10202000417A037941C003C001AE5AAF5B74002FFF
:10203000F974203EA801FC7D02D001D0037E007F10
:10204000025103F47402255BF55BE4355AF55A7BC3
:10205000417A037943C003C001AE5AAF5B74002FCD
:10206000F974203EA801FC7D02D001D0037E007FE0
:10207000015103F4055BE55B7002055AAE2AAF2BF4
:10208000AC5AAD5B74002DF974203CA801FC7D02B4
:10209000AB25AA26A9275103F4E52B255BF55BE5C3
:1020A0002A355AF55A7B417A037944C003C001AE00
:1020B0005AAF5B74002FF974203EA801FC7D02D05A
:1020C00001D0037E007F025103F47402255BF55BAF
:1020D000E4355AF55A7B417A037946C003C001AE14
:1020E0005AAF5B74002FF974203EA801FC7D02D02A
:1020F00001D0037E007F015103F4055BE55B7002B4
:10210000055AAE28AF29AC5AAD5B74002DF9742086
:102110003CA801FC7D02AB21AA22A9235103F4E5CE
:1021200029255BF55BE528355AF55A7B837A0779D3
:102130001E5157C87B837A0779295157C87B417A4A
:102140000379417D02514DA77B837A07793451573A
:10215000C87B417A0379437D01514DA77B837A0780
:10216000793F5157C8AB25AA26A927AD2B514DA7BA
:102170007B837A07794A5157C87B417A0379447D3A
:1021800002514DA77B837A0779555157C890400378
:1021900046E060087B837A07796080067B837A0754
:1021A00079635157C87B837A0779665157C8AB2149
:1021B000AA22A923AD29514DA7E52945286003414D
:1021C0001E4AE52C546024E0601724E0601B24E0E4
:1021D000601F24606003411E4A7B837A0779718007
:1021E000167B837A077976800E7B837A07797C80E9
:1021F000067B837A0779825157C8411E4A7F0022A5
:102200009040006C510323E4FFFE7D06FC904000EB
:102210006CE0F8A3E0F9A3E0FAA3E0FBC35102B439
:1022200040037F01229040006CE0FCA3E0FDA3E0AE
:10223000FEA3E02404FFE43EFEED3401FDE43CA9EE
:1022400007AA06AB055102EB8F4A8E498D488C4791
:102250009040006CE0FCA3E0FDA3E0FEA3E02408B6
:10226000FFE43EFEED3401FDE43CA907AA06AB0500
:102270005102EB8F4E8E4D8D4C8C4BE54E2401FF61
:10228000E4354DFEE54C3401FDE4354BA907AA06C3
:10229000AB0551011EF55085F04FE4F551F5529014
:1022A00040006CE0FCA3E0FDA3E0FEA3E0FFAB4A2E
:1022B000AA49A948A847C35102B4604BE4FFFE7D78
:1022C00002FC9040006CE0F8A3E0F9A3E0FAA3E080
:1022D000FBC35102B470089040034FE04440F07FCC
:1022E000007E807D037C009040006CE0F8A3E0F964
:1022F000A3E0FAA3E0FBC35102B470089040034F7F
:10230000E04420F07F01229040006CE0FCA3E0FD5F
:10231000A3E0FEA3E0240CFFE43EFEE43DFDE43C2C
:10232000FCAB4EAA4DA94CA84BC35102B4504BE490
:10233000FFFE7D02FC9040006CE0F8A3E0F9A3E012
:10234000FAA3E0FBC35102B470089040034FE0448D
:1023500040F07F007E807D037C009040006CE0F8C0
:10236000A3E0F9A3E0FAA3E0FBC35102B470089024
:1023700040034FE04420F07F0122AF4AAE49AD4810
:10238000AC4790400365510323C3E54E954AFFE5F2
:102390004D9549FEE54C9548FDE54B9547FCEF24EE
:1023A00001FFE43EFEE43DFDE43CFC904003698017
:1023B0007090400369E0FCA3E0FDA3E0FEA3E0FF12
:1023C000E47B32FAF9F8C35102B4505A90400365E5
:1023D000E0FCA3E0FDA3E0FEA3E0FF516A8A904089
:1023E0000369E0FCA3E0FDA3E0FEA3E0C39432FF99
:1023F000EE9400FEED9400FDEC9400FC9040036927
:1024000051032390400365E0FCA3E0FDA3E0FEA39D
:10241000E02432FFE43EFEE43DFDE43CFC9040035A
:1024200065510323808BE4FFFEFDFC4124B2904004
:10243000036DE0FCA3E0FDA3E0FEA3E0FF904003FA
:1024400069E0F8A3E0F9A3E0FAA3E0FBD35102B4FA
:10245000406A9040036DE0FCA3E0FDA3E0FEA3E032
:10246000FF90400365E0F8A3E0F9A3E0FAA3E02FB2
:10247000FFEA3EFEE93DFDE83CFCE42FFFE43EFEC2
:10248000ED3401FDE43CA907AA06AB0551000C257B
:1024900052F552E43551F5519040036DE0FCA3E054
:1024A000FDA3E0FEA3E02401FFE43EFEE43DFDE4E5
:1024B0003CFC9040036D51032341242EE4FFFE7D3C
:1024C00002FC9040006CE0F8A3E0F9A3E0FAA3E07E
:1024D000FBC35102B4701AE55065527004E54F65B4
:1024E000519040034F6006E04440F08004E054BF48
:1024F000F07F007E807D037C009040006CE0F8A3BC
:10250000E0F9A3E0FAA3E0FBC35102B4701AE5506E
:1025100065527004E54F65519040034F6006E044FA
:1025200020F08004E054DFF07F0022C3E52B940507
:10253000E52A940050034127D5AB25AA26A927E90F
:102540002401F9E43AFA51000CFDAB25AA26A9278B
:1025500051000CFFED9040035ECFF0A3EFF0C3E518
:102560002B9405FFE52A9400FE9040035EE0FCA357
:10257000E06F7002EE6C60034127D5AB25AA26A957
:1025800027E92403F9E43AFA51000CFFE4FCFDFECC
:1025900078085102D8C004C005C006C007AB25AA00
:1025A00026A927E92402F9E43AFA51000CFFE4FCD9
:1025B000FDFE78105102D8D003D002D001D000EF38
:1025C0004BFFEE4AFEED49FDEC48FCA804C005C0F7
:1025D00006C007AB25AA26A927E92404F9E43AFA9C
:1025E00051000CFFD003D002D001EF4BFFEAFEE90F
:1025F000FDE8FC9040036051032390400360A3E09A
:10260000FDA3E0FEA3E0FFED540FFDE4FC904003CA
:1026100060510323AB25AA26A927E92402F9E43A4D
:10262000FA51000C54F090400364F0E06008E0645C
:102630004060034127D59040035EE0FEA3E0FF9099
:10264000400360E0F8A3E0F9A3E0FAA3E0FBEF2B7E
:10265000FFEE3AFEE439FDE438FCE4FBFA7910F8C9
:10266000C35102B450034127D590400364E0601B7E
:1026700090400360E0FCA3E0FDA3E0FEA3E0FFEDDB
:102680004440FDEC90400360510323AB25AA26A9EA
:1026900027E92405F9E43A8B25F52689279040039C
:1026A00060E0FCA3E0FDA3E0FEA3E0FFE4FBFA7919
:1026B00002F8D35102B440034127469040035EE044
:1026C000FEA3E0FF90400360E0F8A3E0F9A3E0FA86
:1026D000A3E0FBEF2BFFEE3AFEE439FDE438FCE427
:1026E000FBFA7904F8C35102B4405B90400360E008
:1026F000FCA3E0FDA3E0FEA3E02400FFE43EFEED2A
:102700003401FDE43CA907AA06AB05C003C002C022
:1027100001AB25AA26A92790400042EBF0A3EAF0DE
:10272000A3E9F09040035EE0FFA3E090400045CFB6
:10273000F0A3EFF0D001D002D00351588CBF0103B9
:102740004127D541283E9040035E74FFF5F05101CA
:102750000845F0700341283E90400360E0FCA3E090
:10276000FDA3E0FEA3E0FFE4FBFA7902F8D35102F7
:10277000B4506B90400360E0FCA3E0FDA3E0FEA337
:10278000E0FFE47904F85102B4405390400360E064
:10279000FCA3E0FDA3E0FEA3E02400FFE43EFEED89
:1027A0003401FDE43CA907AA06AB05C003C002C082
:1027B00001AB25AA26A92790400042EBF0A3EAF03E
:1027C000A3E9F0A3E4F0A304F0D001D002D00351B8
:1027D000588CBF013AE4F528F529752C3022904039
:1027E0000360E0FCA3E0FDA3E0FEA3E02400FFE41F
:1027F0003EFEED3401FDE43CA907AA06AB05A8079F
:10280000AC06AB25AA26A9277E007F015103F490D0
:10281000400360E0FCA3E0FDA3E0FEA3E02401FF91
:10282000E43EFEE43DFDE43CFC90400360510323A4
:1028300074012527F527E43526F526412746E4F5DA
:1028400028F529752C7022E52B6401452A60028049
:1028500030AB25AA26A92751000C547F904002F9DD
:10286000F0AB25AA26A92751000C5480904002FA0B
:10287000F0904002F9E0C394014006E0D39409408F
:1028800009E4F528F529752C3022AB25AA26A927BD
:1028900051000CAB21AA22A92351003E75280075D6
:1028A0002901904002F9E075F040A4FF904002FB3E
:1028B000E5F0F0A3EFF0E4904002F8F0904002F968
:1028C000E07E00240BF9EE3403FA7B4151000CFF4B
:1028D000904002F8E0C39F4003412B4D904002FA24
:1028E000E07003412A29A3E0FEA3E0FF7C007D15F0
:1028F000510052740D2FF974403EFA7B0151000CC7
:10290000FFAB21AA22A9230529E529AC28700205DD
:10291000281429F9EA3CFAEF51003E904002FBE00E
:10292000FEA3E0FF7C00510052740E2FF974403E6C
:10293000FA7B0151000CFFAB21AA22A9230529E54E
:1029400029AC28700205281429F9EA3CFAEF510055
:102950003E904002FBE0FEA3E0FF7C005100527479
:102960000F2FF974403EFA7B0151000CFFAB21AAF6
:1029700022A9230529E529AC28700205281429F984
:10298000EA3CFAEF51003E904002FBE0FEA3E0FF7C
:102990007C0051005274102FF974403EFA7B0151B3
:1029A000000CFFAB21AA22A9230529E529AC287038
:1029B0000205281429F9EA3CFAEF51003E90400242
:1029C000FBE0FEA3E0FF7C0051005274112FF9746C
:1029D000403EFA7B0151000CFFAB21AA22A923053E
:1029E00029E529AC28700205281429F9EA3CFAEFF8
:1029F00051003E904002FBE0FEA3E0FF7C0051004E
:102A00005274122FF974403EFA7B0151000CFFAB57
:102A100021AA22A9230529E529AC2870020528143A
:102A200029F9EA3CFAEF51003E904002FBE0FEA398
:102A3000E0FF7C007D1551005274132FF974403E65
:102A4000FA7B0151011EE5F0FFAB21AA22A9230563
:102A500029E529AC28700205281429F9EA3CFAEF87
:102A600051003E904002FBE0FEA3E0FF7C005100DD
:102A70005274132FF974403EFA7B0151011EFFABD3
:102A800021AA22A9230529E529AC287002052814CA
:102A900029F9EA3CFAEF51003E904002FBE0FEA328
:102AA000E0FF7C0051005274092FF974403EFA7B1C
:102AB000015102EB515ACEE47BE87A03F9F8510256
:102AC00015904002FD510323904002FDE0FCA3E07D
:102AD000FDEC4D600D74FFFFFEFDFC904002FD51CA
:102AE0000323904002FDE0FCA3E0FDA3E0FEA3E091
:102AF000FF78085102C5AB21AA22A9230529E5299F
:102B0000AC28700205281429F9EA3CFAEF51003E7E
:102B1000904002FDA3A3A3E0FFAB21AA22A92305B5
:102B200029E529AC28700205281429F9EA3CFAEFB6
:102B300051003E904002FCE004F07007904002FB20
:102B4000E004F0904002F8E004F04128BCE529459B
:102B5000287003752C7022E52B6405452A6003411B
:102B60002E41AB25AA26A927E92401F9E43AFA5116
:102B7000000CFDAB25AA26A92751000CFFED9040C3
:102B80000357CFF0A3EFF090400357E0FEA3E0D34C
:102B900094FBEE941F4003412E41AB25AA26A927A2
:102BA000E92403F9E43AFA51000CFFE4FCFDFE7855
:102BB000085102D8C004C005C006C007AB25AA262C
:102BC000A927E92402F9E43AFA51000CFFE4FCFDDC
:102BD000FE78105102D8D003D002D001D000EF4BC4
:102BE000FFEE4AFEED49FDEC48FCA804C005C00616
:102BF000C007AB25AA26A927E92404F9E43AFA512B
:102C0000000CFFD003D002D001EF4BFFEAFEE9FD3C
:102C1000E8FC9040035951032390400359A3E0FD81
:102C2000A3E0FEA3E0FFED540FFDE4FC9040035948
:102C3000510323AB25AA26A927E92402F9E43AFA8D
:102C400051000C54F09040035DF090400357E0FEBB
:102C5000A3E02405F529E43EF528AB21AA22A92307
:102C6000A801AC02AD03AB25AA26A9277E007F05EB
:102C70005103F49040035DE024F07003412D4324A0
:102C8000F07003412DCF24E0600724406003412E03
:102C90004190400357E0FEA3E0FF90400359E0F865
:102CA000A3E0F9A3E0FAA3E0FBEF2BFFEE3AFEE48A
:102CB00039FDE438FCE4FBFA7910F8C35102B45052
:102CC00003412E419040035DE0601B90400359E0BA
:102CD000FCA3E0FDA3E0FEA3E0FFED4440FDEC908B
:102CE00040035951032390400357E0FEA3E0FFC087
:102CF00006C00790400359E0FCA3E0FDA3E0FEA35B
:102D0000E02400FFE43EFEED3401FDE43CA907AA07
:102D100006AB05C003C002C001AB21AA22A923E96A
:102D20002405F9E43AA801FCAD03D001D002D00398
:102D3000D007D0065103F4E52945286003412E4908
:102D4000412E3D90400357E0FEA3E0FF9040035921
:102D5000E0F8A3E0F9A3E0FAA3E0FBEF2BFFEE3AE3
:102D6000FEE439FDE438FCE4FBFA7910F8C35102C3
:102D7000B45003412E4190400357E0FEA3E0FFC052
:102D800006C00790400359E0FCA3E0FDA3E0FEA3CA
:102D9000E02400FFE43EFEED3481FDE43CA907AAF7
:102DA00006AB05C003C002C001AB21AA22A923E9DA
:102DB0002405F9E43AA801FCAD03D001D002D00308
:102DC000D007D0065103F4E5294528707C806E9029
:102DD000400357E0FEA3E0FF90400359E0F8A3E072
:102DE000F9A3E0FAA3E0FBEF2BFFEE3AFEE439FD96
:102DF000E438FCE4FB7A01F9F8C35102B4500280D4
:102E00004090400357E0FEA3E0FF90400359A3A386
:102E1000A3E0F97A007B00C003C002C001AB21AA85
:102E200022A923E92405F9E43AA801FCAD03D00165
:102E3000D002D0035103F4E5294528700C752C709D
:102E400022E4F528F529752C3022E55D700B9040C1
:102E5000034FE020E303413120E513603FE4F50830
:102E6000E47F01FEFDFCA908A8015102D8A905AA2A
:102E700006AB07AF13E4FCFDFEEB5FFFEF600AE576
:102E80000804FF515241E4F511E50804FF515E29A1
:102E90000508E508C3940840C7E4F513E51C600382
:102EA000E4F511E51E6003E4F511E5116402600329
:102EB000E4F50BE51114602C1460781470034130B4
:102EC0001714700341310624046003413120E4F5F6
:102ED0001C750909F50AF51AF518E51E600341315C
:102EE0002041311DAF09EF75F040A485F00CF50DC0
:102EF000AF09EF75F040A485F00EF50FE509B409B0
:102F0000034130E3E47F01FEFDFCC3E5099401F9D0
:102F1000F85102D8A905AA06AB07AF12E4FCFDFEE2
:102F2000EB5FFFEF6033AF095156D7AF09515E2910
:102F3000413102E4F51AF518E509C39409501DE47E
:102F40007F01FEFDFCC3E5099401F9F85102D8ABFD
:102F500007AF12EB5FFFEF7003413064AF097E00F3
:102F6000740B2FF9EE3403FA7B4151000CFD7C0009
:102F7000AF09EF75F040A42DFFEC35F0FEC3E50D71
:102F80009FE50C9E4003413013AE0CAF0D7C007DDD
:102F90001551005274082FF974403EFA7B0151001C
:102FA0000C6023AE0CAF0D51005274082FF9744021
:102FB0003EFA51000CC39401FFE50AA807088002FD
:102FC000C333D8FC600A050DE50D7090050C808CAC
:102FD000E47F01FEFDFCC3E5099401F9F85102D834
:102FE000A905AA06AB07AF1BE4FCFDEB5FFFEF6092
:102FF00003751801AF0DAE0C515C33050DE50D7076
:1030000002050C050BE518700AE50BC39515500376
:1030100041312075110322E509C39409501CE47F56
:1030200001FEFDFCC3E5099401F9F85102D8AB0794
:10303000AF12EB5FFFEF7002802AAF097E00740BC6
:103040002FF9EE3403FA7B4151000CFD7C00AF09EF
:10305000EF75F040A42DFFEC35F0FEC3E50F9FE5C2
:103060000E9E400475110422AE0EAF0F7C007D153C
:1030700051005274082FF974403EFA7B0151000C44
:103080006023AE0EAF0F51005274082FF974403E0A
:10309000FA51000CC39401FFE50AA807088002C397
:1030A00033D8FC600A050FE50F708F050E808BAEDC
:1030B0000EAF0F7C007D1551005274092FF974403A
:1030C0003EFA7B015102EB515ACEE47BEE7A02F9D3
:1030D000F8D35102B45049E51A600AE50D150D7098
:1030E00002150C801DAF0FAE0E51184F050FE50FE6
:1030F0007002050EE4F518C3E50F950DE50E950C6D
:10310000401E75110222E5090475F00A8485F00954
:10311000E50970020509E509B40902050A751101FE
:1031200022E0FF5131369040008BE0FF5131369064
:1031300040008BE0FF0DEF640960034131F3ED6067
:1031400059C2AFC2B5D2B5D2AFE4904002A8F000E8
:10315000000000000000000000000000000000006F
:10316000000000000000000000000000000000005F
:10317000000000000000000000000000000000004F
:10318000000000000000000000000000904002A8C5
:10319000E004F0E0B403B841336AC2AFC2B5E490D2
:1031A0004002A9F000000000000000000000000044
:1031B000000000000000000000000000000000000F
:1031C00000000000000000000000000000000000FF
:1031D00000000000000000000000000000000000EF
:1031E00000904002A9E004F0E0B403B8D2B5D2AF39
:1031F00041336AC3EF9401FF7401A807088002C33A
:1032000033D8FC904002ABF0E0F4A3F0ED70034142
:103210003304C2AFE09007F010F0A37401F0000097
:103220000000000000000000000000000000E4F0CA
:10323000000000000000000000000000000000008E
:10324000000000000000000000000000000000007E
:10325000000000000000000000000000000000006E
:10326000000000000000000000000000000000005E
:10327000000000000000000000000000000000004E
:10328000000000000000000000000000000000003E
:10329000000000000000000000000000000000002E
:1032A000000000000000000000000000000000001E
:1032B000000000000000000000000000000000000E
:1032C00000000000000000000000000000000000FE
:1032D00000000000000000000000000000000000EE
:1032E00000000000000000000000000000000000DE
:1032F00000000000000000000000000000000000CE
:10330000D2AF8066C2AF904002ACE09007F010F000
:10331000A37401F0E4904002AAF000000000000055
:10332000000000000000000000000000000000009D
:10333000000000000000000000000000000000008D
:10334000000000000000000000000000000000007D
:1033500000000000000000904002AAE004F0E0B489
:1033600003B8E49007F011F0D2AF000000000000B5
:10337000000000000000000000000000000000004D
:10338000000000000000000000000000000000003D
:10339000000000000000000000000000000000002D
:1033A000000000000000000000000000000000001D
:1033B00000000000000022F0E0FF90400052E4F026
:1033C000A3F0A3F0FBFAF99040004FEBF0A3EAF072
:1033D000A3E9F0EF6409600341347BC2B590400279
:1033E0009CF0000000000000000000000000000051
:1033F00000000000000000000000000000000000CD
:1034000000000000000000000000000000000000BC
:10341000000000000000000000000000000000901C
:1034200040029CE004F0E0B419B8D2B5E490400248
:103430009DF00000000000000000000000000000FF
:10344000000000000000000000000000000000007C
:10345000000000000000000000000000000000006C
:1034600000000000000000000000000000000090CC
:1034700040029DE004F0E0B419B822C3EF9401FFCC
:103480007401A807088002C333D8FC904002A0F062
:10349000E0F4A3F0C2AFE09007F010F0A37401F0E5
:1034A000000000000000000000000000000000001C
:1034B000000000000000000000000000000000000C
:1034C00000000000000000000000000000000000FC
:1034D00000000000000000009007F010E0904002A3
:1034E000A2F0D2AF9040004FE0FBA3E0FAA3E0F9D6
:1034F000EA494B600A904002A2E0FFEF51003EE42F
:103500009040029EF000000000000000000000005B
:1035100000000000000000000000000000000000AB
:10352000000000000000000000000000000000009B
:10353000000000000000000000000000000000008B
:1035400000009040029EE004F0E0B419B8C2AFE47D
:103550009007F011F00000000000000000000000E3
:10356000000000000000000000000000000000005B
:10357000000000000000000000000000000000004B
:10358000000000000000000000000000009007F0B4
:1035900010E0904002A2F0D2AF90400052E0FBA3B6
:1035A000E0FAA3E0F9EA494B600A904002A2E0FF8A
:1035B000EF51003EE49040029FF000000000000048
:1035C00000000000000000000000000000000000FB
:1035D00000000000000000000000000000000000EB
:1035E00000000000000000000000000000000000DB
:1035F000000000000000009040029FE004F0E0B4F2
:1036000019B8229040008FEFF0ED6008E49040027E
:10361000BCF0A3F0904002BCE0B401037F01229013
:103620004002C17401F0E4A3F0904002C4F0904065
:1036300002C304F0E4F55C9040008FE0FF5133BA20
:103640009040008FE0FF7DF0516EF7904002C4E0A3
:10365000C394084003413780514355904002BFEF67
:10366000F0514355904002C0EFF0904002BFE0B4EB
:10367000010EA3E0B40109904002BC7401F0FF22E6
:10368000904002C0E0FF904002BFE06F6008E09011
:103690004002BEF08058904002BDE0FF904002C161
:1036A000E0C39F501E904002C4E07E0024C5F9EEA6
:1036B0003402FA7B4151000CFF904002C3E05F608E
:1036C00019800E904002BDE0FF904002C1E0B507B6
:1036D00009904002BE7401F08006E4904002BEF002
:1036E000904002BEE07007904002C1E0A3F090401D
:1036F00002BEE0904002C46018E07E0024C5F9EEEE
:103700003402FA7B4151000CFF904002C3E04F802D
:1037100017E07E0024C5F9EE3402FA7B4151000C1B
:10372000FF904002C3E0F45F51003E9040008FE004
:10373000FF904002BEE0FD513136904002C1E004EE
:10374000F0904002C3E025E0F0E0600341364BA377
:10375000E07E0024C5F9EE3402FA7B4151000C658D
:103760005C249CF9EE3401FA7B4151000CF55C902D
:103770004002C4E004F0904002C37401F041364BB3
:10378000E55C7007904002C5E070037F0122904025
:10379000008FE07E00240BF9EE3403FA7B415100E8
:1037A0000CFD7C009040008FE075F040A42DFEECF5
:1037B00035F0904002CFF0A3CEF0904002CD7409D6
:1037C000F07B417A0279C5C003C001904002CFE08E
:1037D000FEA3E0FF7D1551005274002FF974403EA6
:1037E000A801FC7D01D001D0037E007F095103F4C4
:1037F0009040008FE0FF7E00240BF9EE3403FA7B4B
:10380000417401510022904002C2E0904002BDF09C
:10381000E06010740B2FF9EE3403FA51000CC394DE
:10382000404007904002BC7401F07F0022904000AD
:1038300082EDF090400081EFF0AF1F30E10CEF75AA
:10384000F01CA424C0F97400800AEF75F01CA424B5
:10385000BDF9740035F0FA7B4151032F904000927E
:10386000EBF0A3EAF0A3E9F090400081E0AF1F3055
:10387000E20CEF75F01CA424B2F97400800AEF7515
:10388000F01CA424AFF9740035F0FA7B4151032FEA
:1038900090400095EBF0A3EAF0A3E9F0E51F540394
:1038A000240AFDE4FBFF515425E51F5403240AFDBF
:1038B0007F0151542590400081E05404FFE51F042E
:1038C000FD7B8051542590400095E0FBA3E0FAA3D6
:1038D000E02406F9E43AFA74F651003E9040008183
:1038E000E0FF90400092E0FBA3E0FAA3E02402F99D
:1038F000E43AFAEF51003EE51FC39404AF205002B2
:10390000AF2490400092E0FBA3E0FAA3E02403F987
:10391000E43AFAEF51003EE51F5403FF9040009255
:10392000E0FBA3E0FAA3E02404F9E43AFAEF510043
:103930003E90400092E0FBA3E0FAA3E02405F9E406
:103940003AFAE451003E90400082E070034139FFB2
:10395000C454F0440CFF90400092E0FBA3E0FAA3B3
:10396000E02406F9E43AFAEF51003E90400092E07C
:10397000FBA3E0FAA3E02407F9E43AFAC003C0028B
:10398000C001AF1FEF75F01CA424C6F9740035F018
:10399000FA7B4151032F9040004AEBF0A3EAF0A3D9
:1039A000E9F090400082E09040004DF0D001D0025C
:1039B000D0035168DAAF1FEF75F01CA424C9F97465
:1039C0000035F0FA7B4151011EFF90400082E0FD7E
:1039D000C3EF9DFFE5F094008FF051016E90400021
:1039E00082E0FDAF1FEF75F01CA424C6F97400350A
:1039F000F0FA09E970010AE48DF051014280169055
:103A0000400092E0FBA3E0FAA3E02406F9E43AFACE
:103A1000740C51003E90400081E05402FFE51F54B9
:103A200003240AFD7BC541542590400061EBF0A3BF
:103A3000EAF0A3E9F051000C90400371F0904000CF
:103A400061E0FBA3E0FAA3E02401F9E43AFA5100B3
:103A50000C90400372F090400061E0FBA3E0FAA3F9
:103A6000E02402F9E43AFA51000CFF541F9040039D
:103A700073F0EF548090400376F090400061E0FBDB
:103A8000A3E0FAA3E02403F9E43AFA51000C9040D1
:103A90000374F090400376E0600E90400372E07F84
:103AA0000030E1027F0180027F0090400377EFF059
:103AB000E0600553A17F80035390FD90400371E0C7
:103AC0007B087AF0790451003E90400372E009517E
:103AD000003E90400374E0FF14F0EF60030080F2BA
:103AE0007B087AF0790551000C90400375F0904006
:103AF0000373E0FF5166EE90400378EEF0A3EFF021
:103B000090400377E0600543A180800343900290DA
:103B1000400061E0FBA3E0FAA3E0F951000CFF9044
:103B2000400064E0FBA3E0FAA3E0F9EF51003E900F
:103B3000400061E0FBA3E0FAA3E02401F9E43AFAD3
:103B400051000CFF90400064E0FBA3E0FAA3E024E6
:103B500001F9E43AFAEF51003E90400061E0FBA326
:103B6000E0FAA3E02402F9E43AFA51000CFF904095
:103B70000064E0FBA3E0FAA3E02402F9E43AFAEFE0
:103B800051003E90400061E0FBA3E0FAA3E0240373
:103B9000F9E43AFA51000CFF90400064E0FBA3E026
:103BA000FAA3E02403F9E43AFAEF51003E9040030F
:103BB00078E0FEA3E0EEFF90400064E0FBA3E0FAB3
:103BC000A3E02404F9E43AFAEF51003E9040037870
:103BD000E0A3E0FF90400064E0FBA3E0FAA3E02450
:103BE00005F9E43AFAEF51003E90400377E0600EA9
:103BF00090400375E07F0030E1027F01800C90402F
:103C00000375E07F0030E0027F0190400064E0FB3C
:103C1000A3E0FAA3E02406F9E43AFAEF51003E22C9
:103C20009040008DEFF0E075F040A4FF904002B9A5
:103C3000E5F0F0A3EFF09040008DE07E00240BF95A
:103C4000EE3403FA7B41E451003E904002BBF09019
:103C50004002B9E0FEA3E0FF7C007D1551005274E4
:103C6000002FF974403EFA7B01E451003E9040027F
:103C7000B9E0FEA3E0FF51005274012FF974403EF9
:103C8000FAE451003E904002B9E0FEA3E0FF51008B
:103C90005274022FF974403EFAE451003E90400203
:103CA000B9E0FEA3E0FF51005274032FF974403EC7
:103CB000FAE451003E904002B9E0FEA3E0FF51005B
:103CC0005274042FF974403EFAE451003E904002D1
:103CD000B9E0FEA3E0FF51005274052FF974403E95
:103CE000FAE451003E904002B9E0FEA3E0FF51002B
:103CF0005274062FF974403EFAE451003E9040029F
:103D0000B9E0FEA3E0FF51005274072FF974403E62
:103D1000FAE451003E904002B9E0FEA3E0FF5100FA
:103D20005274082FF974403EFAE451003EFFFEFD44
:103D3000C005C006C007904002B9E0FEA3E0FF7DC9
:103D40001551005274092FF974403EFAD007D0067D
:103D5000D005510308904002B9E0FEA3E0FF7C00CB
:103D60007D15510052740D2FF974403EFAE4510054
:103D70003E904002B9E0FEA3E0FF510052740E2FC6
:103D8000F974403EFAE451003E904002B9E0FEA3CF
:103D9000E0FF51005274102FF974403EFAE45100D4
:103DA0003E904002B9E0FEA3E0FF51005274112F93
:103DB000F974403EFAE451003E904002B9E0FEA39F
:103DC000E0FF51005274122FF974403EFA74805192
:103DD000003E904002B9E0FEA3E0FF510052741390
:103DE0002FF974403EFA748075F00051016E9040D6
:103DF00002BAE004F07007904002B9E004F090408D
:103E000002BBE004F0E064406003413C4F22755D7A
:103E100001E55D9040034E70057406F08003740761
:103E2000F074B32406F9E43408FA7B83C003C002BB
:103E3000C001784C7C037D41D001D002D0037E00CC
:103E40007F025103F49040034DE0C394309040034F
:103E500047F0784C7C037D417B837A0879B37E0000
:103E60007F025103F49040034CE0C3943075F00A94
:103E7000A4FFA3E0C394302F90400348F074B32410
:103E800003F9E43408FA7B83C003C002C001784C14
:103E90007C037D41D001D002D0037E007F0251031C
:103EA000F49040034CE0C3943075F00AA4FFA3E003
:103EB000C394302F90400349F0784C7C037D417BC4
:103EC000837A0879BC7E007F025103F49040034C52
:103ED000E0C3943075F00AA4FFA3E0C394302F90A0
:103EE00040034AF074BC2403F9E43408FA7B83C02D
:103EF00003C002C001784C7C037D41D001D002D0C8
:103F0000037E007F025103F49040034CE0C39430E1
:103F100075F00AA4FFA3E0C394302F9040034BF048
:103F20007B017A00790151000C9040034FF0E4517D
:103F3000003E9040035274FFF090400347E0C454A9
:103F4000F0FFA3E04F90400353F090400349E0900E
:103F5000400354F09040034AE090400355F09040F5
:103F6000034BE090400356F030DE1275C7AA75C7C8
:103F700055C2DEE49040034FF01951003EE4FFFECD
:103F80007D02FC5122007F007E807D037C00512257
:103F900000E55D70439040034FE05407701D7B08BF
:103FA0007AF0791451000C20E0489040034FE02053
:103FB000E640E07B017A00790180157B017A007987
:103FC0000051000C702C9040034FE020E624E009E3
:103FD00051003E516AB9801A5173719040034FE00D
:103FE00054077006E04410F080089040034FE054FE
:103FF000EFF041705090400089EDF0EF60034140D8
:10400000DDE014B40F0040034141AC9002401A754A
:10401000F003A4C58325F0C5837341404741405157
:1040200041405B41406541406F414079414083419F
:10403000408D4140974140A14140AB4140B5414096
:10404000BF4140C94140D390400091E5ABF04141B0
:10405000AC90400091E5ACF04141AC90400091E55E
:10406000ADF04141AC90400091E5AEF04141AC90E3
:10407000400091E5AFF04141AC90400091E5B3F0D4
:104080004141AC90400091E5B4F04141AC9040001A
:1040900091E5B5F04141AC90400091E5B6F0414169
:1040A000AC90400091E5B7F04141AC90400091E503
:1040B000BBF04141AC90400091E5BCF04141AC9077
:1040C000400091E5BDF04141AC90400091E5BEF06B
:1040D0004141AC90400091E5BFF04141AC904000BF
:1040E00089E014B40F0040034141AC900240FA75DE
:1040F000F003A4C58325F0C58373414127414130B6
:1041000041413941414241414B41415441415D416D
:10411000416641416F41417841418141418A41417C
:104120009341419C4141A590400091E5EBF0807C9A
:1041300090400091E5ECF0807390400091E5EDF047
:10414000806A90400091E5EEF0806190400091E53A
:10415000EFF0805890400091E5F3F0804F904000E0
:1041600091E5F4F0804690400091E5F5F0803D90B7
:10417000400091E5F6F0803490400091E5F7F08042
:104180002B90400091E5FBF0802290400091E5FCEF
:10419000F0801990400091E5FDF080109040009172
:1041A000E5FEF0800790400091E5FFF0904000911F
:1041B000E0FF22E52B6403452A600341424BAB2517
:1041C000AA26A927E92401F9E43AFA51000CFFE4F0
:1041D000FCFDFE78085102D8C004C005C006C00727
:1041E000AB25AA26A92751000CFFE4FCFDFE7810A0
:1041F0005102D8D003D002D001D000EF4BFFEE4ADD
:10420000FEED49FDEC48FCA804C005C006C007ABA4
:1042100025AA26A927E92402F9E43AFA51000CFF5D
:10422000D003D002D001EF4BFFEAFEE9FDE8FC909D
:104230004003A3510323904003A3E0FCA3E0FDA3AC
:10424000E0FEA3E0FF512200BF0109E4F528F529B3
:10425000752C302275280075290AAF4AAE49AD4841
:10426000AC4778105102C5AB21AA22A923EF510017
:104270003EAF4AAE49AD48AC4778085102C5AB21C4
:10428000AA22A923E92401F9E43AFAEF51003EAF4A
:104290004AAE49AD48AC47AB21AA22A923E9240282
:1042A000F9E43AFAEF51003EAF4EAE4DAD4CAC4B97
:1042B00078105102C5AB21AA22A923E92403F9E40D
:1042C0003AFAEF51003EAF4EAE4DAD4CAC4B7808D4
:1042D0005102C5AB21AA22A923E92404F9E43AFA40
:1042E000EF51003EAF4EAE4DAD4CAC4BAB21AA22D0
:1042F000A923E92405F9E43AFAEF51003EE54FFF1E
:10430000AB21AA22A923E92406F9E43AFAEF5100E5
:104310003EAF50AB21AA22A923E92407F9E43AFAD7
:10432000EF51003EE551FFAB21AA22A923E9240861
:10433000F9E43AFAEF51003EAF52AB21AA22A92389
:10434000E92409F9E43AFAEF51003EE529452870DD
:1043500003752C70229040008FE0FFEF640960032A
:1043600041440CC2AFC2B5000000000000000000D4
:1043700000000000000000D2B500000000000000B6
:10438000000000000000000000000000000000002D
:10439000000000000000000000000000000000001D
:1043A000000000000000000000000000000000000D
:1043B00000A2B533904002A7F0D2AFE4904002A330
:1043C000F0000000000000000000000000000000FD
:1043D00000000000000000000000000000000000DD
:1043E00000000000000000000000000000000000CD
:1043F00000000000000000000000000000009040ED
:1044000002A3E004F0E0B403B84144E4C3EF940134
:10441000FF7401A807088002C333D8FC904002A5AE
:10442000F0E0F4A3F0C2AFE09007F010F0A3740145
:10443000F00000000000000000000000000000008C
:1044400000E4F00000000000000000000000000098
:10445000000000000000000000000000000000005C
:10446000000000000000000000000000000000004C
:1044700000000000000000000000009007F010E0C5
:10448000904002A7F0D2AFE0FF904002A5E0FEEF1F
:104490005E904002A7F0E4904002A4F0000000000B
:1044A000000000000000000000000000000000000C
:1044B00000000000000000000000000000000000FC
:1044C00000000000000000000000000000000000EC
:1044D000000000000000000000904002A4E004F092
:1044E000E0B403B8904002A7E07F0060027F0122A1
:1044F0005144FC5144FC5144FC5144FC0000000078
:1045000000000000000000000000000000000000AB
:10451000000000000000000000000000000000009B
:10452000000000000000000000000000000000008B
:10453000000000000000000000000000000000007B
:10454000000000000000000000000000000000006B
:10455000000000000000000000000000000000005B
:10456000000000000000000000000000000000004B
:10457000000000000000000000000000000000003B
:10458000000000000000000000000000000000002B
:10459000000000000000000000000000000000001B
:1045A000000000000000000000000000000000000B
:1045B00000000000000000000000000000000000FB
:1045C00000000000000000000000000000000000EB
:1045D00000000000000000000000000000000000DB
:1045E00000000000000000000000000000000000CB
:1045F00000000000000000000000000000000000BB
:1046000000000000000000000000000000000000AA
:10461000000000000000000000000000000000009A
:10462000000000000000000000000000000000008A
:10463000000000000000000000000000000000007A
:10464000000000000000000000000000000000006A
:10465000000000000000000000000000000000005A
:10466000000000000000000000000000000000004A
:10467000000000000000000000000000000000003A
:1046800000000000000000000022E55D64017003EE
:1046900041481B9040031DE01460741470034147AF
:1046A000578000E490400315F090400315E07E0031
:1046B000241EF9EE3403FA7B4151000CB4014490FE
:1046C000400315E0FFE4FCFDFB7A40F9F851018A54
:1046D000E42FFFE43EFEED3402FDE43CFCE42FFF5A
:1046E000E43EFEED3401FDE43CA907AA06AB0590CB
:1046F000400316EDF0A3EAF0A3E9F09040031D7427
:1047000001F02290400315E004F0E0B4089B22C2BF
:10471000AFD2B39002055574AAF0900202AA745564
:10472000F0900205557480F074AAF0900202AA7409
:1047300055F090400316E0FBA3E0FAA3E0F97430D3
:1047400051003ED2AF516F1C90400319510323908A
:1047500040031D7402F02290400316E0FBA3E0FA30
:10476000A3E0F951000C30E719C2B390400315E003
:104770007E00241EF9EE3403FA7B41E451003E41F1
:10478000480F90400316E0FBA3E0FAA3E0F95100C4
:104790000C30E54490400316E0FBA3E0FAA3E0F9F7
:1047A00051000C30E718C2B390400315E07E00249E
:1047B0001EF9EE3403FA7B41E451003E8018C2B387
:1047C00090400315E07E00241EF9EE3403FA7B418D
:1047D000740251003EE4803790400319E0FCA3E0EE
:1047E000FDA3E0FEA3E0FF515ACEE47B987A3AF9AC
:1047F000F8C35102B45024C2B390400315E07E00C8
:10480000241EF9EE3403FA7B41740251003EE49019
:1048100040031DF09002088874F0F022C3E52B9449
:1048200001FFE52A9400FE7C007D09510064904060
:1048300002F1EFF0C3E52B9401E52A94004037E53F
:104840002B9401FFE52A9400FE7C007D0951006451
:10485000ED4C7022E0D394404002801AAB25AA268A
:10486000A92751000C904002F0F0E0C394014006EB
:10487000E0D394094009E4F528F529752C302290FD
:104880004002F0E0C39401FF7401A807088002C34E
:1048900033D8FC4213751C01E47F01FEFDFC9040FF
:1048A00002F0E0C39401F9F85102D85102A7EF5287
:1048B0001E751D01A3E0FF904002F0E07C00240B78
:1048C000F9EC3403FA7B41EF51003E904002F0E0F6
:1048D00075F040A4FF904002F2E5F0F0A3EFF0E4A1
:1048E000904002EFF0904002F1E0FF904002EFE0D4
:1048F000C39F400341498FAB25AA26A927E924017C
:10490000F9E43AFAE075F009A429F9EA35F0FAC0B9
:1049100003C001904002F2E0FEA3E0FF7C007D15A1
:1049200051005274002FF974403EA801FC7D01D063
:1049300001D0037E007F095103F4904002F2E0FEB3
:10494000A3E0FF7C007D1551005274082FF97440DC
:104950003EFA7B0151000CD394094019904002F2B9
:10496000E0FEA3E0FF51005274082FF974403EFAB4
:10497000740951003E904002F3E004F0700790404B
:1049800002F2E004F0904002EFE004F04148E5E478
:10499000F528F529752C702290400055EBF0A3EA1C
:1049A000F0A3E9F090400055E0FBA3E0FAA3E0F9A2
:1049B00051000CFD540FFF74017E00A8070880050C
:1049C000C333CE33CED8F9F5588E57EDC45407FF14
:1049D0007401A807088002C333D8FCF5595172F757
:1049E000EF60037F0122516DD290400055E0FBA3A0
:1049F000E0FAA3E02401516E9790400055E0FBA33C
:104A0000E0FAA3E02402516E9790400055E0FBA32A
:104A1000E0FAA3E02403516E9790400055E0FBA319
:104A2000E0FAA3E02404F9E43AFA51000CFF516ED5
:104A300038516E0D90400058E0FBA3E0FAA3E0F976
:104A4000516E0990400058E0FBA3E0FAA3E0240176
:104A5000516E0590400058E0FBA3E0FAA3E0240269
:104A6000516E0590400058E0FBA3E0FAA3E0240358
:104A7000F9E43AFAEF51003EE49007F003F0904079
:104A80000055E0FBA3E0FAA3E02401F9E43AFA516F
:104A9000000C547FFF90400058E0FBA3E0FAA3E035
:104AA000F951000C6F601490400055E0FBA3E0FA50
:104AB000A3E0F951000C448051003E90400055E0C5
:104AC000FBA3E0FAA3E02402F9E43AFA51000CFF58
:104AD00090400058E0FBA3E0FAA3E02401F9E43A97
:104AE000FA51000C6F601490400055E0FBA3E0FA0F
:104AF000A3E0F951000C448051003E7F0022E52BD9
:104B00006401452A7073AB25AA26A92751000C9091
:104B100040038DF0E0FF7B417A0379905161B2BF91
:104B20000103414C4F7528007529039040038DE027
:104B3000AB21AA22A92351003E90400390E0FEA39E
:104B4000E0EEFFAB21AA22A923E92401F9E43AFA15
:104B5000EF51003E90400390E0A3E0FFAB21AA227A
:104B6000A923E92402F9E43AFAEF51003EE5294588
:104B7000286003414C57414C4BE52B6403452A60A8
:104B800003414C4FAB25AA26A92751000C904003A6
:104B90008DF0AB25AA26A927E92401F9E43AFA51B8
:104BA000000CFEAB25AA26A927E92402F9E43AFA6B
:104BB00051000C7C002400FFEC3E9040038EF0A3DB
:104BC000EFF07528007529019040038DE0AB21AA14
:104BD00022A92351003E9040038E74FFF5F051014D
:104BE0000845F060609040038DE0FF7B417A0379D7
:104BF000905161B2BF0102805690400390E0FEA345
:104C0000E0EEFFAB21AA22A923AC28AD29E92DF9BA
:104C1000EA3CFAEF51003E90400390E0A3E0FFAB86
:104C200021AA22A923E5292401FDE43528FCE92D48
:104C3000F9EA3CFAEF51003E74022529F529E435E2
:104C400028F5288091E5294528700C752C7022E400
:104C5000F528F529752C3022AE2AAF2B7C007D0576
:104C600051006490400384EFF0AE2AAF2B7C007DAE
:104C700005510064ED4C700CE0C394014006E0D394
:104C8000940A40028076E4F528F529AB25AA26A9E6
:104C9000279040005BEBF0A3EAF0A3E9F09040031B
:104CA00084E075F005A4AB21AA22A92329F9EA35ED
:104CB000F0FA9040005EEBF0A3EAF0A3E9F0E49094
:104CC000400383F090400384E0FF90400383E0C3FF
:104CD0009F50639040005EE0F9A3E0FAA3E09040AB
:104CE0000058C9F0A3EAF0A3E9F09040005BE0FBB4
:104CF000A3E0FAA3E0F9514998BF0109E4F528F5CA
:104D000029752C30229040005BE0FBA3E0FAA3E081
:104D10002405F9E43AFA9040005BEBF0A3EAF0A333
:104D2000E9F09040005FE475F0045100F290400318
:104D300083E004F0808EAB21AA22A923AE0290402A
:104D4000005EA3E0FAA3E0AC02C399F529EC9EF55E
:104D500028AB25AA26A9279040005BEBF0A3EAF038
:104D6000A3E9F0AB21AA22A923A3EBF0A3EAF0A3C5
:104D7000E9F090400384E075F005A4FFAEF09040A8
:104D8000005EE0FBA3E0FAA3E0F8AC02AD039040C4
:104D9000005BE0FBA3E0FAA3E0F95103F4E5294549
:104DA000287003752C702290400070EBF0A3EAF09D
:104DB000A3E9F0A3EDF0E075F002A4FF9040039AA0
:104DC000E0FCA3E02FFFE5F03CFED3EF9440EE942F
:104DD0001F4003414EE7E490400396F0904000737B
:104DE000E0FF90400396E0C39F4003414EE79040B0
:104DF0000070E0FBA3E0FAA3E0F990400396E0FF27
:104E00007E00E92FF9EE3AFAC003C002C00178979C
:104E10007C037D41D001D002D0037F015103F49087
:104E2000400397E0C4540FA3F090400397E0540F61
:104E300090400399F090400398E0C3940A5006E034
:104E40002430F0800890400398E02437F09040032D
:104E500099E0C3940A5006E02430F08008904003A3
:104E600099E02437F090400398E0FFC0079040039A
:104E70009AE0FEA3E0FFE42FFFEE3420FEE433FDD2
:104E8000E433FCE42FFFE43EFEED3401FDE43CA9F5
:104E900007AA06AB05D0E051003E90400399E0FF21
:104EA000C007A3E0FEA3E0FFE42FFFEE3420FEE402
:104EB00033FDE433FCEF2401FFE43EFEED3401FD5D
:104EC000E43CA907AA06AB05D0E051003E904003A0
:104ED0009BE02402F09040039AE03400F0904003FD
:104EE00096E004F0414DDC229040008AEFF0541F20
:104EF000B41A00505690024EFDF8282873414F54C2
:104F0000414F5D414F66414F6F414F78414F814165
:104F10004F8A414F93414F4B414F4B414F4B414F74
:104F20004B414F9C414F4B414FA5414FAE414FB775
:104F3000414FC0414FC9414FD2414FDB414FE44146
:104F40004FED414FF6414FFF415008E4F528F52958
:104F5000752C30229040008AE0FF4173CB904000D6
:104F60008AE0FF4173999040008AE0FF4173DB9033
:104F700040008AE0FF4173E69040008AE0FF417301
:104F8000F19040008AE0FF4173129040008AE0FFF8
:104F90004173FC9040008AE0FF4173AA9040008A70
:104FA000E0FF41722C9040008AE0FF4170909040F9
:104FB000008AE0FF4170B09040008AE0FF4170D06D
:104FC0009040008AE0FF4171CF9040008AE0FF41AD
:104FD00071109040008AE0FF4170F09040008AE03C
:104FE000FF4171909040008AE0FF41713090400095
:104FF0008AE0FF4171509040008AE0FF417170905B
:1050000040008AE0FF4171EE9040008AE0FF51725B
:105010000D229040008BEFF0FBE47F01FEFDFCC30E
:10502000EB9401F9F85102D8A804A905AA06AB0728
:10503000AF1BE4FCFDFEEB5FFFEF7003415120511D
:1050400031219040008BE0FF1D5131369040008BA4
:105050005131219040008BE0C39401FF7401A807F7
:10506000088002C333D8FC904002AEF0E0F4A3F015
:10507000C2AFE09007F010F0A37401F0E49040029A
:10508000ADF0000000000000000000000000000083
:105090000000000000000000000000000000000010
:1050A0000000000000000000000000000000000000
:1050B0000000000000000000000000000000009060
:1050C0004002ADE004F0E0B403B89007F01074FFC4
:1050D000F0D2AF000000000000000000000000005F
:1050E00000000000000000000000000000000000C0
:1050F00000000000000000000000000000000000B0
:10510000000000000000000000000000000000009F
:10511000000000000000000000000000000000226D
:105120009040008BE0FF7D44516EF722E52B452A2D
:105130006009E4F528F529752C3022904002EA74C4
:1051400001F0904002EAE0FF5156D7904002EAE0B9
:1051500004F0E0D3940940EA752800752908AB21D2
:10516000AA22A923E51251003EAB21AA22A923E9D4
:105170002401F9E43AFAE51551003E90400303E0BA
:10518000C454F0FF90400302E0C4333354C04FFFD7
:1051900090400304E025E025E04FFFA3E04FFFAB84
:1051A00021AA22A923E92402F9E43AFAEF51003EA8
:1051B00090400307E0C454F0FF90400306E0C4337E
:1051C0003354C04FFF90400308E025E025E04FFF37
:1051D000A3E04FFFAB21AA22A923E92403F9E43A73
:1051E000FAEF51003E9040030AE0C4333354C0FF4D
:1051F000AB21AA22A923E92404F9E43AFAEF5100E9
:105200003EAB21AA22A923E92405F9E43AFAE516DE
:1052100051003EAB21AA22A923E92406F9E43AFA77
:10522000E51051003EAB21AA22A923E92407F9E4A5
:105230003AFAE51B51003EE52945287003752C70AC
:1052400022EF75F040A4FF904002B6E5F0F0A3EF26
:10525000F0E4904002B8F0E4FFFEFDFCC005C0069B
:10526000C007904002B6E0FEA3E0FF7D155100525A
:1052700074092FF974403EFA7B01D007D006D0059F
:10528000510308904002B6E0FEA3E0FF7C007D15CC
:10529000510052740D2FF974403EFAE451003E90D3
:1052A0004002B6E0FEA3E0FF510052740E2FF974E5
:1052B000403EFAE451003E904002B6E0FEA3E0FF1B
:1052C00051005274102FF974403EFAE451003E90A0
:1052D0004002B6E0FEA3E0FF51005274112FF974B2
:1052E000403EFAE451003E904002B6E0FEA3E0FFEB
:1052F00051005274122FF974403EFA748051003EEE
:10530000904002B6E0FEA3E0FF51005274132FF963
:1053100074403EFA748075F00051016E904002B7FF
:10532000E004F07007904002B6E004F0904002B84C
:10533000E004F0E06440600341525722E52B640131
:10534000452A600341541CAB25AA26A92751000C0D
:10535000904003AFF0E0705CAB21AA22A92351007A
:105360003E904003A7E0FFAB21AA22A923E9240134
:10537000F9E43AFAEF51003E904003A8E0FFAB2178
:10538000AA22A923E92402F9E43AFAEF51003E9057
:105390004003A9E0FFAB21AA22A923E92403F9E4F1
:1053A0003AFAEF51003E752800752904E529452891
:1053B00070728064904003AFE06401705FAB21AA1B
:1053C00022A9230451003E904003AAE0FFAB21AA8A
:1053D00022A923E92401F9E43AFAEF51003E904072
:1053E00003ABE0FFAB21AA22A923E92402F9E43AA6
:1053F000FAEF51003E904003ACE0FFAB21AA22A996
:1054000023E92403F9E43AFAEF51003E75280075C8
:105410002904E5294528700C752C7022E4F528F53F
:1054200029752C3022EF7073ED14B40F0040034146
:10543000550C9002544175F003A4C58325F0C58333
:105440007341546E41547141547441547741547ABC
:1054500041547D4154804154834154864154894193
:10546000548C41548F4154924154954154988BAB84
:10547000228BAC228BAD228BAE228BAF228BB32240
:105480008BB4228BB5228BB6228BB7228BBB228B9F
:10549000BC228BBD228BBE228BBF22ED14B40F0029
:1054A000506A900254B175F003A4C58325F0C583FA
:1054B000734154DE4154E14154E44154E74154EA1C
:1054C0004154ED4154F04154F34154F64154F941F3
:1054D00054FC4154FF4155024155054155088BEBA1
:1054E000228BEC228BED228BEE228BEF228BF32290
:1054F0008BF4228BF5228BF6228BF7228BFB228BEF
:10550000FC228BFD228BFE22AF038FFF22E52B6452
:1055100001452A6002801AAB25AA26A92751000C52
:10552000904002ECF0E0C394014006E0D3940940BF
:1055300009E4F528F529752C3022904002ECE0AB07
:1055400021AA22A92351003E752800752901904007
:1055500002ECE075F040A4FFA3E5F0F0A3EFF0E467
:10556000904002EBF0904002ECE07E00240BF9EE5C
:105570003403FA7B4151000CFF904002EBE0C39FE3
:105580005066904002EDE0FEA3E0FF7C007D1551E7
:10559000005274002FF974403EFA7B01C003C00230
:1055A000C001AB21AA22A923AE28AF29E92FF9EA2D
:1055B0003EA801FCAD03D001D002D0037E007F09DC
:1055C0005103F474092529F529E43528F52890407C
:1055D00002EEE004F07007904002EDE004F090402D
:1055E00002EBE004F0415565E52945287003752C70
:1055F0007022E52B6401452A6002801AAB25AA2699
:10560000A92751000C904002F5F0E0C39401400638
:10561000E0D394094009E4F528F529752C3022AB34
:1056200025AA26A92751000CAB21AA22A9235100A3
:105630003E752800752901904002F5E075F040A400
:10564000FFA3E5F0F0A3EFF0E4904002F4F0904007
:1056500002F5E07E00240BF9EE3403FA7B415100A1
:105660000CFF904002F4E0C39F5062904002F6E0CD
:10567000FEA3E0FF7C007D1551005274122FF974D7
:10568000403EFA7B01C003C002C001AB21AA22A99F
:1056900023AE28AF29E92FF9EA3EA801FCAD03D0DB
:1056A00001D002D0037E007F015103F40529E529D2
:1056B00070020528904002F7E004F0700790400265
:1056C000F6E004F0904002F4E004F08081E5294522
:1056D000287003752C70229040008CEFF0E0FF7C66
:1056E000002401F9EC3403FA7B41E451003EEF64FD
:1056F0000970034157BAE5186003751A019040001C
:105700008CE0FFC39401FE7401A806088002C33335
:10571000D8FC904002B0F07B417A0279B1C003C05E
:1057200002C00109904000527441F0A37402F0A33A
:10573000E9F0D001D002D0035133C7904002B0E06D
:10574000FFA3E05FFF904002B0E0B5071490400077
:105750008CE07E002401F9EE3403FA7B4174028070
:1057600056904002B0E0FF904002B2E05F701490AB
:1057700040008CE07E002401F9EE3403FA7B417492
:105780000180349040008CE0FF7DCC516EF790405A
:10579000008CE0FF7DB4516EF79040008CE0FF512B
:1057A000435BEF70159040008CE07E002401F9EE21
:1057B0003403FA7B41740351003E22F58375934014
:1057C000E0FBA3E0FAA3E0F990400078EBF0A3EA55
:1057D000F0A3E9F0E490400395F090400078E0FBFE
:1057E000A3E0FAA3E0F990400395E0FFE92FF9E484
:1057F0003AFA51000C601690400395E0D39464404F
:105800000341588B90400395E004F080CD90400315
:1058100095E0FF9040039AE0FCA3E0FDEF2DFFE44C
:105820003CFED3EF9440EE941F506090400395E00F
:10583000FF7E00C006C0079040039AE0FEA3E0FF91
:10584000E42FFFEE3420FEE433FDE433FCE42FFFCD
:10585000E43EFEED3401FDE43CA907AA06AB05A831
:1058600007AC0690400078E0FBA3E0FAA3E0F9D093
:1058700007D0065103F490400395E0FF9040039B4E
:10588000E02FF09040039AE03400F0229040003F77
:10589000EBF0A3EAF0A3E9F0E55DB401037F012298
:1058A000D2B390400045E07002A3E0700CC2B39008
:1058B00002088874F0F07F0022C2AF900205557490
:1058C000AAF0900202AA7455F09002055574A0F057
:1058D00090400042E0FBA3E0FAA3E0F951000CFF86
:1058E0009040003FE0FBA3E0FAA3E0F9EF51003E57
:1058F000D2AFE4F55EE55EC394C8504F90400042DD
:10590000E0FBA3E0FAA3E0F951000CFF9040003F58
:10591000E0FBA3E0FAA3E0F951000CB507299040A1
:105920000046E024FFF090400045E034FFF0904056
:105930000040E475F0015100F290400043E475F03E
:10594000015100F24158A2055E80AAC2B39002083C
:105950008874F0F07F0122E52B6404452A6003413E
:105960005A0BAB25AA26A92751000C904003B0F092
:10597000E07044AB25AA26A927E92401F9E43AFA04
:1059800051000C904003A7F0AB25AA26A927E924D3
:1059900002F9E43AFA51000C904003A8F0AB25AAB2
:1059A00026A927E92403F9E43AFA51000C904003B0
:1059B000A9F0516927804B904003B0E06401704B1F
:1059C000AB25AA26A927E92401F9E43AFA51000CEB
:1059D000904003AAF0AB25AA26A927E92402F9E4FE
:1059E0003AFA51000C904003ABF0AB25AA26A92748
:1059F000E92403F9E43AFA51000C904003ACF05169
:105A00006974E4F528F529752C7022E4F528F52948
:105A1000752C3022E49040039AF0A3F07B837A0542
:105A2000799B5157C87B837A0579D65157C89040E6
:105A3000034EE075F00E84E5F075F003A42415F52F
:105A400082E434005157BB7B837A0579E65157C80D
:105A50009040034FE0540775F003A42400F582E45E
:105A600034005157BB7B837A0579F65157C87B4187
:105A70007A0379507D01514DA77B837A06790651CF
:105A800057C87B417A0379517D01514DA77B837AB9
:105A90000679165157C87B417A0379537D04514DDD
:105AA000A77B837A0679265157C87B837A06793695
:105AB0005157C87B837A06793F5157C87B837A0652
:105AC00079425157C87B837A05799B4157C8D310D7
:105AD000AF01C3C0D09040007451032390400074C4
