:020000040000FA
:0E000000000000000000000002080501671665
:030013000167780A
:03001B000167DAA0
:0300230001683C35
:03002B0001689ECB
:0300330001690060
:03003B00016962F6
:030043000169C48C
:03004B00016A2621
:03005300016A88B7
:03005B00016AEA4D
:03006300016B4CE2
:03006B00016BAE78
:03007300016C100D
:10007B00016C72EB7002E72289828A831410E70409
:10008B00F593E022F593E49322BB000327F722F8C4
:10009B00EB89828A831410E706F593E028F022F5AA
:1000AB0093E4932822BB0002F722BB8000500989FE
:1000BB00828A838B931593F022EF8DF0A4A8F0CF57
:1000CB008CF0A428CE8DF0A42EFE22BC000BBE001B
:1000DB0029EF8DF084FFADF022E4CCF875F008EF3A
:1000EB002FFFEE33FEEC33FCEE9DEC984005FCEE5F
:1000FB009DFE0FD5F0E9E4CEFD22EDF8F5F0EE0014
:10010B008420D21CFEADF075F008EF2FFFED33FD10
:10011B004007985006D5F0F222C398FD0FD5F0EAB0
:10012B0022C2D5EC30E709B2D5E4C39DFDE49CFCBB
:10013B00EE30E716B2D5E4C39FFFE49EFE1200003B
:10014B00D6C3E49DFDE49CFC8004120000D630D5A0
:10015B0007C3E49FFFE49EFE22C5F0F8A3E028F05E
:10016B00C5F0F8E582158270021583E038F022A302
:10017B00F8E0C5F025F0F0E582158270021583E0FA
:10018B00C838F0E822EB7007E7F5F009E719228988
:10019B00828A831410E708F593E0F5F0A3E022F5CB
:1001AB0093E493F5F074019322BB000B09C5F02780
:1001BB00F7C5F01937F722F8EB89828A831410E719
:1001CB0007F593E802000164F59374019325F0F5AC
:1001DB00F0E4933822BB0006F709A7F01922BB8085
:1001EB0000500D89828A838B931593F0E5F0A3F071
:1001FB0022E88FF0A4CC8BF0A42CFCE98EF0A42C7D
:10020B00FC8AF0EDA42CFCEA8EF0A4CDA8F08BF0C8
:10021B00A42DCC3825F0FDE98FF0A42CCD35F0FCC6
:10022B00EB8EF0A4FEA9F0EB8FF0A4CFC5F02ECD92
:10023B0039FEE43CFCEAA42DCE35F0FDE43CFC2277
:10024B0075F008758200EF2FFFEE33FECD33CDCC6A
:10025B0033CCC58233C5829BED9AEC99E5829840ED
:10026B000CF582EE9BFEED9AFDEC99FC0FD5F0D6CA
:10027B00E4CEFBE4CDFAE4CCF9A88222B800C1B9F4
:10028B000059BA002DEC8BF084CFCECDFCE5F0CB32
:10029B00F97818EF2FFFEE33FEED33FDEC33FCEB6B
:1002AB0033FB10D703994004EB99FB0FD8E5E4F926
:1002BB00FA227818EF2FFFEE33FEED33FDEC33FC13
:1002CB00C933C910D7059BE99A4007EC9BFCE99A07
:1002DB00F90FD8E0E4C9FAE4CCFB2275F010EF2F4C
:1002EB00FFEE33FEED33FDCC33CCC833C810D7074C
:1002FB009BEC9AE899400AED9BFDEC9AFCE899F887
:10030B000FD5F0DAE4CDFBE4CCFAE4C8F922CFF454
:10031B00CFCEF4CECDF4CDCCF4CC22EB9FF5F0EADE
:10032B009E42F0E99D42F0E89C45F022E8600FEC1C
:10033B00C313FCED13FDEE13FEEF13FFD8F122E810
:10034B00600FEFC333FFEE33FEED33FDEC33FCD820
:10035B00F122EB7006E9F8020004D389828A831438
:10036B0010E706F593020004DFF593020004EBBBE4
:10037B000006E9F8020004FBBB8000500C89828A5E
:10038B00838B9315930200039522ECF0A3EDF0A35E
:10039B00EEF0A3EFF022EB7006E9F80200050789F7
:1003AB00828A831410E706F59302000519F5930270
:1003BB0000052BBB001CD093D0F0D0E0F8D0E0C9E7
:1003CB00FBD0E0FAD0E0CBC8C0E0C0F0C093020095
:1003DB000510BB80005022D093D0F0D0E0F8D0E0D5
:1003EB00C9F582D0E0CAF583D0E0CB14C8C0E0C019
:1003FB00F0C093889302000522D093D083D082D093
:10040B00E0D0E0D0E0E4738B938A83898215935319
:10041B00937FE473EF4E6022EF60010EEDBB00079C
:10042B00F709DFFCA9F022BB8000500E89828A837A
:10043B008B931593F0A3DFFCDEFA22EB7008E70930
:10044B00F608DFFA801B89828A831410E70AF5937A
:10045B00E0A3F608DFFA8009F593E493A3F608DF2F
:10046B00F9ECFAA9F0EDFB2288F0EF60010E4E607B
:10047B00F088F0ED60C51410E7E7CB700E88828C26
:10048B00838B93E709F0A3DFFA80D61410E71C885F
:10049B00848C858B9589828A83F593758620E0F011
:1004AB00A3A3DFFADEF875860080B688848C858B73
:1004BB009589828A83F593758620E493F0A3A3DF55
:1004CB00F9DEF77586008099E6FC08E6FD08E6FE86
:1004DB0008E6FF22E0FCA3E0FDA3E0FEA3E0FF2281
:1004EB00E493FC740193FD740293FE740393FF2257
:1004FB00ECF608EDF608EEF608EFF622E6FB08E65A
:10050B00FA08E6F922EBF608EAF608E9F622E0FB30
:10051B00A3E0FAA3E0F922EBF0A3EAF0A3E9F022BF
:10052B00E493FB740193FA740293F9224842425FFD
:10053B005353544154004842425F4C53544154006E
:10054B00554E495F50524F4D00554E495F464C41F9
:10055B005348004A50445F50524F4D004A50445F3D
:10056B00464C415348005044535F50524F4D00503E
:10057B0044535F464C4153480043435F50524F4DE9
:10058B000043435F464C4153480055475F50524F21
:10059B004D0055475F464C415348004D5F50524FFD
:1005AB004D004D5F464C41534800504F5745525FED
:1005BB004F4E0052455345545F434D4400524553F3
:1005CB0045545F50474D00434D444A554D505F468F
:1005DB00524F4D5F454C53450050474D4A554D507A
:1005EB005F46524F4D5F454C534500434D444A5572
:1005FB004D505F46524F4D5F53454C460050474D53
:10060B004A554D505F46524F4D5F53454C46000A7D
:10061B003D3D3D3D3D3D3D3D3D3D3D3D3D3D3D3DFF
:10062B003D3D3D3D3D3D3D3D3D3D3D3D3D3D3D3DEF
:10063B003D3D3D3D3D3D3D3D3D3D3D3D3D3D3D3DDF
:10064B003D3D3D3D3D3D3D3D3D000A2052756E6EAD
:10065B00696E674D6F64653A20000A2052657365B9
:10066B0074526561736F6E3A20000A204E65776293
:10067B006F726E416464723A20000A204C6F676996
:10068B0063616C416464723A20000A205665727390
:10069B00696F6E4E756D623A20000A20436F6D7064
:1006AB00696C65446174653A200031302F32302F0C
:1006BB003038002C200031363A30393A3234000AC7
:1006CB005B436F6E666967457865635D3A200046EC
:1006DB00696C655374617274416464723D002C20C3
:1006EB0046696C65456E64416464723D000A5B4308
:1006FB006F6E666967457865635D3A20496E766112
:10070B006C69642066696C65207374617274206116
:10071B006464726573732E000A5B436F6E66696760
:10072B00457865635D3A20496E76616C6964206635
:10073B00696C6520656E6420616464726573732EE9
:10074B00000A5B436F6E666967457865635D3A20A7
:10075B00496E76616C696420636F6D6D616E6420A8
:10076B006C656E6774682E09000A5B436F6E666971
:10077B0067457865635D3A20436F6E666967206CE9
:10078B006F672073706163652069732066756C6C8D
:10079B002E000A2D2D2D2D2D2D2D2D20000A436DD4
:1007AB00646C656E203A20000A436D645479706561
:1007BB003A20000A436D64446174613A20000A5286
:1007CB0065734C656E203A20000A526573466C6166
:1007DB00673A20004B4F004F4B000A526573446140
:1007EB0074613A20004E455854004552524F520006
:1007FB0041424F525400454E440075C7AA75C75528
:10080B0075923F75C7AA75C75575A21875C7AA7596
:10081B00C755759D0275C7AA75C75575C6A0787F54
:10082B00E4F6D8FD75815E0200086002007308E4EF
:10083B0093A3F85407240CC8C333C4540F4420C8E3
:10084B00834004F456800146F6DFE4800C01020479
:10085B000810204080900008EBE47E019360CCA34D
:10086B00FF543F30E509541FFEE493A360010ECF04
:10087B0054E0B4E026E493FBA3E493FAA3E493F9E6
:10088B00A3E493C083C082120000B0D082D083A3B4
:10089B0009E970010ADFEADEE880BE54C025E0609A
:1008AB002B408CE493A3FAE493A3F8E493A3C8C579
:1008BB0082C8CAC583CA759340F0759300A3C8C597
:1008CB0082C8CAC583CADFE3DEE1808DE493A3F857
:1008DB00E493A34003F68001F208DFF402000864FE
:1008EB00602A001581053781054181054B8105542F
:1008FB0081055E81056781057181057A810584819A
:10090B00058C81059581059D8105A68105AD550059
:10091B00008105B58105BE8105C88105D28105E43D
:10092B008105F68106080031302F32302F30380028
:10093B0031363A30393A323400AF1FEF75F01CA420
:10094B0024AFF9740035F0FA7B411103A1904000FC
:10095B0098EBF0A3EAF0A3E9F090400098E0FBA33A
:10096B00E0FAA3E02406F9E43AFA11007E54F0FF12
:10097B00BFF03DAF1FEF75F01CA424B2F974003526
:10098B00F0FA7B411103A190400098EBF0A3EAF041
:10099B00A3E9F090400098E0FBA3E0FAA3E0240663
:1009AB00F9E43AFA11007E54F064F070030111720D
:1009BB0090400098E0FBA3E0FAA3E02402F9E43AAC
:1009CB00FA11007E9040009BF090400098E0FBA352
:1009DB00E0FAA3E02406F9E43AFA11007EC4540FBE
:1009EB009040009CF09040009BE0540F9040009D85
:1009FB00F09040009CE070030110449040009BE09D
:100A0B00546024E07003010B5624E07003010D19B0
:100A1B0024E07003010E6124606003011172AF1FAB
:100A2B007E00749F2FF9EE3400FA7B4111007E6437
:100A3B00C06014AF1F749F2FF9EE3400FA11007EC3
:100A4B0064806003010C54AF1F7E00749F2FF9EE7E
:100A5B003400FA7B4174801100B0AF1F748F2FF9F3
:100A6B00EE3401FA7B4111007EFF9040009DE06F58
:100A7B0060030110D3AF1FEF75F01CA424BBF974F6
:100A8B000035F0FA7B41110190FF9040009CE02F64
:100A9B00FFE435F0FED3EF9400EE94204003010BFE
:100AAB00D6AF1FEF75F01CA424B8F9740035F0FA1B
:100ABB007B411103A1C003C002C00190400098E02C
:100ACB00FBA3E0FAA3E02407F9E43AFA9040004ACA
:100ADB00EBF0A3EAF0A3E9F09040009CE09040001B
:100AEB004DF0D001D002D003116F179040009CE065
:100AFB00FDAF1FEF75F01CA424BBF9740035F0FAA1
:100B0B007B41E48DF01101B49040009CE0FDAF1FE0
:100B1B00EF75F01CA424B8F9740035F0FA09E970EC
:100B2B00010AE48DF01101B49040009BE05404FFE6
:100B3B00E51F04FD114074EF9040009D30E106E08D
:100B4B00443001103EE0441001103EAF1F7E007494
:100B5B009F2FF9EE3400FA7B4111007E64C06014C4
:100B6B00AF1F749F2FF9EE3400FA11007E64806082
:100B7B0003010C54AF1F7E00749F2FF9EE3400FA63
:100B8B007B4174A01100B0AF1F748F2FF9EE3401AD
:100B9B00FA7B4111007EFF9040009DE06F600301E6
:100BAB0010D3AF1FEF75F01CA424BBF9740035F004
:100BBB00FA7B41110190FF9040009CE02FFFE43540
:100BCB00F0FED3EF9400EE94204004A30110D3AFBA
:100BDB001FEF75F01CA424B8F9740035F0FA7B41B3
:100BEB001103A1C003C002C00190400098E0FBA319
:100BFB00E0FAA3E02407F9E43AFA9040004AEBF05C
:100C0B00A3EAF0A3E9F09040009CE09040004DF087
:100C1B00D001D002D003116F179040009CE0FDAFC4
:100C2B001FEF75F01CA424BBF9740035F0FA7B415F
:100C3B00E48DF01101B49040009BE05404FFE51FDC
:100C4B0004FD114074EF30E1079040009D0110D37B
:100C5B0090400352E004F0AF1FEF75F01CA424BBCF
:100C6B00F9740035F0FA7B41110190F52B85F02AD0
:100C7B00AF1FEF75F01CA424B5F9740035F0FA1111
:100C8B0003A18B258A268927AF1FEF75F01CA4249F
:100C9B00C3F9740035F0FA7B411103A18B218A2231
:100CAB008923AF1F7E0074A72FF9EE3400FA7B4126
:100CBB0011007EFF114F67AF1FEF75F01CA424C905
:100CCB00F9740035F0FA7B41E5288529F01101E034
:100CDB00AB21AA22A923C003C002C001AF1FEF752D
:100CEB00F01CA424C6F9740035F0FA7B411103BE45
:100CFB00D3E5299408E5289400400301101EE5294B
:100D0B0045289040009D700301103B011032AF1F2E
:100D1B007E00749F2FF9EE3400FA7B4174C01100F2
:100D2B00B09040009DE0FFAE1FEE7C00248FF9ECED
:100D3B003401FA7B41EF1100B090400098E0FBA327
:100D4B00E0FAA3E02407F9E43AFA11007EFFAE1FA4
:100D5B00EE24A7F9EC3400FA7B41EF1100B0AF1F82
:100D6B007E0074A72FF9EE3400FA11007EC4131322
:100D7B005403FFAE1FEE248FF9EC3401FA7B4111C3
:100D8B00007EFE13131354036F6003010EDE9040BD
:100D9B00009CE014F0AF1FEF75F01CA424B5F974A0
:100DAB000035F0FA7B411103A1C003C002C00190D2
:100DBB00400098E0FBA3E0FAA3E02408F9E43AFA38
:100DCB009040004AEBF0A3EAF0A3E9F09040009CBE
:100DDB00E09040004DF0D001D002D003116F17907E
:100DEB0040009CE0FDAF1FEF75F01CA424BBF97411
:100DFB000035F0FA7B41E48DF01101E0AF1FEF7588
:100E0B00F01CA424B5F9740035F0FA1103A190403D
:100E1B00009CE07E0029F9EE3AFAC003C002C00143
:100E2B00AF1FEF75F01CA424B8F9740035F0FA7BF2
:100E3B00411103BE9040009BE05404FFE51F04FDED
:100E4B00114074EF9040009D30E105E04430800389
:100E5B00E0441001103EAF1F7E00749F2FF9EE345B
:100E6B0000FA7B4174E01100B09040009DE0FFAEB2
:100E7B001FEE7C00248FF9EC3401FA7B41EF11005B
:100E8B00B090400098E0FBA3E0FAA3E02407F9E45C
:100E9B003AFA11007EFFAE1FEE24A7F9EC3400FAEC
:100EAB007B41EF1100B0AF1F7E0074A72FF9EE341A
:100EBB0000FA11007EC413135403FFAE1FEE248FF0
:100ECB00F9EC3401FA7B4111007EFE13131354032A
:100EDB006F600A9040009DE0443001103E9040004E
:100EEB009CE014F0AF1FEF75F01CA424B5F974004F
:100EFB0035F0FA7B411103A1C003C002C001904041
:100F0B000098E0FBA3E0FAA3E02408F9E43AFA9096
:100F1B0040004AEBF0A3EAF0A3E9F09040009CE01C
:100F2B009040004DF0D001D002D003116F179040CC
:100F3B00009CE0FDAF1FEF75F01CA424BBF97400FF
:100F4B0035F0FA7B41E48DF01101E09040009BE01D
:100F5B005404FFE51F04FD114074EF30E10A90408B
:100F6B00009DE0443001103E90400352E004F0AF8E
:100F7B001FEF75F01CA424BBF9740035F0FA7B410C
:100F8B00110190F52B85F02AAF1FEF75F01CA424EF
:100F9B00B5F9740035F0FA1103A18B258A26892740
:100FAB00AF1FEF75F01CA424C3F9740035F0FA7B66
:100FBB00411103A18B218A228923AF1F7E0074A7C5
:100FCB002FF9EE3400FA7B4111007EFF114F67AF12
:100FDB001FEF75F01CA424C9F9740035F0FA7B419E
:100FEB00E5288529F01101E0AB21AA22A923C00332
:100FFB00C002C001AF1FEF75F01CA424C6F974002A
:10100B0035F0FA7B411103BED3E5299408E528940A
:10101B0000400A9040009DE0445001111FE5294516
:10102B00289040009D6009E04470FFAD2901116FCD
:10103B00E0452CFFE4FD01116F9040009BE05460F4
:10104B0024E0700301116524E0700301116524E0B5
:10105B00700301116524606003011172AF1F7E00E4
:10106B00749F2FF9EE3400FA7B4111007E64E0602F
:10107B002DAF1F749F2FF9EE3400FA11007E64A080
:10108B00601CAF1F749F2FF9EE3400FA11007E60C5
:10109B000D9040009DE04430FFE4FD01116FAF1F48
:1010AB007E00749F2FF9EE3400FA7B41E41100B0FF
:1010BB00AF1F748F2FF9EE3401FA7B4111007EFFC5
:1010CB009040009DE06F6009E04430FFE4FD0111AA
:1010DB006F9040009BE05404FFE51F04FD1140742A
:1010EB00EF30E10C9040009DE04430FFE4FD807454
:1010FB00AF1FEF75F01CA424C9F9740035F0FA7B0F
:10110B0041110190D39408E5F09400400C904000FD
:10111B009DE04410FF7D08804BAF1FEF75F01CA4C2
:10112B0024C9F9740035F0FA7B4111019045F06048
:10113B001DAF1FEF75F01CA424C9F9740035F0FA2C
:10114B00110190FD9040009DE04430FF80169040CF
:10115B00009DE04430FFE4FD800A9040009DE04498
:10116B0030FFE4FD1138AC227B827AFF790011004D
:10117B007EF5247B0479FF11007EF4FF1911007EAC
:10118B00B5070711007EF52080037520FF90400303
:10119B0050E524F0A3E520F0E490400090F090405F
:1011AB000090E07E00249FF9EE3400FA7B417460DE
:1011BB001100B090400090E0248FF9EE3401FA7BDF
:1011CB004174FF1100B090400090E024A7F9EE3479
:1011DB0000FA7B4174FF1100B090400090E075F075
:1011EB0010A42410F9741035F0FA7B41C003C0022F
:1011FB00C001E075F01CA424AFF9740035F0FA7B44
:10120B00411103BE90400090E075F010A42410F93A
:10121B00741135F0FA7B41C003C002C001E075F0D8
:10122B001CA424B2F9740035F0FA7B411103BE9073
:10123B00400090E0C43354E0FEE42400FFE43EFEA3
:10124B00E43404FDE433FCE42FFFE43EFEED340113
:10125B00FDE43CA907AA06AB05C003C002C001E030
:10126B0075F01CA424B5F9740035F0FA7B41110319
:10127B00BE90400090E0540375F010A424A0F974C4
:10128B001035F0FA7B41C003C002C001E075F01CC1
:10129B00A424BDF9740035F0FA7B411103BE9040D4
:1012AB000090E0540375F010A424A0F9741135F0EC
:1012BB00FA7B41C003C002C001E075F01CA424C03E
:1012CB00F9740035F0FA7B411103BE90400090E0B9
:1012DB00C43354E0FEE42400FFE43EFEE43404FD9A
:1012EB00E433FCE42FFFE43EFEED3401FDE43CFC73
:1012FB00E42FFFE43EFEED3401FDE43CA907AA0612
:10130B00AB05C003C002C001E075F01CA424C3F9F7
:10131B00740035F0FA7B411103BE90400090E0045D
:10132B00F0E0640860030111A975C7AA75C755756C
:10133B00A3091175F175C7AA75C75575E309117521
:10134B00F175C7AA75C75575A3011175F175C7AAB4
:10135B0075C75575E3011175F1E490401000F090DD
:10136B00401100F090401001F090401101F09040BE
:10137B001002F090401102F090401003F0904011D9
:10138B0003F090401004F090401104F090401005D1
:10139B007414F090401105F09040100674FFF0901B
:1013AB00401106F090401007F090401107F090406C
:1013BB0010087415F090401108F09040100974FF5C
:1013CB00F090401109F09040100AF09040110AF093
:1013DB00E49040100BF09040110BF09040100C7407
:1013EB00FFF09040110CF09040100DF09040110D5B
:1013FB00F09040100EF09040110EF09040100FF056
:10140B009040110FF0E4F5ABF5EBF5ACF5ECF5AD69
:10141B00F5EDF5AEF5EEF5AFF5EFF5B3F5F3F5B498
:10142B00F5F4F5B5F5F5F5B6F5F6F5B7F5F7F5BB56
:10143B00F5FBF5BCF5FCF5BDF5FDF5BEF5FEF5BF11
:10144B00F5FF9040009004F090400090E075F01094
:10145B00A42402F9741035F0FA7B41E41100B0902A
:10146B00400090E075F010A42402F9741135F0FAE5
:10147B007B41E41100B090400090E075F010A42483
:10148B0003F9741035F0FA7B41E41100B090400081
:10149B0090E075F010A42403F9741135F0FA7B4138
:1014AB00E41100B090400090E075F010A42404F912
:1014BB00741035F0FA7B41E41100B090400090E0DD
:1014CB0075F010A42404F9741135F0FA7B41E41182
:1014DB0000B090400090E075F010A42405F9741052
:1014EB0035F0FA7B41E41100B090400090E075F0CC
:1014FB0010A42405F9741135F0FA7B41E41100B006
:10150B0090400090E075F010A42406F9741035F0AB
:10151B00FA7B41E41100B090400090E075F010A40C
:10152B002406F9741135F0FA7B41E41100B09040B8
:10153B000090E075F010A42407F9741035F0FA7BD5
:10154B0041E41100B090400090E075F010A4240726
:10155B00F9741135F0FA7B41E41100B09040009022
:10156B00E075F010A42408F9741035F0FA7B41E40F
:10157B001100B090400090E075F010A42408F974AD
:10158B001135F0FA7B41E41100B090400090E0750A
:10159B00F010A42409F9741035F0FA7B41E4110022
:1015AB00B090400090E075F010A42409F974113547
:1015BB00F0FA7B41E41100B090400090E075F01020
:1015CB00A4240AF9741035F0FA7B41E41100B090B1
:1015DB00400090E075F010A4240AF9741135F0FA6C
:1015EB007B41E41100B090400090E075F010A42412
:1015FB000BF9741035F0FA7B41E41100B090400008
:10160B0090E075F010A4240BF9741135F0FA7B41BE
:10161B00E41100B090400090E075F010A4240CF998
:10162B00741035F0FA7B41E41100B090400090E06B
:10163B0075F010A4240CF9741135F0FA7B41E41108
:10164B0000B090400090E075F010A4240DF97410D8
:10165B0035F0FA7B41E41100B090400090E075F05A
:10166B0010A4240DF9741135F0FA7B41E41100B08C
:10167B0090400090E075F010A4240EF9741035F032
:10168B00FA7B41E41100B090400090E075F010A49B
:10169B00240EF9741135F0FA7B41E41100B090403F
:1016AB000090E004F0E064106003011453E49040F8
:1016BB000090F090400090E0C3940450067F017DB1
:1016CB000180047F007D0090400090E075F01CA429
:1016DB0024AFF9740035F0FA7B411103A1E9240220
:1016EB00F9E43AFAED1100B090400090E05403FD9C
:1016FB00E075F01CA424AFF9740035F0FA7B4111AE
:10170B0003A1E92403F9E43AFAED1100B09040008B
:10171B0090E0C394045006AF24AD078004AF20AD16
:10172B000790400090E075F01CA424AFF9740035CD
:10173B00F0FA7B411103A1E92404F9E43AFAED1123
:10174B0000B090400090E075F01CA424AFF9740039
:10175B0035F0FA7B411103A1E92405F9E43AFA7457
:10176B00011100B090400090E075F01CA424AFF97B
:10177B00740035F0FA7B411103A1E92406F9E43A30
:10178B00FA74F61100B090400090E0C39404500638
:10179B007F057D0580047F047D0490400090E075FB
:1017AB00F01CA424B2F9740035F0FA7B411103A1AB
:1017BB00E92402F9E43AFAED1100B090400090E010
:1017CB005403FDE075F01CA424B2F9740035F0FA53
:1017DB007B411103A1E92403F9E43AFAED1100B0BE
:1017EB0090400090E0C394045006AF24AD078004F2
:1017FB00AF20AD0790400090E075F01CA424B2F927
:10180B00740035F0FA7B411103A1E92404F9E43AA1
:10181B00FAED1100B090400090E075F01CA424B2DA
:10182B00F9740035F0FA7B411103A1E92405F9E4C1
:10183B003AFA74011100B090400090E075F01CA4CE
:10184B0024B2F9740035F0FA7B411103A1E92406A7
:10185B00F9E43AFA74F61100B090400090E004F00D
:10186B00E0640860030116BEE524D39403401875A9
:10187B00AB8075EB8075AC8075EC8075AD8075EDCC
:10188B008075AE8075EE80E520D39403401DE52076
:10189B00F4601875AF8075EF8075B38075F3807544
:1018AB00B48075F48075B58075F58075C7AA75C75A
:1018BB0055E4F5A31175F175C7AA75C755E4F5E3A2
:1018CB000175F190400087EEF0A3EFF09040008798
:1018DB00E0FEA3E07806CEC313CE13D8F9904002F6
:1018EB00D81134367D55117524E4904002D7F09011
:1018FB00400087E0FEA3E0FF7C007D151100C4745F
:10190B00002FF974403EFA7B01904002D7E07E0035
:10191B0029F9EE3AFA11007EFD117524904002D799
:10192B00E004F0E0C3940840C67DBE117524E4F5D5
:10193B005C904002D7F0904002D8E0FF1171F39019
:10194B004002D7E07C0024D9F9EC3402FA7B41EF5A
:10195B001100B0904002D7E07E0024D9F9EE34029A
:10196B00FA11007E655C249CF9EE3401FA7B41117F
:10197B00007EF55C904002D7E004F0E0C394094090
:10198B00B5904002D9E0904002E4F0904002DAE0DA
:10199B00904002E3F0904002DDE0904002E7F090CF
:1019AB004002DFE0904002E5F0904002E0E0904022
:1019BB0002E6F0904002E4E0FFC00790400087E0B1
:1019CB00FEA3E0FF7C007D151100C4AC06AD0774CF
:1019DB000D2DF974403CFA7B01D0E01100B0904022
:1019EB0002E3E0FFC007740E2DF974403CFAD0E01F
:1019FB001100B0904002E7E0FFC00790400087E085
:101A0B00FEA3E0FF7C007D151100C4AC06AD07748E
:101A1B000F2DF974403CFAD0E01100B0904002E574
:101A2B00E0FFC00774102DF974403CFAD0E01100B0
:101A3B00B0904002E6E0FFC00790400087E0FEA3B5
:101A4B00E0FF7C007D151100C4AC06AD0774112DB1
:101A5B00F974403CFAD0E01100B074122DF97440C7
:101A6B003CFA74801100B090400087E0FEA3E0FFC9
:101A7B007C007D151100C474132FF974403EFA7469
:101A8B008075F0001101E0E55C6003011DBB740083
:101A9B002FF974403EFA7B0111007E641060030144
:101AAB001B82904002E3E07009A3E064AA7003017B
:101ABB001DBB904002E3E06007A3E0D39480500E7F
:101ACB00904002E3E0702EA3E0D3947F5027904028
:101ADB0002E4E0FFC00790400087E0FEA3E0FF7C3C
:101AEB00007D151100C474122FF974403EFA7B016E
:101AFB00D0E01100B0904002E6E06410904002E4A8
:101B0B007038E054FE75F080A4FD904002E3E0C411
:101B1B00333333548045F0FC904002E5E0FFA3E003
:101B2B00C39FFFE49400FEEFC4F8540FC868FFEEA8
:101B3B00C454F0484CFEEF4D8017E075F080A4FDC7
:101B4B00904002E3E0C4333333548045F0FEED4460
:101B5B0040FFC007C00690400087E0FEA3E0FF7C7B
:101B6B00007D151100C474132FF974403EFA7B01EC
:101B7B00D0E0D0F0011DB890400087E0FEA3E0FF5D
:101B8B007C007D151100C474002FF974403EFA7B64
:101B9B000111007E64286003011DBB904002E7E049
:101BAB007003011DBB904002E7E0546024E0601815
:101BBB0024E0601D24E0602224606003011DBB90C3
:101BCB004002E87402F08019904002E87404F0803F
:101BDB0010904002E87408F08007904002E87410FF
:101BEB00F0904002E3E020E703011CE2E0FEA3E0FB
:101BFB007C002400FFEC3EFEC3EF9400FFEE94004C
:101C0B00FEE49401FDEC9400FCC004A905AA06AB0C
:101C1B0007904002E8E0FD7C007E017F001100D6BA
:101C2B00E4FCFDD0001101FC904002D5EEF0A3EFD7
:101C3B00F0904002D5E0FEA3E0FF7C007D80110117
:101C4B002CD3ED9440EC64809480904002D5E0FE60
:101C5B004013A3E0FF7C007D8011012CEF2401FFDA
:101C6B00E43EFE800AA3E0FF7C007D8011012C90F6
:101C7B004002D3EEF0A3EFF0904002D3E0FEA3E0DE
:101C8B00C39480EE6480947F50067F80C007800AE7
:101C9B00904002D3E0A3E0FFC00790400087E0FE36
:101CAB00A3E0FF7C007D151100C4AC06AD077412D8
:101CBB002DF974403CFA7B01D0E01100B09040024A
:101CCB00D5E0FEA3E0FF8FF0C00674132DF974402E
:101CDB003CFAD0E0011DB8904002E3E0FEA3E07CAB
:101CEB00002400FDEC3EFCC004C005904002E8E07F
:101CFB00FD7C007E017F001100D6D005D0041100C1
:101D0B00C4904002D5EEF0A3EFF0904002D5E0FE78
:101D1B00A3E0FF7C007D8011012CD3ED9440EC649B
:101D2B00809480904002D5E0FE4013A3E0FF7C003E
:101D3B007D8011012CEF2401FFE43EFE800AA3E01D
:101D4B00FF7C007D8011012C904002D3EEF0A3EFBD
:101D5B00F0904002D3E0FEA3E0D3947FEE64809436
:101D6B008040067F80C007800A904002D3E0A3E04A
:101D7B00FFC00790400087E0FEA3E0FF7C007D15CD
:101D8B001100C4AC06AD0774122DF974403CFA7BFC
:101D9B0001D0E01100B0904002D5E0FEA3E0FF8F30
:101DAB00F0C00674132DF974403CFAD0E01101E039
:101DBB0022E4F55AF55BE55D700B9040034FE02094
:101DCB00E3037F01227F007E807D037C0011227F55
:101DDB00BF01037F01227B047A80790411035D909C
:101DEB00400337110395790811035D9040033B11B4
:101DFB0003957B817A0679CA1158477B817A0679DC
:101E0B00DA1158477B417A0379377D04114E267BD3
:101E1B00817A0679E91158477B417A03793B7D0436
:101E2B00114E2690400337E0FCA3E0FDA3E0FEA398
:101E3B00E0FF7B007A8079037800C31103266009E9
:101E4B007B817A0679F801207B9040033BE0FCA371
:101E5B00E0FDA3E0FEA3E0FF7B0C7A807903780022
:101E6B00D311032640097B817A07792301207B90CC
:101E7B00400337E0FCA3E0FDA3E0FEA3E0240CFF4E
:101E8B00E43EFEE43DFDE43CFC904003371103953A
:101E9B0090400337A3A3E0FEA3E0FFC006904003EE
:101EAB003BA3A3E0FEA3E0AC06D006C39FFFEC9ED2
:101EBB00CF2401CF34009040033FF0A3EFF09040CC
:101ECB00033FE0FEA3E04E700301227C90400337FA
:101EDB00E0FCA3E0FDA3E0FEA3E02400FFE43EFE54
:101EEB00ED3401FDE43CA907AA06AB05C003C00213
:101EFB00C00178417C037D41D001D002D0037E002C
:101F0B007F0211047390400337E0FCA3E0FDA3E0D4
:101F1B00FEA3E02402FFE43EFEE43DFDE43CFCE4D2
:101F2B002FFFE43EFEED3401FDE43CA907AA06AB0E
:101F3B0005C003C002C00178437C037D41D001D0B2
:101F4B0002D0037E007F0111047390400341E0FE39
:101F5B00A3E02402FFE43EFE9040033FE0FCA3E03D
:101F6B00FDD3EF9DEE9C40177B817A07794C11587E
:101F7B00477B417A0379417D02114E267F012290E6
:101F8B00400341E0FEA3E0C39401F52BEE9400F572
:101F9B002A90400337E0FCA3E0FDA3E0FEA3E0247E
:101FAB0003FFE43EFEE43DFDE43CFCE42FFFE43E96
:101FBB00FEED3401FDE43CA907AA06AB058D258A8D
:101FCB002689277521027522007523009040034353
:101FDB00E0FF114F6790400337E0F8A3E0F9A3E06F
:101FEB00FAA3E0FB90400341E0FEA3E02402FFE4F0
:101FFB003EFEE4FCFDEB2FFFEA3EFEED39FDEC3837
:10200B00FC904003371103959040033FE0FEA3E0A3
:10201B00FF90400341E0FCA3E02402FDE43CFCC341
:10202B00EF9DFFEE9C9040033FF0A3EFF0E52924DA
:10203B0001FEE4352890400344F0A3CEF09040031A
:10204B0041E0FEA3E0FF255BCFE55A3ECF2402CF54
:10205B003400FE90400344E0FCA3E02FFFEE3CCFA6
:10206B002402CF3400C39480400C7B817A077974AF
:10207B001158477F0122E52945287011E52C546042
:10208B0064606009904003467401F08006E4904060
:10209B000346F07B417A037941C003C001AE5AAFCE
:1020AB005B74002FF974203EA801FC7D02D001D097
:1020BB00037E007F021104737402255BF55BE4352C
:1020CB005AF55A7B417A037943C003C001AE5AAF2C
:1020DB005B74002FF974203EA801FC7D02D001D067
:1020EB00037E007F01110473055BE55B7002055AEB
:1020FB00AE2AAF2BAC5AAD5B74002DF974203CA803
:10210B0001FC7D02AB25AA26A927110473E52B251B
:10211B005BF55BE52A355AF55A7B417A037944C066
:10212B0003C001AE5AAF5B74002FF974203EA801B7
:10213B00FC7D02D001D0037E007F02110473740278
:10214B00255BF55BE4355AF55A7B417A037946C03A
:10215B0003C001AE5AAF5B74002FF974203EA80187
:10216B00FC7D02D001D0037E007F01110473055B5F
:10217B00E55B7002055AAE28AF29AC5AAD5B740013
:10218B002DF974203CA801FC7D02AB21AA22A923C6
:10219B00110473E529255BF55BE528355AF55A7B68
:1021AB00817A07799D1158477B817A0779A8115855
:1021BB00477B417A0379417D02114E267B817A0759
:1021CB0079B31158477B417A0379437D01114E2630
:1021DB007B817A0779BE115847AB25AA26A927AD73
:1021EB002B114E267B817A0779C91158477B417A8F
:1021FB000379447D02114E267B817A0779D41158DD
:10220B004790400346E060087B817A0779DF8006C0
:10221B007B817A0779E21158477B817A0779E5113F
:10222B005847AB21AA22A923AD29114E26E52945F2
:10223B00286003011EC9E52C546024E0601724E0DC
:10224B00601B24E0601F24606003011EC97B817A40
:10225B000779F080167B817A0779F5800E7B817A7E
:10226B000779FB80067B817A087901115847011E9B
:10227B00C97F00229040006C110395E4FFFE7D06A0
:10228B00FC9040006CE0F8A3E0F9A3E0FAA3E0FBBC
:10229B00C311032640037F01229040006CE0FCA396
:1022AB00E0FDA3E0FEA3E02404FFE43EFEED3401D9
:1022BB00FDE43CA907AA06AB0511035D8F4A8E49C5
:1022CB008D488C479040006CE0FCA3E0FDA3E0FE42
:1022DB00A3E02408FFE43EFEED3401FDE43CA90736
:1022EB00AA06AB0511035D8F4E8E4D8D4C8C4BE5C5
:1022FB004E2401FFE4354DFEE54C3401FDE4354B36
:10230B00A907AA06AB05110190F55085F04FE4F52E
:10231B0051F5529040006CE0FCA3E0FDA3E0FEA35E
:10232B00E0FFAB4AAA49A948A847C3110326604B53
:10233B00E4FFFE7D02FC9040006CE0F8A3E0F9A303
:10234B00E0FAA3E0FBC311032670089040034FE0B3
:10235B004440F07F007E807D037C009040006CE069
:10236B00F8A3E0F9A3E0FAA3E0FBC311032670087E
:10237B009040034FE04420F07F01229040006CE03E
:10238B00FCA3E0FDA3E0FEA3E0240CFFE43EFEE48F
:10239B003DFDE43CFCAB4EAA4DA94CA84BC311032D
:1023AB0026504BE4FFFE7D02FC9040006CE0F8A34E
:1023BB00E0F9A3E0FAA3E0FBC311032670089040F9
:1023CB00034FE04440F07F007E807D037C00904013
:1023DB00006CE0F8A3E0F9A3E0FAA3E0FBC3110360
:1023EB002670089040034FE04420F07F0122AF4A53
:1023FB00AE49AD48AC4790400365110395C3E54E1C
:10240B00954AFFE54D9549FEE54C9548FDE54B9505
:10241B0047FCEF2401FFE43EFEE43DFDE43CFC9071
:10242B00400369807090400369E0FCA3E0FDA3E0EA
:10243B00FEA3E0FFE47B32FAF9F8C3110326505AEE
:10244B0090400365E0FCA3E0FDA3E0FEA3E0FF11D9
:10245B0070C390400369E0FCA3E0FDA3E0FEA3E0A2
:10246B00C39432FFEE9400FEED9400FDEC9400FC5F
:10247B009040036911039590400365E0FCA3E0FDD8
:10248B00A3E0FEA3E02432FFE43EFEE43DFDE43C8A
:10249B00FC90400365110395808BE4FFFEFDFC016E
:1024AB0025319040036DE0FCA3E0FDA3E0FEA3E02B
:1024BB00FF90400369E0F8A3E0F9A3E0FAA3E0FB87
:1024CB00D3110326406A9040036DE0FCA3E0FDA30B
:1024DB00E0FEA3E0FF90400365E0F8A3E0F9A3E082
:1024EB00FAA3E02FFFEA3EFEE93DFDE83CFCE42FBA
:1024FB00FFE43EFEED3401FDE43CA907AA06AB0563
:10250B0011007E2552F552E43551F5519040036D83
:10251B00E0FCA3E0FDA3E0FEA3E02401FFE43EFE0C
:10252B00E43DFDE43CFC9040036D1103950124ADAB
:10253B00E4FFFE7D02FC9040006CE0F8A3E0F9A301
:10254B00E0FAA3E0FBC3110326701AE55065527045
:10255B0004E54F65519040034F6006E04440F08026
:10256B0004E054BFF07F007E807D037C0090400030
:10257B006CE0F8A3E0F9A3E0FAA3E0FBC311032698
:10258B00701AE55065527004E54F65519040034F4A
:10259B006006E04420F08004E054DFF07F0022C3AB
:1025AB00E52B9405E52A94005003012854AB25AA8A
:1025BB0026A927E92401F9E43AFA11007EFDAB259F
:1025CB00AA26A92711007EFFED9040035ECFF0A352
:1025DB00EFF0C3E52B9405FFE52A9400FE90400332
:1025EB005EE0FCA3E06F7002EE6C6003012854AB5D
:1025FB0025AA26A927E92403F9E43AFA11007EFF5C
:10260B00E4FCFDFE780811034AC004C005C006C0F7
:10261B0007AB25AA26A927E92402F9E43AFA110007
:10262B007EFFE4FCFDFE781011034AD003D002D0EC
:10263B0001D000EF4BFFEE4AFEED49FDEC48FCA844
:10264B0004C005C006C007AB25AA26A927E92404A8
:10265B00F9E43AFA11007EFFD003D002D001EF4B20
:10266B00FFEAFEE9FDE8FC90400360110395904002
:10267B000360A3E0FDA3E0FEA3E0FFED540FFDE438
:10268B00FC90400360110395AB25AA26A927E924EA
:10269B0002F9E43AFA11007E54F090400364F0E042
:1026AB006008E0644060030128549040035EE0FE44
:1026BB00A3E0FF90400360E0F8A3E0F9A3E0FAA3E6
:1026CB00E0FBEF2BFFEE3AFEE439FDE438FCE4FBD4
:1026DB00FA7910F8C31103265003012854904003D4
:1026EB0064E0601B90400360E0FCA3E0FDA3E0FE10
:1026FB00A3E0FFED4440FDEC90400360110395AB6C
:10270B0025AA26A927E92405F9E43A8B25F526897C
:10271B002790400360E0FCA3E0FDA3E0FEA3E0FFF5
:10272B00E4FBFA7902F8D311032640030127C59085
:10273B0040035EE0FEA3E0FF90400360E0F8A3E0FF
:10274B00F9A3E0FAA3E0FBEF2BFFEE3AFEE439FD31
:10275B00E438FCE4FBFA7904F8C3110326405B90E0
:10276B00400360E0FCA3E0FDA3E0FEA3E02400FF38
:10277B00E43EFEED3401FDE43CA907AA06AB05C01F
:10278B0003C002C001AB25AA26A92790400042EB4B
:10279B00F0A3EAF0A3E9F09040035EE0FFA3E09022
:1027AB00400045CFF0A3EFF0D001D002D003115978
:1027BB000BBF01030128540128BD9040035E74FF39
:1027CB00F5F011017A45F070030128BD90400360CC
:1027DB00E0FCA3E0FDA3E0FEA3E0FFE4FBFA79023B
:1027EB00F8D3110326506B90400360E0FCA3E0FD8F
:1027FB00A3E0FEA3E0FFE47904F811032640539015
:10280B00400360E0FCA3E0FDA3E0FEA3E02400FF97
:10281B00E43EFEED3401FDE43CA907AA06AB05C07E
:10282B0003C002C001AB25AA26A92790400042EBAA
:10283B00F0A3EAF0A3E9F0A3E4F0A304F0D001D0F5
:10284B0002D00311590BBF013AE4F528F529752C79
:10285B00302290400360E0FCA3E0FDA3E0FEA3E088
:10286B002400FFE43EFEED3401FDE43CA907AA067B
:10287B00AB05A807AC06AB25AA26A9277E007F01CE
:10288B0011047390400360E0FCA3E0FDA3E0FEA302
:10289B00E02401FFE43EFEE43DFDE43CFC904003FC
:1028AB006011039574012527F527E43526F52601DC
:1028BB0027C5E4F528F529752C7022E52B64014515
:1028CB002A60028030AB25AA26A92711007E547FEF
:1028DB00904002F9F0AB25AA26A92711007E54805F
:1028EB00904002FAF0904002F9E0C394014006E0F8
:1028FB00D394094009E4F528F529752C3022AB2532
:10290B00AA26A92711007EAB21AA22A9231100B068
:10291B00752800752901904002F9E075F040A4FF7D
:10292B00904002FBE5F0F0A3EFF0E4904002F8F0EA
:10293B00904002F9E07E00240BF9EE3403FA7B4160
:10294B0011007EFF904002F8E0C39F4003012BCCA7
:10295B00904002FAE07003012AA8A3E0FEA3E0FF77
:10296B007C007D151100C4740D2FF974403EFA7B69
:10297B000111007EFFAB21AA22A9230529E529AC71
:10298B0028700205281429F9EA3CFAEF1100B090DF
:10299B004002FBE0FEA3E0FF7C001100C4740E2F8D
:1029AB00F974403EFA7B0111007EFFAB21AA22A9EC
:1029BB00230529E529AC28700205281429F9EA3CDE
:1029CB00FAEF1100B0904002FBE0FEA3E0FF7C00A9
:1029DB001100C4740F2FF974403EFA7B0111007E75
:1029EB00FFAB21AA22A9230529E529AC28700205F2
:1029FB00281429F9EA3CFAEF1100B0904002FBE0F1
:102A0B00FEA3E0FF7C001100C474102FF974403E4C
:102A1B00FA7B0111007EFFAB21AA22A9230529E530
:102A2B0029AC28700205281429F9EA3CFAEF1100A9
:102A3B00B0904002FBE0FEA3E0FF7C001100C474E9
:102A4B00112FF974403EFA7B0111007EFFAB21AAD6
:102A5B0022A9230529E529AC28700205281429F998
:102A6B00EA3CFAEF1100B0904002FBE0FEA3E0FF5E
:102A7B007C001100C474122FF974403EFA7B0111D3
:102A8B00007EFFAB21AA22A9230529E529AC2870DA
:102A9B000205281429F9EA3CFAEF1100B090400224
:102AAB00FBE0FEA3E0FF7C007D151100C474132F27
:102ABB00F974403EFA7B01110190E5F0FFAB21AABE
:102ACB0022A9230529E529AC28700205281429F928
:102ADB00EA3CFAEF1100B0904002FBE0FEA3E0FFEE
:102AEB007C001100C474132FF974403EFA7B011162
:102AFB000190FFAB21AA22A9230529E529AC287057
:102B0B000205281429F9EA3CFAEF1100B0904002B3
:102B1B00FBE0FEA3E0FF7C001100C474092FF974E5
:102B2B00403EFA7B0111035D115B4DE47BE87A03B8
:102B3B00F9F8110287904002FD110395904002FDB8
:102B4B00E0FCA3E0FDEC4D600D74FFFFFEFDFC907F
:102B5B004002FD110395904002FDE0FCA3E0FDA3B4
:102B6B00E0FEA3E0FF7808110337AB21AA22A923CB
:102B7B000529E529AC28700205281429F9EA3CFA45
:102B8B00EF1100B0904002FDA3A3A3E0FFAB21AA7D
:102B9B0022A9230529E529AC28700205281429F957
:102BAB00EA3CFAEF1100B0904002FCE004F0700731
:102BBB00904002FBE004F0904002F8E004F00129A1
:102BCB003BE52945287003752C7022E52B640545E0
:102BDB002A6003012EC0AB25AA26A927E92401F9F7
:102BEB00E43AFA11007EFDAB25AA26A92711007E37
:102BFB00FFED90400357CFF0A3EFF090400357E069
:102C0B00FEA3E0D394FBEE941F4003012EC0AB2533
:102C1B00AA26A927E92403F9E43AFA11007EFFE476
:102C2B00FCFDFE780811034AC004C005C006C007AE
:102C3B00AB25AA26A927E92402F9E43AFA11007E6A
:102C4B00FFE4FCFDFE781011034AD003D002D00143
:102C5B00D000EF4BFFEE4AFEED49FDEC48FCA8041B
:102C6B00C005C006C007AB25AA26A927E92404F98D
:102C7B00E43AFA11007EFFD003D002D001EF4BFFF4
:102C8B00EAFEE9FDE8FC90400359110395904003DF
:102C9B0059A3E0FDA3E0FEA3E0FFED540FFDE4FC20
:102CAB0090400359110395AB25AA26A927E92402C5
:102CBB00F9E43AFA11007E54F09040035DF0904035
:102CCB000357E0FEA3E02405F529E43EF528AB21EC
:102CDB00AA22A923A801AC02AD03AB25AA26A927DA
:102CEB007E007F051104739040035DE024F07003B8
:102CFB00012DC224F07003012E4E24E06007244006
:102D0B006003012EC090400357E0FEA3E0FF90400C
:102D1B000359E0F8A3E0F9A3E0FAA3E0FBEF2BFFE4
:102D2B00EE3AFEE439FDE438FCE4FBFA7910F8C323
:102D3B001103265003012EC09040035DE0601B90F1
:102D4B00400359E0FCA3E0FDA3E0FEA3E0FFED444C
:102D5B0040FDEC9040035911039590400357E0FE62
:102D6B00A3E0FFC006C00790400359E0FCA3E0FDC1
:102D7B00A3E0FEA3E02400FFE43EFEED3401FDE4FE
:102D8B003CA907AA06AB05C003C002C001AB21AA30
:102D9B0022A923E92405F9E43AA801FCAD03D001EB
:102DAB00D002D003D007D006110473E52945286063
:102DBB0003012EC8012EBC90400357E0FEA3E0FF99
:102DCB0090400359E0F8A3E0F9A3E0FAA3E0FBEF8E
:102DDB002BFFEE3AFEE439FDE438FCE4FBFA791004
:102DEB00F8C31103265003012EC090400357E0FE99
:102DFB00A3E0FFC006C00790400359E0FCA3E0FD31
:102E0B00A3E0FEA3E02400FFE43EFEED3481FDE4ED
:102E1B003CA907AA06AB05C003C002C001AB21AA9F
:102E2B0022A923E92405F9E43AA801FCAD03D0015A
:102E3B00D002D003D007D006110473E529452870C2
:102E4B007C806E90400357E0FEA3E0FF9040035957
:102E5B00E0F8A3E0F9A3E0FAA3E0FBEF2BFFEE3AD7
:102E6B00FEE439FDE438FCE4FB7A01F9F8C3110305
:102E7B00265002804090400357E0FEA3E0FF9040B5
:102E8B000359A3A3A3E0F97A007B00C003C002C0DF
:102E9B0001AB21AA22A923E92405F9E43AA801FCF4
:102EAB00AD03D001D002D003110473E5294528707E
:102EBB000C752C7022E4F528F529752C3022E55D74
:102ECB00700B9040034FE020E30301319FE513604B
:102EDB003FE4F508E47F01FEFDFCA908A8011103FE
:102EEB004AA905AA06AB07AF13E4FCFDFEEB5FFF97
:102EFB00EF600AE50804FF1152C0E4F511E5080480
:102F0B00FF115EA80508E508C3940840C7E4F51354
:102F1B00E51C6003E4F511E51E6003E4F511E51112
:102F2B0064026003E4F50BE51114602C1460781453
:102F3B007003013096147003013185240460030182
:102F4B00319FE4F51C750909F50AF51AF518E51E0C
:102F5B00600301319F01319CAF09EF75F040A485EF
:102F6B00F00CF50DAF09EF75F040A485F00EF50FE1
:102F7B00E509B40903013162E47F01FEFDFCC3E501
:102F8B00099401F9F811034AA905AA06AB07AF1278
:102F9B00E4FCFDFEEB5FFFEF6033AF09115756AF5B
:102FAB0009115EA8013181E4F51AF518E509C394FE
:102FBB0009501DE47F01FEFDFCC3E5099401F9F8FE
:102FCB0011034AAB07AF12EB5FFFEF70030130E366
:102FDB00AF097E00740B2FF9EE3403FA7B4111001D
:102FEB007EFD7C00AF09EF75F040A42DFFEC35F0B2
:102FFB00FEC3E50D9FE50C9E4003013092AE0CAF76
:10300B000D7C007D151100C474082FF974403EFA35
:10301B007B0111007E6023AE0CAF0D1100C4740850
:10302B002FF974403EFA11007EC39401FFE50AA804
:10303B0007088002C333D8FC600A050DE50D7090BC
:10304B00050C808CE47F01FEFDFCC3E5099401F9BE
:10305B00F811034AA905AA06AB07AF1BE4FCFDEB6D
:10306B005FFFEF6003751801AF0DAE0C115CB2057D
:10307B000DE50D7002050C050BE518700AE50BC389
:10308B009515500301319F75110322E509C394096E
:10309B00501CE47F01FEFDFCC3E5099401F9F81116
:1030AB00034AAB07AF12EB5FFFEF7002802AAF0949
:1030BB007E00740B2FF9EE3403FA7B4111007EFD79
:1030CB007C00AF09EF75F040A42DFFEC35F0FEC38B
:1030DB00E50F9FE50E9E400475110422AE0EAF0F57
:1030EB007C007D151100C474082FF974403EFA7BE7
:1030FB000111007E6023AE0EAF0F1100C474082FB8
:10310B00F974403EFA11007EC39401FFE50AA8074B
:10311B00088002C333D8FC600A050FE50F708F05DA
:10312B000E808BAE0EAF0F7C007D151100C47409A1
:10313B002FF974403EFA7B0111035D115B4DE47B6B
:10314B00EE7A02F9F8D31103265049E51A600AE525
:10315B000D150D7002150C801DAF0FAE0E1118CE94
:10316B00050FE50F7002050EE4F518C3E50F950D7D
:10317B00E50E950C401E75110222E5090475F00A47
:10318B008485F009E50970020509E509B409020512
:10319B000A75110122E0FF1131B59040008BE0FF61
:1031AB001131B59040008BE0FF0DEF640960030116
:1031BB003272ED6059C2AFC2B5D2B5D2AFE4904016
:1031CB0002A8F0000000000000000000000000005A
:1031DB0000000000000000000000000000000000E4
:1031EB0000000000000000000000000000000000D4
:1031FB0000000000000000000000000000000000C4
:10320B00904002A8E004F0E0B403B80133E9C2AF88
:10321B00C2B5E4904002A9F00000000000000000DD
:10322B000000000000000000000000000000000093
:10323B000000000000000000000000000000000083
:10324B000000000000000000000000000000000073
:10325B000000000000904002A9E004F0E0B403B8C5
:10326B00D2B5D2AF0133E9C3EF9401FF7401A807C4
:10327B00088002C333D8FC904002ABF0E0F4A3F01B
:10328B00ED7003013383C2AFE09007F010F0A3742D
:10329B0001F0000000000000000000000000000032
:1032AB000000E4F00000000000000000000000003F
:1032BB000000000000000000000000000000000003
:1032CB0000000000000000000000000000000000F3
:1032DB0000000000000000000000000000000000E3
:1032EB0000000000000000000000000000000000D3
:1032FB0000000000000000000000000000000000C3
:10330B0000000000000000000000000000000000B2
:10331B0000000000000000000000000000000000A2
:10332B000000000000000000000000000000000092
:10333B000000000000000000000000000000000082
:10334B000000000000000000000000000000000072
:10335B000000000000000000000000000000000062
:10336B000000000000000000000000000000000052
:10337B0000000000D2AF8066C2AF904002ACE0907C
:10338B0007F010F0A37401F0E4904002AAF00000E3
:10339B000000000000000000000000000000000022
:1033AB000000000000000000000000000000000012
:1033BB000000000000000000000000000000000002
:1033CB000000000000000000000000904002AAE096
:1033DB0004F0E0B403B8E49007F011F0D2AF0000B2
:1033EB0000000000000000000000000000000000D2
:1033FB0000000000000000000000000000000000C2
:10340B0000000000000000000000000000000000B1
:10341B0000000000000000000000000000000000A1
:10342B000000000000000000000022F0E0FF9040D0
:10343B000052E4F0A3F0A3F0FBFAF99040004FEB3D
:10344B00F0A3EAF0A3E9F0EF640960030134FAC2D8
:10345B00B59040029CF0000000000000000000004E
:10346B000000000000000000000000000000000051
:10347B000000000000000000000000000000000041
:10348B000000000000000000000000000000000031
:10349B000000009040029CE004F0E0B419B8D2B5F3
:1034AB00E49040029DF000000000000000000000CE
:1034BB000000000000000000000000000000000001
:1034CB0000000000000000000000000000000000F1
:1034DB0000000000000000000000000000000000E1
:1034EB000000009040029DE004F0E0B419B822C344
:1034FB00EF9401FF7401A807088002C333D8FC9036
:10350B004002A0F0E0F4A3F0C2AFE09007F010F09F
:10351B00A37401F000000000000000000000000098
:10352B000000000000000000000000000000000090
:10353B000000000000000000000000000000000080
:10354B000000000000000000000000009007F010D9
:10355B00E0904002A2F0D2AF9040004FE0FBA3E01E
:10356B00FAA3E0F9EA494B600A904002A2E0FFEFB0
:10357B001100B0E49040029EF0000000000000003B
:10358B000000000000000000000000000000000030
:10359B000000000000000000000000000000000020
:1035AB000000000000000000000000000000000010
:1035BB000000000000009040029EE004F0E0B4190F
:1035CB00B8C2AFE49007F011F0000000000000005B
:1035DB0000000000000000000000000000000000E0
:1035EB0000000000000000000000000000000000D0
:1035FB0000000000000000000000000000000000C0
:10360B00009007F010E0904002A2F0D2AF90400083
:10361B0052E0FBA3E0FAA3E0F9EA494B600A9040C1
:10362B0002A2E0FFEF1100B0E49040029FF0000017
:10363B00000000000000000000000000000000007F
:10364B00000000000000000000000000000000006F
:10365B00000000000000000000000000000000005F
:10366B0000000000000000000000009040029FE0FE
:10367B0004F0E0B419B8229040008FEFF0ED600831
:10368B00E4904002BCF0A3F0904002BCE0B4010314
:10369B007F0122904002C17401F0E4A3F09040023C
:1036AB00C4F0904002C304F0E4F55C9040008FE05E
:1036BB00FF1134399040008FE0FF7DF011752A9097
:1036CB004002C4E0C3940840030137FF1143D49078
:1036DB004002BFEFF01143D4904002C0EFF0904096
:1036EB0002BFE0B4010EA3E0B40109904002BC7428
:1036FB0001F0FF22904002C0E0FF904002BFE06F5C
:10370B006008E0904002BEF08058904002BDE0FFA0
:10371B00904002C1E0C39F501E904002C4E07E0067
:10372B0024C5F9EE3402FA7B4111007EFF90400272
:10373B00C3E05F6019800E904002BDE0FF90400235
:10374B00C1E0B50709904002BE7401F08006E49019
:10375B004002BEF0904002BEE07007904002C1E014
:10376B00A3F0904002BEE0904002C46018E07E00DF
:10377B0024C5F9EE3402FA7B4111007EFF90400222
:10378B00C3E04F8017E07E0024C5F9EE3402FA7BCC
:10379B004111007EFF904002C3E0F45F1100B09036
:1037AB0040008FE0FF904002BEE0FD1131B590402C
:1037BB0002C1E004F0904002C3E025E0F0E06003BA
:1037CB000136CAA3E07E0024C5F9EE3402FA7B4130
:1037DB0011007E655C249CF9EE3401FA7B411100EB
:1037EB007EF55C904002C4E004F0904002C374018B
:1037FB00F00136CAE55C7007904002C5E070037FAC
:10380B0001229040008FE07E00240BF9EE3403FA86
:10381B007B4111007EFD7C009040008FE075F040F5
:10382B00A42DFEEC35F0904002CFF0A3CEF09040EB
:10383B0002CD7409F07B417A0279C5C003C00190B7
:10384B004002CFE0FEA3E0FF7D151100C474002FF2
:10385B00F974403EA801FC7D01D001D0037E007FAE
:10386B00091104739040008FE0FF7E00240BF9EEEA
:10387B003403FA7B417401110094904002C2E09032
:10388B004002BDF0E06010740B2FF9EE3403FA1117
:10389B00007EC394404007904002BC7401F07F004F
:1038AB002290400082EDF090400081EFF0AF1F308E
:1038BB00E10CEF75F01CA424C0F97400800AEF75BD
:1038CB00F01CA424BDF9740035F0FA7B411103A15F
:1038DB0090400092EBF0A3EAF0A3E9F09040008156
:1038EB00E0AF1F30E20CEF75F01CA424B2F97400AA
:1038FB00800AEF75F01CA424AFF9740035F0FA7B45
:10390B00411103A190400095EBF0A3EAF0A3E9F07D
:10391B00E51F5403240AFDE4FBFF1154A4E51F54D7
:10392B0003240AFD7F011154A490400081E054044C
:10393B00FFE51F04FD7B801154A490400095E0FB34
:10394B00A3E0FAA3E02406F9E43AFA74F61100B006
:10395B0090400081E0FF90400092E0FBA3E0FAA3CF
:10396B00E02402F9E43AFAEF1100B0E51FC3940426
:10397B00AF205002AF2490400092E0FBA3E0FAA3EB
:10398B00E02403F9E43AFAEF1100B0E51F5403FF0A
:10399B0090400092E0FBA3E0FAA3E02404F9E43AA0
:1039AB00FAEF1100B090400092E0FBA3E0FAA3E025
:1039BB002405F9E43AFAE41100B090400082E0707B
:1039CB0003013A7EC454F0440CFF90400092E0FB9C
:1039DB00A3E0FAA3E02406F9E43AFAEF1100B09061
:1039EB00400092E0FBA3E0FAA3E02407F9E43AFAE3
:1039FB00C003C002C001AF1FEF75F01CA424C6F9B1
:103A0B00740035F0FA7B411103A19040004AEBF0B2
:103A1B00A3EAF0A3E9F090400082E09040004DF063
:103A2B00D001D002D003116F17AF1FEF75F01CA49C
:103A3B0024C9F9740035F0FA7B41110190FF9040D5
:103A4B000082E0FDC3EF9DFFE5F094008FF01101C4
:103A5B00E090400082E0FDAF1FEF75F01CA424C680
:103A6B00F9740035F0FA09E970010AE48DF01101DF
:103A7B00B4801690400092E0FBA3E0FAA3E024068A
:103A8B00F9E43AFA740C1100B090400081E0540252
:103A9B00FFE51F5403240AFD7BC50154A49040008D
:103AAB0061EBF0A3EAF0A3E9F011007E9040037103
:103ABB00F090400061E0FBA3E0FAA3E02401F9E4FD
:103ACB003AFA11007E90400372F090400061E0FBE7
:103ADB00A3E0FAA3E02402F9E43AFA11007EFF54C2
:103AEB001F90400373F0EF548090400376F09040AA
:103AFB000061E0FBA3E0FAA3E02403F9E43AFA1136
:103B0B00007E90400374F090400376E0600E90408E
:103B1B000372E07F0030E1027F0180027F00904062
:103B2B000377EFF0E0600553A17F80035390FD9086
:103B3B00400371E07B087AF079041100B0904003E8
:103B4B0072E0091100B090400374E0FF14F0EF60D5
:103B5B00030080F27B087AF0790511007E90400318
:103B6B0075F090400373E0FF116D2B90400378EEDE
:103B7B00F0A3EFF090400377E0600543A180800352
:103B8B0043900290400061E0FBA3E0FAA3E0F9113F
:103B9B00007EFF90400064E0FBA3E0FAA3E0F9EFA6
:103BAB001100B090400061E0FBA3E0FAA3E0240118
:103BBB00F9E43AFA11007EFF90400064E0FBA3E0C9
:103BCB00FAA3E02401F9E43AFAEF1100B0904000B7
:103BDB0061E0FBA3E0FAA3E02402F9E43AFA110056
:103BEB007EFF90400064E0FBA3E0FAA3E02402F91F
:103BFB00E43AFAEF1100B090400061E0FBA3E0FA69
:103C0B00A3E02403F9E43AFA11007EFF904000642C
:103C1B00E0FBA3E0FAA3E02403F9E43AFAEF110086
:103C2B00B090400378E0FEA3E0EEFF90400064E02C
:103C3B00FBA3E0FAA3E02404F9E43AFAEF1100B095
:103C4B0090400378E0A3E0FF90400064E0FBA3E02A
:103C5B00FAA3E02405F9E43AFAEF1100B09040031F
:103C6B0077E0600E90400375E07F0030E1027F014A
:103C7B00800C90400375E07F0030E0027F019040A4
:103C8B000064E0FBA3E0FAA3E02406F9E43AFAEFC0
:103C9B001100B0229040008DEFF0E075F040A4FFD2
:103CAB00904002B9E5F0F0A3EFF09040008DE07E7C
:103CBB0000240BF9EE3403FA7B41E41100B0904081
:103CCB0002BBF0904002B9E0FEA3E0FF7C007D1543
:103CDB001100C474002FF974403EFA7B01E411000B
:103CEB00B0904002B9E0FEA3E0FF1100C474012FB5
:103CFB00F974403EFAE41100B0904002B9E0FEA323
:103D0B00E0FF1100C474022FF974403EFAE4110075
:103D1B00B0904002B9E0FEA3E0FF1100C474032F82
:103D2B00F974403EFAE41100B0904002B9E0FEA3F2
:103D3B00E0FF1100C474042FF974403EFAE4110043
:103D4B00B0904002B9E0FEA3E0FF1100C474052F50
:103D5B00F974403EFAE41100B0904002B9E0FEA3C2
:103D6B00E0FF1100C474062FF974403EFAE4110011
:103D7B00B0904002B9E0FEA3E0FF1100C474072F1E
:103D8B00F974403EFAE41100B0904002B9E0FEA392
:103D9B00E0FF1100C474082FF974403EFAE41100DF
:103DAB00B0FFFEFDC005C006C007904002B9E0FEA3
:103DBB00A3E0FF7D151100C474092FF974403EFA7E
:103DCB00D007D006D00511037A904002B9E0FEA3CC
:103DDB00E0FF7C007D151100C4740D2FF974403E7B
:103DEB00FAE41100B0904002B9E0FEA3E0FF11002D
:103DFB00C4740E2FF974403EFAE41100B0904002E7
:103E0B00B9E0FEA3E0FF1100C474102FF974403E1B
:103E1B00FAE41100B0904002B9E0FEA3E0FF1100FC
:103E2B00C474112FF974403EFAE41100B0904002B3
:103E3B00B9E0FEA3E0FF1100C474122FF974403EE9
:103E4B00FA74801100B0904002B9E0FEA3E0FF11BC
:103E5B0000C474132FF974403EFA748075F000118E
:103E6B0001E0904002BAE004F07007904002B9E024
:103E7B0004F0904002BBE004F0E064406003013CBE
:103E8B00CE22E4F55DE55D9040034E70057406F0BF
:103E9B0080037407F074322406F9E43409FA7B8149
:103EAB00C003C002C001784C7C037D41D001D0021D
:103EBB00D0037E007F021104739040034DE0C39446
:103ECB003090400347F0784C7C037D417B817A092D
:103EDB0079327E007F021104739040034CE0C3944F
:103EEB003075F00AA4FFA3E0C394302F9040034831
:103EFB00F074322403F9E43409FA7B81C003C00265
:103F0B00C001784C7C037D41D001D002D0037E00F0
:103F1B007F021104739040034CE0C3943075F00A98
:103F2B00A4FFA3E0C394302F90400349F0784C7C5E
:103F3B00037D417B817A09793B7E007F02110473FB
:103F4B009040034CE0C3943075F00AA4FFA3E0C388
:103F5B0094302F9040034AF0743B2403F9E4340966
:103F6B00FA7B81C003C002C001784C7C037D41D039
:103F7B0001D002D0037E007F021104739040034CEA
:103F8B00E0C3943075F00AA4FFA3E0C394302F90E4
:103F9B0040034BF07B017A00790111007E904003C6
:103FAB004FF0E41100B09040035274FFF0904003C7
:103FBB0047E0C454F0FFA3E04F90400353F0904010
:103FCB000349E090400354F09040034AE0904003D3
:103FDB0055F09040034BE090400356F030DE1275E5
:103FEB00C7AA75C755C2DEE49040034FF019110004
:103FFB00B0E4FFFE7D02FC11227F7F007E807D03FB
:10400B007C0011227FE55D70439040034FE0540725
:10401B00701D7B087AF0791411007E20E0489040E7
:10402B00034FE020E640E07B017A00790180157BAD
:10403B00017A00790011007E702C9040034FE02034
:10404B00E624E0091100B01170F2801A1179A490E6
:10405B0040034FE054077006E04410F08008904096
:10406B00034FE054EFF001768390400089EDF0EFC1
:10407B00600301415CE014B40F00400301422B903C
:10408B0000409975F003A4C58325F0C583730140E7
:10409B00C60140D00140DA0140E40140EE0140F896
:1040AB0001410201410C01411601412001412A014C
:1040BB00413401413E01414801415290400091E59C
:1040CB00ABF001422B90400091E5ACF001422B90FC
:1040DB00400091E5ADF001422B90400091E5AEF030
:1040EB0001422B90400091E5AFF001422B90400034
:1040FB0091E5B3F001422B90400091E5B4F0014201
:10410B002B90400091E5B5F001422B90400091E5DA
:10411B00B6F001422B90400091E5B7F001422B9095
:10412B00400091E5BBF001422B90400091E5BCF0C3
:10413B0001422B90400091E5BDF001422B904000D5
:10414B0091E5BEF001422B90400091E5BFF001429A
:10415B002B90400089E014B40F00400301422B90D8
:10416B0000417975F003A4C58325F0C58373014124
:10417B00A60141AF0141B80141C10141CA0141D37F
:10418B000141DC0141E50141EE0141F70142000132
:10419B00420901421201421B01422490400091E569
:1041AB00EBF0807C90400091E5ECF0807390400048
:1041BB0091E5EDF0806A90400091E5EEF080619022
:1041CB00400091E5EFF0805890400091E5F3F080CE
:1041DB004F90400091E5F4F0804690400091E5F55A
:1041EB00F0803D90400091E5F6F0803490400091D6
:1041FB00E5F7F0802B90400091E5FBF0802290409A
:10420B000091E5FCF0801990400091E5FDF08010E5
:10421B0090400091E5FEF0800790400091E5FFF0A3
:10422B0090400091E0FF22E52B6403452A600301D7
:10423B0042CAAB25AA26A927E92401F9E43AFA11C7
:10424B00007EFFE4FCFDFE780811034AC004C005A4
:10425B00C006C007AB25AA26A92711007EFFE4FCE8
:10426B00FDFE781011034AD003D002D001D000EF2D
:10427B004BFFEE4AFEED49FDEC48FCA804C005C01F
:10428B0006C007AB25AA26A927E92402F9E43AFAC6
:10429B0011007EFFD003D002D001EF4BFFEAFEE905
:1042AB00FDE8FC904003A3110395904003A3E0FCB1
:1042BB00A3E0FDA3E0FEA3E0FF11227FBF0109E411
:1042CB00F528F529752C302275280075290AAF4A77
:1042DB00AE49AD48AC477810110337AB21AA22A9E0
:1042EB0023EF1100B0AF4AAE49AD48AC4778081187
:1042FB000337AB21AA22A923E92401F9E43AFAEF07
:10430B001100B0AF4AAE49AD48AC47AB21AA22A9C8
:10431B0023E92402F9E43AFAEF1100B0AF4EAE4DA7
:10432B00AD4CAC4B7810110337AB21AA22A923E972
:10433B002403F9E43AFAEF1100B0AF4EAE4DAD4C99
:10434B00AC4B7808110337AB21AA22A923E924042B
:10435B00F9E43AFAEF1100B0AF4EAE4DAD4CAC4BA9
:10436B00AB21AA22A923E92405F9E43AFAEF1100BB
:10437B00B0E54FFFAB21AA22A923E92406F9E43AC1
:10438B00FAEF1100B0AF50AB21AA22A923E9240701
:10439B00F9E43AFAEF1100B0E551FFAB21AA22A9DB
:1043AB0023E92408F9E43AFAEF1100B0AF52AB213C
:1043BB00AA22A923E92409F9E43AFAEF1100B0E59E
:1043CB002945287003752C70229040008FE0FFEF79
:1043DB006409600301448BC2AFC2B500000000004A
:1043EB000000000000000000000000D2B50000003B
:1043FB0000000000000000000000000000000000B2
:10440B0000000000000000000000000000000000A1
:10441B000000000000000000000000000000000091
:10442B000000000000A2B533904002A7F0D2AFE429
:10443B00904002A3F000000000000000000000000C
:10444B000000000000000000000000000000000061
:10445B000000000000000000000000000000000051
:10446B000000000000000000000000000000000041
:10447B000000904002A3E004F0E0B403B8014563F0
:10448B00C3EF9401FF7401A807088002C333D8FC63
:10449B00904002A5F0E0F4A3F0C2AFE09007F0105B
:1044AB00F0A37401F0000000000000000000000009
:1044BB000000000000E4F00000000000000000001D
:1044CB0000000000000000000000000000000000E1
:1044DB0000000000000000000000000000000000D1
:1044EB000000000000000000000000000000009031
:1044FB0007F010E0904002A7F0D2AFE0FF9040022F
:10450B00A5E0FEEF5E904002A7F0E4904002A4F01D
:10451B000000000000000000000000000000000090
:10452B000000000000000000000000000000000080
:10453B000000000000000000000000000000000070
:10454B00000000000000000000000000009040028E
:10455B00A4E004F0E0B403B8904002A7E07F006051
:10456B00027F012211457B11457B11457B11457B58
:10457B000000000000000000000000000000000030
:10458B000000000000000000000000000000000020
:10459B000000000000000000000000000000000010
:1045AB000000000000000000000000000000000000
:1045BB0000000000000000000000000000000000F0
:1045CB0000000000000000000000000000000000E0
:1045DB0000000000000000000000000000000000D0
:1045EB0000000000000000000000000000000000C0
:1045FB0000000000000000000000000000000000B0
:10460B00000000000000000000000000000000009F
:10461B00000000000000000000000000000000008F
:10462B00000000000000000000000000000000007F
:10463B00000000000000000000000000000000006F
:10464B00000000000000000000000000000000005F
:10465B00000000000000000000000000000000004F
:10466B00000000000000000000000000000000003F
:10467B00000000000000000000000000000000002F
:10468B00000000000000000000000000000000001F
:10469B00000000000000000000000000000000000F
:1046AB0000000000000000000000000000000000FF
:1046BB0000000000000000000000000000000000EF
:1046CB0000000000000000000000000000000000DF
:1046DB0000000000000000000000000000000000CF
:1046EB0000000000000000000000000000000000BF
:1046FB000000000000000000000000000022E55D4B
:10470B006401700301489A9040031DE01460741417
:10471B0070030147D68000E490400315F0904003EE
:10472B0015E07E00241EF9EE3403FA7B4111007E66
:10473B00B4014490400315E0FFE4FCFDFB7A40F923
:10474B00F81101FCE42FFFE43EFEED3402FDE43CE6
:10475B00FCE42FFFE43EFEED3401FDE43CA907AA87
:10476B0006AB0590400316EDF0A3EAF0A3E9F09039
:10477B0040031D7401F02290400315E004F0E0B4F7
:10478B00089B22C2AFD2B39002055574AAF09002D7
:10479B0002AA7455F0900205557480F074AAF0903B
:1047AB000202AA7455F090400316E0FBA3E0FAA3B3
:1047BB00E0F974301100B0D2AF11754F904003196E
:1047CB001103959040031D7402F02290400316E0F4
:1047DB00FBA3E0FAA3E0F911007E30E719C2B39016
:1047EB00400315E07E00241EF9EE3403FA7B41E40E
:1047FB001100B001488E90400316E0FBA3E0FAA332
:10480B00E0F911007E30E54490400316E0FBA3E095
:10481B00FAA3E0F911007E30E718C2B390400315FC
:10482B00E07E00241EF9EE3403FA7B41E41100B064
:10483B008018C2B390400315E07E00241EF9EE34BD
:10484B0003FA7B4174021100B0E4803790400319E6
:10485B00E0FCA3E0FDA3E0FEA3E0FF115B4DE47BD6
:10486B00987A3AF9F8C31103265024C2B390400347
:10487B0015E07E00241EF9EE3403FA7B417402111D
:10488B0000B0E49040031DF09002088874F0F02211
:10489B00C3E52B9401FFE52A9400FE7C007D0911F2
:1048AB0000D6904002F1EFF0C3E52B9401E52A947A
:1048BB00004037E52B9401FFE52A9400FE7C007D38
:1048CB00091100D6ED4C7022E0D394404002801ABF
:1048DB00AB25AA26A92711007E904002F0F0E0C379
:1048EB0094014006E0D394094009E4F528F52975B5
:1048FB002C3022904002F0E0C39401FF7401A80712
:10490B00088002C333D8FC4213751C01E47F01FEFF
:10491B00FDFC904002F0E0C39401F9F811034A1139
:10492B000319EF521E751D01A3E0FF904002F0E04A
:10493B007C00240BF9EC3403FA7B41EF1100B090AF
:10494B004002F0E075F040A4FF904002F2E5F0F079
:10495B00A3EFF0E4904002EFF0904002F1E0FF9003
:10496B004002EFE0C39F4003014A0EAB25AA26A9E4
:10497B0027E92401F9E43AFAE075F009A429F9EAE8
:10498B0035F0FAC003C001904002F2E0FEA3E0FF55
:10499B007C007D151100C474002FF974403EA801F2
:1049AB00FC7D01D001D0037E007F09110473904080
:1049BB0002F2E0FEA3E0FF7C007D151100C4740839
:1049CB002FF974403EFA7B0111007ED394094019F4
:1049DB00904002F2E0FEA3E0FF1100C474082FF92F
:1049EB0074403EFA74091100B0904002F3E004F0F9
:1049FB007007904002F2E004F0904002EFE004F008
:104A0B00014964E4F528F529752C70229040005576
:104A1B00EBF0A3EAF0A3E9F090400055E0FBA3E034
:104A2B00FAA3E0F911007EFD540FFF74017E00A87C
:104A3B0007088005C333CE33CED8F9F5588E57ED22
:104A4B00C45407FF7401A807088002C333D8FCF5D0
:104A5B005911792AEF60037F01221173D690400020
:104A6B0055E0FBA3E0FAA3E024011174CB904000C6
:104A7B0055E0FBA3E0FAA3E024021174CB904000B5
:104A8B0055E0FBA3E0FAA3E024031174CB904000A4
:104A9B0055E0FBA3E0FAA3E02404F9E43AFA110091
:104AAB007EFF11746D11741190400058E0FBA3E070
:104ABB00FAA3E0F911740D90400058E0FBA3E0FA63
:104ACB00A3E0240111740990400058E0FBA3E0FA25
:104ADB00A3E0240211740990400058E0FBA3E0FA14
:104AEB00A3E02403F9E43AFAEF1100B0E49007F0E5
:104AFB0003F090400055E0FBA3E0FAA3E02401F99A
:104B0B00E43AFA11007E547FFF90400058E0FBA37B
:104B1B00E0FAA3E0F911007E6F601490400055E0BD
:104B2B00FBA3E0FAA3E0F911007E44801100B090E2
:104B3B00400055E0FBA3E0FAA3E02402F9E43AFAC3
:104B4B0011007EFF90400058E0FBA3E0FAA3E024A5
:104B5B0001F9E43AFA11007E6F601490400055E0C1
:104B6B00FBA3E0FAA3E0F911007E44801100B07FB3
:104B7B000022E52B6401452A7073AB25AA26A927D1
:104B8B0011007E9040038DF0E0FF7B417A0379901A
:104B9B00116231BF0103014CCE75280075290390BA
:104BAB0040038DE0AB21AA22A9231100B090400352
:104BBB0090E0FEA3E0EEFFAB21AA22A923E924019A
:104BCB00F9E43AFAEF1100B090400390E0A3E0FF54
:104BDB00AB21AA22A923E92402F9E43AFAEF110046
:104BEB00B0E52945286003014CD6014CCAE52B647E
:104BFB0003452A6003014CCEAB25AA26A927110039
:104C0B007E9040038DF0AB25AA26A927E92401F954
:104C1B00E43AFA11007EFEAB25AA26A927E9240265
:104C2B00F9E43AFA11007E7C002400FFEC3E904040
:104C3B00038EF0A3EFF07528007529019040038DCA
:104C4B00E0AB21AA22A9231100B09040038E74FF80
:104C5B00F5F011017A45F060609040038DE0FF7B29
:104C6B00417A037990116231BF0102805690400363
:104C7B0090E0FEA3E0EEFFAB21AA22A923AC28AD66
:104C8B0029E92DF9EA3CFAEF1100B090400390E0CE
:104C9B00A3E0FFAB21AA22A923E5292401FDE435DA
:104CAB0028FCE92DF9EA3CFAEF1100B07402252932
:104CBB00F529E43528F5288091E5294528700C75F0
:104CCB002C7022E4F528F529752C3022AE2AAF2B57
:104CDB007C007D051100D690400384EFF0AE2AAF27
:104CEB002B7C007D051100D6ED4C700CE0C39401BC
:104CFB004006E0D3940A40028076E4F528F529AB10
:104D0B0025AA26A9279040005BEBF0A3EAF0A3E9C4
:104D1B00F090400384E075F005A4AB21AA22A923EF
:104D2B0029F9EA35F0FA9040005EEBF0A3EAF0A324
:104D3B00E9F0E490400383F090400384E0FF90405F
:104D4B000383E0C39F50639040005EE0F9A3E0FA59
:104D5B00A3E090400058C9F0A3EAF0A3E9F090401B
:104D6B00005BE0FBA3E0FAA3E0F9114A17BF0109CE
:104D7B00E4F528F529752C30229040005BE0FBA36D
:104D8B00E0FAA3E02405F9E43AFA9040005BEBF07B
:104D9B00A3EAF0A3E9F09040005FE475F004110181
:104DAB006490400383E004F0808EAB21AA22A923F8
:104DBB00AE029040005EA3E0FAA3E0AC02C399F50B
:104DCB0029EC9EF528AB25AA26A9279040005BEB82
:104DDB00F0A3EAF0A3E9F0AB21AA22A923A3EBF0FD
:104DEB00A3EAF0A3E9F090400384E075F005A4FF7B
:104DFB00AEF09040005EE0FBA3E0FAA3E0F8AC025B
:104E0B00AD039040005BE0FBA3E0FAA3E0F91104D3
:104E1B0073E52945287003752C702290400070EBC8
:104E2B00F0A3EAF0A3E9F0A3EDF0E075F002A4FF24
:104E3B009040039AE0FCA3E02FFFE5F03CFED3EF9C
:104E4B009440EE941F4003014F66E490400396F0AC
:104E5B0090400073E0FF90400396E0C39F40030136
:104E6B004F6690400070E0FBA3E0FAA3E0F990409E
:104E7B000396E0FF7E00E92FF9EE3AFAC003C00279
:104E8B00C00178977C037D41D001D002D0037F0114
:104E9B0011047390400397E0C4540FA3F0904003A8
:104EAB0097E0540F90400399F090400398E0C3941F
:104EBB000A5006E02430F0800890400398E0243735
:104ECB00F090400399E0C3940A5006E02430F08040
:104EDB000890400399E02437F090400398E0FFC01E
:104EEB00079040039AE0FEA3E0FFE42FFFEE34208F
:104EFB00FEE433FDE433FCE42FFFE43EFEED34012E
:104F0B00FDE43CA907AA06AB05D0E01100B0904028
:104F1B000399E0FFC007A3E0FEA3E0FFE42FFFEE41
:104F2B003420FEE433FDE433FCEF2401FFE43EFECA
:104F3B00ED3401FDE43CA907AA06AB05D0E0110056
:104F4B00B09040039BE02402F09040039AE03400C1
:104F5B00F090400396E004F0014E5B229040008AF3
:104F6B00EFF0541FB41A00505690004F7CF82828CD
:104F7B0073014FD3014FDC014FE5014FEE014FF7AA
:104F8B00015000015009015012014FCA014FCA01D3
:104F9B004FCA014FCA01501B014FCA015024015087
:104FAB002D01503601503F01504801505101505ACC
:104FBB0001506301506C01507501507E015087E424
:104FCB00F528F529752C30229040008AE0FF0179F5
:104FDB00FE9040008AE0FF0179CC9040008AE0FF10
:104FEB00017A0E9040008AE0FF017A199040008A06
:104FFB00E0FF017A249040008AE0FF017945904060
:10500B00008AE0FF017A2F9040008AE0FF0179DDF2
:10501B009040008AE0FF01785F9040008AE0FF013A
:10502B0076C39040008AE0FF0176E39040008AE06F
:10503B00FF0177039040008AE0FF01780290400067
:10504B008AE0FF0177439040008AE0FF01772390CD
:10505B0040008AE0FF0177C39040008AE0FF0177B0
:10506B00639040008AE0FF0177839040008AE0FF65
:10507B000177A39040008AE0FF0178219040008ADD
:10508B00E0FF117840229040008BEFF0FBE47F01B2
:10509B00FEFDFCC3EB9401F9F811034AA804A90522
:1050AB00AA06AB07AF1BE4FCFDFEEB5FFFEF700343
:1050BB0001519F1131A09040008BE0FF1D1131B5C4
:1050CB009040008B1131A09040008BE0C39401FF06
:1050DB007401A807088002C333D8FC904002AEF0DD
:1050EB00E0F4A3F0C2AFE09007F010F0A37401F06E
:1050FB00E4904002ADF00000000000000000000052
:10510B000000000000000000000000000000000094
:10511B000000000000000000000000000000000084
:10512B000000000000000000000000000000000074
:10513B00000000904002ADE004F0E0B403B890072B
:10514B00F01074FFF0D2AF00000000000000000070
:10515B000000000000000000000000000000000044
:10516B000000000000000000000000000000000034
:10517B000000000000000000000000000000000024
:10518B000000000000000000000000000000000014
:10519B00000000229040008BE0FF7D4411752A2215
:1051AB00E52B452A6009E4F528F529752C3022906A
:1051BB004002EA7401F0904002EAE0FF115756906A
:1051CB004002EAE004F0E0D3940940EA7528007548
:1051DB002908AB21AA22A923E5121100B0AB21AA01
:1051EB0022A923E92401F9E43AFAE5151100B0905C
:1051FB00400303E0C454F0FF90400302E0C4333398
:10520B0054C04FFF90400304E025E025E04FFFA37F
:10521B00E04FFFAB21AA22A923E92402F9E43AFAD1
:10522B00EF1100B090400307E0C454F0FF9040032F
:10523B0006E0C4333354C04FFF90400308E025E031
:10524B0025E04FFFA3E04FFFAB21AA22A923E924BE
:10525B0003F9E43AFAEF1100B09040030AE0C433CB
:10526B003354C0FFAB21AA22A923E92404F9E43A61
:10527B00FAEF1100B0AB21AA22A923E92405F9E426
:10528B003AFAE5161100B0AB21AA22A923E92406AC
:10529B00F9E43AFAE5101100B0AB21AA22A923E9EF
:1052AB002407F9E43AFAE51B1100B0E5294528700B
:1052BB0003752C7022EF75F040A4FF904002B6E509
:1052CB00F0F0A3EFF0E4904002B8F0E4FFFEFDFC39
:1052DB00C005C006C007904002B6E0FEA3E0FF7D0C
:1052EB00151100C474092FF974403EFA7B01D007E5
:1052FB00D006D00511037A904002B6E0FEA3E0FF82
:10530B007C007D151100C4740D2FF974403EFAE436
:10531B001100B0904002B6E0FEA3E0FF1100C47490
:10532B000E2FF974403EFAE41100B0904002B6E043
:10533B00FEA3E0FF1100C474102FF974403EFAE491
:10534B001100B0904002B6E0FEA3E0FF1100C47460
:10535B00112FF974403EFAE41100B0904002B6E010
:10536B00FEA3E0FF1100C474122FF974403EFA74CF
:10537B00801100B0904002B6E0FEA3E0FF1100C424
:10538B0074132FF974403EFA748075F0001101E02C
:10539B00904002B7E004F07007904002B6E004F0D2
:1053AB00904002B8E004F0E0644060030152D62262
:1053BB00E52B6401452A600301549BAB25AA26A962
:1053CB002711007E904003AFF0E0705CAB21AA2266
:1053DB00A9231100B0904003A7E0FFAB21AA22A99B
:1053EB0023E92401F9E43AFAEF1100B0904003A845
:1053FB00E0FFAB21AA22A923E92402F9E43AFAEF50
:10540B001100B0904003A9E0FFAB21AA22A923E928
:10541B002403F9E43AFAEF1100B07528007529045A
:10542B00E529452870728064904003AFE0640170F9
:10543B005FAB21AA22A923041100B0904003AAE07C
:10544B00FFAB21AA22A923E92401F9E43AFAEF11CF
:10545B0000B0904003ABE0FFAB21AA22A923E924C3
:10546B0002F9E43AFAEF1100B0904003ACE0FFAB65
:10547B0021AA22A923E92403F9E43AFAEF1100B097
:10548B00752800752904E5294528700C752C7022A8
:10549B00E4F528F529752C3022EF7073ED14B40F59
:1054AB0000400301558B900054C075F003A4C583D5
:1054BB0025F0C583730154ED0154F00154F30154ED
:1054CB00F60154F90154FC0154FF01550201550535
:1054DB0001550801550B01550E01551101551401CC
:1054EB0055178BAB228BAC228BAD228BAE228BAFA5
:1054FB00228BB3228BB4228BB5228BB6228BB72295
:10550B008BBB228BBC228BBD228BBE228BBF22ED91
:10551B0014B40F00506A9000553075F003A4C58386
:10552B0025F0C5837301555D015560015563015528
:10553B006601556901556C01556F01557201557521
:10554B0001557801557B01557E015581015584012B
:10555B0055878BEB228BEC228BED228BEE228BEF84
:10556B00228BF3228BF4228BF5228BF6228BF722E4
:10557B008BFB228BFC228BFD228BFE22AF038FFF3A
:10558B0022E52B6401452A6002801AAB25AA26A9C5
:10559B002711007E904002ECF0E0C394014006E03E
:1055AB00D394094009E4F528F529752C3022904055
:1055BB0002ECE0AB21AA22A9231100B075280075DB
:1055CB002901904002ECE075F040A4FFA3E5F0F058
:1055DB00A3EFF0E4904002EBF0904002ECE07E0091
:1055EB00240BF9EE3403FA7B4111007EFF9040024D
:1055FB00EBE0C39F5066904002EDE0FEA3E0FF7C22
:10560B00007D151100C474002FF974403EFA7B0124
:10561B00C003C002C001AB21AA22A923AE28AF2927
:10562B00E92FF9EA3EA801FCAD03D001D002D0036B
:10563B007E007F0911047374092529F529E43528A7
:10564B00F528904002EEE004F07007904002EDE088
:10565B0004F0904002EBE004F00155E4E529452805
:10566B007003752C7022E52B6401452A6002801AA9
:10567B00AB25AA26A92711007E904002F5F0E0C3C6
:10568B0094014006E0D394094009E4F528F5297507
:10569B002C3022AB25AA26A92711007EAB21AA22EA
:1056AB00A9231100B0752800752901904002F5E07F
:1056BB0075F040A4FFA3E5F0F0A3EFF0E4904002F7
:1056CB00F4F0904002F5E07E00240BF9EE3403FA7F
:1056DB007B4111007EFF904002F4E0C39F5062902B
:1056EB004002F6E0FEA3E0FF7C007D151100C474C0
:1056FB00122FF974403EFA7B01C003C002C001AB0C
:10570B0021AA22A923AE28AF29E92FF9EA3EA80145
:10571B00FCAD03D001D002D0037E007F01110473D6
:10572B000529E52970020528904002F7E004F07086
:10573B0007904002F6E004F0904002F4E004F080A1
:10574B0081E52945287003752C70229040008CEF61
:10575B00F0E0FF7C002401F9EC3403FA7B41E41107
:10576B0000B0EF64097003015839E5186003751A2E
:10577B00019040008CE0FFC39401FE7401A8060861
:10578B008002C333D8FC904002B0F07B417A02799F
:10579B00B1C003C002C00109904000527441F0A394
:1057AB007402F0A3E9F0D001D002D003113446907B
:1057BB004002B0E0FFA3E05FFF904002B0E0B5070E
:1057CB00149040008CE07E002401F9EE3403FA7B48
:1057DB004174028056904002B0E0FF904002B2E06C
:1057EB005F70149040008CE07E002401F9EE3403CE
:1057FB00FA7B41740180349040008CE0FF7DCC112A
:10580B00752A9040008CE0FF7DB411752A90400002
:10581B008CE0FF1143DAEF70159040008CE07E00B6
:10582B002401F9EE3403FA7B4174031100B022F525
:10583B0083759340E0FBA3E0FAA3E0F99040007876
:10584B00EBF0A3EAF0A3E9F0E490400395F090406D
:10585B000078E0FBA3E0FAA3E0F990400395E0FFAA
:10586B00E92FF9E43AFA11007E601690400395E0B7
:10587B00D39464400301590A90400395E004F080EF
:10588B00CD90400395E0FF9040039AE0FCA3E0FD30
:10589B00EF2DFFE43CFED3EF9440EE941F5060904D
:1058AB00400395E0FF7E00C006C0079040039AE0DE
:1058BB00FEA3E0FFE42FFFEE3420FEE433FDE433E0
:1058CB00FCE42FFFE43EFEED3401FDE43CA907AA06
:1058DB0006AB05A807AC0690400078E0FBA3E0FA06
:1058EB00A3E0F9D007D00611047390400395E0FFB5
:1058FB009040039BE02FF09040039AE03400F0229D
:10590B009040003FEBF0A3EAF0A3E9F0E55DB401B2
:10591B00037F0122D2B390400045E07002A3E070F8
:10592B000CC2B39002088874F0F07F0022C2AF90D3
:10593B0002055574AAF0900202AA7455F090020564
:10594B005574A0F090400042E0FBA3E0FAA3E0F90D
:10595B0011007EFF9040003FE0FBA3E0FAA3E0F9CB
:10596B00EF1100B0D2AFE4F55EE55EC394C8504FC3
:10597B0090400042E0FBA3E0FAA3E0F911007EFFA8
:10598B009040003FE0FBA3E0FAA3E0F911007EB5E5
:10599B00072990400046E024FFF090400045E0349A
:1059AB00FFF090400040E475F0011101649040005D
:1059BB0043E475F001110164015921055E80AAC20F
:1059CB00B39002088874F0F07F0122E52B64044544
:1059DB002A6003015A8AAB25AA26A92711007E90BB
:1059EB004003B0F0E07044AB25AA26A927E92401B7
:1059FB00F9E43AFA11007E904003A7F0AB25AA26F2
:105A0B00A927E92402F9E43AFA11007E904003A891
:105A1B00F0AB25AA26A927E92403F9E43AFA1100E9
:105A2B007E904003A9F0116F64804B904003B0E06F
:105A3B006401704BAB25AA26A927E92401F9E43AA6
:105A4B00FA11007E904003AAF0AB25AA26A927E9FC
:105A5B002402F9E43AFA11007E904003ABF0AB2537
:105A6B00AA26A927E92403F9E43AFA11007E90400B
:105A7B0003ACF0116FB1E4F528F529752C7022E415
:105A8B00F528F529752C3022E49040039AF0A3F009
:105A9B007B817A06791A1158477B817A06795511E1
:105AAB0058479040034EE075F00E84E5F075F00317
:105ABB00A42415F582E4340011583A7B817A0679D7
:105ACB00651158479040034FE0540775F003A42429
:105ADB0000F582E4340011583A7B817A067975110E
