:020000040000FA
:0A00000002082DE49007F003F0223F
:03000B0001642667
:03001300016488FD
:03001B000164EA93
:0300230001654C28
:03002B000165AEBE
:0300330001661053
:03003B00016672E9
:030043000166D47F
:03004B0001673614
:03005300016798AA
:03005B000167FA40
:0300630001685CD5
:03006B000168BE6B
:0300730001692000
:10007B00016982EB7002E72289828A831410E704FC
:10008B00F593E022F593E49322BB000327F722F8C4
:10009B00EB89828A831410E706F593E028F022F5AA
:1000AB0093E4932822BB0002F722BB8000500989FE
:1000BB00828A838B931593F022EF8DF0A4A8F0CF57
:1000CB008CF0A428CE8DF0A42EFE22BC000BBE001B
:1000DB0029EF8DF084FFADF022E4CCF875F008EF3A
:1000EB002FFFEE33FEEC33FCEE9DEC984005FCEE5F
:1000FB009DFE0FD5F0E9E4CEFD22EDF8F5F0EE0014
:10010B008420D21CFEADF075F008EF2FFFED33FD10
:10011B004007985006D5F0F222C398FD0FD5F0EAB0
:10012B0022C2D5EC30E709B2D5E4C39DFDE49CFCBB
:10013B00EE30E716B2D5E4C39FFFE49EFE1200003B
:10014B00D6C3E49DFDE49CFC8004120000D630D5A0
:10015B0007C3E49FFFE49EFE22C5F0F8A3E028F05E
:10016B00C5F0F8E582158270021583E038F022A302
:10017B00F8E0C5F025F0F0E582158270021583E0FA
:10018B00C838F0E822EB7007E7F5F009E719228988
:10019B00828A831410E708F593E0F5F0A3E022F5CB
:1001AB0093E493F5F074019322BB000B09C5F02780
:1001BB00F7C5F01937F722F8EB89828A831410E719
:1001CB0007F593E802000164F59374019325F0F5AC
:1001DB00F0E4933822BB0006F709A7F01922BB8085
:1001EB0000500D89828A838B931593F0E5F0A3F071
:1001FB0022E88FF0A4CC8BF0A42CFCE98EF0A42C7D
:10020B00FC8AF0EDA42CFCEA8EF0A4CDA8F08BF0C8
:10021B00A42DCC3825F0FDE98FF0A42CCD35F0FCC6
:10022B00EB8EF0A4FEA9F0EB8FF0A4CFC5F02ECD92
:10023B0039FEE43CFCEAA42DCE35F0FDE43CFC2277
:10024B0075F008758200EF2FFFEE33FECD33CDCC6A
:10025B0033CCC58233C5829BED9AEC99E5829840ED
:10026B000CF582EE9BFEED9AFDEC99FC0FD5F0D6CA
:10027B00E4CEFBE4CDFAE4CCF9A88222B800C1B9F4
:10028B000059BA002DEC8BF084CFCECDFCE5F0CB32
:10029B00F97818EF2FFFEE33FEED33FDEC33FCEB6B
:1002AB0033FB10D703994004EB99FB0FD8E5E4F926
:1002BB00FA227818EF2FFFEE33FEED33FDEC33FC13
:1002CB00C933C910D7059BE99A4007EC9BFCE99A07
:1002DB00F90FD8E0E4C9FAE4CCFB2275F010EF2F4C
:1002EB00FFEE33FEED33FDCC33CCC833C810D7074C
:1002FB009BEC9AE899400AED9BFDEC9AFCE899F887
:10030B000FD5F0DAE4CDFBE4CCFAE4C8F922CFF454
:10031B00CFCEF4CECDF4CDCCF4CC22EB9FF5F0EADE
:10032B009E42F0E99D42F0E89C45F022E8600FEC1C
:10033B00C313FCED13FDEE13FEEF13FFD8F122E810
:10034B00600FEFC333FFEE33FEED33FDEC33FCD820
:10035B00F122EB7006E9F8020004FB89828A831410
:10036B0010E706F59302000507F59302000513BB92
:10037B000006E9F802000523BB8000500C89828A35
:10038B00838B9315930200039522ECF0A3EDF0A35E
:10039B00EEF0A3EFF022EB7006E9F80200052F89CF
:1003AB00828A831410E706F59302000541F5930248
:1003BB00000553BB001CD093D0F0D0E0F8D0E0C9BF
:1003CB00FBD0E0FAD0E0CBC8C0E0C0F0C093020095
:1003DB000538BB80005022D093D0F0D0E0F8D0E0AD
:1003EB00C9F582D0E0CAF583D0E0CB14C8C0E0C019
:1003FB00F0C09388930200054AD093D083D082D06B
:10040B00E0D0E0D0E0E473D093D083D082F8E493D3
:10041B007012740193700DA3A393F8740193F5827A
:10042B008883E4737402936860EFA3A3A380DF8BCC
:10043B00938A838982159353937FE473EF4E6022E3
:10044B00EF60010EEDBB0007F709DFFCA9F022BB43
:10045B008000500E89828A838B931593F0A3DFFC67
:10046B00DEFA22EB7008E709F608DFFA801B8982B7
:10047B008A831410E70AF593E0A3F608DFFA8009E4
:10048B00F593E493A3F608DFF9ECFAA9F0EDFB2260
:10049B0088F0EF60010E4E60F088F0ED60C514102F
:1004AB00E7E7CB700E88828C838B93E709F0A3DF91
:1004BB00FA80D61410E71C88848C858B9589828AE8
:1004CB0083F593758620E0F0A3A3DFFADEF875863B
:1004DB000080B688848C858B9589828A83F5937589
:1004EB008620E493F0A3A3DFF9DEF77586008099ED
:1004FB00E6FC08E6FD08E6FE08E6FF22E0FCA3E0CA
:10050B00FDA3E0FEA3E0FF22E493FC740193FD74D2
:10051B000293FE740393FF22ECF608EDF608EEF659
:10052B0008EFF622E6FB08E6FA08E6F922EBF608F6
:10053B00EAF608E9F622E0FBA3E0FAA3E0F922EBE6
:10054B00F0A3EAF0A3E9F022E493FB740193FA74AD
:10055B000293F9224842425F53535441540048429C
:10056B00425F4C5354415400554E495F50524F4DCE
:10057B0000554E495F464C415348004A50445F502A
:10058B00524F4D004A50445F464C41534800504433
:10059B00535F50524F4D005044535F464C415348AC
:1005AB000043435F50524F4D0043435F464C415312
:1005BB00480055475F50524F4D0055475F464C41E1
:1005CB005348004D5F50524F4D004D5F464C4153C9
:1005DB004800504F5745525F4F4E005245534554BC
:1005EB005F434D440052455345545F50474D0043C4
:1005FB004D444A554D505F46524F4D5F454C534508
:10060B000050474D4A554D505F46524F4D5F454C3C
:10061B00534500434D444A554D505F46524F4D5F35
:10062B0053454C460050474D4A554D505F46524F2F
:10063B004D5F53454C46000A3D3D3D3D3D3D3D3DE7
:10064B003D3D3D3D3D3D3D3D3D3D3D3D3D3D3D3DCF
:10065B003D3D3D3D3D3D3D3D3D3D3D3D3D3D3D3DBF
:10066B003D3D3D3D3D3D3D3D3D3D3D3D3D3D3D3DAF
:10067B003D000A2052756E6E696E674D6F64653A68
:10068B0020000A205265736574526561736F6E3A70
:10069B0020000A204E6577626F726E416464723A75
:1006AB0020000A204C6F676963616C416464723A85
:1006BB0020000A2056657273696F6E4E756D623A33
:1006CB0020000A20436F6D70696C65446174653A54
:1006DB00200030382F32342F3036002C20003138A8
:1006EB003A33353A3036000A5B436F6E66696745BD
:1006FB007865635D3A200046696C6553746172746A
:10070B00416464723D002C2046696C65456E644102
:10071B006464723D000A5B436F6E6669674578657A
:10072B00635D3A20496E76616C69642066696C651D
:10073B0020737461727420616464726573732E002C
:10074B000A5B436F6E666967457865635D3A20495E
:10075B006E76616C69642066696C6520656E6420D9
:10076B00616464726573732E000A5B436F6E666916
:10077B0067457865635D3A20496E76616C696420E4
:10078B00636F6D6D616E64206C656E6774682E09A6
:10079B00000A5B436F6E666967457865635D3A2057
:1007AB00436F6E666967206C6F672073706163655A
:1007BB002069732066756C6C2E000A2D2D2D2D2D46
:1007CB002D2D2D20000A436D646C656E203A2000A0
:1007DB000A436D64547970653A20000A436D644492
:1007EB006174613A20000A5265734C656E203A20A1
:1007FB00000A526573466C61673A20004B4F004FFD
:10080B004B000A526573446174613A20004E45589F
:10081B0054004552524F520041424F525400454EE4
:10082B00440075C7AA75C75575923F75C7AA75C79A
:10083B005575A21875C7AA75C755759D0275C7AAB8
:10084B0075C75575C6A0787FE4F6D8FD75815C0237
:10085B0000088802006FFDE493A3F85407240CC82A
:10086B00C333C4540F4420C8834004F4568001465C
:10087B00F6DFE4800C010204081020408090000990
:10088B0013E47E019360CCA3FF543F30E509541F62
:10089B00FEE493A360010ECF54E0B4E026E493FB97
:1008AB00A3E493FAA3E493F9A3E493C083C0821265
:1008BB000000B0D082D083A309E970010ADFEADE21
:1008CB00E880BE54C025E0602B408CE493A3FAE48F
:1008DB0093A3F8E493A3C8C582C8CAC583CA75930A
:1008EB0040F0759300A3C8C582C8CAC583CADFE3AD
:1008FB00DEE1808DE493A3F8E493A34003F680013B
:10090B00F208DFF40200088C602A001581055F8174
:10091B00056981057381057C81058681058F8105BC
:10092B00998105A28105AC8105B48105BD8105C501
:10093B008105CE8105D55500008105DD8105E68158
:10094B0005F08105FA81060C81061E810630003008
:10095B00382F32342F30360031383A33353A30367F
:10096B0000AF1FEF75F01CA424A8F9740035F0FA42
:10097B007B411103A190400091EBF0A3EAF0A3E9B6
:10098B00F090400091E0FBA3E0FAA3E02406F9E429
:10099B003AFA11007E54F0FFBFF03DAF1FEF75F038
:1009AB001CA424ABF9740035F0FA7B411103A19020
:1009BB00400091EBF0A3EAF0A3E9F090400091E046
:1009CB00FBA3E0FAA3E02406F9E43AFA11007E5403
:1009DB00F064F0700301119A90400091E0FBA3E0EA
:1009EB00FAA3E02402F9E43AFA11007E9040009455
:1009FB00F090400091E0FBA3E0FAA3E02406F9E4B9
:100A0B003AFA11007EC4540F90400095F0904000CC
:100A1B0094E0540F90400096F090400095E07003E6
:100A2B0001106C90400094E0546024E07003010BC3
:100A3B007E24E07003010D4124E07003010E892434
:100A4B0060600301119AAF1F7E0074982FF9EE348A
:100A5B0000FA7B4111007E64C06014AF1F74982FA5
:100A6B00F9EE3400FA11007E64806003010C7CAF58
:100A7B001F7E0074982FF9EE3400FA7B41748011BD
:100A8B0000B0AF1F74882FF9EE3401FA7B411100CF
:100A9B007EFF90400096E06F60030110FBAF1FEFED
:100AAB0075F01CA424B4F9740035F0FA7B411101E4
:100ABB0090FF90400095E02FFFE435F0FED3EF94CC
:100ACB0000EE94204003010BFEAF1FEF75F01CA44A
:100ADB0024B1F9740035F0FA7B411103A1C003C0B6
:100AEB0002C00190400091E0FBA3E0FAA3E02407D1
:100AFB00F9E43AFA9040004AEBF0A3EAF0A3E9F0EC
:100B0B0090400095E09040004DF0D001D002D00312
:100B1B00116BCC90400095E0FDAF1FEF75F01CA45E
:100B2B0024B4F9740035F0FA7B41E48DF01101B473
:100B3B0090400095E0FDAF1FEF75F01CA424B1F9B8
:100B4B00740035F0FA09E970010AE48DF01101B473
:100B5B0090400094E05404FFE51F04FD113E75EF37
:100B6B009040009630E106E04430011066E04410FE
:100B7B00011066AF1F7E0074982FF9EE3400FA7BDC
:100B8B004111007E64C06014AF1F74982FF9EE34CE
:100B9B0000FA11007E64806003010C7CAF1F7E00A5
:100BAB0074982FF9EE3400FA7B4174A01100B0AFAA
:100BBB001F74882FF9EE3401FA7B4111007EFF90F0
:100BCB00400096E06F60030110FBAF1FEF75F01C48
:100BDB00A424B4F9740035F0FA7B41110190FF9015
:100BEB00400095E02FFFE435F0FED3EF9400EE9438
:100BFB00204004A30110FBAF1FEF75F01CA424B120
:100C0B00F9740035F0FA7B411103A1C003C002C097
:100C1B000190400091E0FBA3E0FAA3E02407F9E484
:100C2B003AFA9040004AEBF0A3EAF0A3E9F09040C7
:100C3B000095E09040004DF0D001D002D003116B35
:100C4B00CC90400095E0FDAF1FEF75F01CA424B4D1
:100C5B00F9740035F0FA7B41E48DF01101B490404A
:100C6B000094E05404FFE51F04FD113E75EF30E1E5
:100C7B0007904000960110FB90400393E004F0AF07
:100C8B001FEF75F01CA424B4F9740035F0FA7B4106
:100C9B00110190F52B85F02AAF1FEF75F01CA424E2
:100CAB00AEF9740035F0FA1103A18B258A2689273A
:100CBB00AF1FEF75F01CA424BCF9740035F0FA7B60
:100CCB00411103A18B218A228923AF1F7E0074A0BF
:100CDB002FF9EE3400FA7B4111007EFF114F7AAFF2
:100CEB001FEF75F01CA424C2F9740035F0FA7B4198
:100CFB00E5288529F01101E0AB21AA22A923C00325
:100D0B00C002C001AF1FEF75F01CA424BFF9740023
:100D1B0035F0FA7B411103BED3E5299408E52894FD
:100D2B00004003011046E5294528904000967003CA
:100D3B0001106301105AAF1F7E0074982FF9EE3427
:100D4B0000FA7B4174C01100B090400096E0FFAEFA
:100D5B001FEE7C002488F9EC3401FA7B41EF110083
:100D6B00B090400091E0FBA3E0FAA3E02407F9E484
:100D7B003AFA11007EFFAE1FEE24A0F9EC3400FA14
:100D8B007B41EF1100B0AF1F7E0074A02FF9EE3442
:100D9B0000FA11007EC413135403FFAE1FEE248818
:100DAB00F9EC3401FA7B4111007EFE13131354034B
:100DBB006F6003010F0690400095E014F0AF1FEF3A
:100DCB0075F01CA424AEF9740035F0FA7B411103C5
:100DDB00A1C003C002C00190400091E0FBA3E0FA68
:100DEB00A3E02408F9E43AFA9040004AEBF0A3EAB6
:100DFB00F0A3E9F090400095E09040004DF0D00159
:100E0B00D002D003116BCC90400095E0FDAF1FEFEB
:100E1B0075F01CA424B4F9740035F0FA7B41E48D11
:100E2B00F01101E0AF1FEF75F01CA424AEF97400B4
:100E3B0035F0FA1103A190400095E07E0029F9EE00
:100E4B003AFAC003C002C001AF1FEF75F01CA42417
:100E5B00B1F9740035F0FA7B411103BE9040009458
:100E6B00E05404FFE51F04FD113E75EF9040009622
:100E7B0030E105E044308003E04410011066AF1F01
:100E8B007E0074982FF9EE3400FA7B4174E0110068
:100E9B00B090400096E0FFAE1FEE7C002488F9EC8A
:100EAB003401FA7B41EF1100B090400091E0FBA3BD
:100EBB00E0FAA3E02407F9E43AFA11007EFFAE1F33
:100ECB00EE24A0F9EC3400FA7B41EF1100B0AF1F18
:100EDB007E0074A02FF9EE3400FA11007EC41313B8
:100EEB005403FFAE1FEE2488F9EC3401FA7B411159
:100EFB00007EFE13131354036F600A90400096E0BC
:100F0B00443001106690400095E014F0AF1FEF7570
:100F1B00F01CA424AEF9740035F0FA7B411103A147
:100F2B00C003C002C00190400091E0FBA3E0FAA314
:100F3B00E02408F9E43AFA9040004AEBF0A3EAF017
:100F4B00A3E9F090400095E09040004DF0D001D027
:100F5B0002D003116BCC90400095E0FDAF1FEF75F5
:100F6B00F01CA424B4F9740035F0FA7B41E48DF045
:100F7B001101E090400094E05404FFE51F04FD11C3
:100F8B003E75EF30E10A90400096E0443001106668
:100F9B0090400393E004F0AF1FEF75F01CA424B452
:100FAB00F9740035F0FA7B41110190F52B85F02A8D
:100FBB00AF1FEF75F01CA424AEF9740035F0FA11D5
:100FCB0003A18B258A268927AF1FEF75F01CA4245C
:100FDB00BCF9740035F0FA7B411103A18B218A22F5
:100FEB008923AF1F7E0074A02FF9EE3400FA7B41EA
:100FFB0011007EFF114F7AAF1FEF75F01CA424C2B6
:10100B00F9740035F0FA7B41E5288529F01101E0F0
:10101B00AB21AA22A923C003C002C001AF1FEF75E9
:10102B00F01CA424BFF9740035F0FA7B411103BE08
:10103B00D3E5299408E5289400400A90400096E0F7
:10104B004450011147E5294528904000966009E07E
:10105B004470FFAD29011197E0452CFFE4FD011110
:10106B009790400094E0546024E0700301118D24AC
:10107B00E0700301118D24E0700301118D24606079
:10108B000301119AAF1F7E0074982FF9EE3400FA0A
:10109B007B4111007E64E0602DAF1F74982FF9EE39
:1010AB003400FA11007E64A0601CAF1F74982FF9F6
:1010BB00EE3400FA11007E600D90400096E0443053
:1010CB00FFE4FD011197AF1F7E0074982FF9EE34EA
:1010DB0000FA7B41E41100B0AF1F74882FF9EE3496
:1010EB0001FA7B4111007EFF90400096E06F600992
:1010FB00E04430FFE4FD01119790400094E054046C
:10110B00FFE51F04FD113E75EF30E10C904000969A
:10111B00E04430FFE4FD8074AF1FEF75F01CA42496
:10112B00C2F9740035F0FA7B41110190D39408E5B4
:10113B00F09400400C90400096E04410FF7D088036
:10114B004BAF1FEF75F01CA424C2F9740035F0FAF5
:10115B007B4111019045F0601DAF1FEF75F01CA492
:10116B0024C2F9740035F0FA110190FD90400096FD
:10117B00E04430FF801690400096E04430FFE4FDE1
:10118B00800A90400096E04430FFE4FD1138A42221
:10119B007B827AFF790011007EF5247B0479FF11A5
:1011AB00007EF4FF1911007EB5070711007EF520B4
:1011BB0080037520FF90400391E524F0A3E520F018
:1011CB00E490400089F090400089E07E002498F97B
:1011DB00EE3400FA7B4174601100B090400089E05E
:1011EB002488F9EE3401FA7B4174FF1100B0904072
:1011FB000089E024A0F9EE3400FA7B4174FF110062
:10120B00B090400089E075F010A42410F9741035EB
:10121B00F0FA7B41C003C002C001E075F01CA424AE
:10122B00A8F9740035F0FA7B411103BE9040008998
:10123B00E075F010A42410F9741135F0FA7B41C05D
:10124B0003C002C001E075F01CA424ABF974003597
:10125B00F0FA7B411103BE90400089E0C43354E0A7
:10126B00FEE42400FFE43EFEE43404FDE433FCE43E
:10127B002FFFE43EFEED3401FDE43CA907AA06ABCB
:10128B0005C003C002C001E075F01CA424AEF974C4
:10129B000035F0FA7B411103BE90400089E0540306
:1012AB0075F010A424A0F9741035F0FA7B41C0033B
:1012BB00C002C001E075F01CA424B6F9740035F02F
:1012CB00FA7B411103BE90400089E0540375F01086
:1012DB00A424A0F9741135F0FA7B41C003C002C0FD
:1012EB0001E075F01CA424B9F9740035F0FA7B41C8
:1012FB001103BE90400089E0C43354E0FEE42400A7
:10130B00FFE43EFEE43404FDE433FCE42FFFE43E53
:10131B00FEED3401FDE43CFCE42FFFE43EFEED3436
:10132B0001FDE43CA907AA06AB05C003C002C0013E
:10133B00E075F01CA424BCF9740035F0FA7B411164
:10134B0003BE90400089E004F0E0640860030111E3
:10135B00D175C7AA75C75575A30911731875C7AA97
:10136B0075C75575E30911731875C7AA75C75575F8
:10137B00A30111731875C7AA75C75575E3011173CE
:10138B0018E490401000F090401100F090401001D4
:10139B00F090401101F090401002F090401102F0DB
:1013AB0090401003F090401103F090401004F09027
:1013BB00401104F0904010057414F090401105F0AA
:1013CB009040100674FFF090401106F0904010070B
:1013DB00F090401107F0904010087415F0904011F8
:1013EB0008F09040100974FFF090401109F0904004
:1013FB00100AF09040110AF0E49040100BF090406E
:10140B00110BF09040100C74FFF09040110CF09009
:10141B0040100DF09040110DF09040100EF09040E8
:10142B00110EF09040100FF09040110FF0E4F5AB5F
:10143B00F5EBF5ACF5ECF5ADF5EDF5AEF5EEF5AF91
:10144B00F5EFF5B3F5F3F5B4F5F4F5B5F5F5F5B64C
:10145B00F5F6F5B7F5F7F5BBF5FBF5BCF5FCF5BD0A
:10146B00F5FDF5BEF5FEF5BFF5FF9040008904F0E4
:10147B0090400089E075F010A42402F9741035F047
:10148B00FA7B41E41100B090400089E075F010A4A4
:10149B002402F9741135F0FA7B41E41100B090404D
:1014AB000089E075F010A42403F9741035F0FA7B71
:1014BB0041E41100B090400089E075F010A42403C2
:1014CB00F9741135F0FA7B41E41100B090400089BA
:1014DB00E075F010A42404F9741035F0FA7B41E4A4
:1014EB001100B090400089E075F010A42404F97449
:1014FB001135F0FA7B41E41100B090400089E075A2
:10150B00F010A42405F9741035F0FA7B41E41100B6
:10151B00B090400089E075F010A42405F9741135E2
:10152B00F0FA7B41E41100B090400089E075F010B7
:10153B00A42406F9741035F0FA7B41E41100B09045
:10154B00400089E075F010A42406F9741135F0FA07
:10155B007B41E41100B090400089E075F010A424A9
:10156B0007F9741035F0FA7B41E41100B09040009C
:10157B0089E075F010A42407F9741135F0FA7B415A
:10158B00E41100B090400089E075F010A42408F934
:10159B00741035F0FA7B41E41100B090400089E003
:1015AB0075F010A42408F9741135F0FA7B41E4119D
:1015BB0000B090400089E075F010A42409F9741074
:1015CB0035F0FA7B41E41100B090400089E075F0F2
:1015DB0010A42409F9741135F0FA7B41E41100B021
:1015EB0090400089E075F010A4240AF9741035F0CE
:1015FB00FA7B41E41100B090400089E075F010A433
:10160B00240AF9741135F0FA7B41E41100B09040D3
:10161B000089E075F010A4240BF9741035F0FA7BF7
:10162B0041E41100B090400089E075F010A4240B48
:10163B00F9741135F0FA7B41E41100B09040008948
:10164B00E075F010A4240CF9741035F0FA7B41E42A
:10165B001100B090400089E075F010A4240CF974CF
:10166B001135F0FA7B41E41100B090400089E07530
:10167B00F010A4240DF9741035F0FA7B41E411003D
:10168B00B090400089E075F010A4240DF974113569
:10169B00F0FA7B41E41100B090400089E075F01046
:1016AB00A4240EF9741035F0FA7B41E41100B090CC
:1016BB00400089E075F010A4240EF9741135F0FA8E
:1016CB007B41E41100B090400089E004F0E064102D
:1016DB00600301147BE490400089F090400089E0A6
:1016EB00C3940450067F017D0180047F007D009030
:1016FB00400089E075F01CA424A8F9740035F0FAB9
:10170B007B411103A1E92402F9E43AFAED1100B08F
:10171B0090400089E05403FDE075F01CA424A8F967
:10172B00740035F0FA7B411103A1E92403F9E43A83
:10173B00FAED1100B090400089E0C394045006AF5D
:10174B0024AD078004AF20AD0790400089E075F011
:10175B001CA424A8F9740035F0FA7B411103A1E90C
:10176B002404F9E43AFAED1100B090400089E075D9
:10177B00F01CA424A8F9740035F0FA7B411103A1E5
:10178B00E92405F9E43AFA74011100B0904000899C
:10179B00E075F01CA424A8F9740035F0FA7B411114
:1017AB0003A1E92406F9E43AFA74F61100B090406B
:1017BB000089E0C3940450067F057D0580047F04F7
:1017CB007D0490400089E075F01CA424ABF97400F3
:1017DB0035F0FA7B411103A1E92402F9E43AFAED61
:1017EB001100B090400089E05403FDE075F01CA49B
:1017FB0024ABF9740035F0FA7B411103A1E9240302
:10180B00F9E43AFAED1100B090400089E0C394047A
:10181B005006AF24AD078004AF20AD079040008980
:10182B00E075F01CA424ABF9740035F0FA7B411180
:10183B0003A1E92404F9E43AFAED1100B090400059
:10184B0089E075F01CA424ABF9740035F0FA7B41E8
:10185B001103A1E92405F9E43AFA74011100B090DF
:10186B00400089E075F01CA424ABF9740035F0FA44
:10187B007B411103A1E92406F9E43AFA74F611004D
:10188B00B090400089E004F0E0640860030116E6C4
:10189B00E524D39403401875AB8075EB8075AC8051
:1018AB0075EC8075AD8075ED8075AE8075EE80E55D
:1018BB0020D39403401DE520F4601875AF8075EFBD
:1018CB008075B38075F38075B48075F48075B580C1
:1018DB0075F58075C7AA75C755E4F5A3117318750F
:1018EB00C7AA75C755E4F5E30173189040007FEE66
:1018FB00F0A3EFF09040007FE0FEA3E07806CEC3AC
:10190B0013CE13D8F9904002D111342E7D5511729C
:10191B004BE4904002D0F09040007FE0FEA3E0FF4C
:10192B007C007D151100C474002FF974403EFA7BC6
:10193B0001904002D0E07E0029F9EE3AFA11007EC8
:10194B00FD11724B904002D0E004F0E0C3940840CC
:10195B00C67DBE11724BE4F55A904002D0F0904018
:10196B0002D1E0FF116F21904002D0E07C0024D225
:10197B00F9EC3402FA7B41EF1100B0904002D0E059
:10198B007E0024D2F9EE3402FA11007E655A2495BA
:10199B00F9EE3401FA7B4111007EF55A904002D0EA
:1019AB00E004F0E0C3940940B5904002D2E09040CF
:1019BB0002DDF0904002D3E0904002DCF090400258
:1019CB00D6E0904002E0F0904002D8E0904002DE7A
:1019DB00F0904002D9E0904002DFF0904002DDE051
:1019EB00FFC0079040007FE0FEA3E0FF7C007D1569
:1019FB001100C4AC06AD07740D2DF974403CFA7B95
:101A0B0001D0E01100B0904002DCE0FFC007740E83
:101A1B002DF974403CFAD0E01100B0904002E0E0A8
:101A2B00FFC0079040007FE0FEA3E0FF7C007D1528
:101A3B001100C4AC06AD07740F2DF974403CFAD0FD
:101A4B00E01100B0904002DEE0FFC00774102DF9EA
:101A5B0074403CFAD0E01100B0904002DFE0FFC0D0
:101A6B00079040007FE0FEA3E0FF7C007D15110096
:101A7B00C4AC06AD0774112DF974403CFAD0E011DB
:101A8B0000B074122DF974403CFA74801100B090C0
:101A9B0040007FE0FEA3E0FF7C007D151100C474C5
:101AAB00132FF974403EFA748075F0001101E0E5D4
:101ABB005A6003011DCD74002FF974403EFA7B016F
:101ACB0011007E64106003011B94904002DCE070F7
:101ADB0009A3E064AA7003011DCD904002DFE0640E
:101AEB00106003011DCD904002DCE06007A3E0D342
:101AFB009480500E904002DCE0702EA3E0D3947FD4
:101B0B005027904002DDE0FFC0079040007FE0FED1
:101B1B00A3E0FF7C007D151100C474122FF97440F3
:101B2B003EFA7B01D0E01100B0904002DDE054FEA4
:101B3B0075F080A4FD904002DCE0C4333333548055
:101B4B0045F0FC904002DEE0FFA3E0C39FFFE4946E
:101B5B0000FEEFC4F8540FC868FFEEC454F0484CB5
:101B6B00FEEF4DFFC007C0069040007FE0FEA3E0F4
:101B7B00FF7C007D151100C474132FF974403EFADD
:101B8B007B01D0E0D0F0011DCA9040007FE0FEA3A6
:101B9B00E0FF7C007D151100C474002FF974403EEA
:101BAB00FA7B0111007E64286003011DCD90400279
:101BBB00E0E07003011DCD904002E0E0546024E0B2
:101BCB00601824E0601D24E0602224606003011D86
:101BDB00CD904002E17402F08019904002E1740450
:101BEB00F08010904002E17408F08007904002E111
:101BFB007410F0904002DCE020E703011CF4E0FEDF
:101C0B00A3E07C002400FFEC3EFEC3EF9400FFEE4C
:101C1B009400FEE49401FDEC9400FCC004A905AA19
:101C2B0006AB07904002E1E0FD7C007E017F0011D6
:101C3B0000D6E4FCFDD0001101FC904002CEEEF08A
:101C4B00A3EFF0904002CEE0FEA3E0FF7C007D808E
:101C5B0011012CD3ED9440EC64809480904002CE23
:101C6B00E0FE4013A3E0FF7C007D8011012CEF24EC
:101C7B0001FFE43EFE800AA3E0FF7C007D801101A2
:101C8B002C904002CCEEF0A3EFF0904002CCE0FEA3
:101C9B00A3E0C39480EE6480947F50067F80C007DE
:101CAB00800A904002CCE0A3E0FFC0079040007F89
:101CBB00E0FEA3E0FF7C007D151100C4AC06AD0770
:101CCB0074122DF974403CFA7B01D0E01100B090F6
:101CDB004002CEE0FEA3E0FF8FF0C00674132DF997
:101CEB0074403CFAD0E0011DCA904002DCE0FEA338
:101CFB00E07C002400FDEC3EFCC004C005904002DB
:101D0B00E1E0FD7C007E017F001100D6D005D00400
:101D1B001100C4904002CEEEF0A3EFF0904002CE43
:101D2B00E0FEA3E0FF7C007D8011012CD3ED9440FD
:101D3B00EC64809480904002CEE0FE4013A3E0FF61
:101D4B007C007D8011012CEF2401FFE43EFE800A14
:101D5B00A3E0FF7C007D8011012C904002CCEEF0C3
:101D6B00A3EFF0904002CCE0FEA3E0D3947FEE64AF
:101D7B0080948040067F80C007800A904002CCE0B0
:101D8B00A3E0FFC0079040007FE0FEA3E0FF7C00D4
:101D9B007D151100C4AC06AD0774122DF974403CCF
:101DAB00FA7B01D0E01100B0904002CEE0FEA3E040
:101DBB00FF8FF0C00674132DF974403CFAD0E0117C
:101DCB0001E022E4F558F559E55B700B9040039068
:101DDB00E020E3037F01227F007E807D037C0011E6
:101DEB002291BF01037F01227B047A8079041103C6
:101DFB005D90400378110395790811035D904003C2
:101E0B007C1103957B817A0679F211560A7B817AD4
:101E1B0007790211560A7B417A0379787D04114ABE
:101E2B00D87B817A07791111560A7B417A03797C29
:101E3B007D04114AD890400378E0FCA3E0FDA3E0B9
:101E4B00FEA3E0FF7B007A8079037800C3110326A1
:101E5B0060097B817A07792001208D9040037CE01B
:101E6B00FCA3E0FDA3E0FEA3E0FF7B0C7A807903EB
:101E7B007800D311032640097B817A07794B012027
:101E8B008D90400378E0FCA3E0FDA3E0FEA3E024EB
:101E9B000CFFE43EFEE43DFDE43CFC904003781176
:101EAB00039590400378A3A3E0FEA3E0FFC0069048
:101EBB0040037CA3A3E0FEA3E0AC06D006C39FFFC8
:101ECB00EC9ECF2401CF340090400380F0A3EFF0C1
:101EDB0090400380E0FEA3E04E700301228E904001
:101EEB000378E0FCA3E0FDA3E0FEA3E02400FFE405
:101EFB003EFEED3401FDE43CA907AA06AB05C00389
:101F0B00C002C00178827C037D41D001D002D00396
:101F1B007E007F0211049B90400378E0FCA3E0FD60
:101F2B00A3E0FEA3E02402FFE43EFEE43DFDE43C1F
:101F3B00FCE42FFFE43EFEED3401FDE43CA907AACF
:101F4B0006AB05C003C002C00178847C037D41D081
:101F5B0001D002D0037E007F0111049B90400382CD
:101F6B00E0FEA3E02402FFE43EFE90400380E0FC91
:101F7B00A3E0FDD3EF9DEE9C40177B817A0779742C
:101F8B0011560A7B417A0379827D02114AD87F016F
:101F9B002290400382E0FEA3E0C39401F52BEE9464
:101FAB0000F52A90400378E0FCA3E0FDA3E0FEA33C
:101FBB00E02403FFE43EFEE43DFDE43CFCE42FFFA4
:101FCB00E43EFEED3401FDE43CA907AA06AB058D0A
:101FDB00258A2689277521027522007523009040DA
:101FEB000384E0FF114F7A90400378E0F8A3E0F907
:101FFB00A3E0FAA3E0FB90400382E0FEA3E02402FF
:10200B00FFE43EFEE4FCFDEB2FFFEA3EFEED39FD67
:10201B00EC38FC9040037811039590400380E0FE70
:10202B00A3E0FF90400382E0FCA3E02402FDE43C2C
:10203B00FCC3EF9DFFEE9C90400380F0A3EFF0E517
:10204B00292401FEE4352890400385F0A3CEF090BF
:10205B00400382E0FEA3E0FF2559CFE5583ECF2495
:10206B0002CF3400FE90400385E0FCA3E02FFFEE8F
:10207B003CCF2402CF3400C39480400C7B817A0781
:10208B00799C11560A7F0122E52945287011E52C10
:10209B00546064606009904003877401F08006E42B
:1020AB0090400387F07B417A037982C003C001AE75
:1020BB0058AF5974002FF974203EA801FC7D02D053
:1020CB0001D0037E007F0211049B74022559F55940
:1020DB00E43558F5587B417A037984C003C001AECF
:1020EB0058AF5974002FF974203EA801FC7D02D023
:1020FB0001D0037E007F0111049B0559E559700245
:10210B000558AE2AAF2BAC58AD5974002DF974207D
:10211B003CA801FC7D02AB25AA26A92711049BE54F
:10212B002B2559F559E52A3558F5587B417A037912
:10213B0085C003C001AE58AF5974002FF974203E0F
:10214B00A801FC7D02D001D0037E007F0211049B0D
:10215B0074022559F559E43558F5587B417A0379C2
:10216B0087C003C001AE58AF5974002FF974203EDD
:10217B00A801FC7D02D001D0037E007F0111049BDE
:10218B000559E55970020558AE28AF29AC58AD5921
:10219B0074002DF974203CA801FC7D02AB21AA220E
:1021AB00A92311049BE5292559F559E5283558F53F
:1021BB00587B817A0779C511560A7B817A0779D0CA
:1021CB0011560A7B417A0379827D02114AD87B81B1
:1021DB007A0779DB11560A7B417A0379847D0111E9
:1021EB004AD87B817A0779E611560AAB25AA26A92C
:1021FB0027AD2B114AD87B817A0779F111560A7BCF
:10220B00417A0379857D02114AD87B817A0779FC63
:10221B0011560A90400387E060087B817A087907A2
:10222B0080067B817A08790A11560A7B817A0879B4
:10223B000D11560AAB21AA22A923AD29114AD8E5C3
:10224B002945286003011EDBE52C546024E0601750
:10225B0024E0601B24E0601F24606003011EDB7B15
:10226B00817A08791880167B817A08791D800E7B1C
:10227B00817A08792380067B817A08792911560A9D
:10228B00011EDB7F002290400066110395E4FFFEE8
:10229B007D06FC90400066E0F8A3E0F9A3E0FAA30A
:1022AB00E0FBC311032640037F012290400066E050
:1022BB00FCA3E0FDA3E0FEA3E02404FFE43EFEED5F
:1022CB003401FDE43CA907AA06AB0511035D8F3071
:1022DB008E2F8D2E8C2D90400066E0FCA3E0FDA38D
:1022EB00E0FEA3E02408FFE43EFEED3401FDE43CF8
:1022FB00A907AA06AB0511035D8F348E338D328C83
:10230B0031E5342401FFE43533FEE5323401FDE4DD
:10231B003531A907AA06AB05110190F53685F035C5
:10232B00E4F537F53890400066E0FCA3E0FDA3E050
:10233B00FEA3E0FFAB30AA2FA92EA82DC3110326B5
:10234B00604BE4FFFE7D02FC90400066E0F8A3E0EA
:10235B00F9A3E0FAA3E0FBC3110326700890400336
:10236B0090E04440F07F007E807D037C0090400035
:10237B0066E0F8A3E0F9A3E0FAA3E0FBC3110326A0
:10238B00700890400390E04420F07F0122904000C1
:10239B0066E0FCA3E0FDA3E0FEA3E0240CFFE43E1B
:1023AB00FEE43DFDE43CFCAB34AA33A932A831C3B7
:1023BB00110326504BE4FFFE7D02FC90400066E0CB
:1023CB00F8A3E0F9A3E0FAA3E0FBC311032670081E
:1023DB0090400390E04440F07F007E807D037C00C2
:1023EB0090400066E0F8A3E0F9A3E0FAA3E0FBC39A
:1023FB00110326700890400390E04420F07F0122E7
:10240B00AF30AE2FAD2EAC2D904003A6110395C36C
:10241B00E5349530FFE533952FFEE532952EFDE53E
:10242B0031952DFCEF2401FFE43EFEE43DFDE43C41
:10243B00FC904003AA8070904003AAE0FCA3E0FD4F
:10244B00A3E0FEA3E0FFE47B32FAF9F8C311032605
:10245B00505A904003A6E0FCA3E0FDA3E0FEA3E0EE
:10246B00FF116DB8904003AAE0FCA3E0FDA3E0FED2
:10247B00A3E0C39432FFEE9400FEED9400FDEC94C8
:10248B0000FC904003AA110395904003A6E0FCA327
:10249B00E0FDA3E0FEA3E02432FFE43EFEE43DFDBD
:1024AB00E43CFC904003A6110395808BE4FFFEFDFA
:1024BB00FC012543904003AEE0FCA3E0FDA3E0FE4E
:1024CB00A3E0FF904003AAE0F8A3E0F9A3E0FAA38E
:1024DB00E0FBD3110326406A904003AEE0FCA3E07F
:1024EB00FDA3E0FEA3E0FF904003A6E0F8A3E0F914
:1024FB00A3E0FAA3E02FFFEA3EFEE93DFDE83CFC3A
:10250B00E42FFFE43EFEED3401FDE43CA907AA06EF
:10251B00AB0511007E2538F538E43537F53790409B
:10252B0003AEE0FCA3E0FDA3E0FEA3E02401FFE487
:10253B003EFEE43DFDE43CFC904003AE11039501EF
:10254B0024BFE4FFFE7D02FC90400066E0F8A3E0B0
:10255B00F9A3E0FAA3E0FBC3110326701AE5366575
:10256B00387004E5356537904003906006E04440D1
:10257B00F08004E054BFF07F007E807D037C0090F0
:10258B00400066E0F8A3E0F9A3E0FAA3E0FBC31177
:10259B000326701AE53665387004E53565379040CB
:1025AB0003906006E04420F08004E054DFF07F00ED
:1025BB0022C3E52B9405E52A94005003012866AB52
:1025CB0025AA26A927E92401F9E43AFA11007EFD90
:1025DB00AB25AA26A92711007EFFED9040039FCFC4
:1025EB00F0A3EFF0C3E52B9405FFE52A9400FE90D2
:1025FB0040039FE0FCA3E06F7002EE6C60030128C8
:10260B0066AB25AA26A927E92403F9E43AFA1100B7
:10261B007EFFE4FCFDFE780811034AC004C005C030
:10262B0006C007AB25AA26A927E92402F9E43AFA42
:10263B0011007EFFE4FCFDFE781011034AD003D09D
:10264B0002D001D000EF4BFFEE4AFEED49FDEC4806
:10265B00FCA804C005C006C007AB25AA26A927E91C
:10266B002404F9E43AFA11007EFFD003D002D00122
:10267B00EF4BFFEAFEE9FDE8FC904003A111039547
:10268B00904003A1A3E0FDA3E0FEA3E0FFED540FF8
:10269B00FDE4FC904003A1110395AB25AA26A927C5
:1026AB00E92402F9E43AFA11007E54F0904003A5B4
:1026BB00F0E06008E0644060030128669040039FEF
:1026CB00E0FEA3E0FF904003A1E0F8A3E0F9A3E054
:1026DB00FAA3E0FBEF2BFFEE3AFEE439FDE438FC06
:1026EB00E4FBFA7910F8C311032650030128669016
:1026FB004003A5E0601B904003A1E0FCA3E0FDA319
:10270B00E0FEA3E0FFED4440FDEC904003A111037C
:10271B0095AB25AA26A927E92405F9E43A8B25F5DB
:10272B00268927904003A1E0FCA3E0FDA3E0FEA3D4
:10273B00E0FFE4FBFA7902F8D311032640030127EB
:10274B00D79040039FE0FEA3E0FF904003A1E0F889
:10275B00A3E0F9A3E0FAA3E0FBEF2BFFEE3AFEE4D4
:10276B0039FDE438FCE4FBFA7904F8C31103264085
:10277B005B904003A1E0FCA3E0FDA3E0FEA3E024FB
:10278B0000FFE43EFEED3401FDE43CA907AA06ABD5
:10279B0005C003C002C001AB25AA26A927904000A3
:1027AB0042EBF0A3EAF0A3E9F09040039FE0FFA314
:1027BB00E090400045CFF0A3EFF0D001D002D00362
:1027CB001156CEBF01030128660128CF9040039F0D
:1027DB0074FFF5F011017A45F070030128CF90409A
:1027EB0003A1E0FCA3E0FDA3E0FEA3E0FFE4FBFA02
:1027FB007902F8D3110326506B904003A1E0FCA3A0
:10280B00E0FDA3E0FEA3E0FFE47904F8110326400A
:10281B0053904003A1E0FCA3E0FDA3E0FEA3E02462
:10282B0000FFE43EFEED3401FDE43CA907AA06AB34
:10283B0005C003C002C001AB25AA26A92790400002
:10284B0042EBF0A3EAF0A3E9F0A3E4F0A304F0D089
:10285B0001D002D0031156CEBF013AE4F528F52979
:10286B00752C3022904003A1E0FCA3E0FDA3E0FE19
:10287B00A3E02400FFE43EFEED3401FDE43CA90798
:10288B00AA06AB05A807AC06AB25AA26A9277E008E
:10289B007F0111049B904003A1E0FCA3E0FDA3E0AA
:1028AB00FEA3E02401FFE43EFEE43DFDE43CFC908E
:1028BB004003A111039574012527F527E43526F56F
:1028CB00260127D7E4F528F529752C7022E52B6412
:1028DB0001452A60028030AB25AA26A92711007E6C
:1028EB00547F904003BCF0AB25AA26A92711007E8C
:1028FB005480904003BDF0904003BCE0C394014072
:10290B0006E0D394094009E4F528F529752C30220B
:10291B00AB25AA26A92711007EAB21AA22A9231138
:10292B0000B0752800752901904003BCE075F0409C
:10293B00A4FF904003BEE5F0F0A3EFF0E49040035A
:10294B00BBF0904003BCE07E0024EDF9EE3402FABC
:10295B007B4111007EFF904003BBE0C39F4003010E
:10296B002BC4904003BDE07003012ABAA3E0FEA381
:10297B00E0FF7C007D151100C4740D2FF974403EEF
:10298B00FA7B0111007EFFAB21AA22A9230529E5C1
:10299B0029AC28700205281429F9EA3CFAEF11003A
:1029AB00B0904003BEE0FEA3E0FF7C001100C474B6
:1029BB000E2FF974403EFA7B0111007EFFAB21AA6A
:1029CB0022A9230529E529AC28700205281429F929
:1029DB00EA3CFAEF1100B0904003BEE0FEA3E0FF2B
:1029EB007C001100C4740F2FF974403EFA7B011167
:1029FB00007EFFAB21AA22A9230529E529AC28706B
:102A0B000205281429F9EA3CFAEF1100B0904003B3
:102A1B00BEE0FEA3E0FF7C001100C474102FF9741C
:102A2B00403EFA7B0111007EFFAB21AA22A92305B0
:102A3B0029E529AC28700205281429F9EA3CFAEF9C
:102A4B001100B0904003BEE0FEA3E0FF7C0011003C
:102A5B00C474112FF974403EFA7B0111007EFFAB59
:102A6B0021AA22A9230529E529AC287002052814DF
:102A7B0029F9EA3CFAEF1100B0904003BEE0FEA347
:102A8B00E0FF7C001100C474122FF974403EFA7BF6
:102A9B000111007EFFAB21AA22A9230529E529AC50
:102AAB0028700205281429F9EA3CFAEF1100B090BE
:102ABB004003BEE0FEA3E0FF7C007D151100C47453
:102ACB00132FF974403EFA7B01110190E5F0FFAB37
:102ADB0021AA22A9230529E529AC2870020528146F
:102AEB0029F9EA3CFAEF1100B0904003BEE0FEA3D7
:102AFB00E0FF7C001100C474132FF974403EFA7B85
:102B0B0001110190FFAB21AA22A9230529E529ACCC
:102B1B0028700205281429F9EA3CFAEF1100B0904D
:102B2B004003BEE0FEA3E0FF7C001100C474092F3C
:102B3B00F974403EFA7B0111035D1159C6E47BE841
:102B4B007A03F9F8110287904003C0110395904066
:102B5B0003C0E0FCA3E0FDA3E0FEA3E0FF780811B7
:102B6B000337AB21AA22A9230529E529AC2870023A
:102B7B0005281429F9EA3CFAEF1100B0904003C084
:102B8B00A3A3A3E0FFAB21AA22A9230529E529AC26
:102B9B0028700205281429F9EA3CFAEF1100B090CD
:102BAB004003BFE004F07007904003BEE004F090D8
:102BBB004003BBE004F001294DE52945287003755E
:102BCB002C7022E52B6405452A6003012EB8AB253A
:102BDB00AA26A927E92401F9E43AFA11007EFDABF4
:102BEB0025AA26A92711007EFFED90400398CFF070
:102BFB00A3EFF090400398E0FEA3E0D394FBEE9498
:102C0B001F4003012EB8AB25AA26A927E92403F9F7
:102C1B00E43AFA11007EFFE4FCFDFE780811034A4A
:102C2B00C004C005C006C007AB25AA26A927E92406
:102C3B0002F9E43AFA11007EFFE4FCFDFE78101174
:102C4B00034AD003D002D001D000EF4BFFEE4AFE77
:102C5B00ED49FDEC48FCA804C005C006C007AB2538
:102C6B00AA26A927E92404F9E43AFA11007EFFD039
:102C7B0003D002D001EF4BFFEAFEE9FDE8FC9040E8
:102C8B00039A1103959040039AA3E0FDA3E0FEA3E2
:102C9B00E0FFED540FFDE4FC9040039A110395AB5C
:102CAB0025AA26A927E92402F9E43AFA11007E5451
:102CBB00F09040039EF090400398E0FEA3E02405C3
:102CCB00F529E43EF528AB21AA22A923A801AC02E1
:102CDB00AD03AB25AA26A9277E007F0511049B9087
:102CEB0040039EE024F07003012DBA24F070030121
:102CFB002E4624E0600724406003012EB890400369
:102D0B0098E0FEA3E0FF9040039AE0F8A3E0F9A35C
:102D1B00E0FAA3E0FBEF2BFFEE3AFEE439FDE438DB
:102D2B00FCE4FBFA7910F8C31103265003012EB80B
:102D3B009040039EE0601B9040039AE0FCA3E0FDF3
:102D4B00A3E0FEA3E0FFED4440FDEC9040039A119D
:102D5B00039590400398E0FEA3E0FFC006C00790E8
:102D6B0040039AE0FCA3E0FDA3E0FEA3E02400FFF8
:102D7B00E43EFEED3401FDE43CA907AA06AB05C019
:102D8B0003C002C001AB21AA22A923E92405F9E45F
:102D9B003AA801FCAD03D001D002D003D007D00676
:102DAB0011049BE52945286003012EC0012EB49028
:102DBB00400398E0FEA3E0FF9040039AE0F8A3E005
:102DCB00F9A3E0FAA3E0FBEF2BFFEE3AFEE439FDAB
:102DDB00E438FCE4FBFA7910F8C311032650030125
:102DEB002EB890400398E0FEA3E0FFC006C007900A
:102DFB0040039AE0FCA3E0FDA3E0FEA3E02400FF68
:102E0B00E43EFEED3481FDE43CA907AA06AB05C008
:102E1B0003C002C001AB21AA22A923E92405F9E4CE
:102E2B003AA801FCAD03D001D002D003D007D006E5
:102E3B0011049BE5294528707C806E90400398E037
:102E4B00FEA3E0FF9040039AE0F8A3E0F9A3E0FAB9
:102E5B00A3E0FBEF2BFFEE3AFEE439FDE438FCE494
:102E6B00FB7A01F9F8C3110326500280409040030E
:102E7B0098E0FEA3E0FF9040039AA3A3A3E0F97AA6
:102E8B00007B00C003C002C001AB21AA22A923E929
:102E9B002405F9E43AA801FCAD03D001D002D0031C
:102EAB0011049BE5294528700C752C7022E4F5283C
:102EBB00F529752C3022E55B700B90400390E020D8
:102ECB00E303013197E513603FE4F508E47F01FE6E
:102EDB00FDFCA908A80111034AA905AA06AB07AF77
:102EEB0013E4FCFDFEEB5FFFEF600AE50804FF1146
:102EFB005083E4F511E50804FF115C7B0508E50838
:102F0B00C3940840C7E4F513E51C6003E4F511E531
:102F1B001E6003E4F511E51164026003E4F50BE5B3
:102F2B001114602C14607814700301308E1470032C
:102F3B0001317D24046003013197E4F51C75090907
:102F4B00F50AF51AF518E51E600301319701319466
:102F5B00AF09EF75F040A485F00CF50DAF09EF75D7
:102F6B00F040A485F00EF50FE509B4090301315AC1
:102F7B00E47F01FEFDFCC3E5099401F9F811034A56
:102F8B00A905AA06AB07AF12E4FCFDFEEB5FFFEF52
:102F9B006033AF09115519AF09115C7B013179E42D
:102FAB00F51AF518E509C39409501DE47F01FEFDE0
:102FBB00FCC3E5099401F9F811034AAB07AF12EB17
:102FCB005FFFEF70030130DBAF097E0074ED2FF96B
:102FDB00EE3402FA7B4111007EFD7C00AF09EF75E8
:102FEB00F040A42DFFEC35F0FEC3E50D9FE50C9EE4
:102FFB00400301308AAE0CAF0D7C007D151100C46F
:10300B0074082FF974403EFA7B0111007E6023AEE9
:10301B000CAF0D1100C474082FF974403EFA110067
:10302B007EC39401FFE50AA807088002C333D8FCCE
:10303B00600A050DE50D7090050C808CE47F01FE98
:10304B00FDFCC3E5099401F9F811034AA905AA0689
:10305B00AB07AF1BE4FCFDEB5FFFEF6003751801E3
:10306B00AF0DAE0C115B2B050DE50D7002050C05BC
:10307B000BE518700AE50BC39515500301319775D5
:10308B00110322E509C39409501CE47F01FEFDFCEA
:10309B00C3E5099401F9F811034AAB07AF12EB5FD3
:1030AB00FFEF7002802AAF097E0074ED2FF9EE342A
:1030BB0002FA7B4111007EFD7C00AF09EF75F040F9
:1030CB00A42DFFEC35F0FEC3E50F9FE50E9E4004EB
:1030DB0075110422AE0EAF0F7C007D151100C47468
:1030EB00082FF974403EFA7B0111007E6023AE0E6F
:1030FB00AF0F1100C474082FF974403EFA11007E13
:10310B00C39401FFE50AA807088002C333D8FC600B
:10311B000A050FE50F708F050E808BAE0EAF0F7C7F
:10312B00007D151100C474092FF974403EFA7B0120
:10313B0011035D1159C6E47BEE7A02F9F8D3110342
:10314B00265049E51A600AE50D150D7002150C8025
:10315B001DAF0FAE0E1118F6050FE50F7002050E21
:10316B00E4F518C3E50F950DE50E950C401E751192
:10317B000222E5090475F00A8485F009E50970025D
:10318B000509E509B40902050A75110122E0FF11D1
:10319B0031AD90400084E0FF1131AD90400084E0F0
:1031AB00FF0DEF6409600301326AED6059C2AFC2D3
:1031BB00B5D2B5D2AFE4904002A1F0000000000000
:1031CB0000000000000000000000000000000000F4
:1031DB0000000000000000000000000000000000E4
:1031EB0000000000000000000000000000000000D4
:1031FB000000000000000000904002A1E004F0E09D
:10320B00B403B80133E1C2AFC2B5E4904002A2F0FF
:10321B0000000000000000000000000000000000A3
:10322B000000000000000000000000000000000093
:10323B000000000000000000000000000000000083
:10324B0000000000000000000000000000904002A1
:10325B00A2E004F0E0B403B8D2B5D2AF0133E1C3BE
:10326B00EF9401FF7401A807088002C333D8FC90C8
:10327B004002A4F0E0F4A3F0ED700301337BC2AF86
:10328B00E09007F010F0A37401F0000000000000C4
:10329B0000000000000000000000E4F0000000004F
:1032AB000000000000000000000000000000000013
:1032BB000000000000000000000000000000000003
:1032CB0000000000000000000000000000000000F3
:1032DB0000000000000000000000000000000000E3
:1032EB0000000000000000000000000000000000D3
:1032FB0000000000000000000000000000000000C3
:10330B0000000000000000000000000000000000B2
:10331B0000000000000000000000000000000000A2
:10332B000000000000000000000000000000000092
:10333B000000000000000000000000000000000082
:10334B000000000000000000000000000000000072
:10335B000000000000000000000000000000000062
:10336B00000000000000000000000000D2AF8066EB
:10337B00C2AF904002A5E09007F010F0A37401F0EB
:10338B00E4904002A3F000000000000000000000E9
:10339B000000000000000000000000000000000022
:1033AB000000000000000000000000000000000012
:1033BB000000000000000000000000000000000002
:1033CB00000000904002A3E004F0E0B403B8E490E6
:1033DB0007F011F0D2AF0000000000000000000069
:1033EB0000000000000000000000000000000000D2
:1033FB0000000000000000000000000000000000C2
:10340B0000000000000000000000000000000000B1
:10341B0000000000000000000000000000000000A1
:10342B00000022F0E0FF90400052E4F0A3F0A3F084
:10343B00FBFAF99040004FEBF0A3EAF0A3E9F0EFB1
:10344B00640960030134F2C2B590400295F00000AC
:10345B000000000000000000000000000000000061
:10346B000000000000000000000000000000000051
:10347B000000000000000000000000000000000041
:10348B00000000000000000000000090400295E0EA
:10349B0004F0E0B419B8D2B5E490400296F0000005
:1034AB000000000000000000000000000000000011
:1034BB000000000000000000000000000000000001
:1034CB0000000000000000000000000000000000F1
:1034DB00000000000000000000000090400296E099
:1034EB0004F0E0B419B822C3EF9401FF7401A807EC
:1034FB00088002C333D8FC90400299F0E0F4A3F0AB
:10350B00C2AFE09007F010F0A37401F000000000D0
:10351B0000000000000000000000000000000000A0
:10352B000000000000000000000000000000000090
:10353B000000000000000000000000000000000080
:10354B00000000009007F010E09040029BF0D2AF1B
:10355B009040004FE0FBA3E0FAA3E0F9EA494B608F
:10356B000A9040029BE0FFEF1100B0E490400297FD
:10357B00F000000000000000000000000000000050
:10358B000000000000000000000000000000000030
:10359B000000000000000000000000000000000020
:1035AB000000000000000000000000000000904040
:1035BB000297E004F0E0B419B8C2AFE49007F01141
:1035CB00F000000000000000000000000000000000
:1035DB0000000000000000000000000000000000E0
:1035EB0000000000000000000000000000000000D0
:1035FB000000000000000000009007F010E0904079
:10360B00029BF0D2AF90400052E0FBA3E0FAA3E0A4
:10361B00F9EA494B600A9040029BE0FFEF1100B0C2
:10362B00E490400298F00000000000000000000051
:10363B00000000000000000000000000000000007F
:10364B00000000000000000000000000000000006F
:10365B00000000000000000000000000000000005F
:10366B0000000090400298E004F0E0B419B82290FA
:10367B00400088EFF0ED6008E4904002B5F0A3F055
:10368B00904002B5E0B401037F0122904002BA746E
:10369B0001F0E4A3F0904002BDF0904002BC04F0B6
:1036AB00E4F55A90400088E0FF11343190400088D7
:1036BB00E0FF7DF0117251904002BDE0C3940840D1
:1036CB00030137F71141D5904002B8EFF01141D506
:1036DB00904002B9EFF0904002B8E0B4010EA3E0C5
:1036EB00B40109904002B57401F0FF22904002B979
:1036FB00E0FF904002B8E06F6008E0904002B7F046
:10370B008058904002B6E0FF904002BAE0C39F5051
:10371B001E904002BDE07E0024BEF9EE3402FA7B1F
:10372B004111007EFF904002BCE05F6019800E905B
:10373B004002B6E0FF904002BAE0B50709904002A4
:10374B00B77401F08006E4904002B7F0904002B7E6
:10375B00E07007904002BAE0A3F0904002B7E0900F
:10376B004002BD6018E07E0024BEF9EE3402FA7B05
:10377B004111007EFF904002BCE04F8017E07E00BD
:10378B0024BEF9EE3402FA7B4111007EFF90400219
:10379B00BCE0F45F1100B090400088E0FF90400265
:1037AB00B7E0FD1131AD904002BAE004F090400259
:1037BB00BCE025E0F0E060030136C2A3E07E00240C
:1037CB00BEF9EE3402FA7B4111007E655A2495F95D
:1037DB00EE3401FA7B4111007EF55A904002BDE0B8
:1037EB0004F0904002BC7401F00136C2E55A700738
:1037FB00904002BEE070037F012290400088E07E83
:10380B000024EDF9EE3402FA7B4111007EFD7C00C1
:10381B0090400088E075F040A42DFEEC35F0904010
:10382B0002C8F0A3CEF0904002C67409F07B417A37
:10383B000279BEC003C001904002C8E0FEA3E0FFC6
:10384B007D151100C474002FF974403EA801FC7D56
:10385B0001D001D0037E007F0911049B90400088AA
:10386B00E0FF7E0024EDF9EE3402FA7B4174011186
:10387B000094904002BBE0904002B6F0E060107400
:10388B00ED2FF9EE3402FA11007EC39440400790FD
:10389B004002B57401F07F00229040007CEDF09067
:1038AB0040007BEFF0AF1F30E10CEF75F01CA42450
:1038BB00B9F97400800AEF75F01CA424B6F97400F2
:1038CB0035F0FA7B411103A19040008BEBF0A3EA9A
:1038DB00F0A3E9F09040007BE0AF1F30E20CEF75F6
:1038EB00F01CA424ABF97400800AEF75F01CA4241F
:1038FB00A8F9740035F0FA7B411103A19040008EBA
:10390B00EBF0A3EAF0A3E9F0E51F5403240AFDE46E
:10391B00FBFF115267E51F5403240AFD7F0111526F
:10392B00679040007BE05404FFE51F04FD7B801192
:10393B0052679040008EE0FBA3E0FAA3E02406F967
:10394B00E43AFA74F61100B09040007BE0FF90402F
:10395B00008BE0FBA3E0FAA3E02402F9E43AFAEFD0
:10396B001100B0E51FC39404AF205002AF24904068
:10397B00008BE0FBA3E0FAA3E02403F9E43AFAEFAF
:10398B001100B0E51F5403FF9040008BE0FBA3E058
:10399B00FAA3E02404F9E43AFAEF1100B0904000E6
:1039AB008BE0FBA3E0FAA3E02405F9E43AFAE41177
:1039BB0000B09040007CE07003013A76C454F044B0
:1039CB000CFF9040008BE0FBA3E0FAA3E02406F988
:1039DB00E43AFAEF1100B09040008BE0FBA3E0FA61
:1039EB00A3E02407F9E43AFAC003C002C001AF1FF9
:1039FB00EF75F01CA424BFF9740035F0FA7B41116C
:103A0B0003A19040004AEBF0A3EAF0A3E9F0904049
:103A1B00007CE09040004DF0D001D002D003116B40
:103A2B00CCAF1FEF75F01CA424C2F9740035F0FA6B
:103A3B007B41110190FF9040007CE0FDC3EF9DFFA7
:103A4B00E5F094008FF01101E09040007CE0FDAFB9
:103A5B001FEF75F01CA424BFF9740035F0FA09E9C7
:103A6B0070010AE48DF01101B480169040008BE0D8
:103A7B00FBA3E0FAA3E02406F9E43AFA740C110074
:103A8B00B09040007BE05402FFE51F5403240AFD75
:103A9B007BC501526790400086EFF0E075F040A4C3
:103AAB00FF904002B2E5F0F0A3EFF090400086E00B
:103ABB007E0024EDF9EE3402FA7B41E41100B09064
:103ACB004002B4F0904002B2E0FEA3E0FF7C007D28
:103ADB00151100C474002FF974403EFA7B01E411F8
:103AEB0000B0904002B2E0FEA3E0FF1100C47401ED
:103AFB002FF974403EFAE41100B0904002B2E0FEA0
:103B0B00A3E0FF1100C474022FF974403EFAE411D4
:103B1B0000B0904002B2E0FEA3E0FF1100C47403BA
:103B2B002FF974403EFAE41100B0904002B2E0FE6F
:103B3B00A3E0FF1100C474042FF974403EFAE411A2
:103B4B0000B0904002B2E0FEA3E0FF1100C4740588
:103B5B002FF974403EFAE41100B0904002B2E0FE3F
:103B6B00A3E0FF1100C474062FF974403EFAE41170
:103B7B0000B0904002B2E0FEA3E0FF1100C4740756
:103B8B002FF974403EFAE41100B0904002B2E0FE0F
:103B9B00A3E0FF1100C474082FF974403EFAE4113E
:103BAB0000B0FFFEFDC005C006C007904002B2E0AA
:103BBB00FEA3E0FF7D151100C474092FF974403E7C
:103BCB00FAD007D006D00511037A904002B2E0FE7E
:103BDB00A3E0FF7C007D151100C4740D2FF9744018
:103BEB003EFAE41100B0904002B2E0FEA3E0FF11F8
:103BFB0000C4740E2FF974403EFAE41100B09040EB
:103C0B0002B2E0FEA3E0FF1100C474102FF9744060
:103C1B003EFAE41100B0904002B2E0FEA3E0FF11C7
:103C2B0000C474112FF974403EFAE41100B09040B7
:103C3B0002B2E0FEA3E0FF1100C474122FF974402E
:103C4B003EFA74801100B0904002B2E0FEA3E0FF98
:103C5B001100C474132FF974403EFA748075F00090
:103C6B001101E0904002B3E004F07007904002B203
:103C7B00E004F0904002B4E004F0E0644060030123
:103C8B003ACF22E4F55BE55B9040038F700574043B
:103C9B00F080037405F0745A2406F9E43409FA7BB6
:103CAB0081C003C002C001788D7C037D41D001D05F
:103CBB0002D0037E007F0211049B9040038EE0C371
:103CCB00943090400388F0788D7C037D417B817A22
:103CDB0009795A7E007F0211049B9040038DE0C34B
:103CEB00943075F00AA4FFA3E0C394302F904003E7
:103CFB0089F0745A2403F9E43409FA7B81C003C0B8
:103D0B0002C001788D7C037D41D001D002D0037EAF
:103D1B00007F0211049B9040038DE0C3943075F03B
:103D2B000AA4FFA3E0C394302F9040038AF0788D50
:103D3B007C037D417B817A0979637E007F021104CC
:103D4B009B9040038DE0C3943075F00AA4FFA3E071
:103D5B00C394302F9040038BF074632403F9E43445
:103D6B0009FA7B81C003C002C001788D7C037D41C1
:103D7B00D001D002D0037E007F0211049B90400340
:103D8B008DE0C3943075F00AA4FFA3E0C394302FE9
:103D9B009040038CF07B017A00790111007E9040FA
:103DAB000390F0E41100B09040039374FFF0904047
:103DBB000388E0C454F0FFA3E04F90400394F090CD
:103DCB0040038AE090400395F09040038BE09040D5
:103DDB000396F09040038CE090400397F030DE1296
:103DEB0075C7AA75C755C2DEE490400390F0191150
:103DFB0000B0E4FFFE7D02FC1122917F007E807DEE
:103E0B00037C00112291E55B704390400390E054DA
:103E1B0007701D7B087AF0791411007E20E0489022
:103E2B00400390E020E640E07B017A0079018015A9
:103E3B007B017A00790011007E702C90400390E09A
:103E4B0020E624E0091100B0116DE7801A117650BD
:103E5B0090400390E054077006E04410F080089007
:103E6B00400390E054EFF001736490400082EDF05A
:103E7B00EF6003013F5DE014B40F00400301402CE1
:103E8B0090003E9A75F003A4C58325F0C58373019A
:103E9B003EC7013ED1013EDB013EE5013EEF013E57
:103EAB00F9013F03013F0D013F17013F21013F2B5B
:103EBB00013F35013F3F013F49013F539040008A8D
:103ECB00E5ABF001402C9040008AE5ACF001402CB2
:103EDB009040008AE5ADF001402C9040008AE5AEA1
:103EEB00F001402C9040008AE5AFF001402C90404F
:103EFB00008AE5B3F001402C9040008AE5B4F00154
:103F0B00402C9040008AE5B5F001402C9040008A8F
:103F1B00E5B6F001402C9040008AE5B7F001402C4B
:103F2B009040008AE5BBF001402C9040008AE5BC34
:103F3B00F001402C9040008AE5BDF001402C9040F0
:103F4B00008AE5BEF001402C9040008AE5BFF001ED
:103F5B00402C90400082E014B40F00400301402C31
:103F6B0090003F7A75F003A4C58325F0C5837301D8
:103F7B003FA7013FB0013FB9013FC2013FCB013F1A
:103F8B00D4013FDD013FE6013FEF013FF801400166
:103F9B0001400A01401301401C0140259040008A5A
:103FAB00E5EBF0807C9040008AE5ECF0807390406C
:103FBB00008AE5EDF0806A9040008AE5EEF08061C2
:103FCB009040008AE5EFF080589040008AE5F3F0CE
:103FDB00804F9040008AE5F4F080469040008AE5DF
:103FEB00F5F0803D9040008AE5F6F080349040007B
:103FFB008AE5F7F0802B9040008AE5FBF080229059
:10400B0040008AE5FCF080199040008AE5FDF080C5
:10401B00109040008AE5FEF080079040008AE5FF93
:10402B00F09040008AE0FF22E52B6403452A6003F1
:10403B000140CBAB25AA26A927E92401F9E43AFADA
:10404B0011007EFFE4FCFDFE780811034AC004C09A
:10405B0005C006C007AB25AA26A92711007EFFE4E1
:10406B00FCFDFE781011034AD003D002D001D00022
:10407B00EF4BFFEE4AFEED49FDEC48FCA804C005F2
:10408B00C006C007AB25AA26A927E92402F9E43A02
:10409B00FA11007EFFD003D002D001EF4BFFEAFEF6
:1040AB00E9FDE8FC904003E2110395904003E2E048
:1040BB00FCA3E0FDA3E0FEA3E0FF112291BF0109E9
:1040CB00E4F528F529752C302275280075290AAFDF
:1040DB0030AE2FAD2EAC2D7810110337AB21AA22A9
:1040EB00A923EF1100B0AF30AE2FAD2EAC2D780859
:1040FB00110337AB21AA22A923E92401F9E43AFAE7
:10410B00EF1100B0AF30AE2FAD2EAC2DAB21AA22EC
:10411B00A923E92402F9E43AFAEF1100B0AF34AE67
:10412B0033AD32AC317810110337AB21AA22A9235E
:10413B00E92403F9E43AFAEF1100B0AF34AE33AD32
:10414B0032AC317808110337AB21AA22A923E92419
:10415B0004F9E43AFAEF1100B0AF34AE33AD32AC40
:10416B0031AB21AA22A923E92405F9E43AFAEF118C
:10417B0000B0E535FFAB21AA22A923E92406F9E417
:10418B003AFAEF1100B0AF36AB21AA22A923E924EA
:10419B0007F9E43AFAEF1100B0E537FFAB21AA2299
:1041AB00A923E92408F9E43AFAEF1100B0AF38ABD0
:1041BB0021AA22A923E92409F9E43AFAEF1100B064
:1041CB00E52945287003752C702290400088E0FF8C
:1041DB00EF6409600301428CC2AFC2B5000000005E
:1041EB00000000000000000000000000D2B500003D
:1041FB0000000000000000000000000000000000B4
:10420B0000000000000000000000000000000000A3
:10421B000000000000000000000000000000000093
:10422B00000000000000A2B533904002A0F0D2AF16
:10423B00E49040029CF00000000000000000000031
:10424B000000000000000000000000000000000063
:10425B000000000000000000000000000000000053
:10426B000000000000000000000000000000000043
:10427B000000009040029CE004F0E0B403B801435E
:10428B0064C3EF9401FF7401A807088002C333D8FD
:10429B00FC9040029EF0E0F4A3F0C2AFE09007F078
:1042AB0010F0A37401F000000000000000000000FB
:1042BB00000000000000E4F000000000000000001F
:1042CB0000000000000000000000000000000000E3
:1042DB0000000000000000000000000000000000D3
:1042EB0000000000000000000000000000000000C3
:1042FB009007F010E0904002A0F0D2AFE0FF9040AA
:10430B00029EE0FEEF5E904002A0F0E49040029D22
:10431B00F0000000000000000000000000000000A2
:10432B000000000000000000000000000000000082
:10433B000000000000000000000000000000000072
:10434B000000000000000000000000000000904092
:10435B00029DE004F0E0B403B8904002A0E07F00BF
:10436B0060027F012211437C11437C11437C11437A
:10437B007C000000000000000000000000000000B6
:10438B000000000000000000000000000000000022
:10439B000000000000000000000000000000000012
:1043AB000000000000000000000000000000000002
:1043BB0000000000000000000000000000000000F2
:1043CB0000000000000000000000000000000000E2
:1043DB0000000000000000000000000000000000D2
:1043EB0000000000000000000000000000000000C2
:1043FB0000000000000000000000000000000000B2
:10440B0000000000000000000000000000000000A1
:10441B000000000000000000000000000000000091
:10442B000000000000000000000000000000000081
:10443B000000000000000000000000000000000071
:10444B000000000000000000000000000000000061
:10445B000000000000000000000000000000000051
:10446B000000000000000000000000000000000041
:10447B000000000000000000000000000000000031
:10448B000000000000000000000000000000000021
:10449B000000000000000000000000000000000011
:1044AB000000000000000000000000000000000001
:1044BB0000000000000000000000000000000000F1
:1044CB0000000000000000000000000000000000E1
:1044DB0000000000000000000000000000000000D1
:1044EB0000000000000000000000000000000000C1
:1044FB00000000000000000000000000000022E5AA
:10450B005B6401700301469B9040036FE014607481
:10451B001470030145D78000E490400367F090408E
:10452B000367E07E002470F9EE3403FA7B4111003F
:10453B007EB4014490400367E0FFE4FCFDFB7A404E
:10454B00F9F81101FCE42FFFE43EFEED3402FDE42B
:10455B003CFCE42FFFE43EFEED3401FDE43CA907F7
:10456B00AA06AB0590400368EDF0A3EAF0A3E9F0CF
:10457B009040036F7401F02290400367E004F0E079
:10458B00B4089B22C2AFD2B39002055574AAF09027
:10459B000202AA7455F0900205557480F074AAF0CB
:1045AB00900202AA7455F090400368E0FBA3E0FA76
:1045BB00A3E0F974301100B0D2AF117276904003C2
:1045CB006B1103959040036F7402F02290400368C7
:1045DB00E0FBA3E0FAA3E0F911007E30E719C2B3C8
:1045EB0090400367E07E002470F9EE3403FA7B41C0
:1045FB00E41100B001468F90400368E0FBA3E0FAA2
:10460B00A3E0F911007E30E54490400368E0FBA382
:10461B00E0FAA3E0F911007E30E718C2B390400333
:10462B0067E07E002470F9EE3403FA7B41E411005D
:10463B00B08018C2B390400367E07E002470F9EE9F
:10464B003403FA7B4174021100B0E48037904003CD
:10465B006BE0FCA3E0FDA3E0FEA3E0FF1159C6E471
:10466B007B987A3AF9F8C31103265024C2B39040D1
:10467B000367E07E002470F9EE3403FA7B41740289
:10468B001100B0E49040036FF09002088874F0F0D2
:10469B0022C3E52B9401FFE52A9400FE7C007D09E3
:1046AB001100D6904003B8EFF0C3E52B9401E52A37
:1046BB0094004037E52B9401FFE52A9400FE7C0023
:1046CB007D091100D6ED4C7022E0D394404002805E
:1046DB001AAB25AA26A92711007E904003B7F0E05C
:1046EB00C394014006E0D394094009E4F528F52969
:1046FB00752C3022904003B7E0C39401FF7401A8DE
:10470B0007088002C333D8FC4213751C01E47F01F8
:10471B00FEFDFC904003B7E0C39401F9F811034A86
:10472B00110319EF521E751D01A3E0FF904003B753
:10473B00E07C0024EDF9EC3402FA7B41EF1100B080
:10474B00904003B7E075F040A4FF904003B9E5F04B
:10475B00F0A3EFF0E4904003B6F0904003B8E0FF15
:10476B00904003B6E0C39F400301480FAB25AA2638
:10477B00A927E92401F9E43AFAE075F009A429F92B
:10478B00EA35F0FAC003C001904003B9E0FEA3E0A4
:10479B00FF7C007D151100C474002FF974403EA8F6
:1047AB0001FC7D01D001D0037E007F0911049B9099
:1047BB004003B9E0FEA3E0FF7C007D151100C4743B
:1047CB00082FF974403EFA7B0111007ED394094007
:1047DB0019904003B9E0FEA3E0FF1100C474082F49
:1047EB00F974403EFA74091100B0904003BAE0042A
:1047FB00F07007904003B9E004F0904003B6E0047A
:10480B00F0014765E4F528F529752C7022904000DE
:10481B005BEBF0A3EAF0A3E9F09040005BE0FBA3B5
:10482B00E0FAA3E0F911007EFD540FFF74017E0046
:10483B00A807088005C333CE33CED8F9F5568E556D
:10484B00EDC45407FF7401A807088002C333D8FCDA
:10485B00F5571175ECEF60037F01221170CB90407F
:10486B00005BE0FBA3E0FAA3E024011171F290409E
:10487B00005BE0FBA3E0FAA3E024021171F290408D
:10488B00005BE0FBA3E0FAA3E024031171F290407C
:10489B00005BE0FBA3E0FAA3E02404F9E43AFA118D
:1048AB00007EFF1171941171069040005EE0FBA336
:1048BB00E0FAA3E0F91171029040005EE0FBA3E087
:1048CB00FAA3E024011170FE9040005EE0FBA3E030
:1048DB00FAA3E024021170FE9040005EE0FBA3E01F
:1048EB00FAA3E02403F9E43AFAEF1100B0E49007DD
:1048FB00F003F09040005BE0FBA3E0FAA3E024019F
:10490B00F9E43AFA11007E547FFF9040005EE0FB21
:10491B00A3E0FAA3E0F911007E6F60149040005BF6
:10492B00E0FBA3E0FAA3E0F911007E44801100B094
:10493B009040005BE0FBA3E0FAA3E02402F9E43A29
:10494B00FA11007EFF9040005EE0FBA3E0FAA3E0CB
:10495B002401F9E43AFA11007E6F60149040005B79
:10496B00E0FBA3E0FAA3E0F911007E44801100B054
:10497B007F0022E52B6401452A7073AB25AA26A97B
:10498B002711007E904003CCF0E0FF7B417A037946
:10499B00CF115F56BF0103014ACF7528007529035C
:1049AB00904003CCE0AB21AA22A9231100B0904088
:1049BB0003CFE0FEA3E0EEFFAB21AA22A923E9245B
:1049CB0001F9E43AFAEF1100B0904003CFE0A3E015
:1049DB00FFAB21AA22A923E92402F9E43AFAEF1149
:1049EB0000B0E52945286003014AD7014ACBE52BE6
:1049FB006403452A6003014ACFAB25AA26A92711D8
:104A0B00007E904003CCF0AB25AA26A927E9240110
:104A1B00F9E43AFA11007EFEAB25AA26A927E92470
:104A2B0002F9E43AFA11007E7C002400FFEC3E9080
:104A3B004003CDF0A3EFF0752800752901904003DA
:104A4B00CCE0AB21AA22A9231100B0904003CD7476
:104A5B00FFF5F011017A45F06060904003CCE0FF68
:104A6B007B417A0379CF115F56BF0102805690408C
:104A7B0003CFE0FEA3E0EEFFAB21AA22A923AC28D3
:104A8B00AD29E92DF9EA3CFAEF1100B0904003CFC4
:104A9B00E0A3E0FFAB21AA22A923E5292401FDE431
:104AAB003528FCE92DF9EA3CFAEF1100B074022528
:104ABB0029F529E43528F5288091E5294528700C3E
:104ACB00752C7022E4F528F529752C3022904000C6
:104ADB006AEBF0A3EAF0A3E9F0A3EDF0E075F002C6
:104AEB00A4FF904003D9E0FCA3E02FFFE5F03CFED0
:104AFB00D3EF9440EE941F4003014C18E490400315
:104B0B00D5F09040006DE0FF904003D5E0C39F408F
:104B1B0003014C189040006AE0FBA3E0FAA3E0F914
:104B2B00904003D5E0FF7E00E92FF9EE3AFAC0037F
:104B3B00C002C00178D67C037D41D001D002D003E6
:104B4B007F0111049B904003D6E0C4540FA3F09057
:104B5B004003D6E0540F904003D8F0904003D7E0C9
:104B6B00C3940A5006E02430F08008904003D7E04D
:104B7B002437F0904003D8E0C3940A5006E0243069
:104B8B00F08008904003D8E02437F0904003D7E042
:104B9B00FFC007904003D9E0FEA3E0FFE42FFFEE38
:104BAB003420FEE433FDE433FCE42FFFE43EFEED62
:104BBB003401FDE43CA907AA06AB05D0E01100B017
:104BCB00904003D8E0FFC007A3E0FEA3E0FFE42F73
:104BDB00FFEE3420FEE433FDE433FCEF2401FFE46D
:104BEB003EFEED3401FDE43CA907AA06AB05D0E07F
:104BFB001100B0904003DAE02402F0904003D9E0BA
:104C0B003400F0904003D5E004F0014B0D22AE2AA6
:104C1B00AF2B7C007D051100D6904003F9EFF0AE71
:104C2B002AAF2B7C007D051100D6ED4C700CE0C338
:104C3B0094014006E0D3940A4003014CECE4F528C0
:104C4B00F529AB25AA26A92790400055EBF0A3EA3E
:104C5B00F0A3E9F0AB21AA22A923A3EBF0A3EAF07E
:104C6B00A3E9F0904003F9E075F005A4FFAEF090D6
:104C7B00400058E0FBA3E0FAA3E0F8AC02AD0390D0
:104C8B00400055E0FBA3E0FAA3E0F911049B904030
:104C9B0003F9E075F005A4FF90400059E5F08FF0A3
:104CAB00110164E4904003F8F0904003F9E0FF90A9
:104CBB004003F8E0C39F506390400058E0F9A3E035
:104CCB00FAA3E09040005EC9F0A3EAF0A3E9F090EC
:104CDB00400055E0FBA3E0FAA3E0F9114818BF012F
:104CEB0009E4F528F529752C302290400055E0FB9E
:104CFB00A3E0FAA3E02405F9E43AFA90400055EB5F
:104D0B00F0A3EAF0A3E9F090400059E475F0041128
:104D1B000164904003F8E004F0808EAB21AA22A935
:104D2B0023AE0290400058A3E0FAA3E0AC02C39973
:104D3B00F529EC9EF528E52945287003752C702282
:104D4B0090400084EFF0FBE47F01FEFDFCC3EB948D
:104D5B0001F9F811034AA804A905AA06AB07AF1B72
:104D6B00E4FCFDFEEB5FFFEF7003014E5911319830
:104D7B0090400084E0FF1D1131AD90400084113153
:104D8B009890400084E0C39401FF7401A807088049
:104D9B0002C333D8FC904002A7F0E0F4A3F0C2AFFB
:104DAB00E09007F010F0A37401F0E4904002A6F03D
:104DBB0000000000000000000000000000000000E8
:104DCB0000000000000000000000000000000000D8
:104DDB0000000000000000000000000000000000C8
:104DEB0000000000000000000000000000904002E6
:104DFB00A6E004F0E0B403B89007F01074FFF0D213
:104E0B00AF000000000000000000000000000000E8
:104E1B000000000000000000000000000000000087
:104E2B000000000000000000000000000000000077
:104E3B000000000000000000000000000000000067
:104E4B000000000000000000000000000022904065
:104E5B000084E0FF7D4411725122E52B452A600945
:104E6B00E4F528F529752C3022904003FC7401F0F1
:104E7B00904003FCE0FF115519904003FCE004F057
:104E8B00E0D3940940EA752800752908AB21AA22C2
:104E9B00A923E5121100B0AB21AA22A923E9240111
:104EAB00F9E43AFAE5151100B0904002E5E0C4547C
:104EBB00F0FF904002E4E0C4333354C04FFF904006
:104ECB0002E6E025E025E04FFFA3E04FFFAB21AA70
:104EDB0022A923E92402F9E43AFAEF1100B0904039
:104EEB0002E9E0C454F0FF904002E8E0C4333354CD
:104EFB00C04FFF904002EAE025E025E04FFFA3E022
:104F0B004FFFAB21AA22A923E92403F9E43AFAEFD4
:104F1B001100B0904002ECE0C4333354C0FFAB211E
:104F2B00AA22A923E92404F9E43AFAEF1100B0AB61
:104F3B0021AA22A923E92405F9E43AFAE51611007E
:104F4B00B0AB21AA22A923E92406F9E43AFAE51029
:104F5B001100B0AB21AA22A923E92407F9E43AFAFC
:104F6B00E51B1100B0E52945287003752C702290C4
:104F7B00400083EFF0541F1104124FCE004FD701A6
:104F8B004FE0024FE9034FF2044FFB05500406506C
:104F9B000D0750160E501F0F502810503111503A5C
:104FAB0012504313504C14505515505E1650671742
:104FBB0050701850791900004FC5E4F528F5297584
:104FCB002C302290400083E0FF0176AA90400083B2
:104FDB00E0FF01767890400083E0FF0176C99040B6
:104FEB000083E0FF0176D490400083E0FF0176DF81
:104FFB0090400083E0FF01760790400083E0FF01C3
:10500B0076EA90400083E0FF01768990400083E0D0
:10501B00FF0173A490400083E0FF0173C490400034
:10502B0083E0FF0173E490400083E0FF0174E390A1
:10503B00400083E0FF01740490400083E0FF0174A3
:10504B002490400083E0FF01744490400083E0FF14
:10505B0001746490400083E0FF01748490400083EE
:10506B00E0FF0174A490400083E0FF0175029040C3
:10507B000083E0FF11752122EF75F040A4FF9040F3
:10508B0002AFE5F0F0A3EFF0E4904002B1F0E4FFE3
:10509B00FEFDFCC005C006C007904002AFE0FEA3BA
:1050AB00E0FF7D151100C474092FF974403EFA7BA3
:1050BB0001D007D006D00511037A904002AFE0FE75
:1050CB00A3E0FF7C007D151100C4740D2FF9744013
:1050DB003EFAE41100B0904002AFE0FEA3E0FF11F6
:1050EB0000C4740E2FF974403EFAE41100B09040E6
:1050FB0002AFE0FEA3E0FF1100C474102FF974405F
:10510B003EFAE41100B0904002AFE0FEA3E0FF11C5
:10511B0000C474112FF974403EFAE41100B09040B2
:10512B0002AFE0FEA3E0FF1100C474122FF974402C
:10513B003EFA74801100B0904002AFE0FEA3E0FF96
:10514B001100C474132FF974403EFA748075F0008B
:10515B001101E0904002B0E004F07007904002AF04
:10516B00E004F0904002B1E004F0E0644060030121
:10517B00509922E52B6401452A600301525EAB2551
:10518B00AA26A92711007E904003F6F0E0705CABD5
:10519B0021AA22A9231100B0904003EEE0FFAB211E
:1051AB00AA22A923E92401F9E43AFAEF1100B090FD
:1051BB004003EFE0FFAB21AA22A923E92402F9E483
:1051CB003AFAEF1100B0904003F0E0FFAB21AA22B6
:1051DB00A923E92403F9E43AFAEF1100B07528008A
:1051EB00752904E529452870728064904003F6E028
:1051FB006401705FAB21AA22A923041100B0904077
:10520B0003F1E0FFAB21AA22A923E92401F9E43A37
:10521B00FAEF1100B0904003F2E0FFAB21AA22A9F4
:10522B0023E92402F9E43AFAEF1100B0904003F3BA
:10523B00E0FFAB21AA22A923E92403F9E43AFAEF10
:10524B001100B0752800752904E5294528700C75E7
:10525B002C7022E4F528F529752C3022EF7073EDB4
:10526B0014B40F00400301534E9000528375F003AA
:10527B00A4C58325F0C583730152B00152B301520B
:10528B00B60152B90152BC0152BF0152C20152C503
:10529B000152C80152CB0152CE0152D10152D4015D
:1052AB0052D70152DA8BAB228BAC228BAD228BAE59
:1052BB00228BAF228BB3228BB4228BB5228BB622DF
:1052CB008BB7228BBB228BBC228BBD228BBE228B3E
:1052DB00BF22ED14B40F00506A900052F375F00327
:1052EB00A4C58325F0C583730153200153230153B8
:1052FB002601532901532C01532F015332015335EE
:10530B0001533801533B01533E01534101534401B7
:10531B00534701534A8BEB228BEC228BED228BEE06
:10532B00228BEF228BF3228BF4228BF5228BF6222E
:10533B008BF7228BFB228BFC228BFD228BFE22AF69
:10534B00038FFF22E52B6401452A6002801AAB25EF
:10535B00AA26A92711007E904003B3F0E0C3940165
:10536B004006E0D394094009E4F528F529752C3063
:10537B0022904003B3E0AB21AA22A9231100B07500
:10538B002800752901904003B3E075F040A4FFA3FA
:10539B00E5F0F0A3EFF0E4904003B2F0904003B3DC
:1053AB00E07E0024EDF9EE3402FA7B4111007EFF22
:1053BB00904003B2E0C39F5066904003B4E0FEA35D
:1053CB00E0FF7C007D151100C474002FF974403E82
:1053DB00FA7B01C003C002C001AB21AA22A923AEF4
:1053EB0028AF29E92FF9EA3EA801FCAD03D001D083
:1053FB0002D0037E007F0911049B74092529F5292E
:10540B00E43528F528904003B5E004F07007904090
:10541B0003B4E004F0904003B2E004F00153A7E5BD
:10542B002945287003752C7022E52B6401452A60F1
:10543B0002801AAB25AA26A92711007E904003EB08
:10544B00F0E0C394014006E0D394094009E4F52849
:10545B00F529752C3022AB25AA26A92711007EAB86
:10546B0021AA22A9231100B07528007529019040AB
:10547B0003EBE075F040A4FFA3E5F0F0A3EFF0E43D
:10548B00904003EAF0904003EBE07E0024EDF9EE50
:10549B003402FA7B4111007EFF904003EAE0C39F88
:1054AB005062904003ECE0FEA3E0FF7C007D151101
:1054BB0000C474122FF974403EFA7B01C003C00282
:1054CB00C001AB21AA22A923AE28AF29E92FF9EA03
:1054DB003EA801FCAD03D001D002D0037E007F01BA
:1054EB0011049B0529E52970020528904003EDE086
:1054FB0004F07007904003ECE004F0904003EAE006
:10550B0004F08081E52945287003752C70229040AA
:10551B000085EFF0E0FF7C0024E3F9EC3402FA7B2A
:10552B0041E41100B0EF640970030155FCE518600C
:10553B0003751A0190400085E0FFC39401FE7401CE
:10554B00A806088002C333D8FC904002A9F07B4127
:10555B007A0279AAC003C002C001099040005274BC
:10556B0041F0A37402F0A3E9F0D001D002D00311F3
:10557B00343E904002A9E0FFA3E05FFF904002A9F8
:10558B00E0B5071490400085E07E0024E3F9EE348B
:10559B0002FA7B4174028056904002A9E0FF9040D2
:1055AB0002ABE05F701490400085E07E0024E3F9CD
:1055BB00EE3402FA7B417401803490400085E0FFA9
:1055CB007DCC11725190400085E0FF7DB41172517A
:1055DB0090400085E0FF1141DBEF70159040008596
:1055EB00E07E0024E3F9EE3402FA7B4174031100F0
:1055FB00B022F583759340E0FBA3E0FAA3E0F990AA
:10560B00400072EBF0A3EAF0A3E9F0E4904003D47E
:10561B00F090400072E0FBA3E0FAA3E0F9904003A6
:10562B00D4E0FFE92FF9E43AFA11007E60169040BE
:10563B0003D4E0D3946440030156CD904003D4E0EF
:10564B0004F080CD904003D4E0FF904003D9E0FC00
:10565B00A3E0FDEF2DFFE43CFED3EF9440EE941F4F
:10566B005060904003D4E0FF7E00C006C00790401E
:10567B0003D9E0FEA3E0FFE42FFFEE3420FEE4337A
:10568B00FDE433FCE42FFFE43EFEED3401FDE43C8E
:10569B00A907AA06AB05A807AC0690400072E0FB71
:1056AB00A3E0FAA3E0F9D007D00611049B904003C6
:1056BB00D4E0FF904003DAE02FF0904003D9E034C0
:1056CB0000F0229040003FEBF0A3EAF0A3E9F0E5F5
:1056DB005BB401037F0122D2B390400045E070021E
:1056EB00A3E0700CC2B39002088874F0F07F002224
:1056FB00C2AF9002055574AAF0900202AA7455F03D
:10570B009002055574A0F090400042E0FBA3E0FA34
:10571B00A3E0F911007EFF9040003FE0FBA3E0FA0D
:10572B00A3E0F9EF1100B0D2AFE4F55CE55CC394F4
:10573B00C8504F90400042E0FBA3E0FAA3E0F91100
:10574B00007EFF9040003FE0FBA3E0FAA3E0F911DD
:10575B00007EB5072990400046E024FFF090400002
:10576B0045E034FFF090400040E475F00111016416
:10577B0090400043E475F0011101640156E4055CAF
:10578B0080AAC2B39002088874F0F07F0122E52B47
:10579B006404452A600301584DAB25AA26A927119D
:1057AB00007E904003F7F0E07044AB25AA26A927B2
:1057BB00E92401F9E43AFA11007E904003EEF0ABD4
:1057CB0025AA26A927E92402F9E43AFA11007E90CA
:1057DB004003EFF0AB25AA26A927E92403F9E43A05
:1057EB00FA11007E904003F0F0116C19804B904041
:1057FB0003F7E06401704BAB25AA26A927E9240126
:10580B00F9E43AFA11007E904003F1F0AB25AA2699
:10581B00A927E92402F9E43AFA11007E904003F239
:10582B00F0AB25AA26A927E92403F9E43AFA1100DB
:10583B007E904003F3F0116C64E4F528F529752C88
:10584B007022E4F528F529752C3022E4904003D919
:10585B00F0A3F07B817A06794211560A7B817A0696
:10586B00797D11560A9040038FE075F00E84E5F0B8
:10587B0075F003A42415F582E434001155FD7B81EA
:10588B007A06798D11560A90400390E0540775F013
:10589B0003A42400F582E434001155FD7B817A06C4
:1058AB00799D11560A7B417A0379917D01114AD872
:1058BB007B817A0679AD11560A7B417A0379927D09
:1058CB0001114AD87B817A0679BD11560A7B417A40
:1058DB000379947D04114AD87B817A0679CD1156D0
:1058EB000A7B817A0679DD11560A7B817A0679E685
:1058FB0011560A7B817A0679E911560A7B817A0661
:10590B00794201560AD310AF01C3C0D09040007644
:10591B00ECF0A3EDF090400075EFF0C39410400352
:10592B000159C190400076E0FEA3E0FFEE30E703A3
:10593B000159C1EE540F90400076F0A3EFF0904068
:10594B000076E0FAA3E0FD90400075E075F002A44C
:10595B002447F9740335F07B41CA8DF01101E090B7
:10596B00400076E0FCA3E0FDEC540FFF9040007587
:10597B00E05403FEC4333354C044304F90400344CF
:10598B00F0EDA3F090400075E01313543FFF74014A
:10599B00A807088002C333D8FC9007F008F09040AA
:1059AB000344E0FF11706590400345E0FF11706503
:1059BB00E49007F008F0D0D092AF22D310AF01C320
:1059CB00C0D09040006E1103959040006EE0FCA398
:1059DB00E0FDA3E0FEA3E0FFAB54AA53A952A851EC
:1059EB00C3110326504EE5542401FFE43553FEE466
:1059FB003552FDE43551FCC004C005C006C007900C
:105A0B0040006EE0F8A3E0F9A3E0FAA3E0FBC37457
:105A1B00FF9BFF74FF9AFE74FF99FD74FF98FCD0F7
:105A2B0003D002D001D000EF2BFFEE3AFEED39FD93
:105A3B00EC38801F9040006EE0F8A3E0F9A3E0FA89
:105A4B00A3E0FBC3E5549BFFE5539AFEE55299FD9A
:105A5B00E55198FC904003C8110395904003C8E0B2
:105A6B00FCA3E0FDA3E0FEA3E0FFD0D092AF22E5C4
:105A7B005B700B90400390E020E303015B2A9040A6
:105A8B0002F6E070077D017F0911367AE51D600390
:105A9B00E4F514E51414604014605A240260030109
:105AAB005B2AE4F51D904002E204F0E47F01FEFD69
:105ABB00FC904002E2E0C39401F9F811034AAB07F2
:105ACB00AF1EEB5FFFEF600475140122904002E202
:105ADB00E004F0E0B409D422904002E2E0FF113A76
