:020000040002F8
:10000000020207AE000200000002BFF0EB7002E740
:100010002289828A831410E704F593E022F593E4A1
:100020009322BB000327F722F8EB89828A831410FE
:10003000E706F593E028F022F593E4932822BB002D
:1000400002F722BB8000500989828A838B93159323
:10005000F022EF8DF0A4A8F0CF8CF0A428CE8DF084
:10006000A42EFE22BC000BBE0029EF8DF084FFAD54
:10007000F022E4CCF875F008EF2FFFEE33FEEC33FE
:10008000FCEE9DEC984005FCEE9DFE0FD5F0E9E4FA
:10009000CEFD22EDF8F5F0EE008420D21CFEADF08E
:1000A00075F008EF2FFFED33FD4007985006D5F0AF
:1000B000F222C398FD0FD5F0EA22C2D5EC30E70951
:1000C000B2D5E4C39DFDE49CFCEE30E716B2D5E466
:1000D000C39FFFE49EFE12020064C3E49DFDE49C06
:1000E000FC80041202006430D507C3E49FFFE49E45
:1000F000FE22C5F0F8A3E028F0C5F0F8E5821582ED
:1001000070021583E038F022A3F8E0C5F025F0F086
:10011000E582158270021583E0C838F0E822EB70A2
:1001200007E7F5F009E7192289828A831410E708A6
:10013000F593E0F5F0A3E022F593E493F5F0740174
:100140009322BB000B09C5F027F7C5F01937F7223A
:10015000F8EB89828A831410E707F593E80202001E
:10016000F2F59374019325F0F5F0E4933822BB0087
:1001700006F709A7F01922BB8000500D89828A83F7
:100180008B931593F0E5F0A3F022E88FF0A4CC8BCD
:10019000F0A42CFCE98EF0A42CFC8AF0EDA42CFC3D
:1001A000EA8EF0A4CDA8F08BF0A42DCC3825F0FD7C
:1001B000E98FF0A42CCD35F0FCEB8EF0A4FEA9F075
:1001C000EB8FF0A4CFC5F02ECD39FEE43CFCEAA4C1
:1001D0002DCE35F0FDE43CFC2275F008758200EF71
:1001E0002FFFEE33FECD33CDCC33CCC58233C58269
:1001F0009BED9AEC99E58298400CF582EE9BFEED22
:100200009AFDEC99FC0FD5F0D6E4CEFBE4CDFAE4F0
:10021000CCF9A88222B800C1B90059BA002DEC8BE4
:10022000F084CFCECDFCE5F0CBF97818EF2FFFEEC0
:1002300033FEED33FDEC33FCEB33FB10D703994079
:1002400004EB99FB0FD8E5E4F9FA227818EF2FFFB9
:10025000EE33FEED33FDEC33FCC933C910D7059BFB
:10026000E99A4007EC9BFCE99AF90FD8E0E4C9FA57
:10027000E4CCFB2275F010EF2FFFEE33FEED33FDE3
:10028000CC33CCC833C810D7079BEC9AE899400A06
:10029000ED9BFDEC9AFCE899F80FD5F0DAE4CDFB84
:1002A000E4CCFAE4C8F922CFF4CFCEF4CECDF4CD2D
:1002B000CCF4CC22EB9FF5F0EA9E42F0E99D42F0AF
:1002C000E89C45F022E8600FECC313FCED13FDEE53
:1002D00013FEEF13FFD8F122E8600FEFC333FFEEF8
:1002E00033FEED33FDEC33FCD8F122EB7006E9F878
:1002F0000202047C89828A831410E706F5930202C5
:100300000488F59302020494BB0006E9F802020493
:10031000A4BB8000500C89828A838B9315930202C0
:10032000032322ECF0A3EDF0A3EEF0A3EFF022EB19
:100330007006E9F8020204B089828A831410E70685
:10034000F593020204C2F593020204D4BB001CD050
:1003500093D0F0D0E0F8D0E0C9FBD0E0FAD0E0CB09
:10036000C8C0E0C0F0C093020204B9BB80005022B4
:10037000D093D0F0D0E0F8D0E0C9F582D0E0CAF553
:1003800083D0E0CB14C8C0E0C0F0C09388930202D1
:1003900004CBD093D083D082D0E0D0E0D0E0E4731F
:1003A000D093D083D082F8E4937012740193700DCF
:1003B000A3A393F8740193F5828883E47374029382
:1003C0006860EFA3A3A380DFEF4E6022EF60010E11
:1003D000EDBB0007F709DFFCA9F022BB8000500E3F
:1003E00089828A838B931593F0A3DFFCDEFA22EBDC
:1003F0007008E709F608DFFA801B89828A831410E7
:10040000E70AF593E0A3F608DFFA8009F593E49391
:10041000A3F608DFF9ECFAA9F0EDFB2288F0EF6013
:10042000010E4E60F088F0ED60C51410E7E7CB7068
:100430000E88828C838B93E709F0A3DFFA80D614B1
:1004400010E71C88848C858B9589828A83F5937547
:100450008620E0F0A3A3DFFADEF875860080B68878
:10046000848C858B9589828A83F593758620E493A5
:10047000F0A3A3DFF9DEF77586008099E6FC08E6B5
:10048000FD08E6FE08E6FF22E0FCA3E0FDA3E0FE97
:10049000A3E0FF22E493FC740193FD740293FE74C5
:1004A0000393FF22ECF608EDF608EEF608EFF622CD
:1004B000E6FB08E6FA08E6F922EBF608EAF608E9B0
:1004C000F622E0FBA3E0FAA3E0F922EBF0A3EAF0C6
:1004D000A3E9F022E493FB740193FA740293F922E6
:1004E0004842425F5353544154004842425F4C5388
:1004F00054415400554E495F50524F4D00554E499E
:100500005F464C415348004A50445F50524F4D00A3
:100510004A50445F464C415348005044535F505248
:100520004F4D005044535F464C4153480043435F96
:1005300050524F4D0043435F464C4153480055478E
:100540005F50524F4D0055475F464C415348004D58
:100550005F50524F4D004D5F464C41534800504F45
:100560005745525F4F4E0052455345545F434D44EB
:100570000052455345545F50474D00434D444A5542
:100580004D505F46524F4D5F454C53450050474DCF
:100590004A554D505F46524F4D5F454C53450043C1
:1005A0004D444A554D505F46524F4D5F53454C4662
:1005B0000050474D4A554D505F46524F4D5F534591
:1005C0004C46000A3D3D3D3D3D3D3D3D3D3D3D3DB3
:1005D0003D3D3D3D3D3D3D3D3D3D3D3D3D3D3D3D4B
:1005E0003D3D3D3D3D3D3D3D3D3D3D3D3D3D3D3D3B
:1005F0003D3D3D3D3D3D3D3D3D3D3D3D3D000A20B8
:1006000052756E6E696E674D6F64653A20000A2000
:100610005265736574526561736F6E3A20000A20EB
:100620004E6577626F726E416464723A20000A20F0
:100630004C6F676963616C416464723A20000A2000
:1006400056657273696F6E4E756D623A20000A20AE
:10065000436F6D70696C65446174653A2000303891
:100660002F32342F3036002C200031383A33353ACF
:100670003230000A5B436F6E666967457865635D7B
:100680003A200046696C6553746172744164647207
:100690003D002C2046696C65456E64416464723D82
:1006A000000A5B436F6E666967457865635D3A2053
:1006B000496E76616C69642066696C65207374614B
:1006C000727420616464726573732E000A5B436FF9
:1006D0006E666967457865635D3A20496E76616C40
:1006E00069642066696C6520656E6420616464726B
:1006F0006573732E000A5B436F6E666967457865A4
:10070000635D3A20496E76616C696420636F6D6D3C
:10071000616E64206C656E6774682E09000A5B4325
:100720006F6E666967457865635D3A20436F6E66F4
:100730006967206C6F67207370616365206973203F
:1007400066756C6C2E000A2D2D2D2D2D2D2D2D2036
:10075000000A436D646C656E203A20000A436D64A4
:10076000547970653A20000A436D64446174613ABB
:1007700020000A5265734C656E203A20000A5265CB
:1007800073466C61673A20004B4F004F4B000A5292
:100790006573446174613A20004E455854004552D7
:1007A000524F520041424F525400454E440075C7CB
:1007B000AA75C75575923F75C7AA75C75575A21812
:1007C00075C7AA75C755759D0275C7AA75C75575B2
:1007D000C6A0787FE4F6D8FD75815C0202080902A4
:1007E0000269C0E493A3F85407240CC8C333C4546B
:1007F0000F4420C8834004F456800146F6DFE480AD
:100800000C010204081020408090020894E47E014C
:100810009360CCA3FF543F30E509541FFEE493A33B
:1008200060010ECF54E0B4E026E493FBA3E493FA16
:10083000A3E493F9A3E493C083C0821202003ED0E4
:1008400082D083A309E970010ADFEADEE880BE54A2
:10085000C025E0602B408CE493A3FAE493A3F8E472
:1008600093A3C8C582C8CAC583CA759340F075935F
:1008700002A3C8C582C8CAC583CADFE3DEE1808D92
:10088000E493A3F8E493A34003F68001F208DFF4B5
:100890000202080D602A00158304E08304EA830441
:1008A000F48304FD83050783051083051A8305235C
:1008B00083052D83053583053E83054683054F83D8
:1008C000055655000083055E830567830571830522
:1008D0007B83058D83059F8305B10030382F32342B
:1008E0002F30360031383A33353A323000AF1FEF0F
:1008F00075F01CA424A8F9740035F0FA7B4151036B
:100900002F90400091EBF0A3EAF0A3E9F0904000B3
:1009100091E0FBA3E0FAA3E02406F9E43AFA5100DF
:100920000C54F0FFBFF03DAF1FEF75F01CA424ABDB
:10093000F9740035F0FA7B4151032F90400091EBA0
:10094000F0A3EAF0A3E9F090400091E0FBA3E0FA05
:10095000A3E02406F9E43AFA51000C54F064F07074
:100960000341111B90400091E0FBA3E0FAA3E024B7
:1009700002F9E43AFA51000C90400094F0904000E3
:1009800091E0FBA3E0FAA3E02406F9E43AFA51006F
:100990000CC4540F90400095F090400094E0540F28
:1009A00090400096F090400095E07003410FED906C
:1009B000400094E0546024E07003410AFF24E0709A
:1009C00003410CC224E07003410E0A24606003411D
:1009D000111BAF1F7E0074982FF9EE3400FA7B4193
:1009E00051000C64C06014AF1F74982FF9EE3400EE
:1009F000FA51000C64806003410BFDAF1F7E007450
:100A0000982FF9EE3400FA7B41748051003EAF1FFD
:100A100074882FF9EE3401FA7B4151000CFF9040AD
:100A20000096E06F600341107CAF1FEF75F01CA4CF
:100A300024B4F9740035F0FA7B4151011EFF904057
:100A40000095E02FFFE435F0FED3EF9400EE942004
:100A50004003410B7FAF1FEF75F01CA424B1F97464
:100A60000035F0FA7B4151032FC003C002C0019052
:100A7000400091E0FBA3E0FAA3E02407F9E43AFA8E
:100A80009040004AEBF0A3EAF0A3E9F09040009513
:100A9000E09040004DF0D001D002D00351658F901E
:100AA000400095E0FDAF1FEF75F01CA424B4F9746D
:100AB0000035F0FA7B41E48DF05101429040009501
:100AC000E0FDAF1FEF75F01CA424B1F9740035F000
:100AD000FA09E970010AE48DF05101429040009456
:100AE000E05404FFE51F04FD513DF6EF90400096F1
:100AF00030E106E04430410FE7E04410410FE7AF3A
:100B00001F7E0074982FF9EE3400FA7B4151000CDF
:100B100064C06014AF1F74982FF9EE3400FA5100CE
:100B20000C64806003410BFDAF1F7E0074982FF9A9
:100B3000EE3400FA7B4174A051003EAF1F74882F41
:100B4000F9EE3401FA7B4151000CFF90400096E031
:100B50006F600341107CAF1FEF75F01CA424B4F943
:100B6000740035F0FA7B4151011EFF90400095E082
:100B70002FFFE435F0FED3EF9400EE94204004A361
:100B800041107CAF1FEF75F01CA424B1F97400353F
:100B9000F0FA7B4151032FC003C002C00190400016
:100BA00091E0FBA3E0FAA3E02407F9E43AFA9040CD
:100BB000004AEBF0A3EAF0A3E9F090400095E09042
:100BC00040004DF0D001D002D00351658F9040001D
:100BD00095E0FDAF1FEF75F01CA424B4F974003547
:100BE000F0FA7B41E48DF051014290400094E054D2
:100BF00004FFE51F04FD513DF6EF30E10790400092
:100C00009641107C90400393E004F0AF1FEF75F025
:100C10001CA424B4F9740035F0FA7B4151011EF58F
:100C20002B85F02AAF1FEF75F01CA424AEF97400D9
:100C300035F0FA51032F8B258A268927AF1FEF75D0
:100C4000F01CA424BCF9740035F0FA7B4151032F49
:100C50008B218A228923AF1F7E0074A02FF9EE34E6
:100C600000FA7B4151000CFF514EFBAF1FEF75F0B6
:100C70001CA424C2F9740035F0FA7B41E5288529CB
:100C8000F051016EAB21AA22A923C003C002C0010A
:100C9000AF1FEF75F01CA424BFF9740035F0FA7B88
:100CA0004151034CD3E5299408E5289400400341C1
:100CB0000FC7E5294528904000967003410FE44195
:100CC0000FDBAF1F7E0074982FF9EE3400FA7B41E2
:100CD00074C051003E90400096E0FFAE1FEE7C00D5
:100CE0002488F9EC3401FA7B41EF51003E9040003A
:100CF00091E0FBA3E0FAA3E02407F9E43AFA5100FB
:100D00000CFFAE1FEE24A0F9EC3400FA7B41EF514A
:100D1000003EAF1F7E0074A02FF9EE3400FA5100A0
:100D20000CC413135403FFAE1FEE2488F9EC3401F6
:100D3000FA7B4151000CFE13131354036F600341FF
:100D40000E8790400095E014F0AF1FEF75F01CA4E3
:100D500024AEF9740035F0FA7B4151032FC003C073
:100D600002C00190400091E0FBA3E0FAA3E0240858
:100D7000F9E43AFA9040004AEBF0A3EAF0A3E9F074
:100D800090400095E09040004DF0D001D002D0039B
:100D900051658F90400095E0FDAF1FEF75F01CA4EA
:100DA00024B4F9740035F0FA7B41E48DF051016E02
:100DB000AF1FEF75F01CA424AEF9740035F0FA51A2
:100DC000032F90400095E07E0029F9EE3AFAC00327
:100DD000C002C001AF1FEF75F01CA424B1F974006C
:100DE00035F0FA7B4151034C90400094E05404FFED
:100DF000E51F04FD513DF6EF9040009630E105E01F
:100E000044308003E04410410FE7AF1F7E00749828
:100E10002FF9EE3400FA7B4174E051003E9040001F
:100E200096E0FFAE1FEE7C002488F9EC3401FA7BDB
:100E300041EF51003E90400091E0FBA3E0FAA3E0B7
:100E40002407F9E43AFA51000CFFAE1FEE24A0F992
:100E5000EC3400FA7B41EF51003EAF1F7E0074A0DE
:100E60002FF9EE3400FA51000CC413135403FFAEF3
:100E70001FEE2488F9EC3401FA7B4151000CFE137B
:100E8000131354036F600A90400096E04430410F02
:100E9000E790400095E014F0AF1FEF75F01CA4241C
:100EA000AEF9740035F0FA7B4151032FC003C00244
:100EB000C00190400091E0FBA3E0FAA3E02408F910
:100EC000E43AFA9040004AEBF0A3EAF0A3E9F0908C
:100ED000400095E09040004DF0D001D002D0035189
:100EE000658F90400095E0FDAF1FEF75F01CA424C6
:100EF000B4F9740035F0FA7B41E48DF051016E9045
:100F0000400094E05404FFE51F04FD513DF6EF302E
:100F1000E10A90400096E04430410FE7904003938F
:100F2000E004F0AF1FEF75F01CA424B4F974003591
:100F3000F0FA7B4151011EF52B85F02AAF1FEF75AA
:100F4000F01CA424AEF9740035F0FA51032F8B2560
:100F50008A268927AF1FEF75F01CA424BCF9740002
:100F600035F0FA7B4151032F8B218A228923AF1F51
:100F70007E0074A02FF9EE3400FA7B4151000CFF83
:100F8000514EFBAF1FEF75F01CA424C2F97400355D
:100F9000F0FA7B41E5288529F051016EAB21AA22A8
:100FA000A923C003C002C001AF1FEF75F01CA42429
:100FB000BFF9740035F0FA7B4151034CD3E5299415
:100FC00008E5289400400A90400096E04450411003
:100FD000C8E5294528904000966009E04470FFADBF
:100FE00029411118E0452CFFE4FD41111890400003
:100FF00094E0546024E0700341110E24E07003413A
:10100000110E24E0700341110E2460600341111B96
:10101000AF1F7E0074982FF9EE3400FA7B41510027
:101020000C64E0602DAF1F74982FF9EE3400FA5174
:10103000000C64A0601CAF1F74982FF9EE3400FA06
:1010400051000C600D90400096E04430FFE4FD41FB
:101050001118AF1F7E0074982FF9EE3400FA7B410F
:10106000E451003EAF1F74882FF9EE3401FA7B4142
:1010700051000CFF90400096E06F6009E04430FFA3
:10108000E4FD41111890400094E05404FFE51F0472
:10109000FD513DF6EF30E10C90400096E04430FF0A
:1010A000E4FD8074AF1FEF75F01CA424C2F9740036
:1010B00035F0FA7B4151011ED39408E5F0940040CD
:1010C0000C90400096E04410FF7D08804BAF1FEF6E
:1010D00075F01CA424C2F9740035F0FA7B4151016B
:1010E0001E45F0601DAF1FEF75F01CA424C2F974FB
:1010F0000035F0FA51011EFD90400096E04430FFAB
:10110000801690400096E04430FFE4FD800A904055
:101110000096E04430FFE4FD513825227B827AFFBF
:10112000790051000CF5247B0479FF51000CF4FF89
:101130001951000CB5070751000CF52080037520EC
:10114000FF90400391E524F0A3E520F0E4904000F7
:1011500089F090400089E07E002498F9EE3400FA8E
:101160007B41746051003E90400089E02488F9EE94
:101170003401FA7B4174FF51003E90400089E02425
:10118000A0F9EE3400FA7B4174FF51003E9040001C
:1011900089E075F010A42410F9741035F0FA7B4141
:1011A000C003C002C001E075F01CA424A8F97400BB
:1011B00035F0FA7B4151034C90400089E075F01006
:1011C000A42410F9741135F0FA7B41C003C002C0A9
:1011D00001E075F01CA424ABF9740035F0FA7B41F2
:1011E00051034C90400089E0C43354E0FEE42400F5
:1011F000FFE43EFEE43404FDE433FCE42FFFE43E70
:10120000FEED3401FDE43CA907AA06AB05C003C00E
:1012100002C001E075F01CA424AEF9740035F0FAA8
:101220007B4151034C90400089E0540375F010A4B9
:1012300024A0F9741035F0FA7B41C003C002C0014C
:10124000E075F01CA424B6F9740035F0FA7B415126
:10125000034C90400089E0540375F010A424A0F9D9
:10126000741135F0FA7B41C003C002C001E075F093
:101270001CA424B9F9740035F0FA7B4151034C9059
:10128000400089E0C43354E0FEE42400FFE43EFE65
:10129000E43404FDE433FCE42FFFE43EFEED3401CE
:1012A000FDE43CFCE42FFFE43EFEED3401FDE43CB4
:1012B000A907AA06AB05C003C002C001E075F01C77
:1012C000A424BCF9740035F0FA7B4151034C9040E2
:1012D0000089E004F0E06408600341115275C7AA78
:1012E00075C75575A309516CDB75C7AA75C75575C8
:1012F000E309516CDB75C7AA75C75575A301516C1D
:10130000DB75C7AA75C75575E301516CDBE49040E6
:101310001000F090401100F090401001F09040114A
:1013200001F090401002F090401102F09040100344
:10133000F090401103F090401004F090401104F040
:10134000904010057414F090401105F09040100684
:1013500074FFF090401106F090401007F09040119B
:1013600007F0904010087415F090401108F090407C
:10137000100974FFF090401109F09040100AF090AD
:1013800040110AF0E49040100BF09040110BF090E7
:1013900040100C74FFF09040110CF09040100DF0D4
:1013A0009040110DF09040100EF09040110EF09012
:1013B00040100FF09040110FF0E4F5ABF5EBF5ACF9
:1013C000F5ECF5ADF5EDF5AEF5EEF5AFF5EFF5B302
:1013D000F5F3F5B4F5F4F5B5F5F5F5B6F5F6F5B7BD
:1013E000F5F7F5BBF5FBF5BCF5FCF5BDF5FDF5BE78
:1013F000F5FEF5BFF5FF9040008904F090400089AC
:10140000E075F010A42402F9741035F0FA7B41E481
:1014100051003E90400089E075F010A42402F97458
:101420001135F0FA7B41E451003E90400089E075AF
:10143000F010A42403F9741035F0FA7B41E4510054
:101440003E90400089E075F010A42403F974113532
:10145000F0FA7B41E451003E90400089E075F010C5
:10146000A42404F9741035F0FA7B41E451003E9055
:10147000400089E075F010A42404F9741135F0FAE5
:101480007B41E451003E90400089E075F010A424B7
:1014900005F9741035F0FA7B41E451003E904000AC
:1014A00089E075F010A42405F9741135F0FA7B4138
:1014B000E451003E90400089E075F010A42406F944
:1014C000741035F0FA7B41E451003E90400089E011
:1014D00075F010A42406F9741135F0FA7B41E4513B
:1014E000003E90400089E075F010A42407F97410C4
:1014F00035F0FA7B41E451003E90400089E075F000
:1015000010A42407F9741135F0FA7B41E451003E30
:1015100090400089E075F010A42408F9741035F0AB
:10152000FA7B41E451003E90400089E075F010A440
:101530002408F9741135F0FA7B41E451003E9040E3
:101540000089E075F010A42409F9741035F0FA7BD5
:1015500041E451003E90400089E075F010A4240958
:10156000F9741135F0FA7B41E451003E9040008956
:10157000E075F010A4240AF9741035F0FA7B41E408
:1015800051003E90400089E075F010A4240AF974DF
:101590001135F0FA7B41E451003E90400089E0753E
:1015A000F010A4240BF9741035F0FA7B41E45100DB
:1015B0003E90400089E075F010A4240BF9741135B9
:1015C000F0FA7B41E451003E90400089E075F01054
:1015D000A4240CF9741035F0FA7B41E451003E90DC
:1015E000400089E075F010A4240CF9741135F0FA6C
:1015F0007B41E451003E90400089E075F010A42446
:101600000DF9741035F0FA7B41E451003E90400032
:1016100089E075F010A4240DF9741135F0FA7B41BE
:10162000E451003E90400089E075F010A4240EF9CA
:10163000741035F0FA7B41E451003E90400089E09F
:1016400075F010A4240EF9741135F0FA7B41E451C1
:10165000003E90400089E004F0E064106003411314
:10166000FCE490400089F090400089E0C39404506D
:10167000067F017D0180047F007D0090400089E0AD
:1016800075F01CA424A8F9740035F0FA7B415103CD
:101690002FE92402F9E43AFAED51003E9040008926
:1016A000E05403FDE075F01CA424A8F9740035F0A3
:1016B000FA7B4151032FE92403F9E43AFAED510092
:1016C0003E90400089E0C394045006AF24AD0780EB
:1016D00004AF20AD0790400089E075F01CA424A859
:1016E000F9740035F0FA7B4151032FE92404F9E441
:1016F0003AFAED51003E90400089E075F01CA424B8
:10170000A8F9740035F0FA7B4151032FE92405F95B
:10171000E43AFA740151003E90400089E075F01CF3
:10172000A424A8F9740035F0FA7B4151032FE92471
:1017300006F9E43AFA74F651003E90400089E0C39D
:10174000940450067F057D0580047F047D0490404D
:101750000089E075F01CA424ABF9740035F0FA7B25
:101760004151032FE92402F9E43AFAED51003E9089
:10177000400089E05403FDE075F01CA424ABF9742B
:101780000035F0FA7B4151032FE92403F9E43AFADA
:10179000ED51003E90400089E0C394045006AF2410
:1017A000AD078004AF20AD0790400089E075F01CC4
:1017B000A424ABF9740035F0FA7B4151032FE924DE
:1017C00004F9E43AFAED51003E90400089E075F0EA
:1017D0001CA424ABF9740035F0FA7B4151032FE9C6
:1017E0002405F9E43AFA740151003E90400089E082
:1017F00075F01CA424ABF9740035F0FA7B41510359
:101800002FE92406F9E43AFA74F651003E904000BC
:1018100089E004F0E064086003411667E524D3948E
:1018200003401875AB8075EB8075AC8075EC8075E6
:10183000AD8075ED8075AE8075EE80E520D39403A4
:10184000401DE520F4601875AF8075EF8075B3809A
:1018500075F38075B48075F48075B58075F5807505
:10186000C7AA75C755E4F5A3516CDB75C7AA75C740
:1018700055E4F5E3416CDB9040007FEEF0A3EFF020
:101880009040007FE0FEA3E07806CEC313CE13D8CD
:10189000F9904002D15133AF7D55516C0EE4904028
:1018A00002D0F09040007FE0FEA3E0FF7C007D15B9
:1018B00051005274002FF974403EFA7B01904002AF
:1018C000D0E07E0029F9EE3AFA51000CFD516C0E81
:1018D000904002D0E004F0E0C3940840C67DBE51C1
:1018E0006C0EE4F55A904002D0F0904002D1E0FF37
:1018F0005168E4904002D0E07C0024D2F9EC34023C
:10190000FA7B41EF51003E904002D0E07E0024D2AD
:10191000F9EE3402FA51000C655A2495F9EE3401BF
:10192000FA7B4151000CF55A904002D0E004F0E0FF
:10193000C3940940B5904002D2E0904002DDF0909F
:101940004002D3E0904002DCF0904002D6E09040AC
:1019500002E0F0904002D8E0904002DEF0904002B9
:10196000D9E0904002DFF0904002DDE0FFC0079038
:1019700040007FE0FEA3E0FF7C007D15510052ACEB
:1019800006AD07740D2DF974403CFA7B01D0E0518F
:10199000003E904002DCE0FFC007740E2DF9744059
:1019A0003CFAD0E051003E904002E0E0FFC00790DA
:1019B00040007FE0FEA3E0FF7C007D15510052ACAB
:1019C00006AD07740F2DF974403CFAD0E051003E8B
:1019D000904002DEE0FFC00774102DF974403CFA1D
:1019E000D0E051003E904002DFE0FFC00790400091
:1019F0007FE0FEA3E0FF7C007D15510052AC06ADF8
:101A00000774112DF974403CFAD0E051003E741275
:101A10002DF974403CFA748051003E9040007FE004
:101A2000FEA3E0FF7C007D1551005274132FF97462
:101A3000403EFA748075F00051016EE55A60034132
:101A40001D4E74002FF974403EFA7B0151000C6466
:101A5000106003411B15904002DCE07009A3E064B4
:101A6000AA7003411D4E904002DFE0641060034104
:101A70001D4E904002DCE06007A3E0D39480500E3E
:101A8000904002DCE0702EA3E0D3947F502790407A
:101A900002DDE0FFC0079040007FE0FEA3E0FF7C96
:101AA000007D1551005274122FF974403EFA7B01EB
:101AB000D0E051003E904002DDE054FE75F080A47D
:101AC000FD904002DCE0C4333333548045F0FC9099
:101AD0004002DEE0FFA3E0C39FFFE49400FEEFC4FA
:101AE000F8540FC868FFEEC454F0484CFEEF4DFFA9
:101AF000C007C0069040007FE0FEA3E0FF7C007DB1
:101B00001551005274132FF974403EFA7B01D0E056
:101B1000D0F0411D4B9040007FE0FEA3E0FF7C0031
:101B20007D1551005274002FF974403EFA7B01512B
:101B3000000C64286003411D4E904002E0E07003F9
:101B4000411D4E904002E0E0546024E0601824E023
:101B5000601D24E0602224606003411D4E9040021D
:101B6000E17402F08019904002E17404F08010905A
:101B70004002E17408F08007904002E17410F09098
:101B80004002DCE020E703411C75E0FEA3E07C009E
:101B90002400FFEC3EFEC3EF9400FFEE9400FEE451
:101BA0009401FDEC9400FCC004A905AA06AB0790C3
:101BB0004002E1E0FD7C007E017F00510064E4FC16
:101BC000FDD00051018A904002CEEEF0A3EFF090DC
:101BD0004002CEE0FEA3E0FF7C007D805100BAD33E
:101BE000ED9440EC64809480904002CEE0FE40137F
:101BF000A3E0FF7C007D805100BAEF2401FFE43EAA
:101C0000FE800AA3E0FF7C007D805100BA90400274
:101C1000CCEEF0A3EFF0904002CCE0FEA3E0C39442
:101C200080EE6480947F50067F80C007800A9040D9
:101C300002CCE0A3E0FFC0079040007FE0FEA3E0FD
:101C4000FF7C007D15510052AC06AD0774122DF9D2
:101C500074403CFA7B01D0E051003E904002CEE05F
:101C6000FEA3E0FF8FF0C00674132DF974403CFA18
:101C7000D0E0411D4B904002DCE0FEA3E07C00245C
:101C800000FDEC3EFCC004C005904002E1E0FD7C9C
:101C9000007E017F00510064D005D00451005290B5
:101CA0004002CEEEF0A3EFF0904002CEE0FEA3E0C3
:101CB000FF7C007D805100BAD3ED9440EC648094A9
:101CC00080904002CEE0FE4013A3E0FF7C007D80C8
:101CD0005100BAEF2401FFE43EFE800AA3E0FF7C3E
:101CE000007D805100BA904002CCEEF0A3EFF0905E
:101CF0004002CCE0FEA3E0D3947FEE648094804069
:101D0000067F80C007800A904002CCE0A3E0FFC0BD
:101D1000079040007FE0FEA3E0FF7C007D155100AE
:101D200052AC06AD0774122DF974403CFA7B01D019
:101D3000E051003E904002CEE0FEA3E0FF8FF0C0F5
:101D40000674132DF974403CFAD0E051016E22E480
:101D5000F558F559E55B700B90400390E020E303E4
:101D60007F01227F007E807D037C00512212BF0113
:101D7000037F01227B047A8079045102EB904003B7
:101D80007851032379085102EB9040037C510323DF
:101D90007B837A06797351558B7B837A06798351DD
:101DA000558B7B417A0379787D04514A597B837A3C
:101DB00006799251558B7B417A03797C7D04514A97
:101DC0005990400378E0FCA3E0FDA3E0FEA3E0FF10
:101DD0007B007A8079037800C35102B460097B8369
:101DE0007A0679A141200E9040037CE0FCA3E0FD3F
:101DF000A3E0FEA3E0FF7B0C7A8079037800D35147
:101E000002B440097B837A0679CC41200E904003CE
:101E100078E0FCA3E0FDA3E0FEA3E0240CFFE43E99
:101E2000FEE43DFDE43CFC904003785103239040E8
:101E30000378A3A3E0FEA3E0FFC0069040037CA3C9
:101E4000A3E0FEA3E0AC06D006C39FFFEC9ECF2428
:101E500001CF340090400380F0A3EFF09040038066
:101E6000E0FEA3E04E700341220F90400378E0FCB7
:101E7000A3E0FDA3E0FEA3E02400FFE43EFEED347A
:101E800001FDE43CA907AA06AB05C003C002C001DE
:101E900078827C037D41D001D002D0037E007F0296
:101EA00051041C90400378E0FCA3E0FDA3E0FEA3F6
:101EB000E02402FFE43EFEE43DFDE43CFCE42FFFB1
:101EC000E43EFEED3401FDE43CA907AA06AB05C0E3
:101ED00003C002C00178847C037D41D001D002D0D0
:101EE000037E007F0151041C90400382E0FEA3E0CA
:101EF0002402FFE43EFE90400380E0FCA3E0FDD31B
:101F0000EF9DEE9C40177B837A0679F551558B7BCC
:101F1000417A0379827D02514A597F012290400320
:101F200082E0FEA3E0C39401F52BEE9400F52A9025
:101F3000400378E0FCA3E0FDA3E0FEA3E02403FF60
:101F4000E43EFEE43DFDE43CFCE42FFFE43EFEED18
:101F50003401FDE43CA907AA06AB058D258A268934
:101F60002775210275220075230090400384E0FF4D
:101F7000514EFB90400378E0F8A3E0F9A3E0FAA308
:101F8000E0FB90400382E0FEA3E02402FFE43EFE7B
:101F9000E4FCFDEB2FFFEA3EFEED39FDEC38FC9052
:101FA00040037851032390400380E0FEA3E0FF90BC
:101FB000400382E0FCA3E02402FDE43CFCC3EF9D6F
:101FC000FFEE9C90400380F0A3EFF0E5292401FE92
:101FD000E4352890400385F0A3CEF090400382E0E2
:101FE000FEA3E0FF2559CFE5583ECF2402CF3400B1
:101FF000FE90400385E0FCA3E02FFFEE3CCF2402DF
:10200000CF3400C39480400C7B837A07791D5155EF
:102010008B7F0122E52945287011E52C546064600E
:102020006009904003877401F08006E490400387C4
:10203000F07B417A037982C003C001AE58AF597476
:10204000002FF974203EA801FC7D02D001D0037E50
:10205000007F0251041C74022559F559E43558F5E6
:10206000587B417A037984C003C001AE58AF5974DC
:10207000002FF974203EA801FC7D02D001D0037E20
:10208000007F0151041C0559E55970020558AE2A1C
:10209000AF2BAC58AD5974002DF974203CA801FC4D
:1020A0007D02AB25AA26A92751041CE52B2559F54D
:1020B00059E52A3558F5587B417A037985C003C024
:1020C00001AE58AF5974002FF974203EA801FC7D71
:1020D00002D001D0037E007F0251041C74022559F6
:1020E000F559E43558F5587B417A037987C003C028
:1020F00001AE58AF5974002FF974203EA801FC7D41
:1021000002D001D0037E007F0151041C0559E5591E
:1021100070020558AE28AF29AC58AD5974002DF99E
:1021200074203CA801FC7D02AB21AA22A923510402
:102130001CE5292559F559E5283558F5587B837A4A
:1021400007794651558B7B837A07795151558B7BA3
:10215000417A0379827D02514A597B837A07795CFF
:1021600051558B7B417A0379847D01514A597B8398
:102170007A07796751558BAB25AA26A927AD2B5134
:102180004A597B837A07797251558B7B417A03795F
:10219000857D02514A597B837A07797D51558B9011
:1021A000400387E060087B837A07798880067B8319
:1021B0007A07798B51558B7B837A07798E51558BB2
:1021C000AB21AA22A923AD29514A59E52945286006
:1021D00003411E5CE52C546024E0601724E0601B82
:1021E00024E0601F24606003411E5C7B837A0779D2
:1021F0009980167B837A07799E800E7B837A077994
:10220000A480067B837A0779AA51558B411E5C7F97
:10221000002290400066510323E4FFFE7D06FC90FF
:10222000400066E0F8A3E0F9A3E0FAA3E0FBC351A5
:1022300002B440037F012290400066E0FCA3E0FD71
:10224000A3E0FEA3E02404FFE43EFEED3401FDE440
:102250003CA907AA06AB055102EB8F308E2F8D2EBD
:102260008C2D90400066E0FCA3E0FDA3E0FEA3E01F
:102270002408FFE43EFEED3401FDE43CA907AA0674
:10228000AB055102EB8F348E338D328C31E5342423
:1022900001FFE43533FEE5323401FDE43531A907B1
:1022A000AA06AB0551011EF53685F035E4F537F584
:1022B0003890400066E0FCA3E0FDA3E0FEA3E0FF51
:1022C000AB30AA2FA92EA82DC35102B4604BE4FF56
:1022D000FE7D02FC90400066E0F8A3E0F9A3E0FA7E
:1022E000A3E0FBC35102B4700890400390E0444067
:1022F000F07F007E807D037C0090400066E0F8A3C4
:10230000E0F9A3E0FAA3E0FBC35102B470089040E7
:102310000390E04420F07F012290400066E0FCA39F
:10232000E0FDA3E0FEA3E0240CFFE43EFEE43DFD5F
:10233000E43CFCAB34AA33A932A831C35102B450F7
:102340004BE4FFFE7D02FC90400066E0F8A3E0F95C
:10235000A3E0FAA3E0FBC35102B4700890400390DD
:10236000E04440F07F007E807D037C00904000666A
:10237000E0F8A3E0F9A3E0FAA3E0FBC35102B470D4
:102380000890400390E04420F07F0122AF30AE2F50
:10239000AD2EAC2D904003A6510323C3E5349530F8
:1023A000FFE533952FFEE532952EFDE531952DFCA9
:1023B000EF2401FFE43EFEE43DFDE43CFC904003DD
:1023C000AA8070904003AAE0FCA3E0FDA3E0FEA376
:1023D000E0FFE47B32FAF9F8C35102B4505A90405E
:1023E00003A6E0FCA3E0FDA3E0FEA3E0FF51677BB2
:1023F000904003AAE0FCA3E0FDA3E0FEA3E0C394A9
:1024000032FFEE9400FEED9400FDEC9400FC904051
:1024100003AA510323904003A6E0FCA3E0FDA3E040
:10242000FEA3E02432FFE43EFEE43DFDE43CFC90EC
:102430004003A6510323808BE4FFFEFDFC4124C42E
:10244000904003AEE0FCA3E0FDA3E0FEA3E0FF901C
:102450004003AAE0F8A3E0F9A3E0FAA3E0FBD3511C
:1024600002B4406A904003AEE0FCA3E0FDA3E0FEAE
:10247000A3E0FF904003A6E0F8A3E0F9A3E0FAA3ED
:10248000E02FFFEA3EFEE93DFDE83CFCE42FFFE4DF
:102490003EFEED3401FDE43CA907AA06AB05510060
:1024A0000C2538F538E43537F537904003AEE0FCBD
:1024B000A3E0FDA3E0FEA3E02401FFE43EFEE43D33
:1024C000FDE43CFC904003AE510323412440E4FF73
:1024D000FE7D02FC90400066E0F8A3E0F9A3E0FA7C
:1024E000A3E0FBC35102B4701AE53665387004E509
:1024F000356537904003906006E04440F08004E08A
:1025000054BFF07F007E807D037C0090400066E039
:10251000F8A3E0F9A3E0FAA3E0FBC35102B4701AF8
:10252000E53665387004E535653790400390600600
:10253000E04420F08004E054DFF07F0022C3E52B6C
:102540009405E52A940050034127E7AB25AA26A964
:1025500027E92401F9E43AFA51000CFDAB25AA263B
:10256000A92751000CFFED9040039FCFF0A3EFF09F
:10257000C3E52B9405FFE52A9400FE9040039FE0FD
:10258000FCA3E06F7002EE6C60034127E7AB25AA65
:1025900026A927E92403F9E43AFA51000CFFE4FCE8
:1025A000FDFE78085102D8C004C005C006C007ABC4
:1025B00025AA26A927E92402F9E43AFA51000CFFDA
:1025C000E4FCFDFE78105102D8D003D002D001D037
:1025D00000EF4BFFEE4AFEED49FDEC48FCA804C0BD
:1025E00005C006C007AB25AA26A927E92404F9E4FB
:1025F0003AFA51000CFFD003D002D001EF4BFFEAB2
:10260000FEE9FDE8FC904003A1510323904003A1A3
:10261000A3E0FDA3E0FEA3E0FFED540FFDE4FC907A
:102620004003A1510323AB25AA26A927E92402F9D7
:10263000E43AFA51000C54F0904003A5F0E0600831
:10264000E0644060034127E79040039FE0FEA3E081
:10265000FF904003A1E0F8A3E0F9A3E0FAA3E0FBB8
:10266000EF2BFFEE3AFEE439FDE438FCE4FBFA79A7
:1026700010F8C35102B450034127E7904003A5E08E
:10268000601B904003A1E0FCA3E0FDA3E0FEA3E0FB
:10269000FFED4440FDEC904003A1510323AB25AA7C
:1026A00026A927E92405F9E43A8B25F52689279000
:1026B0004003A1E0FCA3E0FDA3E0FEA3E0FFE4FBF8
:1026C000FA7902F8D35102B44003412758904003ED
:1026D0009FE0FEA3E0FF904003A1E0F8A3E0F9A390
:1026E000E0FAA3E0FBEF2BFFEE3AFEE439FDE4381D
:1026F000FCE4FBFA7904F8C35102B4405B90400358
:10270000A1E0FCA3E0FDA3E0FEA3E02400FFE43E83
:10271000FEED3401FDE43CA907AA06AB05C003C0E9
:1027200002C001AB25AA26A92790400042EBF0A3E6
:10273000EAF0A3E9F09040039FE0FFA3E09040009F
:1027400045CFF0A3EFF0D001D002D00351564FBFD8
:1027500001034127E74128509040039F74FFF5F0A3
:1027600051010845F07003412850904003A1E0FC5E
:10277000A3E0FDA3E0FEA3E0FFE4FBFA7902F8D3B7
:102780005102B4506B904003A1E0FCA3E0FDA3E034
:10279000FEA3E0FFE47904F85102B44053904003F3
:1027A000A1E0FCA3E0FDA3E0FEA3E02400FFE43EE3
:1027B000FEED3401FDE43CA907AA06AB05C003C049
:1027C00002C001AB25AA26A92790400042EBF0A346
:1027D000EAF0A3E9F0A3E4F0A304F0D001D002D022
:1027E0000351564FBF013AE4F528F529752C3022E4
:1027F000904003A1E0FCA3E0FDA3E0FEA3E02400E1
:10280000FFE43EFEED3401FDE43CA907AA06AB055A
:10281000A807AC06AB25AA26A9277E007F01510494
:102820001C904003A1E0FCA3E0FDA3E0FEA3E02494
:1028300001FFE43EFEE43DFDE43CFC904003A15179
:10284000032374012527F527E43526F5264127586B
:10285000E4F528F529752C7022E52B6401452A60E2
:10286000028030AB25AA26A92751000C547F904046
:1028700003BCF0AB25AA26A92751000C5480904038
:1028800003BDF0904003BCE0C394014006E0D39444
:10289000094009E4F528F529752C3022AB25AA2634
:1028A000A92751000CAB21AA22A92351003E75286B
:1028B00000752901904003BCE075F040A4FF9040F2
:1028C00003BEE5F0F0A3EFF0E4904003BBF09040CE
:1028D00003BCE07E0024EDF9EE3402FA7B415100A6
:1028E0000CFF904003BBE0C39F4003412B45904049
:1028F00003BDE07003412A3BA3E0FEA3E0FF7C00A0
:102900007D15510052740D2FF974403EFA7B015130
:10291000000CFFAB21AA22A9230529E529AC2870C8
:102920000205281429F9EA3CFAEF51003E904003D1
:10293000BEE0FEA3E0FF7C00510052740E2FF9743C
:10294000403EFA7B0151000CFFAB21AA22A92305CE
:1029500029E529AC28700205281429F9EA3CFAEF88
:1029600051003E904003BEE0FEA3E0FF7C0051001A
:1029700052740F2FF974403EFA7B0151000CFFABEB
:1029800021AA22A9230529E529AC287002052814CB
:1029900029F9EA3CFAEF51003E904003BEE0FEA365
:1029A000E0FF7C0051005274102FF974403EFA7B16
:1029B0000151000CFFAB21AA22A9230529E529AC6E
:1029C00028700205281429F9EA3CFAEF51003E90DC
:1029D0004003BEE0FEA3E0FF7C0051005274112FC3
:1029E000F974403EFA7B0151000CFFAB21AA22A9E9
:1029F000230529E529AC28700205281429F9EA3CA9
:102A0000FAEF51003E904003BEE0FEA3E0FF7C00E1
:102A100051005274122FF974403EFA7B0151000CA0
:102A2000FFAB21AA22A9230529E529AC28700205BC
:102A3000281429F9EA3CFAEF51003E904003BEE029
:102A4000FEA3E0FF7C007D1551005274132FF97432
:102A5000403EFA7B0151011EE5F0FFAB21AA22A9FD
:102A6000230529E529AC28700205281429F9EA3C38
:102A7000FAEF51003E904003BEE0FEA3E0FF7C0071
:102A800051005274132FF974403EFA7B0151011E1C
:102A9000FFAB21AA22A9230529E529AC287002054C
:102AA000281429F9EA3CFAEF51003E904003BEE0B9
:102AB000FEA3E0FF7C0051005274092FF974403EE0
:102AC000FA7B015102EB515947E47BE87A03F9F8AC
:102AD000510215904003C0510323904003C0E0FC15
:102AE000A3E0FDA3E0FEA3E0FF78085102C5AB21FF
:102AF000AA22A9230529E529AC2870020528142952
:102B0000F9EA3CFAEF51003E904003C0A3A3A3E0D2
:102B1000FFAB21AA22A9230529E529AC28700205CB
:102B2000281429F9EA3CFAEF51003E904003BFE037
:102B300004F07007904003BEE004F0904003BBE057
:102B400004F04128CEE52945287003752C7022E554
:102B50002B6405452A6003412E39AB25AA26A927F7
:102B6000E92401F9E43AFA51000CFDAB25AA26A9A3
:102B70002751000CFFED90400398CFF0A3EFF090A9
:102B8000400398E0FEA3E0D394FBEE941F40034182
:102B90002E39AB25AA26A927E92403F9E43AFA51EC
:102BA000000CFFE4FCFDFE78085102D8C004C0050B
:102BB000C006C007AB25AA26A927E92402F9E43AF2
:102BC000FA51000CFFE4FCFDFE78105102D8D0034E
:102BD000D002D001D000EF4BFFEE4AFEED49FDECF4
:102BE00048FCA804C005C006C007AB25AA26A92733
:102BF000E92404F9E43AFA51000CFFD003D002D0E2
:102C000001EF4BFFEAFEE9FDE8FC9040039A510317
:102C1000239040039AA3E0FDA3E0FEA3E0FFED5460
:102C20000FFDE4FC9040039A510323AB25AA26A98B
:102C300027E92402F9E43AFA51000C54F0904003D9
:102C40009EF090400398E0FEA3E02405F529E43EC1
:102C5000F528AB21AA22A923A801AC02AD03AB251C
:102C6000AA26A9277E007F0551041C9040039EE000
:102C700024F07003412D3B24F07003412DC724E064
:102C8000600724406003412E3990400398E0FEA382
:102C9000E0FF9040039AE0F8A3E0F9A3E0FAA3E094
:102CA000FBEF2BFFEE3AFEE439FDE438FCE4FBFADF
:102CB0007910F8C35102B45003412E399040039E5D
:102CC000E0601B9040039AE0FCA3E0FDA3E0FEA3BC
:102CD000E0FFED4440FDEC9040039A510323904007
:102CE0000398E0FEA3E0FFC006C0079040039AE00F
:102CF000FCA3E0FDA3E0FEA3E02400FFE43EFEED24
:102D00003401FDE43CA907AA06AB05C003C002C01C
:102D100001AB21AA22A923E92405F9E43AA801FC80
:102D2000AD03D001D002D003D007D00651041CE57A
:102D30002945286003412E41412E3590400398E0FB
:102D4000FEA3E0FF9040039AE0F8A3E0F9A3E0FAC5
:102D5000A3E0FBEF2BFFEE3AFEE439FDE438FCE4A0
:102D6000FBFA7910F8C35102B45003412E39904058
:102D70000398E0FEA3E0FFC006C0079040039AE07E
:102D8000FCA3E0FDA3E0FEA3E02400FFE43EFEED93
:102D90003481FDE43CA907AA06AB05C003C002C00C
:102DA00001AB21AA22A923E92405F9E43AA801FCF0
:102DB000AD03D001D002D003D007D00651041CE5EA
:102DC000294528707C806E90400398E0FEA3E0FFC8
:102DD0009040039AE0F8A3E0F9A3E0FAA3E0FBEF48
:102DE0002BFFEE3AFEE439FDE438FCE4FB7A01F90E
:102DF000F8C35102B45002804090400398E0FEA313
:102E0000E0FF9040039AA3A3A3E0F97A007B00C0FF
:102E100003C002C001AB21AA22A923E92405F9E4D9
:102E20003AA801FCAD03D001D002D00351041CE547
:102E3000294528700C752C7022E4F528F529752C8D
:102E40003022E55B700B90400390E020E3034131BA
:102E500018E513603FE4F508E47F01FEFDFCA908D6
:102E6000A8015102D8A905AA06AB07AF13E4FCFDDF
:102E7000FEEB5FFFEF600AE50804FF515004E4F544
:102E800011E50804FF515BFC0508E508C394084000
:102E9000C7E4F513E51C6003E4F511E51E6003E4E7
:102EA000F511E51164026003E4F50BE51114602CE3
:102EB00014607814700341300F1470034130FE2405
:102EC000046003413118E4F51C750909F50AF51A87
:102ED000F518E51E6003413118413115AF09EF7552
:102EE000F040A485F00CF50DAF09EF75F040A48516
:102EF000F00EF50FE509B409034130DBE47F01FE74
:102F0000FDFCC3E5099401F9F85102D8A905AA0608
:102F1000AB07AF12E4FCFDFEEB5FFFEF6033AF09E0
:102F200051549AAF09515BFC4130FAE4F51AF51897
:102F3000E509C39409501DE47F01FEFDFCC3E509CA
:102F40009401F9F85102D8AB07AF12EB5FFFEF70B5
:102F50000341305CAF097E0074ED2FF9EE3402FAC4
:102F60007B4151000CFD7C00AF09EF75F040A42DB2
:102F7000FFEC35F0FEC3E50D9FE50C9E40034130AC
:102F80000BAE0CAF0D7C007D1551005274082FF96B
:102F900074403EFA7B0151000C6023AE0CAF0D5122
:102FA000005274082FF974403EFA51000CC394018A
:102FB000FFE50AA807088002C333D8FC600A050DA4
:102FC000E50D7090050C808CE47F01FEFDFCC3E5EF
:102FD000099401F9F85102D8A905AA06AB07AF1B5D
:102FE000E4FCFDEB5FFFEF6003751801AF0DAE0C65
:102FF000515AAC050DE50D7002050C050BE5187076
:103000000AE50BC39515500341311875110322E5EC
:1030100009C39409501CE47F01FEFDFCC3E509943B
:1030200001F9F85102D8AB07AF12EB5FFFEF700266
:10303000802AAF097E0074ED2FF9EE3402FA7B414D
:1030400051000CFD7C00AF09EF75F040A42DFFECA2
:1030500035F0FEC3E50F9FE50E9E40047511042276
:10306000AE0EAF0F7C007D1551005274082FF9741D
:10307000403EFA7B0151000C6023AE0EAF0F5100B1
:103080005274082FF974403EFA51000CC39401FFAA
:10309000E50AA807088002C333D8FC600A050FE5DB
:1030A0000F708F050E808BAE0EAF0F7C007D15511B
:1030B000005274092FF974403EFA7B015102EB5122
:1030C0005947E47BEE7A02F9F8D35102B45049E54E
:1030D0001A600AE50D150D7002150C801DAF0FAEBC
:1030E0000E511877050FE50F7002050EE4F518C3B1
:1030F000E50F950DE50E950C401E75110222E509B0
:103100000475F00A8485F009E50970020509E509EE
:10311000B40902050A75110122E0FF51312E9040D9
:103120000084E0FF51312E90400084E0FF0DEF64F9
:103130000960034131EBED6059C2AFC2B5D2B5D2DF
:10314000AFE4904002A1F000000000000000000089
:10315000000000000000000000000000000000006F
:10316000000000000000000000000000000000005F
:10317000000000000000000000000000000000004F
:1031800000000000904002A1E004F0E0B403B84168
:103190003362C2AFC2B5E4904002A2F0000000006A
:1031A000000000000000000000000000000000001F
:1031B000000000000000000000000000000000000F
:1031C00000000000000000000000000000000000FF
:1031D000000000000000000000904002A2E004F0A7
:1031E000E0B403B8D2B5D2AF413362C3EF9401FF6C
:1031F0007401A807088002C333D8FC904002A4F0F1
:10320000E0F4A3F0ED70034132FCC2AFE09007F0B0
:1032100010F0A37401F000000000000000000000A6
:10322000000000000000E4F00000000000000000CA
:10323000000000000000000000000000000000008E
:10324000000000000000000000000000000000007E
:10325000000000000000000000000000000000006E
:10326000000000000000000000000000000000005E
:10327000000000000000000000000000000000004E
:10328000000000000000000000000000000000003E
:10329000000000000000000000000000000000002E
:1032A000000000000000000000000000000000001E
:1032B000000000000000000000000000000000000E
:1032C00000000000000000000000000000000000FE
:1032D00000000000000000000000000000000000EE
:1032E00000000000000000000000000000000000DE
:1032F0000000000000000000D2AF8066C2AF904026
:1033000002A5E09007F010F0A37401F0E4904002F1
:10331000A3F000000000000000000000000000001A
:10332000000000000000000000000000000000009D
:10333000000000000000000000000000000000008D
:1033400000000000000000000000000000000090ED
:103350004002A3E004F0E0B403B8E49007F011F0F9
:10336000D2AF0000000000000000000000000000DC
:10337000000000000000000000000000000000004D
:10338000000000000000000000000000000000003D
:10339000000000000000000000000000000000002D
:1033A000000000000000000000000000000022F00B
:1033B000E0FF90400052E4F0A3F0A3F0FBFAF99094
:1033C00040004FEBF0A3EAF0A3E9F0EF64096003DB
:1033D000413473C2B590400295F000000000000037
:1033E00000000000000000000000000000000000DD
:1033F00000000000000000000000000000000000CD
:1034000000000000000000000000000000000000BC
:103410000000000000000090400295E004F0E0B4DD
:1034200019B8D2B5E490400296F000000000000008
:10343000000000000000000000000000000000008C
:10344000000000000000000000000000000000007C
:10345000000000000000000000000000000000006C
:103460000000000000000090400296E004F0E0B48C
:1034700019B822C3EF9401FF7401A807088002C3A2
:1034800033D8FC90400299F0E0F4A3F0C2AFE09092
:1034900007F010F0A37401F000000000000000002D
:1034A000000000000000000000000000000000001C
:1034B000000000000000000000000000000000000C
:1034C00000000000000000000000000000000000FC
:1034D0009007F010E09040029BF0D2AF9040004F78
:1034E000E0FBA3E0FAA3E0F9EA494B600A9040024E
:1034F0009BE0FFEF51003EE490400297F000000097
:1035000000000000000000000000000000000000BB
:1035100000000000000000000000000000000000AB
:10352000000000000000000000000000000000009B
:103530000000000000000000000090400297E0043E
:10354000F0E0B419B8C2AFE49007F011F000000049
:10355000000000000000000000000000000000006B
:10356000000000000000000000000000000000005B
:10357000000000000000000000000000000000004B
:1035800000000000009007F010E09040029BF0D295
:10359000AF90400052E0FBA3E0FAA3E0F9EA494B08
:1035A000600A9040029BE0FFEF51003EE490400231
:1035B00098F0000000000000000000000000000083
:1035C00000000000000000000000000000000000FB
:1035D00000000000000000000000000000000000EB
:1035E000000000000000000000000000000000904B
:1035F000400298E004F0E0B419B82290400088EF4F
:10360000F0ED6008E4904002B5F0A3F0904002B500
:10361000E0B401037F0122904002BA7401F0E4A3F8
:10362000F0904002BDF0904002BC04F0E4F55A90E6
:10363000400088E0FF5133B290400088E0FF7DF009
:10364000516C14904002BDE0C394084003413778A8
:10365000514156904002B8EFF0514156904002B9A6
:10366000EFF0904002B8E0B4010EA3E0B40109907D
:103670004002B57401F0FF22904002B9E0FF904093
:1036800002B8E06F6008E0904002B7F080589040C8
:1036900002B6E0FF904002BAE0C39F501E90400285
:1036A000BDE07E0024BEF9EE3402FA7B4151000CED
:1036B000FF904002BCE05F6019800E904002B6E0CF
:1036C000FF904002BAE0B50709904002B77401F0DC
:1036D0008006E4904002B7F0904002B7E070079097
:1036E0004002BAE0A3F0904002B7E0904002BD6013
:1036F00018E07E0024BEF9EE3402FA7B4151000C42
:10370000FF904002BCE04F8017E07E0024BEF9EE3F
:103710003402FA7B4151000CFF904002BCE0F45FA0
:1037200051003E90400088E0FF904002B7E0FD511C
:10373000312E904002BAE004F0904002BCE025E057
:10374000F0E06003413643A3E07E0024BEF9EE348E
:1037500002FA7B4151000C655A2495F9EE3401FAC6
:103760007B4151000CF55A904002BDE004F09040BE
:1037700002BC7401F0413643E55A7007904002BE26
:10378000E070037F012290400088E07E0024EDF984
:10379000EE3402FA7B4151000CFD7C009040008821
:1037A000E075F040A42DFEEC35F0904002C8F0A387
:1037B000CEF0904002C67409F07B417A0279BEC017
:1037C00003C001904002C8E0FEA3E0FF7D15510058
:1037D0005274002FF974403EA801FC7D01D001D045
:1037E000037E007F0951041C90400088E0FF7E00AA
:1037F00024EDF9EE3402FA7B41740151002290402D
:1038000002BBE0904002B6F0E0601074ED2FF9EEDC
:103810003402FA51000CC394404007904002B57442
:1038200001F07F00229040007CEDF09040007BEFA3
:10383000F0AF1F30E10CEF75F01CA424B9F974004F
:10384000800AEF75F01CA424B6F9740035F0FA7BF9
:103850004151032F9040008BEBF0A3EAF0A3E9F075
:103860009040007BE0AF1F30E20CEF75F01CA42409
:10387000ABF97400800AEF75F01CA424A8F9740059
:1038800035F0FA7B4151032F9040008EEBF0A3EA14
:10389000F0A3E9F0E51F5403240AFDE4FBFF5151B6
:1038A000E8E51F5403240AFD7F015151E8904000D0
:1038B0007BE05404FFE51F04FD7B805151E89040FC
:1038C000008EE0FBA3E0FAA3E02406F9E43AFA74E0
:1038D000F651003E9040007BE0FF9040008BE0FB03
:1038E000A3E0FAA3E02402F9E43AFAEF51003EE53E
:1038F0001FC39404AF205002AF249040008BE0FB24
:10390000A3E0FAA3E02403F9E43AFAEF51003EE51C
:103910001F5403FF9040008BE0FBA3E0FAA3E024D8
:1039200004F9E43AFAEF51003E9040008BE0FBA32B
:10393000E0FAA3E02405F9E43AFAE451003E9040AD
:10394000007CE070034139F7C454F0440CFF904010
:10395000008BE0FBA3E0FAA3E02406F9E43AFAEFD7
:1039600051003E9040008BE0FBA3E0FAA3E0240767
:10397000F9E43AFAC003C002C001AF1FEF75F01CB2
:10398000A424BFF9740035F0FA7B4151032F904015
:10399000004AEBF0A3EAF0A3E9F09040007CE0904D
:1039A00040004DF0D001D002D00351658FAF1FEF22
:1039B00075F01CA424C2F9740035F0FA7B41510162
:1039C0001EFF9040007CE0FDC3EF9DFFE5F09400FA
:1039D0008FF051016E9040007CE0FDAF1FEF75F05D
:1039E0001CA424BFF9740035F0FA09E970010AE457
:1039F0008DF051014280169040008BE0FBA3E0FA6D
:103A0000A3E02406F9E43AFA740C51003E90400019
:103A10007BE05402FFE51F5403240AFD7BC541519E
:103A2000E890400086EFF0E075F040A4FF9040027F
:103A3000B2E5F0F0A3EFF090400086E07E0024EDC8
:103A4000F9EE3402FA7B41E451003E904002B4F0BA
:103A5000904002B2E0FEA3E0FF7C007D15510052D1
:103A600074002FF974403EFA7B01E451003E90400F
:103A700002B2E0FEA3E0FF51005274012FF974403E
:103A80003EFAE451003E904002B2E0FEA3E0FF5156
:103A9000005274022FF974403EFAE451003E904007
:103AA00002B2E0FEA3E0FF51005274032FF974400C
:103AB0003EFAE451003E904002B2E0FEA3E0FF5126
:103AC000005274042FF974403EFAE451003E9040D5
:103AD00002B2E0FEA3E0FF51005274052FF97440DA
:103AE0003EFAE451003E904002B2E0FEA3E0FF51F6
:103AF000005274062FF974403EFAE451003E9040A3
:103B000002B2E0FEA3E0FF51005274072FF97440A7
:103B10003EFAE451003E904002B2E0FEA3E0FF51C5
:103B2000005274082FF974403EFAE451003EFFFE43
:103B3000FDC005C006C007904002B2E0FEA3E0FF52
:103B40007D1551005274092FF974403EFAD007D008
:103B500006D005510308904002B2E0FEA3E0FF7CCE
:103B6000007D15510052740D2FF974403EFAE45156
:103B7000003E904002B2E0FEA3E0FF510052740EFE
:103B80002FF974403EFAE451003E904002B2E0FE4C
:103B9000A3E0FF51005274102FF974403EFAE45133
:103BA000003E904002B2E0FEA3E0FF5100527411CB
:103BB0002FF974403EFAE451003E904002B2E0FE1C
:103BC000A3E0FF51005274122FF974403EFA748042
:103BD00051003E904002B2E0FEA3E0FF510052745B
:103BE000132FF974403EFA748075F00051016E9005
:103BF0004002B3E004F07007904002B2E004F0909D
:103C00004002B4E004F0E064406003413A502275A1
:103C10005B01E55B9040038F70057404F0800374D2
:103C200005F074DB2406F9E43408FA7B83C003C092
:103C300002C001788D7C037D41D001D002D0037E8B
:103C4000007F0251041C9040038EE0C394309040EA
:103C50000388F0788D7C037D417B837A0879DB7E55
:103C6000007F0251041C9040038DE0C3943075F036
:103C70000AA4FFA3E0C394302F90400389F074DBC3
:103C80002403F9E43408FA7B83C003C002C001783E
:103C90008D7C037D41D001D002D0037E007F025194
:103CA000041C9040038DE0C3943075F00AA4FFA378
:103CB000E0C394302F9040038AF0788D7C037D41DF
:103CC0007B837A0879E47E007F0251041C904003D4
:103CD0008DE0C3943075F00AA4FFA3E0C394302FA5
:103CE0009040038BF074E42403F9E43408FA7B83F6
:103CF000C003C002C001788D7C037D41D001D00299
:103D0000D0037E007F0251041C9040038DE0C394D9
:103D10003075F00AA4FFA3E0C394302F9040038CC9
:103D2000F07B017A00790151000C90400390F0E49F
:103D300051003E9040039374FFF090400388E0C42C
:103D400054F0FFA3E04F90400394F09040038AE0CA
:103D500090400395F09040038BE090400396F090E4
:103D600040038CE090400397F030DE1275C7AA75CF
:103D7000C755C2DEE490400390F01951003EE4FFC5
:103D8000FE7D02FC5122127F007E807D037C00516B
:103D90002212E55B704390400390E05407701D7B56
:103DA000087AF0791451000C20E04890400390E02C
:103DB00020E640E07B017A00790180157B017A00E2
:103DC000790051000C702C90400390E020E624E034
:103DD0000951003E5167AA801A5170139040039018
:103DE000E054077006E04410F0800890400390E033
:103DF00054EFF0416D2790400082EDF0EF600341F9
:103E00003EDEE014B40F004003413FAD90023E1B84
:103E100075F003A4C58325F0C58373413E48413E38
:103E200052413E5C413E66413E70413E7A413E8495
:103E3000413E8E413E98413EA2413EAC413EB6419C
:103E40003EC0413ECA413ED49040008AE5ABF041BD
:103E50003FAD9040008AE5ACF0413FAD9040008A14
:103E6000E5ADF0413FAD9040008AE5AEF0413FAD99
:103E70009040008AE5AFF0413FAD9040008AE5B345
:103E8000F0413FAD9040008AE5B4F0413FAD904035
:103E9000008AE5B5F0413FAD9040008AE5B6F041BB
:103EA0003FAD9040008AE5B7F0413FAD9040008AB9
:103EB000E5BBF0413FAD9040008AE5BCF0413FAD2D
:103EC0009040008AE5BDF0413FAD9040008AE5BEDC
:103ED000F0413FAD9040008AE5BFF0413FAD9040DA
:103EE0000082E014B40F004003413FAD90023EFB5E
:103EF00075F003A4C58325F0C58373413F28413F76
:103F000031413F3A413F43413F4C413F55413F5E84
:103F1000413F67413F70413F79413F82413F8B4183
:103F20003F94413F9D413FA69040008AE5EBF080E1
:103F30007C9040008AE5ECF080739040008AE5EDCB
:103F4000F0806A9040008AE5EEF080619040008A3F
:103F5000E5EFF080589040008AE5F3F0804F904004
:103F6000008AE5F4F080469040008AE5F5F0803D57
:103F70009040008AE5F6F080349040008AE5F7F042
:103F8000802B9040008AE5FBF080229040008AE57B
:103F9000FCF080199040008AE5FDF0801090400010
:103FA0008AE5FEF080079040008AE5FFF09040002F
:103FB0008AE0FF22E52B6403452A600341404CABB5
:103FC00025AA26A927E92401F9E43AFA51000CFFB1
:103FD000E4FCFDFE78085102D8C004C005C006C04C
:103FE00007AB25AA26A92751000CFFE4FCFDFE78AB
:103FF000105102D8D003D002D001D000EF4BFFEE19
:104000004AFEED49FDEC48FCA804C005C006C00707
:10401000AB25AA26A927E92402F9E43AFA51000CB3
:10402000FFD003D002D001EF4BFFEAFEE9FDE8FC30
:10403000904003E2510323904003E2E0FCA3E0FD43
:10404000A3E0FEA3E0FF512212BF0109E4F528F529
:1040500029752C302275280075290AAF30AE2FAD96
:104060002EAC2D78105102C5AB21AA22A923EF5105
:10407000003EAF30AE2FAD2EAC2D78085102C5AB4F
:1040800021AA22A923E92401F9E43AFAEF51003EDA
:10409000AF30AE2FAD2EAC2DAB21AA22A923E9243F
:1040A00002F9E43AFAEF51003EAF34AE33AD32AC30
:1040B0003178105102C5AB21AA22A923E92403F9C2
:1040C000E43AFAEF51003EAF34AE33AD32AC317862
:1040D000085102C5AB21AA22A923E92404F9E43A34
:1040E000FAEF51003EAF34AE33AD32AC31AB21AA62
:1040F00022A923E92405F9E43AFAEF51003EE53517
:10410000FFAB21AA22A923E92406F9E43AFAEF51E8
:10411000003EAF36AB21AA22A923E92407F9E43AED
:10412000FAEF51003EE537FFAB21AA22A923E9248B
:1041300008F9E43AFAEF51003EAF38AB21AA22A9C0
:1041400023E92409F9E43AFAEF51003EE52945282C
:104150007003752C702290400088E0FFEF640960C6
:104160000341420DC2AFC2B50000000000000000D4
:104170000000000000000000D2B5000000000000B8
:10418000000000000000000000000000000000002F
:10419000000000000000000000000000000000001F
:1041A000000000000000000000000000000000000F
:1041B0000000A2B533904002A0F0D2AFE4904002DC
:1041C0009CF0000000000000000000000000000063
:1041D00000000000000000000000000000000000DF
:1041E00000000000000000000000000000000000CF
:1041F000000000000000000000000000000000902F
:1042000040029CE004F0E0B403B84142E5C3EF94FF
:1042100001FF7401A807088002C333D8FC90400254
:104220009EF0E0F4A3F0C2AFE09007F010F0A374AA
:1042300001F000000000000000000000000000008D
:104240000000E4F00000000000000000000000009A
:10425000000000000000000000000000000000005E
:10426000000000000000000000000000000000004E
:104270000000000000000000000000009007F010A7
:10428000E0904002A0F0D2AFE0FF9040029EE0FE3E
:10429000EF5E904002A0F0E49040029DF00000002C
:1042A000000000000000000000000000000000000E
:1042B00000000000000000000000000000000000FE
:1042C00000000000000000000000000000000000EE
:1042D000000000000000000000009040029DE0048B
:1042E000F0E0B403B8904002A0E07F0060027F01DC
:1042F000225142FD5142FD5142FD5142FD0000005C
:1043000000000000000000000000000000000000AD
:10431000000000000000000000000000000000009D
:10432000000000000000000000000000000000008D
:10433000000000000000000000000000000000007D
:10434000000000000000000000000000000000006D
:10435000000000000000000000000000000000005D
:10436000000000000000000000000000000000004D
:10437000000000000000000000000000000000003D
:10438000000000000000000000000000000000002D
:10439000000000000000000000000000000000001D
:1043A000000000000000000000000000000000000D
:1043B00000000000000000000000000000000000FD
:1043C00000000000000000000000000000000000ED
:1043D00000000000000000000000000000000000DD
:1043E00000000000000000000000000000000000CD
:1043F00000000000000000000000000000000000BD
:1044000000000000000000000000000000000000AC
:10441000000000000000000000000000000000009C
:10442000000000000000000000000000000000008C
:10443000000000000000000000000000000000007C
:10444000000000000000000000000000000000006C
:10445000000000000000000000000000000000005C
:10446000000000000000000000000000000000004C
:10447000000000000000000000000000000000003C
:104480000000000000000000000022E55B640170F5
:104490000341461C9040036FE014607414700341A4
:1044A00045588000E490400367F090400367E07E49
:1044B000002470F9EE3403FA7B4151000CB401443E
:1044C00090400367E0FFE4FCFDFB7A40F9F85101FE
:1044D0008AE42FFFE43EFEED3402FDE43CFCE42FD1
:1044E000FFE43EFEED3401FDE43CA907AA06AB055E
:1044F00090400368EDF0A3EAF0A3E9F09040036F69
:104500007401F02290400367E004F0E0B4089B22BD
:10451000C2AFD2B39002055574AAF0900202AA74F9
:1045200055F0900205557480F074AAF0900202AA2A
:104530007455F090400368E0FBA3E0FAA3E0F9743F
:104540003051003ED2AF516C399040036B51032380
:104550009040036F7402F02290400368E0FBA3E0F8
:10456000FAA3E0F951000C30E719C2B39040036799
:10457000E07E002470F9EE3403FA7B41E451003E02
:1045800041461090400368E0FBA3E0FAA3E0F95134
:10459000000C30E54490400368E0FBA3E0FAA3E0A0
:1045A000F951000C30E718C2B390400367E07E0079
:1045B0002470F9EE3403FA7B41E451003E8018C2C6
:1045C000B390400367E07E002470F9EE3403FA7B79
:1045D00041740251003EE480379040036BE0FCA33D
:1045E000E0FDA3E0FEA3E0FF515947E47B987A3A4F
:1045F000F9F8C35102B45024C2B390400367E07E7F
:10460000002470F9EE3403FA7B41740251003EE459
:104610009040036FF09002088874F0F022C3E52BFD
:104620009401FFE52A9400FE7C007D09510064900E
:104630004003B8EFF0C3E52B9401E52A940040371E
:10464000E52B9401FFE52A9400FE7C007D095100D2
:1046500064ED4C7022E0D394404002801AAB25AA4E
:1046600026A92751000C904003B7F0E0C394014005
:1046700006E0D394094009E4F528F529752C302289
:10468000904003B7E0C39401FF7401A807088002BB
:10469000C333D8FC4213751C01E47F01FEFDFC907E
:1046A0004003B7E0C39401F9F85102D85102A7EFD3
:1046B000521E751D01A3E0FF904003B7E07C00246B
:1046C000EDF9EC3402FA7B41EF51003E904003B724
:1046D000E075F040A4FF904003B9E5F0F0A3EFF0DF
:1046E000E4904003B6F0904003B8E0FF904003B67A
:1046F000E0C39F4003414790AB25AA26A927E924A0
:1047000001F9E43AFAE075F009A429F9EA35F0FA7A
:10471000C003C001904003B9E0FEA3E0FF7C007D30
:104720001551005274002FF974403EA801FC7D0120
:10473000D001D0037E007F0951041C904003B9E0F2
:10474000FEA3E0FF7C007D1551005274082FF97420
:10475000403EFA7B0151000CD3940940199040036C
:10476000B9E0FEA3E0FF51005274082FF974403EF7
:10477000FA740951003E904003BAE004F0700790CB
:104780004003B9E004F0904003B6E004F04146E68F
:10479000E4F528F529752C70229040005BEBF0A31E
:1047A000EAF0A3E9F09040005BE0FBA3E0FAA3E0AD
:1047B000F951000CFD540FFF74017E00A80708801A
:1047C00005C333CE33CED8F9F5568E55EDC4540714
:1047D000FF7401A807088002C333D8FCF557516F56
:1047E000AFEF60037F0122516A8E9040005BE0FBD7
:1047F000A3E0FAA3E02401516BB59040005BE0FB1D
:10480000A3E0FAA3E02402516BB59040005BE0FB0B
:10481000A3E0FAA3E02403516BB59040005BE0FBFA
:10482000A3E0FAA3E02404F9E43AFA51000CFF51A2
:104830006B57516AC99040005EE0FBA3E0FAA3E029
:10484000F9516AC59040005EE0FBA3E0FAA3E024C2
:1048500001516AC19040005EE0FBA3E0FAA3E024AE
:1048600002516AC19040005EE0FBA3E0FAA3E0249D
:1048700003F9E43AFAEF51003EE49007F003F090B8
:1048800040005BE0FBA3E0FAA3E02401F9E43AFA7C
:1048900051000C547FFF9040005EE0FBA3E0FAA3C0
:1048A000E0F951000C6F60149040005BE0FBA3E066
:1048B000FAA3E0F951000C448051003E9040005BA7
:1048C000E0FBA3E0FAA3E02402F9E43AFA51000C79
:1048D000FF9040005EE0FBA3E0FAA3E02401F9E4CE
:1048E0003AFA51000C6F60149040005BE0FBA3E0CB
:1048F000FAA3E0F951000C448051003E7F0022E50C
:104900002B6401452A7073AB25AA26A92751000CF8
:10491000904003CCF0E0FF7B417A0379CF515ED722
:10492000BF0103414A50752800752903904003CC0C
:10493000E0AB21AA22A92351003E904003CFE0FE24
:10494000A3E0EEFFAB21AA22A923E92401F9E43A6E
:10495000FAEF51003E904003CFE0A3E0FFAB21AA65
:1049600022A923E92402F9E43AFAEF51003EE529AD
:1049700045286003414A58414A4CE52B6403452AC7
:104980006003414A50AB25AA26A92751000C90404C
:1049900003CCF0AB25AA26A927E92401F9E43AFAC9
:1049A00051000CFEAB25AA26A927E92402F9E43A16
:1049B000FA51000C7C002400FFEC3E904003CDF047
:1049C000A3EFF0752800752901904003CCE0AB21DE
:1049D000AA22A92351003E904003CD74FFF5F05167
:1049E000010845F06060904003CCE0FF7B417A0312
:1049F00079CF515ED7BF01028056904003CFE0FED1
:104A0000A3E0EEFFAB21AA22A923AC28AD29E92D12
:104A1000F9EA3CFAEF51003E904003CFE0A3E0FFFB
:104A2000AB21AA22A923E5292401FDE43528FCE9CC
:104A30002DF9EA3CFAEF51003E74022529F529E4EC
:104A40003528F5288091E5294528700C752C7022B1
:104A5000E4F528F529752C30229040006AEBF0A38C
:104A6000EAF0A3E9F0A3EDF0E075F002A4FF9040B6
:104A700003D9E0FCA3E02FFFE5F03CFED3EF944028
:104A8000EE941F4003414B99E4904003D5F09040D1
:104A9000006DE0FF904003D5E0C39F4003414B9978
:104AA0009040006AE0FBA3E0FAA3E0F9904003D550
:104AB000E0FF7E00E92FF9EE3AFAC003C002C00120
:104AC00078D67C037D41D001D002D0037F01510410
:104AD0001C904003D6E0C4540FA3F0904003D6E0EE
:104AE000540F904003D8F0904003D7E0C3940A508D
:104AF00006E02430F08008904003D7E02437F0909F
:104B00004003D8E0C3940A5006E02430F0800890B7
:104B10004003D8E02437F0904003D7E0FFC007906F
:104B20004003D9E0FEA3E0FFE42FFFEE3420FEE4D3
:104B300033FDE433FCE42FFFE43EFEED3401FDE4FD
:104B40003CA907AA06AB05D0E051003E904003D82F
:104B5000E0FFC007A3E0FEA3E0FFE42FFFEE342058
:104B6000FEE433FDE433FCEF2401FFE43EFEED34CC
:104B700001FDE43CA907AA06AB05D0E051003E9038
:104B80004003DAE02402F0904003D9E03400F090D2
:104B90004003D5E004F0414A8E22AE2AAF2B7C00C0
:104BA0007D05510064904003F9EFF0AE2AAF2B7CF5
:104BB000007D05510064ED4C700CE0C3940140068B
:104BC000E0D3940A4003414C6DE4F528F529AB2568
:104BD000AA26A92790400055EBF0A3EAF0A3E9F03C
:104BE000AB21AA22A923A3EBF0A3EAF0A3E9F0905A
:104BF0004003F9E075F005A4FFAEF090400058E0E6
:104C0000FBA3E0FAA3E0F8AC02AD0390400055E04E
:104C1000FBA3E0FAA3E0F951041C904003F9E0750E
:104C2000F005A4FF90400059E5F08FF05100F2E448
:104C3000904003F8F0904003F9E0FF904003F8E063
:104C4000C39F506390400058E0F9A3E0FAA3E090BE
:104C500040005EC9F0A3EAF0A3E9F090400055E0FF
:104C6000FBA3E0FAA3E0F9514799BF0109E4F52855
:104C7000F529752C302290400055E0FBA3E0FAA303
:104C8000E02405F9E43AFA90400055EBF0A3EAF08D
:104C9000A3E9F090400059E475F0045100F290400F
:104CA00003F8E004F0808EAB21AA22A923AE029083
:104CB000400058A3E0FAA3E0AC02C399F529EC9EAA
:104CC000F528E52945287003752C70229040008452
:104CD000EFF0FBE47F01FEFDFCC3EB9401F9F8511A
:104CE00002D8A804A905AA06AB07AF1BE4FCFDFE89
:104CF000EB5FFFEF7003414DDA51311990400084B2
:104D0000E0FF1D51312E9040008451311990400038
:104D100084E0C39401FF7401A807088002C333D85C
:104D2000FC904002A7F0E0F4A3F0C2AFE09007F0DF
:104D300010F0A37401F0E4904002A6F0000000001F
:104D40000000000000000000000000000000000063
:104D50000000000000000000000000000000000053
:104D60000000000000000000000000000000000043
:104D7000000000000000000000904002A6E004F0E7
:104D8000E0B403B89007F01074FFF0D2AF00000059
:104D90000000000000000000000000000000000013
:104DA0000000000000000000000000000000000003
:104DB00000000000000000000000000000000000F3
:104DC00000000000000000000000000000000000E3
:104DD0000000000000000000002290400084E0FF7E
:104DE0007D44516C1422E52B452A6009E4F528F531
:104DF00029752C3022904003FC7401F0904003FC94
:104E0000E0FF51549A904003FCE004F0E0D3940991
:104E100040EA752800752908AB21AA22A923E512CA
:104E200051003EAB21AA22A923E92401F9E43AFA70
:104E3000E51551003E904002E5E0C454F0FF90407B
:104E400002E4E0C4333354C04FFF904002E6E02553
:104E5000E025E04FFFA3E04FFFAB21AA22A923E901
:104E60002402F9E43AFAEF51003E904002E9E0C42E
:104E700054F0FF904002E8E0C4333354C04FFF9039
:104E80004002EAE025E025E04FFFA3E04FFFAB2121
:104E9000AA22A923E92403F9E43AFAEF51003E904B
:104EA0004002ECE0C4333354C0FFAB21AA22A92353
:104EB000E92404F9E43AFAEF51003EAB21AA22A911
:104EC00023E92405F9E43AFAE51651003EAB21AA9C
:104ED00022A923E92406F9E43AFAE51051003EAB91
:104EE00021AA22A923E92407F9E43AFAE51B510093
:104EF0003EE52945287003752C702290400083EF11
:104F0000F0541F5103A04F4F004F58014F61024F03
:104F10006A034F73044F7C054F85064F8E074F97EA
:104F20000E4FA00F4FA9104FB2114FBB124FC41319
:104F30004FCD144FD6154FDF164FE8174FF1184FCE
:104F4000FA1900004F46E4F528F529752C30229017
:104F5000400083E0FF41706D90400083E0FF4170AE
:104F60003B90400083E0FF41708C90400083E0FF65
:104F700041709790400083E0FF4170A29040008311
:104F8000E0FF416FCA90400083E0FF4170AD904068
:104F90000083E0FF41704C90400083E0FF416D676B
:104FA00090400083E0FF416D8790400083E0FF4127
:104FB0006DA790400083E0FF416EA690400083E023
:104FC000FF416DC790400083E0FF416DE7904000D6
:104FD00083E0FF416E0790400083E0FF416E279021
:104FE000400083E0FF416E4790400083E0FF416E48
:104FF0006790400083E0FF416EC590400083E0FF72
:10500000516EE422EF75F040A4FF904002AFE5F04E
:10501000F0A3EFF0E4904002B1F0E4FFFEFDFCC02D
:1050200005C006C007904002AFE0FEA3E0FF7D157B
:1050300051005274092FF974403EFA7B01D007D019
:1050400006D005510308904002AFE0FEA3E0FF7CCC
:10505000007D15510052740D2FF974403EFAE45151
:10506000003E904002AFE0FEA3E0FF510052740EFC
:105070002FF974403EFAE451003E904002AFE0FE4A
:10508000A3E0FF51005274102FF974403EFAE4512E
:10509000003E904002AFE0FEA3E0FF5100527411C9
:1050A0002FF974403EFAE451003E904002AFE0FE1A
:1050B000A3E0FF51005274122FF974403EFA74803D
:1050C00051003E904002AFE0FEA3E0FF5100527459
:1050D000132FF974403EFA748075F00051016E9000
:1050E0004002B0E004F07007904002AFE004F0909E
:1050F0004002B1E004F0E06440600341501A22E550
:105100002B6401452A60034151DFAB25AA26A9275C
:1051100051000C904003F6F0E0705CAB21AA22A98C
:105120002351003E904003EEE0FFAB21AA22A923C9
:10513000E92401F9E43AFAEF51003E904003EFE030
:10514000FFAB21AA22A923E92402F9E43AFAEF519C
:10515000003E904003F0E0FFAB21AA22A923E924FE
:1051600003F9E43AFAEF51003E752800752904E589
:1051700029452870728064904003F6E06401705FF6
:10518000AB21AA22A9230451003E904003F1E0FF85
:10519000AB21AA22A923E92401F9E43AFAEF51004C
:1051A0003E904003F2E0FFAB21AA22A923E92402AA
:1051B000F9E43AFAEF51003E904003F3E0FFAB21EF
:1051C000AA22A923E92403F9E43AFAEF51003E7533
:1051D0002800752904E5294528700C752C7022E4F7
:1051E000F528F529752C3022EF7073ED14B40F00FB
:1051F00040034152CF9002520475F003A4C58325A9
:10520000F0C5837341523141523441523741523AD1
:1052100041523D415240415243415246415249411F
:10522000524C41524F4152524152554152584152B3
:105230005B8BAB228BAC228BAD228BAE228BAF2251
:105240008BB3228BB4228BB5228BB6228BB7228BE9
:10525000BB228BBC228BBD228BBE228BBF22ED14C6
:10526000B40F00506A9002527475F003A4C58325F0
:10527000F0C583734152A14152A44152A74152AAA1
:105280004152AD4152B04152B34152B64152B9417F
:1052900052BC4152BF4152C24152C54152C8415213
:1052A000CB8BEB228BEC228BED228BEE228BEF2231
:1052B0008BF3228BF4228BF5228BF6228BF7228B39
:1052C000FB228BFC228BFD228BFE22AF038FFF2261
:1052D000E52B6401452A6002801AAB25AA26A9277E
:1052E00051000C904003B3F0E0C394014006E0D3BA
:1052F00094094009E4F528F529752C3022904003E3
:10530000B3E0AB21AA22A92351003E7528007529DC
:1053100001904003B3E075F040A4FFA3E5F0F0A3D3
:10532000EFF0E4904003B2F0904003B3E07E00243D
:10533000EDF9EE3402FA7B4151000CFF904003B2CC
:10534000E0C39F5066904003B4E0FEA3E0FF7C0002
:105350007D1551005274002FF974403EFA7B01C054
:1053600003C002C001AB21AA22A923AE28AF29E9BC
:105370002FF9EA3EA801FCAD03D001D002D0037E94
:10538000007F0951041C74092529F529E43528F505
:1053900028904003B5E004F07007904003B4E004A7
:1053A000F0904003B2E004F0415328E5294528700D
:1053B00003752C7022E52B6401452A6002801AAB2C
:1053C00025AA26A92751000C904003EBF0E0C394D6
:1053D000014006E0D394094009E4F528F529752C2D
:1053E0003022AB25AA26A92751000CAB21AA22A95D
:1053F0002351003E752800752901904003EBE075AC
:10540000F040A4FFA3E5F0F0A3EFF0E4904003EA3E
:10541000F0904003EBE07E0024EDF9EE3402FA7BDD
:105420004151000CFF904003EAE0C39F506290405E
:1054300003ECE0FEA3E0FF7C007D155100527412E6
:105440002FF974403EFA7B01C003C002C001AB21BA
:10545000AA22A923AE28AF29E92FF9EA3EA801FC28
:10546000AD03D001D002D0037E007F0151041C05A2
:1054700029E52970020528904003EDE004F070074B
:10548000904003ECE004F0904003EAE004F08081F7
:10549000E52945287003752C702290400085EFF0B7
:1054A000E0FF7C0024E3F9EC3402FA7B41E4510094
:1054B0003EEF6409700341557DE5186003751A01DC
:1054C00090400085E0FFC39401FE7401A8060880A7
:1054D00002C333D8FC904002A9F07B417A0279AA3A
:1054E000C003C002C00109904000527441F0A3748F
:1054F00002F0A3E9F0D001D002D0035133BF9040B5
:1055000002A9E0FFA3E05FFF904002A9E0B5071405
:1055100090400085E07E0024E3F9EE3402FA7B41FE
:1055200074028056904002A9E0FF904002ABE05F19
:10553000701490400085E07E0024E3F9EE3402FA16
:105540007B417401803490400085E0FF7DCC516C3C
:105550001490400085E0FF7DB4516C1490400085AC
:10556000E0FF51415CEF701590400085E07E002423
:10557000E3F9EE3402FA7B41740351003E22F583D5
:10558000759340E0FBA3E0FAA3E0F990400072EBD2
:10559000F0A3EAF0A3E9F0E4904003D4F0904000D7
:1055A00072E0FBA3E0FAA3E0F9904003D4E0FFE946
:1055B0002FF9E43AFA51000C6016904003D4E0D37E
:1055C0009464400341564E904003D4E004F080CDF3
:1055D000904003D4E0FF904003D9E0FCA3E0FDEF4E
:1055E0002DFFE43CFED3EF9440EE941F50609040BA
:1055F00003D4E0FF7E00C006C007904003D9E0FE60
:10560000A3E0FFE42FFFEE3420FEE433FDE433FC9F
:10561000E42FFFE43EFEED3401FDE43CA907AA06B9
:10562000AB05A807AC0690400072E0FBA3E0FAA32C
:10563000E0F9D007D00651041C904003D4E0FF905D
:105640004003DAE02FF0904003D9E03400F02290DC
:1056500040003FEBF0A3EAF0A3E9F0E55BB40103FF
:105660007F0122D2B390400045E07002A3E0700CAD
:10567000C2B39002088874F0F07F0022C2AF90029B
:10568000055574AAF0900202AA7455F090020555CF
:1056900074A0F090400042E0FBA3E0FAA3E0F951CF
:1056A000000CFF9040003FE0FBA3E0FAA3E0F9EF1D
:1056B00051003ED2AFE4F55CE55CC394C8504F9016
:1056C000400042E0FBA3E0FAA3E0F951000CFF9098
:1056D00040003FE0FBA3E0FAA3E0F951000CB5075E
:1056E0002990400046E024FFF090400045E034FF60
:1056F000F090400040E475F0015100F2904000430A
:10570000E475F0015100F2415665055C80AAC2B310
:105710009002088874F0F07F0122E52B6404452A8A
:1057200060034157CEAB25AA26A92751000C904013
:1057300003F7F0E07044AB25AA26A927E92401F974
:10574000E43AFA51000C904003EEF0AB25AA26A9EA
:1057500027E92402F9E43AFA51000C904003EFF0F3
:10576000AB25AA26A927E92403F9E43AFA51000C4B
:10577000904003F0F05165DC804B904003F7E0640B
:1057800001704BAB25AA26A927E92401F9E43AFACE
:1057900051000C904003F1F0AB25AA26A927E9247B
:1057A00002F9E43AFA51000C904003F2F0AB25AA5A
:1057B00026A927E92403F9E43AFA51000C904003A2
:1057C000F3F0516627E4F528F529752C7022E4F5ED
:1057D00028F529752C3022E4904003D9F0A3F07B02
:1057E000837A0579C351558B7B837A0579FE5155B0
:1057F0008B9040038FE075F00E84E5F075F003A404
:105800002415F582E4340051557E7B837A06790EA7
:1058100051558B90400390E0540775F003A4240089
:10582000F582E4340051557E7B837A06791E51550A
:105830008B7B417A0379917D01514A597B837A06AA
:10584000792E51558B7B417A0379927D01514A59CA
:105850007B837A06793E51558B7B417A0379947D1F
:1058600004514A597B837A06794E51558B7B837A52
:1058700006795E51558B7B837A06796751558B7B10
:10588000837A06796A51558B7B837A0579C34155B2
:105890008BD310AF01C3C0D090400076ECF0A3EDE5
:1058A000F090400075EFF0C39410400341594290CE
:1058B000400076E0FEA3E0FFEE30E703415942EE00
:1058C000540F90400076F0A3EFF090400076E0FA9D
:1058D000A3E0FD90400075E075F002A42447F97440
:1058E0000335F07B41CA8DF051016E90400076E0A7
:1058F000FCA3E0FDEC540FFF90400075E05403FE64
:10590000C4333354C044304F90400344F0EDA3F00F
:1059100090400075E01313543FFF7401A8070880FE
:1059200002C333D8FC9007F008F090400344E0FF36
:10593000516A2890400345E0FF516A28E49007F03F
:1059400008F0D0D092AF22D310AF01C3C0D09040A6
:10595000006E5103239040006EE0FCA3E0FDA3E045
:10596000FEA3E0FFAB54AA53A952A851C35102B4FD
:10597000504EE5542401FFE43553FEE43552FDE476
:105980003551FCC004C005C006C0079040006EE061
:10599000F8A3E0F9A3E0FAA3E0FBC374FF9BFF7454
:1059A000FF9AFE74FF99FD74FF98FCD003D002D0DB
:1059B00001D000EF2BFFEE3AFEED39FDEC38801FF1
:1059C0009040006EE0F8A3E0F9A3E0FAA3E0FBC387
:1059D000E5549BFFE5539AFEE55299FDE55198FC8D
:1059E000904003C8510323904003C8E0FCA3E0FDAE
:1059F000A3E0FEA3E0FFD0D092AF22E55B700B9056
:105A0000400390E020E303415AAB904002F6E0707F
:105A1000077D017F095135FBE51D6003E4F514E5C1
:105A20001414604014605A24026003415AABE4F538
:105A30001D904002E204F0E47F01FEFDFC90400274
:105A4000E2E0C39401F9F85102D8AB07AF1EEB5F57
:105A5000FFEF600475140122904002E2E004F0E0E0
:105A6000B409D422904002E2E0FF513A2190400272
:105A7000E2E0FF7D015135FBBF0102801275140287
:105A800022904002E2E0FFE4FD5135FBBF011CE43F
:105A90007F01FEFDFC904002E2E0C39401F9F85161
:105AA00002D85102A7EF521EE4F514229040007D67
:105AB000EEF0A3EFF09040007DE0FEA3E07806CE8C
:105AC000C313CE13D8F9904002CA5133AF904002AD
:105AD000CAE0FF7D55516C14E4904002CBF0904039
