:020000040002F8
:10000000020207AE0002000000037FF0EB7002E77F
:100010002289828A831410E704F593E022F593E4A1
:100020009322BB000327F722F8EB89828A831410FE
:10003000E706F593E028F022F593E4932822BB002D
:1000400002F722BB8000500989828A838B93159323
:10005000F022EF8DF0A4A8F0CF8CF0A428CE8DF084
:10006000A42EFE22BC000BBE0029EF8DF084FFAD54
:10007000F022E4CCF875F008EF2FFFEE33FEEC33FE
:10008000FCEE9DEC984005FCEE9DFE0FD5F0E9E4FA
:10009000CEFD22EDF8F5F0EE008420D21CFEADF08E
:1000A00075F008EF2FFFED33FD4007985006D5F0AF
:1000B000F222C398FD0FD5F0EA22C2D5EC30E70951
:1000C000B2D5E4C39DFDE49CFCEE30E716B2D5E466
:1000D000C39FFFE49EFE12020064C3E49DFDE49C06
:1000E000FC80041202006430D507C3E49FFFE49E45
:1000F000FE22C5F0F8A3E028F0C5F0F8E5821582ED
:1001000070021583E038F022A3F8E0C5F025F0F086
:10011000E582158270021583E0C838F0E822EB70A2
:1001200007E7F5F009E7192289828A831410E708A6
:10013000F593E0F5F0A3E022F593E493F5F0740174
:100140009322BB000B09C5F027F7C5F01937F7223A
:10015000F8EB89828A831410E707F593E80202001E
:10016000F2F59374019325F0F5F0E4933822BB0087
:1001700006F709A7F01922BB8000500D89828A83F7
:100180008B931593F0E5F0A3F022E88FF0A4CC8BCD
:10019000F0A42CFCE98EF0A42CFC8AF0EDA42CFC3D
:1001A000EA8EF0A4CDA8F08BF0A42DCC3825F0FD7C
:1001B000E98FF0A42CCD35F0FCEB8EF0A4FEA9F075
:1001C000EB8FF0A4CFC5F02ECD39FEE43CFCEAA4C1
:1001D0002DCE35F0FDE43CFC2275F008758200EF71
:1001E0002FFFEE33FECD33CDCC33CCC58233C58269
:1001F0009BED9AEC99E58298400CF582EE9BFEED22
:100200009AFDEC99FC0FD5F0D6E4CEFBE4CDFAE4F0
:10021000CCF9A88222B800C1B90059BA002DEC8BE4
:10022000F084CFCECDFCE5F0CBF97818EF2FFFEEC0
:1002300033FEED33FDEC33FCEB33FB10D703994079
:1002400004EB99FB0FD8E5E4F9FA227818EF2FFFB9
:10025000EE33FEED33FDEC33FCC933C910D7059BFB
:10026000E99A4007EC9BFCE99AF90FD8E0E4C9FA57
:10027000E4CCFB2275F010EF2FFFEE33FEED33FDE3
:10028000CC33CCC833C810D7079BEC9AE899400A06
:10029000ED9BFDEC9AFCE899F80FD5F0DAE4CDFB84
:1002A000E4CCFAE4C8F922CFF4CFCEF4CECDF4CD2D
:1002B000CCF4CC22EB9FF5F0EA9E42F0E99D42F0AF
:1002C000E89C45F022E8600FECC313FCED13FDEE53
:1002D00013FEEF13FFD8F122E8600FEFC333FFEEF8
:1002E00033FEED33FDEC33FCD8F122EB7006E9F878
:1002F0000202047C89828A831410E706F5930202C5
:100300000488F59302020494BB0006E9F802020493
:10031000A4BB8000500C89828A838B9315930202C0
:10032000032322ECF0A3EDF0A3EEF0A3EFF022EB19
:100330007006E9F8020204B089828A831410E70685
:10034000F593020204C2F593020204D4BB001CD050
:1003500093D0F0D0E0F8D0E0C9FBD0E0FAD0E0CB09
:10036000C8C0E0C0F0C093020204B9BB80005022B4
:10037000D093D0F0D0E0F8D0E0C9F582D0E0CAF553
:1003800083D0E0CB14C8C0E0C0F0C09388930202D1
:1003900004CBD093D083D082D0E0D0E0D0E0E4731F
:1003A000D093D083D082F8E4937012740193700DCF
:1003B000A3A393F8740193F5828883E47374029382
:1003C0006860EFA3A3A380DFEF4E6022EF60010E11
:1003D000EDBB0007F709DFFCA9F022BB8000500E3F
:1003E00089828A838B931593F0A3DFFCDEFA22EBDC
:1003F0007008E709F608DFFA801B89828A831410E7
:10040000E70AF593E0A3F608DFFA8009F593E49391
:10041000A3F608DFF9ECFAA9F0EDFB2288F0EF6013
:10042000010E4E60F088F0ED60C51410E7E7CB7068
:100430000E88828C838B93E709F0A3DFFA80D614B1
:1004400010E71C88848C858B9589828A83F5937547
:100450008620E0F0A3A3DFFADEF875860080B68878
:10046000848C858B9589828A83F593758620E493A5
:10047000F0A3A3DFF9DEF77586008099E6FC08E6B5
:10048000FD08E6FE08E6FF22E0FCA3E0FDA3E0FE97
:10049000A3E0FF22E493FC740193FD740293FE74C5
:1004A0000393FF22ECF608EDF608EEF608EFF622CD
:1004B000E6FB08E6FA08E6F922EBF608EAF608E9B0
:1004C000F622E0FBA3E0FAA3E0F922EBF0A3EAF0C6
:1004D000A3E9F022E493FB740193FA740293F922E6
:1004E0004842425F5353544154004842425F4C5388
:1004F00054415400554E495F50524F4D00554E499E
:100500005F464C415348004A50445F50524F4D00A3
:100510004A50445F464C415348005044535F505248
:100520004F4D005044535F464C4153480043435F96
:1005300050524F4D0043435F464C4153480055478E
:100540005F50524F4D0055475F464C415348004D58
:100550005F50524F4D004D5F464C41534800504F45
:100560005745525F4F4E0052455345545F434D44EB
:100570000052455345545F50474D00434D444A5542
:100580004D505F46524F4D5F454C53450050474DCF
:100590004A554D505F46524F4D5F454C53450043C1
:1005A0004D444A554D505F46524F4D5F53454C4662
:1005B0000050474D4A554D505F46524F4D5F534591
:1005C0004C46000A3D3D3D3D3D3D3D3D3D3D3D3DB3
:1005D0003D3D3D3D3D3D3D3D3D3D3D3D3D3D3D3D4B
:1005E0003D3D3D3D3D3D3D3D3D3D3D3D3D3D3D3D3B
:1005F0003D3D3D3D3D3D3D3D3D3D3D3D3D000A20B8
:1006000052756E6E696E674D6F64653A20000A2000
:100610005265736574526561736F6E3A20000A20EB
:100620004E6577626F726E416464723A20000A20F0
:100630004C6F676963616C416464723A20000A2000
:1006400056657273696F6E4E756D623A20000A20AE
:10065000436F6D70696C65446174653A2000303396
:100660002F30312F3038002C200030383A32343AD5
:100670003033000A5B436F6E666967457865635D7A
:100680003A200046696C6553746172744164647207
:100690003D002C2046696C65456E64416464723D82
:1006A000000A5B436F6E666967457865635D3A2053
:1006B000496E76616C69642066696C65207374614B
:1006C000727420616464726573732E000A5B436FF9
:1006D0006E666967457865635D3A20496E76616C40
:1006E00069642066696C6520656E6420616464726B
:1006F0006573732E000A5B436F6E666967457865A4
:10070000635D3A20496E76616C696420636F6D6D3C
:10071000616E64206C656E6774682E09000A5B4325
:100720006F6E666967457865635D3A20436F6E66F4
:100730006967206C6F67207370616365206973203F
:1007400066756C6C2E000A2D2D2D2D2D2D2D2D2036
:10075000000A436D646C656E203A20000A436D64A4
:10076000547970653A20000A436D64446174613ABB
:1007700020000A5265734C656E203A20000A5265CB
:1007800073466C61673A20004B4F004F4B000A5292
:100790006573446174613A20004E455854004552D7
:1007A000524F520041424F525400454E440075C7CB
:1007B000AA75C75575923F75C7AA75C75575A21812
:1007C00075C7AA75C755759D0275C7AA75C75575B2
:1007D000C6A0787FE4F6D8FD75815E0202080902A2
:1007E000026737E493A3F85407240CC8C333C454F6
:1007F0000F4420C8834004F456800146F6DFE480AD
:100800000C010204081020408090020894E47E014C
:100810009360CCA3FF543F30E509541FFEE493A33B
:1008200060010ECF54E0B4E026E493FBA3E493FA16
:10083000A3E493F9A3E493C083C0821202003ED0E4
:1008400082D083A309E970010ADFEADEE880BE54A2
:10085000C025E0602B408CE493A3FAE493A3F8E472
:1008600093A3C8C582C8CAC583CA759340F075935F
:1008700002A3C8C582C8CAC583CADFE3DEE1808D92
:10088000E493A3F8E493A34003F68001F208DFF4B5
:100890000202080D602A00158304E08304EA830441
:1008A000F48304FD83050783051083051A8305235C
:1008B00083052D83053583053E83054683054F83D8
:1008C000055655000083055E830567830571830522
:1008D0007B83058D83059F8305B10030332F303135
:1008E0002F30380030383A32343A303300AF1FEF0F
:1008F00075F01CA424A9F9740035F0FA7B4151036A
:100900002F90400092EBF0A3EAF0A3E9F0904000B2
:1009100092E0FBA3E0FAA3E02406F9E43AFA5100DE
:100920000C54F0FFBFF03DAF1FEF75F01CA424ACDA
:10093000F9740035F0FA7B4151032F90400092EB9F
:10094000F0A3EAF0A3E9F090400092E0FBA3E0FA04
:10095000A3E02406F9E43AFA51000C54F064F07074
:100960000341111B90400092E0FBA3E0FAA3E024B6
:1009700002F9E43AFA51000C90400095F0904000E2
:1009800092E0FBA3E0FAA3E02406F9E43AFA51006E
:100990000CC4540F90400096F090400095E0540F26
:1009A00090400097F090400096E07003410FED906A
:1009B000400095E0546024E07003410AFF24E07099
:1009C00003410CC224E07003410E0A24606003411D
:1009D000111BAF1F7E0074992FF9EE3400FA7B4192
:1009E00051000C64C06014AF1F74992FF9EE3400ED
:1009F000FA51000C64806003410BFDAF1F7E007450
:100A0000992FF9EE3400FA7B41748051003EAF1FFC
:100A100074892FF9EE3401FA7B4151000CFF9040AC
:100A20000097E06F600341107CAF1FEF75F01CA4CE
:100A300024B5F9740035F0FA7B4151011EFF904056
:100A40000096E02FFFE435F0FED3EF9400EE942003
:100A50004003410B7FAF1FEF75F01CA424B2F97463
:100A60000035F0FA7B4151032FC003C002C0019052
:100A7000400092E0FBA3E0FAA3E02407F9E43AFA8D
:100A80009040004AEBF0A3EAF0A3E9F09040009612
:100A9000E09040004DF0D001D002D003516650905C
:100AA000400096E0FDAF1FEF75F01CA424B5F9746B
:100AB0000035F0FA7B41E48DF05101429040009600
:100AC000E0FDAF1FEF75F01CA424B2F9740035F0FF
:100AD000FA09E970010AE48DF05101429040009555
:100AE000E05404FFE51F04FD513E26EF90400097BF
:100AF00030E106E04430410FE7E04410410FE7AF3A
:100B00001F7E0074992FF9EE3400FA7B4151000CDE
:100B100064C06014AF1F74992FF9EE3400FA5100CD
:100B20000C64806003410BFDAF1F7E0074992FF9A8
:100B3000EE3400FA7B4174A051003EAF1F74892F40
:100B4000F9EE3401FA7B4151000CFF90400097E030
:100B50006F600341107CAF1FEF75F01CA424B5F942
:100B6000740035F0FA7B4151011EFF90400096E081
:100B70002FFFE435F0FED3EF9400EE94204004A361
:100B800041107CAF1FEF75F01CA424B2F97400353E
:100B9000F0FA7B4151032FC003C002C00190400016
:100BA00092E0FBA3E0FAA3E02407F9E43AFA9040CC
:100BB000004AEBF0A3EAF0A3E9F090400096E09041
:100BC00040004DF0D001D002D0035166509040005B
:100BD00096E0FDAF1FEF75F01CA424B5F974003545
:100BE000F0FA7B41E48DF051014290400095E054D1
:100BF00004FFE51F04FD513E26EF30E10790400061
:100C00009741107C9040034CE004F0AF1FEF75F06B
:100C10001CA424B5F9740035F0FA7B4151011EF58E
:100C20002B85F02AAF1FEF75F01CA424AFF97400D8
:100C300035F0FA51032F8B258A268927AF1FEF75D0
:100C4000F01CA424BDF9740035F0FA7B4151032F48
:100C50008B218A228923AF1F7E0074A12FF9EE34E5
:100C600000FA7B4151000CFF514F48AF1FEF75F068
:100C70001CA424C3F9740035F0FA7B41E5288529CA
:100C8000F051016EAB21AA22A923C003C002C0010A
:100C9000AF1FEF75F01CA424C0F9740035F0FA7B87
:100CA0004151034CD3E5299408E5289400400341C1
:100CB0000FC7E5294528904000977003410FE44194
:100CC0000FDBAF1F7E0074992FF9EE3400FA7B41E1
:100CD00074C051003E90400097E0FFAE1FEE7C00D4
:100CE0002489F9EC3401FA7B41EF51003E90400039
:100CF00092E0FBA3E0FAA3E02407F9E43AFA5100FA
:100D00000CFFAE1FEE24A1F9EC3400FA7B41EF5149
:100D1000003EAF1F7E0074A12FF9EE3400FA51009F
:100D20000CC413135403FFAE1FEE2489F9EC3401F5
:100D3000FA7B4151000CFE13131354036F600341FF
:100D40000E8790400096E014F0AF1FEF75F01CA4E2
:100D500024AFF9740035F0FA7B4151032FC003C072
:100D600002C00190400092E0FBA3E0FAA3E0240857
:100D7000F9E43AFA9040004AEBF0A3EAF0A3E9F074
:100D800090400096E09040004DF0D001D002D0039A
:100D900051665090400096E0FDAF1FEF75F01CA427
:100DA00024B5F9740035F0FA7B41E48DF051016E01
:100DB000AF1FEF75F01CA424AFF9740035F0FA51A1
:100DC000032F90400096E07E0029F9EE3AFAC00326
:100DD000C002C001AF1FEF75F01CA424B2F974006B
:100DE00035F0FA7B4151034C90400095E05404FFEC
:100DF000E51F04FD513E26EF9040009730E105E0ED
:100E000044308003E04410410FE7AF1F7E00749927
:100E10002FF9EE3400FA7B4174E051003E9040001F
:100E200097E0FFAE1FEE7C002489F9EC3401FA7BD9
:100E300041EF51003E90400092E0FBA3E0FAA3E0B6
:100E40002407F9E43AFA51000CFFAE1FEE24A1F991
:100E5000EC3400FA7B41EF51003EAF1F7E0074A1DD
:100E60002FF9EE3400FA51000CC413135403FFAEF3
:100E70001FEE2489F9EC3401FA7B4151000CFE137A
:100E8000131354036F600A90400097E04430410F01
:100E9000E790400096E014F0AF1FEF75F01CA4241B
:100EA000AFF9740035F0FA7B4151032FC003C00243
:100EB000C00190400092E0FBA3E0FAA3E02408F90F
:100EC000E43AFA9040004AEBF0A3EAF0A3E9F0908C
:100ED000400096E09040004DF0D001D002D0035188
:100EE000665090400096E0FDAF1FEF75F01CA42403
:100EF000B5F9740035F0FA7B41E48DF051016E9044
:100F0000400095E05404FFE51F04FD513E26EF30FC
:100F1000E10A90400097E04430410FE79040034CD5
:100F2000E004F0AF1FEF75F01CA424B5F974003590
:100F3000F0FA7B4151011EF52B85F02AAF1FEF75AA
:100F4000F01CA424AFF9740035F0FA51032F8B255F
:100F50008A268927AF1FEF75F01CA424BDF9740001
:100F600035F0FA7B4151032F8B218A228923AF1F51
:100F70007E0074A12FF9EE3400FA7B4151000CFF82
:100F8000514F48AF1FEF75F01CA424C3F97400350E
:100F9000F0FA7B41E5288529F051016EAB21AA22A8
:100FA000A923C003C002C001AF1FEF75F01CA42429
:100FB000C0F9740035F0FA7B4151034CD3E5299414
:100FC00008E5289400400A90400097E04450411002
:100FD000C8E5294528904000976009E04470FFADBE
:100FE00029411118E0452CFFE4FD41111890400003
:100FF00095E0546024E0700341110E24E070034139
:10100000110E24E0700341110E2460600341111B96
:10101000AF1F7E0074992FF9EE3400FA7B41510026
:101020000C64E0602DAF1F74992FF9EE3400FA5173
:10103000000C64A0601CAF1F74992FF9EE3400FA05
:1010400051000C600D90400097E04430FFE4FD41FA
:101050001118AF1F7E0074992FF9EE3400FA7B410E
:10106000E451003EAF1F74892FF9EE3401FA7B4141
:1010700051000CFF90400097E06F6009E04430FFA2
:10108000E4FD41111890400095E05404FFE51F0471
:10109000FD513E26EF30E10C90400097E04430FFD8
:1010A000E4FD8074AF1FEF75F01CA424C3F9740035
:1010B00035F0FA7B4151011ED39408E5F0940040CD
:1010C0000C90400097E04410FF7D08804BAF1FEF6D
:1010D00075F01CA424C3F9740035F0FA7B4151016A
:1010E0001E45F0601DAF1FEF75F01CA424C3F974FA
:1010F0000035F0FA51011EFD90400097E04430FFAA
:10110000801690400097E04430FFE4FD800A904054
:101110000097E04430FFE4FD513855227B827AFF8E
:10112000790051000CF5247B0479FF51000CF4FF89
:101130001951000CB5070751000CF52080037520EC
:10114000FF9040034AE524F0A3E520F0E49040003E
:101150008AF09040008AE07E002499F9EE3400FA8B
:101160007B41746051003E9040008AE02489F9EE92
:101170003401FA7B4174FF51003E9040008AE02424
:10118000A1F9EE3400FA7B4174FF51003E9040001B
:101190008AE075F010A42410F9741035F0FA7B4140
:1011A000C003C002C001E075F01CA424A9F97400BA
:1011B00035F0FA7B4151034C9040008AE075F01005
:1011C000A42410F9741135F0FA7B41C003C002C0A9
:1011D00001E075F01CA424ACF9740035F0FA7B41F1
:1011E00051034C9040008AE0C43354E0FEE42400F4
:1011F000FFE43EFEE43404FDE433FCE42FFFE43E70
:10120000FEED3401FDE43CA907AA06AB05C003C00E
:1012100002C001E075F01CA424AFF9740035F0FAA7
:101220007B4151034C9040008AE0540375F010A4B8
:1012300024A0F9741035F0FA7B41C003C002C0014C
:10124000E075F01CA424B7F9740035F0FA7B415125
:10125000034C9040008AE0540375F010A424A0F9D8
:10126000741135F0FA7B41C003C002C001E075F093
:101270001CA424BAF9740035F0FA7B4151034C9058
:1012800040008AE0C43354E0FEE42400FFE43EFE64
:10129000E43404FDE433FCE42FFFE43EFEED3401CE
:1012A000FDE43CFCE42FFFE43EFEED3401FDE43CB4
:1012B000A907AA06AB05C003C002C001E075F01C77
:1012C000A424BDF9740035F0FA7B4151034C9040E1
:1012D000008AE004F0E06408600341115275C7AA77
:1012E00075C75575A309516D3C75C7AA75C7557566
:1012F000E309516D3C75C7AA75C75575A301516DBA
:101300003C75C7AA75C75575E301516D3CE4904023
:101310001000F090401100F090401001F09040114A
:1013200001F090401002F090401102F09040100344
:10133000F090401103F090401004F090401104F040
:10134000904010057414F090401105F09040100684
:1013500074FFF090401106F090401007F09040119B
:1013600007F0904010087415F090401108F090407C
:10137000100974FFF090401109F09040100AF090AD
:1013800040110AF0E49040100BF09040110BF090E7
:1013900040100C74FFF09040110CF09040100DF0D4
:1013A0009040110DF09040100EF09040110EF09012
:1013B00040100FF09040110FF0E4F5ABF5EBF5ACF9
:1013C000F5ECF5ADF5EDF5AEF5EEF5AFF5EFF5B302
:1013D000F5F3F5B4F5F4F5B5F5F5F5B6F5F6F5B7BD
:1013E000F5F7F5BBF5FBF5BCF5FCF5BDF5FDF5BE78
:1013F000F5FEF5BFF5FF9040008A04F09040008AAA
:10140000E075F010A42402F9741035F0FA7B41E481
:1014100051003E9040008AE075F010A42402F97457
:101420001135F0FA7B41E451003E9040008AE075AE
:10143000F010A42403F9741035F0FA7B41E4510054
:101440003E9040008AE075F010A42403F974113531
:10145000F0FA7B41E451003E9040008AE075F010C4
:10146000A42404F9741035F0FA7B41E451003E9055
:1014700040008AE075F010A42404F9741135F0FAE4
:101480007B41E451003E9040008AE075F010A424B6
:1014900005F9741035F0FA7B41E451003E904000AC
:1014A0008AE075F010A42405F9741135F0FA7B4137
:1014B000E451003E9040008AE075F010A42406F943
:1014C000741035F0FA7B41E451003E9040008AE010
:1014D00075F010A42406F9741135F0FA7B41E4513B
:1014E000003E9040008AE075F010A42407F97410C3
:1014F00035F0FA7B41E451003E9040008AE075F0FF
:1015000010A42407F9741135F0FA7B41E451003E30
:101510009040008AE075F010A42408F9741035F0AA
:10152000FA7B41E451003E9040008AE075F010A43F
:101530002408F9741135F0FA7B41E451003E9040E3
:10154000008AE075F010A42409F9741035F0FA7BD4
:1015500041E451003E9040008AE075F010A4240957
:10156000F9741135F0FA7B41E451003E9040008A55
:10157000E075F010A4240AF9741035F0FA7B41E408
:1015800051003E9040008AE075F010A4240AF974DE
:101590001135F0FA7B41E451003E9040008AE0753D
:1015A000F010A4240BF9741035F0FA7B41E45100DB
:1015B0003E9040008AE075F010A4240BF9741135B8
:1015C000F0FA7B41E451003E9040008AE075F01053
:1015D000A4240CF9741035F0FA7B41E451003E90DC
:1015E00040008AE075F010A4240CF9741135F0FA6B
:1015F0007B41E451003E9040008AE075F010A42445
:101600000DF9741035F0FA7B41E451003E90400032
:101610008AE075F010A4240DF9741135F0FA7B41BD
:10162000E451003E9040008AE075F010A4240EF9C9
:10163000741035F0FA7B41E451003E9040008AE09E
:1016400075F010A4240EF9741135F0FA7B41E451C1
:10165000003E9040008AE004F0E064106003411313
:10166000FCE49040008AF09040008AE0C39404506B
:10167000067F017D0180047F007D009040008AE0AC
:1016800075F01CA424A9F9740035F0FA7B415103CC
:101690002FE92402F9E43AFAED51003E9040008A25
:1016A000E05403FDE075F01CA424A9F9740035F0A2
:1016B000FA7B4151032FE92403F9E43AFAED510092
:1016C0003E9040008AE0C394045006AF24AD0780EA
:1016D00004AF20AD079040008AE075F01CA424A957
:1016E000F9740035F0FA7B4151032FE92404F9E441
:1016F0003AFAED51003E9040008AE075F01CA424B7
:10170000A9F9740035F0FA7B4151032FE92405F95A
:10171000E43AFA740151003E9040008AE075F01CF2
:10172000A424A9F9740035F0FA7B4151032FE92470
:1017300006F9E43AFA74F651003E9040008AE0C39C
:10174000940450067F057D0580047F047D0490404D
:10175000008AE075F01CA424ACF9740035F0FA7B23
:101760004151032FE92402F9E43AFAED51003E9089
:1017700040008AE05403FDE075F01CA424ACF97429
:101780000035F0FA7B4151032FE92403F9E43AFADA
:10179000ED51003E9040008AE0C394045006AF240F
:1017A000AD078004AF20AD079040008AE075F01CC3
:1017B000A424ACF9740035F0FA7B4151032FE924DD
:1017C00004F9E43AFAED51003E9040008AE075F0E9
:1017D0001CA424ACF9740035F0FA7B4151032FE9C5
:1017E0002405F9E43AFA740151003E9040008AE081
:1017F00075F01CA424ACF9740035F0FA7B41510358
:101800002FE92406F9E43AFA74F651003E904000BC
:101810008AE004F0E064086003411667E524D3948D
:1018200003401875AB8075EB8075AC8075EC8075E6
:10183000AD8075ED8075AE8075EE80E520D39403A4
:10184000401DE520F4601875AF8075EF8075B3809A
:1018500075F38075B48075F48075B58075F5807505
:10186000C7AA75C755E4F5A3516D3C75C7AA75C7DE
:1018700055E4F5E3416D3C90400081EEF0A3EFF0BC
:1018800090400081E0FEA3E07806CEC313CE13D8CB
:10189000F9904002D25133DF7D55516C6FE4904096
:1018A00002D1F090400081E0FEA3E0FF7C007D15B6
:1018B00051005274002FF974403EFA7B01904002AF
:1018C000D1E07E0029F9EE3AFA51000CFD516C6F1F
:1018D000904002D1E004F0E0C3940840C67DBE51C0
:1018E0006C6FE4F55C904002D1F0904002D2E0FFD2
:1018F000516973904002D1E07C0024D3F9EC3402AA
:10190000FA7B41EF51003E904002D1E07E0024D3AB
:10191000F9EE3402FA51000C655C2496F9EE3401BC
:10192000FA7B4151000CF55C904002D1E004F0E0FC
:10193000C3940940B5904002D3E0904002DEF0909D
:101940004002D4E0904002DDF0904002D7E09040A9
:1019500002E1F0904002D9E0904002DFF0904002B6
:10196000DAE0904002E0F0904002DEE0FFC0079035
:10197000400081E0FEA3E0FF7C007D15510052ACE9
:1019800006AD07740D2DF974403CFA7B01D0E0518F
:10199000003E904002DDE0FFC007740E2DF9744058
:1019A0003CFAD0E051003E904002E1E0FFC00790D9
:1019B000400081E0FEA3E0FF7C007D15510052ACA9
:1019C00006AD07740F2DF974403CFAD0E051003E8B
:1019D000904002DFE0FFC00774102DF974403CFA1C
:1019E000D0E051003E904002E0E0FFC00790400090
:1019F00081E0FEA3E0FF7C007D15510052AC06ADF6
:101A00000774112DF974403CFAD0E051003E741275
:101A10002DF974403CFA748051003E90400081E002
:101A2000FEA3E0FF7C007D1551005274132FF97462
:101A3000403EFA748075F00051016EE55C60034130
:101A40001D6474002FF974403EFA7B0151000C6450
:101A5000106003411B2B904002DDE07009A3E0649D
:101A6000AA7003411D64904002DDE06007A3E0D34B
:101A70009480500E904002DDE0702EA3E0D3947F5E
:101A80005027904002DEE0FFC00790400081E0FE5A
:101A9000A3E0FF7C007D1551005274122FF97440B1
:101AA0003EFA7B01D0E051003E904002E0E064103D
:101AB000904002DE7038E054FE75F080A4FD904046
:101AC00002DDE0C4333333548045F0FC904002DF44
:101AD000E0FFA3E0C39FFFE49400FEEFC4F8540FBF
:101AE000C868FFEEC454F0484CFEEF4D8017E07517
:101AF000F080A4FD904002DDE0C4333333548045D0
:101B0000F0FEED4440FFC007C00690400081E0FEBB
:101B1000A3E0FF7C007D1551005274132FF974402F
:101B20003EFA7B01D0E0D0F0411D6190400081E0A1
:101B3000FEA3E0FF7C007D1551005274002FF97464
:101B4000403EFA7B0151000C64286003411D649003
:101B50004002E1E07003411D64904002E1E0546006
:101B600024E0601824E0601D24E06022246060030B
:101B7000411D64904002E27402F08019904002E23C
:101B80007404F08010904002E27408F080079040E6
:101B900002E27410F0904002DDE020E703411C8B6C
:101BA000E0FEA3E07C002400FFEC3EFEC3EF9400C7
:101BB000FFEE9400FEE49401FDEC9400FCC004A947
:101BC00005AA06AB07904002E2E0FD7C007E017FA3
:101BD00000510064E4FCFDD00051018A904002CF26
:101BE000EEF0A3EFF0904002CFE0FEA3E0FF7C0018
:101BF0007D805100BAD3ED9440EC64809480904095
:101C000002CFE0FE4013A3E0FF7C007D805100BACC
:101C1000EF2401FFE43EFE800AA3E0FF7C007D800C
:101C20005100BA904002CDEEF0A3EFF0904002CD0B
:101C3000E0FEA3E0C39480EE6480947F50067F8032
:101C4000C007800A904002CDE0A3E0FFC0079040AB
:101C50000081E0FEA3E0FF7C007D15510052AC0640
:101C6000AD0774122DF974403CFA7B01D0E05100AD
:101C70003E904002CFE0FEA3E0FF8FF0C006741359
:101C80002DF974403CFAD0E0411D61904002DDE046
:101C9000FEA3E07C002400FDEC3EFCC004C00590E7
:101CA0004002E2E0FD7C007E017F00510064D0052F
:101CB000D004510052904002CFEEF0A3EFF09040DC
:101CC00002CFE0FEA3E0FF7C007D805100BAD3ED9F
:101CD0009440EC64809480904002CFE0FE4013A3D7
:101CE000E0FF7C007D805100BAEF2401FFE43EFE5E
:101CF000800AA3E0FF7C007D805100BA904002CDB5
:101D0000EEF0A3EFF0904002CDE0FEA3E0D3947F8D
:101D1000EE6480948040067F80C007800A90400275
:101D2000CDE0A3E0FFC00790400081E0FEA3E0FF0C
:101D30007C007D15510052AC06AD0774122DF9746C
:101D4000403CFA7B01D0E051003E904002CFE0FEE3
:101D5000A3E0FF8FF0C00674132DF974403CFAD055
:101D6000E051016E22E4F55AF55BE55D700B9040A1
:101D70000349E020E3037F01227F007E807D037C16
:101D800000512228BF01037F01227B047A8079045D
:101D90005102EB9040033151032379085102EB903B
:101DA0004003355103237B837A0679735155D87BE1
:101DB000837A0679835155D87B417A0379317D0442
:101DC000514BD87B837A0679925155D87B417A035F
:101DD00079357D04514BD890400331E0FCA3E0FD00
:101DE000A3E0FEA3E0FF7B007A8079037800C35173
:101DF00002B460097B837A0679A1412024904003D4
:101E000035E0FCA3E0FDA3E0FEA3E0FF7B0C7A80BD
:101E100079037800D35102B440097B837A0679CCE8
:101E200041202490400331E0FCA3E0FDA3E0FEA3A9
:101E3000E0240CFFE43EFEE43DFDE43CFC90400366
:101E40003151032390400331A3A3E0FEA3E0FFC080
:101E50000690400335A3A3E0FEA3E0AC06D006C382
:101E60009FFFEC9ECF2401CF340090400339F0A3B4
:101E7000EFF090400339E0FEA3E04E7003412225CD
:101E800090400331E0FCA3E0FDA3E0FEA3E02400CA
:101E9000FFE43EFEED3401FDE43CA907AA06AB05D4
:101EA000C003C002C001783B7C037D41D001D00259
:101EB000D0037E007F0251041C90400331E0FCA35C
:101EC000E0FDA3E0FEA3E02402FFE43EFEE43DFDCE
:101ED000E43CFCE42FFFE43EFEED3401FDE43CA9CC
:101EE00007AA06AB05C003C002C001783D7C037D94
:101EF00041D001D002D0037E007F0151041C9040EC
:101F0000033BE0FEA3E02402FFE43EFE90400339E1
:101F1000E0FCA3E0FDD3EF9DEE9C40177B837A06A7
:101F200079F55155D87B417A03793B7D02514BD8E5
:101F30007F01229040033BE0FEA3E0C39401F52B18
:101F4000EE9400F52A90400331E0FCA3E0FDA3E00D
:101F5000FEA3E02403FFE43EFEE43DFDE43CFCE49C
:101F60002FFFE43EFEED3401FDE43CA907AA06ABD9
:101F7000058D258A26892775210275220075230083
:101F80009040033DE0FF514F4890400331E0F8A3FB
:101F9000E0F9A3E0FAA3E0FB9040033BE0FEA3E0FE
:101FA0002402FFE43EFEE4FCFDEB2FFFEA3EFEEDE3
:101FB00039FDEC38FC904003315103239040033944
:101FC000E0FEA3E0FF9040033BE0FCA3E02402FD21
:101FD000E43CFCC3EF9DFFEE9C90400339F0A3EF7F
:101FE000F0E5292401FEE435289040033EF0A3CE1D
:101FF000F09040033BE0FEA3E0FF255BCFE55A3EB7
:10200000CF2402CF3400FE9040033EE0FCA3E02F3B
:10201000FFEE3CCF2402CF3400C39480400C7B837E
:102020007A07791D5155D87F0122E529452870117D
:10203000E52C546064606009904003407401F080B6
:1020400006E490400340F07B417A03793BC003C033
:1020500001AE5AAF5B74002FF974203EA801FC7DDD
:1020600002D001D0037E007F0251041C7402255B64
:10207000F55BE4355AF55A7B417A03793DC003C0DC
:1020800001AE5AAF5B74002FF974203EA801FC7DAD
:1020900002D001D0037E007F0151041C055BE55B8B
:1020A0007002055AAE2AAF2BAC5AAD5B74002DF905
:1020B00074203CA801FC7D02AB25AA26A927510467
:1020C0001CE52B255BF55BE52A355AF55A7B417AF1
:1020D00003793EC003C001AE5AAF5B74002FF974A0
:1020E000203EA801FC7D02D001D0037E007F02517A
:1020F000041C7402255BF55BE4355AF55A7B417A82
:10210000037940C003C001AE5AAF5B74002FF9746D
:10211000203EA801FC7D02D001D0037E007F01514A
:10212000041C055BE55B7002055AAE28AF29AC5A6A
:10213000AD5B74002DF974203CA801FC7D02AB213D
:10214000AA22A92351041CE529255BF55BE5283566
:102150005AF55A7B837A0779465155D87B837A079B
:1021600079515155D87B417A03793B7D02514BD847
:102170007B837A07795C5155D87B417A03793D7D21
:1021800001514BD87B837A0779675155D8AB25AA83
:1021900026A927AD2B514BD87B837A0779725155ED
:1021A000D87B417A03793E7D02514BD87B837A07F5
:1021B000797D5155D890400340E060087B837A07D1
:1021C000798880067B837A07798B5155D87B837A0F
:1021D00007798E5155D8AB21AA22A923AD29514B9D
:1021E000D8E52945286003411E72E52C546024E09F
:1021F000601724E0601B24E0601F24606003411E20
:10220000727B837A07799980167B837A07799E801F
:102210000E7B837A0779A480067B837A0779AA519B
:1022200055D8411E727F002290400066510323E47E
:10223000FFFE7D06FC90400066E0F8A3E0F9A3E015
:10224000FAA3E0FBC35102B440037F012290400097
:1022500066E0FCA3E0FDA3E0FEA3E02404FFE43E6F
:10226000FEED3401FDE43CA907AA06AB055102EBE3
:102270008F4A8E498D488C4790400066E0FCA3E071
:10228000FDA3E0FEA3E02408FFE43EFEED3401FDE3
:10229000E43CA907AA06AB055102EB8F4E8E4D8D8B
:1022A0004C8C4BE54E2401FFE4354DFEE54C3401EA
:1022B000FDE4354BA907AA06AB0551011EF5508573
:1022C000F04FE4F551F55290400066E0FCA3E0FDCC
:1022D000A3E0FEA3E0FFAB4AAA49A948A847C3511F
:1022E00002B4604BE4FFFE7D02FC90400066E0F823
:1022F000A3E0F9A3E0FAA3E0FBC35102B470089095
:10230000400349E04440F07F007E807D037C0090E4
:10231000400066E0F8A3E0F9A3E0FAA3E0FBC351B4
:1023200002B4700890400349E04420F07F012290FD
:10233000400066E0FCA3E0FDA3E0FEA3E0240CFF68
:10234000E43EFEE43DFDE43CFCAB4EAA4DA94CA8A6
:102350004BC35102B4504BE4FFFE7D02FC904000A1
:1023600066E0F8A3E0F9A3E0FAA3E0FBC35102B4EE
:10237000700890400349E04440F07F007E807D0378
:102380007C0090400066E0F8A3E0F9A3E0FAA3E047
:10239000FBC35102B4700890400349E04420F07F31
:1023A0000122AF4AAE49AD48AC479040035F5103AC
:1023B00023C3E54E954AFFE54D9549FEE54C95480A
:1023C000FDE54B9547FCEF2401FFE43EFEE43DFDB7
:1023D000E43CFC90400363807090400363E0FCA306
:1023E000E0FDA3E0FEA3E0FFE47B32FAF9F8C3517D
:1023F00002B4505A9040035FE0FCA3E0FDA3E0FE6E
:10240000A3E0FF51684390400363E0FCA3E0FDA319
:10241000E0FEA3E0C39432FFEE9400FEED9400FDD5
:10242000EC9400FC904003635103239040035FE071
:10243000FCA3E0FDA3E0FEA3E02432FFE43EFEE4C3
:102440003DFDE43CFC9040035F510323808BE4FF9F
:10245000FEFDFC4124DA90400367E0FCA3E0FDA30D
:10246000E0FEA3E0FF90400363E0F8A3E0F9A3E0FF
:10247000FAA3E0FBD35102B4406A90400367E0FC4A
:10248000A3E0FDA3E0FEA3E0FF9040035FE0F8A31C
:10249000E0F9A3E0FAA3E02FFFEA3EFEE93DFDE804
:1024A0003CFCE42FFFE43EFEED3401FDE43CA907D3
:1024B000AA06AB0551000C2552F552E43551F551F1
:1024C00090400367E0FCA3E0FDA3E0FEA3E024014D
:1024D000FFE43EFEE43DFDE43CFC90400367510315
:1024E00023412456E4FFFE7D02FC90400066E0F8A4
:1024F000A3E0F9A3E0FAA3E0FBC35102B4701AE52C
:102500005065527004E54F6551904003496006E004
:102510004440F08004E054BFF07F007E807D037C67
:102520000090400066E0F8A3E0F9A3E0FAA3E0FB26
:10253000C35102B4701AE55065527004E54F6551FD
:10254000904003496006E04420F08004E054DFF04E
:102550007F0022C3E52B9405E52A94005003412710
:10256000FDAB25AA26A927E92401F9E43AFA51008E
:102570000CFDAB25AA26A92751000CFFED904003C6
:1025800058CFF0A3EFF0C3E52B9405FFE52A9400A4
:10259000FE90400358E0FCA3E06F7002EE6C600315
:1025A0004127FDAB25AA26A927E92403F9E43AFA35
:1025B00051000CFFE4FCFDFE78085102D8C004C0B5
:1025C00005C006C007AB25AA26A927E92402F9E41D
:1025D0003AFA51000CFFE4FCFDFE78105102D8D00D
:1025E00003D002D001D000EF4BFFEE4AFEED49FDD3
:1025F000EC48FCA804C005C006C007AB25AA26A964
:1026000027E92404F9E43AFA51000CFFD003D00280
:10261000D001EF4BFFEAFEE9FDE8FC9040035A5180
:1026200003239040035AA3E0FDA3E0FEA3E0FFEDE7
:10263000540FFDE4FC9040035A510323AB25AA2616
:10264000A927E92402F9E43AFA51000C54F0904029
:10265000035EF0E06008E0644060034127FD9040C5
:102660000358E0FEA3E0FF9040035AE0F8A3E0F92E
:10267000A3E0FAA3E0FBEF2BFFEE3AFEE439FDE422
:1026800038FCE4FBFA7910F8C35102B45003412737
:10269000FD9040035EE0601B9040035AE0FCA3E025
:1026A000FDA3E0FEA3E0FFED4440FDEC9040035AA3
:1026B000510323AB25AA26A927E92405F9E43A8B7F
:1026C00025F52689279040035AE0FCA3E0FDA3E00E
:1026D000FEA3E0FFE4FBFA7902F8D35102B4400311
:1026E00041276E90400358E0FEA3E0FF9040035A5C
:1026F000E0F8A3E0F9A3E0FAA3E0FBEF2BFFEE3A4A
:10270000FEE439FDE438FCE4FBFA7904F8C3510235
:10271000B4405B9040035AE0FCA3E0FDA3E0FEA3BD
:10272000E02400FFE43EFEED3401FDE43CA907AAED
:1027300006AB05C003C002C001AB25AA26A927909D
:10274000400042EBF0A3EAF0A3E9F090400358E028
:10275000FFA3E090400045CFF0A3EFF0D001D002FE
:10276000D00351569CBF01034127FD41286690408C
:10277000035874FFF5F051010845F07003412866D5
:102780009040035AE0FCA3E0FDA3E0FEA3E0FFE4D9
:10279000FBFA7902F8D35102B4506B9040035AE02F
:1027A000FCA3E0FDA3E0FEA3E0FFE47904F85102FE
:1027B000B440539040035AE0FCA3E0FDA3E0FEA325
:1027C000E02400FFE43EFEED3401FDE43CA907AA4D
:1027D00006AB05C003C002C001AB25AA26A92790FD
:1027E000400042EBF0A3EAF0A3E9F0A3E4F0A30475
:1027F000F0D001D002D00351569CBF013AE4F52835
:10280000F529752C30229040035AE0FCA3E0FDA38B
:10281000E0FEA3E02400FFE43EFEED3401FDE43CD5
:10282000A907AA06AB05A807AC06AB25AA26A927C7
:102830007E007F0151041C9040035AE0FCA3E0FDA0
:10284000A3E0FEA3E02401FFE43EFEE43DFDE43C02
:10285000FC9040035A51032374012527F527E435E2
:1028600026F52641276EE4F528F529752C7022E51A
:102870002B6401452A60028030AB25AA26A9275186
:10288000000C547F904002F3F0AB25AA26A92751F3
:10289000000C5480904002F4F0904002F3E0C394A6
:1028A000014006E0D394094009E4F528F529752C88
:1028B0003022AB25AA26A92751000CAB21AA22A9B8
:1028C0002351003E752800752901904002F3E07500
:1028D000F040A4FF904002F5E5F0F0A3EFF0E490A3
:1028E0004002F2F0904002F3E07E002405F9EE345D
:1028F00003FA7B4151000CFF904002F2E0C39F407D
:1029000003412B75904002F4E07003412A51A3E08B
:10291000FEA3E0FF7C007D15510052740D2FF97469
:10292000403EFA7B0151000CFFAB21AA22A92305EE
:1029300029E529AC28700205281429F9EA3CFAEFA8
:1029400051003E904002F5E0FEA3E0FF7C00510004
:1029500052740E2FF974403EFA7B0151000CFFAB0C
:1029600021AA22A9230529E529AC287002052814EB
:1029700029F9EA3CFAEF51003E904002F5E0FEA34F
:10298000E0FF7C00510052740F2FF974403EFA7B37
:102990000151000CFFAB21AA22A9230529E529AC8E
:1029A00028700205281429F9EA3CFAEF51003E90FC
:1029B0004002F5E0FEA3E0FF7C0051005274102FAE
:1029C000F974403EFA7B0151000CFFAB21AA22A909
:1029D000230529E529AC28700205281429F9EA3CC9
:1029E000FAEF51003E904002F5E0FEA3E0FF7C00CC
:1029F00051005274112FF974403EFA7B0151000CC2
:102A0000FFAB21AA22A9230529E529AC28700205DC
:102A1000281429F9EA3CFAEF51003E904002F5E013
:102A2000FEA3E0FF7C0051005274122FF974403E67
:102A3000FA7B0151000CFFAB21AA22A9230529E54D
:102A400029AC28700205281429F9EA3CFAEF510054
:102A50003E904002F5E0FEA3E0FF7C007D155100B2
:102A60005274132FF974403EFA7B0151011EE5F0B8
:102A7000FFAB21AA22A9230529E529AC287002056C
:102A8000281429F9EA3CFAEF51003E904002F5E0A3
:102A9000FEA3E0FF7C0051005274132FF974403EF6
:102AA000FA7B0151011EFFAB21AA22A9230529E5CA
:102AB00029AC28700205281429F9EA3CFAEF5100E4
:102AC0003E904002F5E0FEA3E0FF7C00510052740E
:102AD000092FF974403EFA7B015102EB5158DEE4B4
:102AE0007BE87A03F9F8510215904002F75103236D
:102AF000904002F7E0FCA3E0FDEC4D600D74FFFF99
:102B0000FEFDFC904002F7510323904002F7E0FCE9
:102B1000A3E0FDA3E0FEA3E0FF78085102C5AB21CE
:102B2000AA22A9230529E529AC2870020528142921
:102B3000F9EA3CFAEF51003E904002F7A3A3A3E06C
:102B4000FFAB21AA22A9230529E529AC287002059B
:102B5000281429F9EA3CFAEF51003E904002F6E0D1
:102B600004F07007904002F5E004F0904002F2E0BB
:102B700004F04128E4E52945287003752C7022E50E
:102B80002B6405452A6003412E69AB25AA26A92797
:102B9000E92401F9E43AFA51000CFDAB25AA26A973
:102BA0002751000CFFED90400351CFF0A3EFF090C0
:102BB000400351E0FEA3E0D394FBEE941F40034199
:102BC0002E69AB25AA26A927E92403F9E43AFA518C
:102BD000000CFFE4FCFDFE78085102D8C004C005DB
:102BE000C006C007AB25AA26A927E92402F9E43AC2
:102BF000FA51000CFFE4FCFDFE78105102D8D0031E
:102C0000D002D001D000EF4BFFEE4AFEED49FDECC3
:102C100048FCA804C005C006C007AB25AA26A92702
:102C2000E92404F9E43AFA51000CFFD003D002D0B1
:102C300001EF4BFFEAFEE9FDE8FC9040035351032E
:102C40002390400353A3E0FDA3E0FEA3E0FFED5477
:102C50000FFDE4FC90400353510323AB25AA26A9A2
:102C600027E92402F9E43AFA51000C54F0904003A9
:102C700057F090400351E0FEA3E02405F529E43E1F
:102C8000F528AB21AA22A923A801AC02AD03AB25EC
:102C9000AA26A9277E007F0551041C90400357E017
:102CA00024F07003412D6B24F07003412DF724E0D4
:102CB000600724406003412E6990400351E0FEA369
:102CC000E0FF90400353E0F8A3E0F9A3E0FAA3E0AB
:102CD000FBEF2BFFEE3AFEE439FDE438FCE4FBFAAF
:102CE0007910F8C35102B45003412E699040035744
:102CF000E0601B90400353E0FCA3E0FDA3E0FEA3D3
:102D0000E0FFED4440FDEC9040035351032390401D
:102D10000351E0FEA3E0FFC006C00790400353E06C
:102D2000FCA3E0FDA3E0FEA3E02400FFE43EFEEDF3
:102D30003401FDE43CA907AA06AB05C003C002C0EC
:102D400001AB21AA22A923E92405F9E43AA801FC50
:102D5000AD03D001D002D003D007D00651041CE54A
:102D60002945286003412E71412E6590400351E0B2
:102D7000FEA3E0FF90400353E0F8A3E0F9A3E0FADC
:102D8000A3E0FBEF2BFFEE3AFEE439FDE438FCE470
:102D9000FBFA7910F8C35102B45003412E699040F8
:102DA0000351E0FEA3E0FFC006C00790400353E0DC
:102DB000FCA3E0FDA3E0FEA3E02400FFE43EFEED63
:102DC0003481FDE43CA907AA06AB05C003C002C0DC
:102DD00001AB21AA22A923E92405F9E43AA801FCC0
:102DE000AD03D001D002D003D007D00651041CE5BA
:102DF000294528707C806E90400351E0FEA3E0FFDF
:102E000090400353E0F8A3E0F9A3E0FAA3E0FBEF5E
:102E10002BFFEE3AFEE439FDE438FCE4FB7A01F9DD
:102E2000F8C35102B45002804090400351E0FEA329
:102E3000E0FF90400353A3A3A3E0F97A007B00C016
:102E400003C002C001AB21AA22A923E92405F9E4A9
:102E50003AA801FCAD03D001D002D00351041CE517
:102E6000294528700C752C7022E4F528F529752C5D
:102E70003022E55D700B90400349E020E3034131CF
:102E800048E513603FE4F508E47F01FEFDFCA90876
:102E9000A8015102D8A905AA06AB07AF13E4FCFDAF
:102EA000FEEB5FFFEF600AE50804FF515051E4F5C7
:102EB00011E50804FF515C390508E508C394084092
:102EC000C7E4F513E51C6003E4F511E51E6003E4B7
:102ED000F511E51164026003E4F50BE51114602CB3
:102EE00014607814700341303F14700341312E2474
:102EF000046003413148E4F51C750909F50AF51A27
:102F0000F518E51E6003413148413145AF09EF75C1
:102F1000F040A485F00CF50DAF09EF75F040A485E5
:102F2000F00EF50FE509B4090341310BE47F01FE12
:102F3000FDFCC3E5099401F9F85102D8A905AA06D8
:102F4000AB07AF12E4FCFDFEEB5FFFEF6033AF09B0
:102F50005154E7AF09515C3941312AE4F51AF518AB
:102F6000E509C39409501DE47F01FEFDFCC3E5099A
:102F70009401F9F85102D8AB07AF12EB5FFFEF7085
:102F80000341308CAF097E0074052FF9EE3403FA4B
:102F90007B4151000CFD7C00AF09EF75F040A42D82
:102FA000FFEC35F0FEC3E50D9FE50C9E400341307C
:102FB0003BAE0CAF0D7C007D1551005274082FF90B
:102FC00074403EFA7B0151000C6023AE0CAF0D51F2
:102FD000005274082FF974403EFA51000CC394015A
:102FE000FFE50AA807088002C333D8FC600A050D74
:102FF000E50D7090050C808CE47F01FEFDFCC3E5BF
:10300000099401F9F85102D8A905AA06AB07AF1B2C
:10301000E4FCFDEB5FFFEF6003751801AF0DAE0C34
:10302000515A43050DE50D7002050C050BE51870AE
:103030000AE50BC39515500341314875110322E58C
:1030400009C39409501CE47F01FEFDFCC3E509940B
:1030500001F9F85102D8AB07AF12EB5FFFEF700236
:10306000802AAF097E0074052FF9EE3403FA7B4104
:1030700051000CFD7C00AF09EF75F040A42DFFEC72
:1030800035F0FEC3E50F9FE50E9E40047511042246
:10309000AE0EAF0F7C007D1551005274082FF974ED
:1030A000403EFA7B0151000C6023AE0EAF0F510081
:1030B0005274082FF974403EFA51000CC39401FF7A
:1030C000E50AA807088002C333D8FC600A050FE5AB
:1030D0000F708F050E808BAE0EAF0F7C007D1551EB
:1030E000005274092FF974403EFA7B015102EB51F2
:1030F00058DEE47BEE7A02F9F8D35102B45049E588
:103100001A600AE50D150D7002150C801DAF0FAE8B
:103110000E511877050FE50F7002050EE4F518C380
:10312000E50F950DE50E950C401E75110222E5097F
:103130000475F00A8485F009E50970020509E509BE
:10314000B40902050A75110122E0FF51315E904079
:103150000085E0FF51315E90400085E0FF0DEF6497
:1031600009600341321BED6059C2AFC2B5D2B5D27E
:10317000AFE4904002A2F000000000000000000058
:10318000000000000000000000000000000000003F
:10319000000000000000000000000000000000002F
:1031A000000000000000000000000000000000001F
:1031B00000000000904002A2E004F0E0B403B84137
:1031C0003392C2AFC2B5E4904002A3F00000000009
:1031D00000000000000000000000000000000000EF
:1031E00000000000000000000000000000000000DF
:1031F00000000000000000000000000000000000CF
:10320000000000000000000000904002A3E004F075
:10321000E0B403B8D2B5D2AF413392C3EF9401FF0B
:103220007401A807088002C333D8FC904002A5F0BF
:10323000E0F4A3F0ED700341332CC2AFE09007F04F
:1032400010F0A37401F00000000000000000000076
:10325000000000000000E4F000000000000000009A
:10326000000000000000000000000000000000005E
:10327000000000000000000000000000000000004E
:10328000000000000000000000000000000000003E
:10329000000000000000000000000000000000002E
:1032A000000000000000000000000000000000001E
:1032B000000000000000000000000000000000000E
:1032C00000000000000000000000000000000000FE
:1032D00000000000000000000000000000000000EE
:1032E00000000000000000000000000000000000DE
:1032F00000000000000000000000000000000000CE
:1033000000000000000000000000000000000000BD
:1033100000000000000000000000000000000000AD
:103320000000000000000000D2AF8066C2AF9040F5
:1033300002A6E09007F010F0A37401F0E4904002C0
:10334000A4F00000000000000000000000000000E9
:10335000000000000000000000000000000000006D
:10336000000000000000000000000000000000005D
:1033700000000000000000000000000000000090BD
:103380004002A4E004F0E0B403B8E49007F011F0C8
:10339000D2AF0000000000000000000000000000AC
:1033A000000000000000000000000000000000001D
:1033B000000000000000000000000000000000000D
:1033C00000000000000000000000000000000000FD
:1033D000000000000000000000000000000022F0DB
:1033E000E0FF90400052E4F0A3F0A3F0FBFAF99064
:1033F00040004FEBF0A3EAF0A3E9F0EF64096003AB
:103400004134A3C2B590400296F0000000000000D5
:1034100000000000000000000000000000000000AC
:10342000000000000000000000000000000000009C
:10343000000000000000000000000000000000008C
:103440000000000000000090400296E004F0E0B4AC
:1034500019B8D2B5E490400297F0000000000000D7
:10346000000000000000000000000000000000005C
:10347000000000000000000000000000000000004C
:10348000000000000000000000000000000000003C
:103490000000000000000090400297E004F0E0B45B
:1034A00019B822C3EF9401FF7401A807088002C372
:1034B00033D8FC9040029AF0E0F4A3F0C2AFE09061
:1034C00007F010F0A37401F00000000000000000FD
:1034D00000000000000000000000000000000000EC
:1034E00000000000000000000000000000000000DC
:1034F00000000000000000000000000000000000CC
:103500009007F010E09040029CF0D2AF9040004F46
:10351000E0FBA3E0FAA3E0F9EA494B600A9040021D
:103520009CE0FFEF51003EE490400298F000000064
:10353000000000000000000000000000000000008B
:10354000000000000000000000000000000000007B
:10355000000000000000000000000000000000006B
:103560000000000000000000000090400298E0040D
:10357000F0E0B419B8C2AFE49007F011F000000019
:10358000000000000000000000000000000000003B
:10359000000000000000000000000000000000002B
:1035A000000000000000000000000000000000001B
:1035B00000000000009007F010E09040029CF0D264
:1035C000AF90400052E0FBA3E0FAA3E0F9EA494BD8
:1035D000600A9040029CE0FFEF51003EE490400200
:1035E00099F0000000000000000000000000000052
:1035F00000000000000000000000000000000000CB
:1036000000000000000000000000000000000000BA
:10361000000000000000000000000000000000901A
:10362000400299E004F0E0B419B82290400089EF1C
:10363000F0ED6008E4904002B6F0A3F0904002B6CE
:10364000E0B401037F0122904002BB7401F0E4A3C7
:10365000F0904002BEF0904002BD04F0E4F55C90B2
:10366000400089E0FF5133E290400089E0FF7DF0A7
:10367000516C75904002BEE0C3940840034137A8E6
:10368000514186904002B9EFF0514186904002BA14
:10369000EFF0904002B9E0B4010EA3E0B40109904C
:1036A0004002B67401F0FF22904002BAE0FF904061
:1036B00002B9E06F6008E0904002B8F08058904096
:1036C00002B7E0FF904002BBE0C39F501E90400253
:1036D000BEE07E0024BFF9EE3402FA7B4151000CBB
:1036E000FF904002BDE05F6019800E904002B7E09D
:1036F000FF904002BBE0B50709904002B87401F0AA
:103700008006E4904002B8F0904002B8E070079064
:103710004002BBE0A3F0904002B8E0904002BE60DF
:1037200018E07E0024BFF9EE3402FA7B4151000C10
:10373000FF904002BDE04F8017E07E0024BFF9EE0D
:103740003402FA7B4151000CFF904002BDE0F45F6F
:1037500051003E90400089E0FF904002B8E0FD51EA
:10376000315E904002BBE004F0904002BDE025E0F5
:10377000F0E06003413673A3E07E0024BFF9EE342D
:1037800002FA7B4151000C655C2496F9EE3401FA93
:103790007B4151000CF55C904002BEE004F090408B
:1037A00002BD7401F0413673E55C7007904002BFC2
:1037B000E070037F012290400089E07E002405F93B
:1037C000EE3403FA7B4151000CFD7C0090400089EF
:1037D000E075F040A42DFEEC35F0904002C9F0A356
:1037E000CEF0904002C77409F07B417A0279BFC0E5
:1037F00003C001904002C9E0FEA3E0FF7D15510027
:103800005274002FF974403EA801FC7D01D001D014
:10381000037E007F0951041C90400089E0FF7E0078
:103820002405F9EE3403FA7B4174015100229040E3
:1038300002BCE0904002B7F0E0601074052FF9EE92
:103840003403FA51000CC394404007904002B67410
:1038500001F07F00229040007CEDF09040007BEF73
:10386000F0AF1F30E10CEF75F01CA424BAF974001E
:10387000800AEF75F01CA424B7F9740035F0FA7BC8
:103880004151032F9040008CEBF0A3EAF0A3E9F044
:103890009040007BE0AF1F30E20CEF75F01CA424D9
:1038A000ACF97400800AEF75F01CA424A9F9740027
:1038B00035F0FA7B4151032F9040008FEBF0A3EAE3
:1038C000F0A3E9F0E51F5403240AFDE4FBFF515285
:1038D00035E51F5403240AFD7F0151523590400005
:1038E0007BE05404FFE51F04FD7B8051523590407E
:1038F000008FE0FBA3E0FAA3E02406F9E43AFA74AF
:10390000F651003E9040007BE0FF9040008CE0FBD1
:10391000A3E0FAA3E02402F9E43AFAEF51003EE50D
:103920001FC39404AF205002AF249040008CE0FBF2
:10393000A3E0FAA3E02403F9E43AFAEF51003EE5EC
:103940001F5403FF9040008CE0FBA3E0FAA3E024A7
:1039500004F9E43AFAEF51003E9040008CE0FBA3FA
:10396000E0FAA3E02405F9E43AFAE451003E90407D
:10397000007CE07003413A27C454F0440CFF9040AF
:10398000008CE0FBA3E0FAA3E02406F9E43AFAEFA6
:1039900051003E9040008CE0FBA3E0FAA3E0240736
:1039A000F9E43AFAC003C002C001AF1FEF75F01C82
:1039B000A424C0F9740035F0FA7B4151032F9040E4
:1039C000004AEBF0A3EAF0A3E9F09040007CE0901D
:1039D00040004DF0D001D002D003516650AF1FEF30
:1039E00075F01CA424C3F9740035F0FA7B41510131
:1039F0001EFF9040007CE0FDC3EF9DFFE5F09400CA
:103A00008FF051016E9040007CE0FDAF1FEF75F02C
:103A10001CA424C0F9740035F0FA09E970010AE425
:103A20008DF051014280169040008CE0FBA3E0FA3B
:103A3000A3E02406F9E43AFA740C51003E904000E9
:103A40007BE05402FFE51F5403240AFD7BC541526D
:103A50003590400087EFF0E075F040A4FF90400201
:103A6000B3E5F0F0A3EFF090400087E07E0024057E
:103A7000F9EE3403FA7B41E451003E904002B5F088
:103A8000904002B3E0FEA3E0FF7C007D15510052A0
:103A900074002FF974403EFA7B01E451003E9040DF
:103AA00002B3E0FEA3E0FF51005274012FF974400D
:103AB0003EFAE451003E904002B3E0FEA3E0FF5125
:103AC000005274022FF974403EFAE451003E9040D7
:103AD00002B3E0FEA3E0FF51005274032FF97440DB
:103AE0003EFAE451003E904002B3E0FEA3E0FF51F5
:103AF000005274042FF974403EFAE451003E9040A5
:103B000002B3E0FEA3E0FF51005274052FF97440A8
:103B10003EFAE451003E904002B3E0FEA3E0FF51C4
:103B2000005274062FF974403EFAE451003E904072
:103B300002B3E0FEA3E0FF51005274072FF9744076
:103B40003EFAE451003E904002B3E0FEA3E0FF5194
:103B5000005274082FF974403EFAE451003EFFFE13
:103B6000FDC005C006C007904002B3E0FEA3E0FF21
:103B70007D1551005274092FF974403EFAD007D0D8
:103B800006D005510308904002B3E0FEA3E0FF7C9D
:103B9000007D15510052740D2FF974403EFAE45126
:103BA000003E904002B3E0FEA3E0FF510052740ECD
:103BB0002FF974403EFAE451003E904002B3E0FE1B
:103BC000A3E0FF51005274102FF974403EFAE45103
:103BD000003E904002B3E0FEA3E0FF51005274119A
:103BE0002FF974403EFAE451003E904002B3E0FEEB
:103BF000A3E0FF51005274122FF974403EFA748012
:103C000051003E904002B3E0FEA3E0FF5100527429
:103C1000132FF974403EFA748075F00051016E90D4
:103C20004002B4E004F07007904002B3E004F0906A
:103C30004002B5E004F0E064406003413A80227540
:103C40005D01E55D904003487005740AF0800374DF
:103C50000BF074DB2406F9E43408FA7B83C003C05C
:103C600002C00178467C037D41D001D002D0037EA2
:103C7000007F0251041C90400347E0C39430904001
:103C80000341F078467C037D417B837A0879DB7EB3
:103C9000007F0251041C90400346E0C3943075F04D
:103CA0000AA4FFA3E0C394302F90400342F074DBDA
:103CB0002403F9E43408FA7B83C003C002C001780E
:103CC000467C037D41D001D002D0037E007F0251AB
:103CD000041C90400346E0C3943075F00AA4FFA38F
:103CE000E0C394302F90400343F078467C037D413D
:103CF0007B837A0879E47E007F0251041C904003A4
:103D000046E0C3943075F00AA4FFA3E0C394302FBB
:103D100090400344F074E42403F9E43408FA7B830C
:103D2000C003C002C00178467C037D41D001D002AF
:103D3000D0037E007F0251041C90400346E0C394F0
:103D40003075F00AA4FFA3E0C394302F90400345E0
:103D5000F07B017A00790151000C90400349F0E4B6
:103D600051003E9040034C74FFF090400341E0C48A
:103D700054F0FFA3E04F9040034DF090400343E028
:103D80009040034EF090400344E09040034FF09089
:103D9000400345E090400350F030DE1275C7AA752D
:103DA000C755C2DEE490400349F01951003EE4FFDC
:103DB000FE7D02FC5122287F007E807D037C005125
:103DC0002228E55D704390400349E05407701D7B55
:103DD000087AF0791451000C20E04890400349E043
:103DE00020E640E07B017A00790180157B017A00B2
:103DF000790051000C702C90400349E020E624E04B
:103E00000951003E516872801A5170F09040034988
:103E1000E054077006E04410F0800890400349E049
:103E200054EFF0416DCE90400083EDF0EF60034120
:103E30003F0EE014B40F004003413FDD90023E4BC3
:103E400075F003A4C58325F0C58373413E78413ED8
:103E500082413E8C413E96413EA0413EAA413EB445
:103E6000413EBE413EC8413ED2413EDC413EE6417C
:103E70003EF0413EFA413F049040008BE5ABF041FB
:103E80003FDD9040008BE5ACF0413FDD9040008B82
:103E9000E5ADF0413FDD9040008BE5AEF0413FDD08
:103EA0009040008BE5AFF0413FDD9040008BE5B3E3
:103EB000F0413FDD9040008BE5B4F0413FDD9040A4
:103EC000008BE5B5F0413FDD9040008BE5B6F04159
:103ED0003FDD9040008BE5B7F0413FDD9040008B27
:103EE000E5BBF0413FDD9040008BE5BCF0413FDD9C
:103EF0009040008BE5BDF0413FDD9040008BE5BE7A
:103F0000F0413FDD9040008BE5BFF0413FDD904048
:103F10000083E014B40F004003413FDD90023F2BCB
:103F200075F003A4C58325F0C58373413F58413F15
:103F300061413F6A413F73413F7C413F85413F8E34
:103F4000413F97413FA0413FA9413FB2413FBB4163
:103F50003FC4413FCD413FD69040008BE5EBF08020
:103F60007C9040008BE5ECF080739040008BE5ED99
:103F7000F0806A9040008BE5EEF080619040008B0D
:103F8000E5EFF080589040008BE5F3F0804F9040D3
:103F9000008BE5F4F080469040008BE5F5F0803D25
:103FA0009040008BE5F6F080349040008BE5F7F010
:103FB000802B9040008BE5FBF080229040008BE549
:103FC000FCF080199040008BE5FDF08010904000DF
:103FD0008BE5FEF080079040008BE5FFF0904000FD
:103FE0008BE0FF22E52B6403452A600341407CAB54
:103FF00025AA26A927E92401F9E43AFA51000CFF81
:10400000E4FCFDFE78085102D8C004C005C006C01B
:1040100007AB25AA26A92751000CFFE4FCFDFE787A
:10402000105102D8D003D002D001D000EF4BFFEEE8
:104030004AFEED49FDEC48FCA804C005C006C007D7
:10404000AB25AA26A927E92402F9E43AFA51000C83
:10405000FFD003D002D001EF4BFFEAFEE9FDE8FC00
:104060009040039251032390400392E0FCA3E0FDB3
:10407000A3E0FEA3E0FF512228BF0109E4F528F5E3
:1040800029752C302275280075290AAF4AAE49AD32
:1040900048AC4778105102C5AB21AA22A923EF51A1
:1040A000003EAF4AAE49AD48AC4778085102C5ABB7
:1040B00021AA22A923E92401F9E43AFAEF51003EAA
:1040C000AF4AAE49AD48AC47AB21AA22A923E924A7
:1040D00002F9E43AFAEF51003EAF4EAE4DAD4CACB2
:1040E0004B78105102C5AB21AA22A923E92403F978
:1040F000E43AFAEF51003EAF4EAE4DAD4CAC4B78CA
:10410000085102C5AB21AA22A923E92404F9E43A03
:10411000FAEF51003EAF4EAE4DAD4CAC4BAB21AAC9
:1041200022A923E92405F9E43AFAEF51003EE54FCC
:10413000FFAB21AA22A923E92406F9E43AFAEF51B8
:10414000003EAF50AB21AA22A923E92407F9E43AA3
:10415000FAEF51003EE551FFAB21AA22A923E92441
:1041600008F9E43AFAEF51003EAF52AB21AA22A976
:1041700023E92409F9E43AFAEF51003EE5294528FC
:104180007003752C702290400089E0FFEF64096095
:104190000341423DC2AFC2B5000000000000000074
:1041A0000000000000000000D2B500000000000088
:1041B00000000000000000000000000000000000FF
:1041C00000000000000000000000000000000000EF
:1041D00000000000000000000000000000000000DF
:1041E0000000A2B533904002A1F0D2AFE4904002AB
:1041F0009DF0000000000000000000000000000032
:1042000000000000000000000000000000000000AE
:10421000000000000000000000000000000000009E
:1042200000000000000000000000000000000090FE
:1042300040029DE004F0E0B403B8414315C3EF949D
:1042400001FF7401A807088002C333D8FC90400224
:104250009FF0E0F4A3F0C2AFE09007F010F0A37479
:1042600001F000000000000000000000000000005D
:104270000000E4F00000000000000000000000006A
:10428000000000000000000000000000000000002E
:10429000000000000000000000000000000000001E
:1042A0000000000000000000000000009007F01077
:1042B000E0904002A1F0D2AFE0FF9040029FE0FE0C
:1042C000EF5E904002A1F0E49040029EF0000000FA
:1042D00000000000000000000000000000000000DE
:1042E00000000000000000000000000000000000CE
:1042F00000000000000000000000000000000000BE
:10430000000000000000000000009040029EE00459
:10431000F0E0B403B8904002A1E07F0060027F01AA
:104320002251432D51432D51432D51432D00000067
:10433000000000000000000000000000000000007D
:10434000000000000000000000000000000000006D
:10435000000000000000000000000000000000005D
:10436000000000000000000000000000000000004D
:10437000000000000000000000000000000000003D
:10438000000000000000000000000000000000002D
:10439000000000000000000000000000000000001D
:1043A000000000000000000000000000000000000D
:1043B00000000000000000000000000000000000FD
:1043C00000000000000000000000000000000000ED
:1043D00000000000000000000000000000000000DD
:1043E00000000000000000000000000000000000CD
:1043F00000000000000000000000000000000000BD
:1044000000000000000000000000000000000000AC
:10441000000000000000000000000000000000009C
:10442000000000000000000000000000000000008C
:10443000000000000000000000000000000000007C
:10444000000000000000000000000000000000006C
:10445000000000000000000000000000000000005C
:10446000000000000000000000000000000000004C
:10447000000000000000000000000000000000003C
:10448000000000000000000000000000000000002C
:10449000000000000000000000000000000000001C
:1044A000000000000000000000000000000000000C
:1044B0000000000000000000000022E55D640170C3
:1044C0000341464C90400317E0146074147003419C
:1044D00045888000E49040030FF09040030FE07E99
:1044E000002418F9EE3403FA7B4151000CB4014466
:1044F0009040030FE0FFE4FCFDFB7A40F9F8510126
:104500008AE42FFFE43EFEED3402FDE43CFCE42FA0
:10451000FFE43EFEED3401FDE43CA907AA06AB052D
:1045200090400310EDF0A3EAF0A3E9F090400317E8
:104530007401F0229040030FE004F0E0B4089B22E5
:10454000C2AFD2B39002055574AAF0900202AA74C9
:1045500055F0900205557480F074AAF0900202AAFA
:104560007455F090400310E0FBA3E0FAA3E0F97467
:104570003051003ED2AF516C9A9040031351032347
:10458000904003177402F02290400310E0FBA3E078
:10459000FAA3E0F951000C30E719C2B39040030FC1
:1045A000E07E002418F9EE3403FA7B41E451003E2A
:1045B00041464090400310E0FBA3E0FAA3E0F9512C
:1045C000000C30E54490400310E0FBA3E0FAA3E0C8
:1045D000F951000C30E718C2B39040030FE07E00A1
:1045E0002418F9EE3403FA7B41E451003E8018C2EE
:1045F000B39040030FE07E002418F9EE3403FA7BF9
:1046000041740251003EE4803790400313E0FCA364
:10461000E0FDA3E0FEA3E0FF5158DEE47B987A3A88
:10462000F9F8C35102B45024C2B39040030FE07EA6
:10463000002418F9EE3403FA7B41740251003EE481
:1046400090400317F09002088874F0F022C3E52B25
:104650009401FFE52A9400FE7C007D0951006490DE
:104660004002EBEFF0C3E52B9401E52A94004037BC
:10467000E52B9401FFE52A9400FE7C007D095100A2
:1046800064ED4C7022E0D394404002801AAB25AA1E
:1046900026A92751000C904002EAF0E0C3940140A3
:1046A00006E0D394094009E4F528F529752C302259
:1046B000904002EAE0C39401FF7401A80708800259
:1046C000C333D8FC4213751C01E47F01FEFDFC904E
:1046D0004002EAE0C39401F9F85102D85102A7EF71
:1046E000521E751D01A3E0FF904002EAE07C002409
:1046F00005F9EC3403FA7B41EF51003E904002EAA9
:10470000E075F040A4FF904002ECE5F0F0A3EFF07C
:10471000E4904002E9F0904002EBE0FF904002E9B3
:10472000E0C39F40034147C0AB25AA26A927E9243F
:1047300001F9E43AFAE075F009A429F9EA35F0FA4A
:10474000C003C001904002ECE0FEA3E0FF7C007DCE
:104750001551005274002FF974403EA801FC7D01F0
:10476000D001D0037E007F0951041C904002ECE090
:10477000FEA3E0FF7C007D1551005274082FF974F0
:10478000403EFA7B0151000CD3940940199040023D
:10479000ECE0FEA3E0FF51005274082FF974403E94
:1047A000FA740951003E904002EDE004F070079069
:1047B0004002ECE004F0904002E9E004F0414716CA
:1047C000E4F528F529752C702290400055EBF0A3F4
:1047D000EAF0A3E9F090400055E0FBA3E0FAA3E083
:1047E000F951000CFD540FFF74017E00A8070880EA
:1047F00005C333CE33CED8F9F5588E57EDC45407E0
:10480000FF7401A807088002C333D8FCF559517022
:1048100076EF60037F0122516B2190400055E0FB51
:10482000A3E0FAA3E02401516C1690400055E0FB90
:10483000A3E0FAA3E02402516C1690400055E0FB7F
:10484000A3E0FAA3E02403516C1690400055E0FB6E
:10485000A3E0FAA3E02404F9E43AFA51000CFF5172
:104860006BB8516B5C90400058E0FBA3E0FAA3E00A
:10487000F9516B5890400058E0FBA3E0FAA3E02404
:1048800001516B5490400058E0FBA3E0FAA3E024F0
:1048900002516B5490400058E0FBA3E0FAA3E024DF
:1048A00003F9E43AFAEF51003EE49007F003F09088
:1048B000400055E0FBA3E0FAA3E02401F9E43AFA52
:1048C00051000C547FFF90400058E0FBA3E0FAA396
:1048D000E0F951000C6F601490400055E0FBA3E03C
:1048E000FAA3E0F951000C448051003E904000557D
:1048F000E0FBA3E0FAA3E02402F9E43AFA51000C49
:10490000FF90400058E0FBA3E0FAA3E02401F9E4A3
:104910003AFA51000C6F601490400055E0FBA3E0A0
:10492000FAA3E0F951000C448051003E7F0022E5DB
:104930002B6401452A7073AB25AA26A92751000CC8
:104940009040037CF0E0FF7B417A03797F515F2840
:10495000BF0103414A807528007529039040037CFC
:10496000E0AB21AA22A92351003E9040037FE0FE44
:10497000A3E0EEFFAB21AA22A923E92401F9E43A3E
:10498000FAEF51003E9040037FE0A3E0FFAB21AA85
:1049900022A923E92402F9E43AFAEF51003EE5297D
:1049A00045286003414A88414A7CE52B6403452A37
:1049B0006003414A80AB25AA26A92751000C9040EC
:1049C000037CF0AB25AA26A927E92401F9E43AFAE9
:1049D00051000CFEAB25AA26A927E92402F9E43AE6
:1049E000FA51000C7C002400FFEC3E9040037DF067
:1049F000A3EFF07528007529019040037CE0AB21FE
:104A0000AA22A92351003E9040037D74FFF5F05186
:104A1000010845F060609040037CE0FF7B417A0331
:104A2000797F515F28BF010280569040037FE0FEEE
:104A3000A3E0EEFFAB21AA22A923AC28AD29E92DE2
:104A4000F9EA3CFAEF51003E9040037FE0A3E0FF1B
:104A5000AB21AA22A923E5292401FDE43528FCE99C
:104A60002DF9EA3CFAEF51003E74022529F529E4BC
:104A70003528F5288091E5294528700C752C702281
:104A8000E4F528F529752C3022AE2AAF2B7C007D69
:104A90000551006490400373EFF0AE2AAF2B7C0009
:104AA0007D05510064ED4C700CE0C394014006E0BC
:104AB000D3940A40028076E4F528F529AB25AA268E
:104AC000A9279040005BEBF0A3EAF0A3E9F0904047
:104AD0000373E075F005A4AB21AA22A92329F9EA02
:104AE00035F0FA9040005EEBF0A3EAF0A3E9F0E4C1
:104AF00090400372F090400373E0FF90400372E037
:104B0000C39F50639040005EE0F9A3E0FAA3E090F9
:104B1000400058C9F0A3EAF0A3E9F09040005BE040
:104B2000FBA3E0FAA3E0F95147C9BF0109E4F52866
:104B3000F529752C30229040005BE0FBA3E0FAA33E
:104B4000E02405F9E43AFA9040005BEBF0A3EAF0C8
:104B5000A3E9F09040005FE475F0045100F290404A
:104B60000372E004F0808EAB21AA22A923AE02904A
:104B700040005EA3E0FAA3E0AC02C399F529EC9EE5
:104B8000F528AB25AA26A9279040005BEBF0A3EA05
:104B9000F0A3E9F0AB21AA22A923A3EBF0A3EAF04A
:104BA000A3E9F090400373E075F005A4FFAEF09028
:104BB00040005EE0FBA3E0FAA3E0F8AC02AD039096
:104BC00040005BE0FBA3E0FAA3E0F951041CE529F7
:104BD00045287003752C70229040006AEBF0A3EA20
:104BE000F0A3E9F0A3EDF0E075F002A4FF9040031C
:104BF00089E0FCA3E02FFFE5F03CFED3EF9440EE0C
:104C0000941F4003414D18E490400385F09040000C
:104C10006DE0FF90400385E0C39F4003414D189035
:104C200040006AE0FBA3E0FAA3E0F990400385E0CE
:104C3000FF7E00E92FF9EE3AFAC003C002C0017806
:104C4000867C037D41D001D002D0037F0151041C3A
:104C500090400386E0C4540FA3F090400386E054D4
:104C60000F90400388F090400387E0C3940A5006F9
:104C7000E02430F0800890400387E02437F0904033
:104C80000388E0C3940A5006E02430F08008904086
:104C90000388E02437F090400387E0FFC00790408E
:104CA0000389E0FEA3E0FFE42FFFEE3420FEE433AF
:104CB000FDE433FCE42FFFE43EFEED3401FDE43C73
:104CC000A907AA06AB05D0E051003E90400388E05A
:104CD000FFC007A3E0FEA3E0FFE42FFFEE3420FEB9
:104CE000E433FDE433FCEF2401FFE43EFEED340148
:104CF000FDE43CA907AA06AB05D0E051003E904078
:104D0000038AE02402F090400389E03400F09040F0
:104D10000385E004F0414C0D2290400085EFF0FB4C
:104D2000E47F01FEFDFCC3EB9401F9F85102D8A821
:104D300004A905AA06AB07AF1BE4FCFDFEEB5FFF71
:104D4000EF7003414E2751314990400085E0FF1D2F
:104D500051315E9040008551314990400085E0C35B
:104D60009401FF7401A807088002C333D8FC904067
:104D700002A8F0E0F4A3F0C2AFE09007F010F0A3B7
:104D80007401F0E4904002A7F00000000000000071
:104D90000000000000000000000000000000000013
:104DA0000000000000000000000000000000000003
:104DB00000000000000000000000000000000000F3
:104DC000000000000000904002A7E004F0E0B403FF
:104DD000B89007F01074FFF0D2AF000000000000A0
:104DE00000000000000000000000000000000000C3
:104DF00000000000000000000000000000000000B3
:104E000000000000000000000000000000000000A2
:104E10000000000000000000000000000000000092
:104E20000000000000002290400085E0FF7D44511A
:104E30006C7522E52B452A6009E4F528F529752CC7
:104E40003022904002E47401F0904002E4E0FF510F
:104E500054E7904002E4E004F0E0D3940940EA759E
:104E60002800752908AB21AA22A923E51251003E8A
:104E7000AB21AA22A923E92401F9E43AFAE5155164
:104E8000003E904002FDE0C454F0FF904002FCE080
:104E9000C4333354C04FFF904002FEE025E025E0CC
:104EA0004FFFA3E04FFFAB21AA22A923E92402F977
:104EB000E43AFAEF51003E90400301E0C454F0FFA1
:104EC00090400300E0C4333354C04FFF90400302CE
:104ED000E025E025E04FFFA3E04FFFAB21AA22A988
:104EE00023E92403F9E43AFAEF51003E9040030429
:104EF000E0C4333354C0FFAB21AA22A923E9240420
:104F0000F9E43AFAEF51003EAB21AA22A923E924A1
:104F100005F9E43AFAE51651003EAB21AA22A9238D
:104F2000E92406F9E43AFAE51051003EAB21AA2241
:104F3000A923E92407F9E43AFAE51B51003EE529E3
:104F400045287003752C702290400084EFF0541FA8
:104F50005103A04F9C004FA5014FAE024FB7034F26
:104F6000C0044FC9054FD2064FDB074FE40E4FED8B
:104F70000F4FF6104FFF11500812501113501A1412
:104F8000502315502C16503517503E185047190015
:104F9000004F93E4F528F529752C302290400084C9
:104FA000E0FF41714A90400084E0FF417118904059
:104FB0000084E0FF41715A90400084E0FF41716538
:104FC00090400084E0FF41717090400084E0FF4118
:104FD000709190400084E0FF41717B90400084E03C
:104FE000FF41712990400084E0FF416E0E90400027
:104FF00084E0FF416E2E90400084E0FF416E4E90B1
:10500000400084E0FF416F6D90400084E0FF416EFE
:105010008E90400084E0FF416E6E90400084E0FF7F
:10502000416F0E90400084E0FF416EAE90400084DE
:10503000E0FF416ECE90400084E0FF416EEE904074
:105040000084E0FF416F8C90400084E0FF516FAB23
:1050500022EF75F040A4FF904002B0E5F0F0A3EF1E
:10506000F0E4904002B2F0E4FFFEFDFCC005C00693
:10507000C007904002B0E0FEA3E0FF7D1551005252
:1050800074092FF974403EFA7B01D007D006D00591
:10509000510308904002B0E0FEA3E0FF7C007D15C4
:1050A000510052740D2FF974403EFAE451003E90C5
:1050B0004002B0E0FEA3E0FF510052740E2FF974DD
:1050C000403EFAE451003E904002B0E0FEA3E0FF13
:1050D00051005274102FF974403EFAE451003E9092
:1050E0004002B0E0FEA3E0FF51005274112FF974AA
:1050F000403EFAE451003E904002B0E0FEA3E0FFE3
:1051000051005274122FF974403EFA748051003EDF
:10511000904002B0E0FEA3E0FF51005274132FF95B
:1051200074403EFA748075F00051016E904002B1F7
:10513000E004F07007904002B0E004F0904002B24A
:10514000E004F0E06440600341506722E52B640115
:10515000452A600341522CAB25AA26A92751000CF1
:105160009040039EF0E0705CAB21AA22A92351007D
:105170003E90400396E0FFAB21AA22A923E9240137
:10518000F9E43AFAEF51003E90400397E0FFAB217B
:10519000AA22A923E92402F9E43AFAEF51003E9049
:1051A000400398E0FFAB21AA22A923E92403F9E4F4
:1051B0003AFAEF51003E752800752904E529452883
:1051C000707280649040039EE06401705FAB21AA1E
:1051D00022A9230451003E90400399E0FFAB21AA8D
:1051E00022A923E92401F9E43AFAEF51003E904064
:1051F000039AE0FFAB21AA22A923E92402F9E43AA9
:10520000FAEF51003E9040039BE0FFAB21AA22A998
:1052100023E92403F9E43AFAEF51003E75280075BA
:105220002904E5294528700C752C7022E4F528F531
:1052300029752C3022EF7073ED14B40F0040034138
:10524000531C9002525175F003A4C58325F0C58309
:105250007341527E41528141528441528741528A68
:1052600041528D415290415293415296415299413F
:10527000529C41529F4152A24152A54152A88BAB30
:10528000228BAC228BAD228BAE228BAF228BB32232
:105290008BB4228BB5228BB6228BB7228BBB228B91
:1052A000BC228BBD228BBE228BBF22ED14B40F001B
:1052B000506A900252C175F003A4C58325F0C583DE
:1052C000734152EE4152F14152F44152F74152FAC8
:1052D0004152FD415300415303415306415309419B
:1052E000530C41530F4153124153154153188BEB4B
:1052F000228BEC228BED228BEE228BEF228BF32282
:105300008BF4228BF5228BF6228BF7228BFB228BE0
:10531000FC228BFD228BFE22AF038FFF22E52B6444
:1053200001452A6002801AAB25AA26A92751000C44
:10533000904002E6F0E0C394014006E0D3940940B7
:1053400009E4F528F529752C3022904002E6E0ABFF
:1053500021AA22A92351003E7528007529019040F9
:1053600002E6E075F040A4FFA3E5F0F0A3EFF0E45F
:10537000904002E5F0904002E6E07E002405F9EE60
:105380003403FA7B4151000CFF904002E5E0C39FDB
:105390005066904002E7E0FEA3E0FF7C007D1551DF
:1053A000005274002FF974403EFA7B01C003C00222
:1053B000C001AB21AA22A923AE28AF29E92FF9EA1F
:1053C0003EA801FCAD03D001D002D0037E007F09CE
:1053D00051041C74092529F529E43528F528904045
:1053E00002E8E004F07007904002E7E004F090402B
:1053F00002E5E004F0415375E52945287003752C5A
:105400007022E52B6401452A6002801AAB25AA268A
:10541000A92751000C904002EFF0E0C39401400630
:10542000E0D394094009E4F528F529752C3022AB26
:1054300025AA26A92751000CAB21AA22A923510095
:105440003E752800752901904002EFE075F040A4F8
:10545000FFA3E5F0F0A3EFF0E4904002EEF09040FF
:1054600002EFE07E002405F9EE3403FA7B4151009F
:105470000CFF904002EEE0C39F5062904002F0E0CB
:10548000FEA3E0FF7C007D1551005274122FF974C9
:10549000403EFA7B01C003C002C001AB21AA22A991
:1054A00023AE28AF29E92FF9EA3EA801FCAD03D0CD
:1054B00001D002D0037E007F0151041C0529E5299B
:1054C00070020528904002F1E004F070079040025D
:1054D000F0E004F0904002EEE004F08081E5294520
:1054E000287003752C702290400086EFF0E0FF7C5E
:1054F0000024FBF9EC3402FA7B41E451003EEF64F6
:105500000970034155CAE5186003751A01904000FF
:1055100086E0FFC39401FE7401A806088002C3332D
:10552000D8FC904002AAF07B417A0279ABC003C05C
:1055300002C00109904000527441F0A37402F0A32C
:10554000E9F0D001D002D0035133EF904002AAE03D
:10555000FFA3E05FFF904002AAE0B507149040006F
:1055600086E07E0024FBF9EE3402FA7B417402806F
:1055700056904002AAE0FF904002ACE05F701490A9
:10558000400086E07E0024FBF9EE3402FA7B417491
:1055900001803490400086E0FF7DCC516C759040D6
:1055A0000086E0FF7DB4516C7590400086E0FF51AD
:1055B000418CEF701590400086E07E0024FBF9EEF0
:1055C0003402FA7B41740351003E22F58375934007
:1055D000E0FBA3E0FAA3E0F990400072EBF0A3EA4D
:1055E000F0A3E9F0E490400384F090400072E0FB07
:1055F000A3E0FAA3E0F990400384E0FFE92FF9E487
:105600003AFA51000C601690400384E0D394644051
:105610000341569B90400384E004F080CD9040030A
:1056200084E0FF90400389E0FCA3E0FDEF2DFFE460
:105630003CFED3EF9440EE941F506090400384E012
:10564000FF7E00C006C00790400389E0FEA3E0FF94
:10565000E42FFFEE3420FEE433FDE433FCE42FFFBF
:10566000E43EFEED3401FDE43CA907AA06AB05A823
:1056700007AC0690400072E0FBA3E0FAA3E0F9D08B
:1056800007D00651041C90400384E0FF9040038A39
:10569000E02FF090400389E03400F0229040003F7A
:1056A000EBF0A3EAF0A3E9F0E55DB401037F01228A
:1056B000D2B390400045E07002A3E0700CC2B390FA
:1056C00002088874F0F07F0022C2AF900205557482
:1056D000AAF0900202AA7455F09002055574A0F049
:1056E00090400042E0FBA3E0FAA3E0F951000CFF78
:1056F0009040003FE0FBA3E0FAA3E0F9EF51003E49
:10570000D2AFE4F55EE55EC394C8504F90400042CE
:10571000E0FBA3E0FAA3E0F951000CFF9040003F4A
:10572000E0FBA3E0FAA3E0F951000CB50729904093
:105730000046E024FFF090400045E034FFF0904048
:105740000040E475F0015100F290400043E475F030
:10575000015100F24156B2055E80AAC2B390020820
:105760008874F0F07F0122E52B6404452A60034130
:10577000581BAB25AA26A92751000C9040039FF087
:10578000E07044AB25AA26A927E92401F9E43AFAF6
:1057900051000C90400396F0AB25AA26A927E924D6
:1057A00002F9E43AFA51000C90400397F0AB25AAB5
:1057B00026A927E92403F9E43AFA51000C904003A2
:1057C00098F051669D804B9040039FE06401704BC0
:1057D000AB25AA26A927E92401F9E43AFA51000CDD
:1057E00090400399F0AB25AA26A927E92402F9E401
:1057F0003AFA51000C9040039AF0AB25AA26A9274B
:10580000E92403F9E43AFA51000C9040039BF0516B
:1058100066EAE4F528F529752C7022E4F528F529C7
:10582000752C3022E490400389F0A3F07B837A0545
:1058300079C35155D87B837A0579FE5155D890406C
:105840000348E075F00E84E5F075F003A42415F527
:1058500082E434005155CB7B837A06790E5155D8BA
:1058600090400349E0540775F003A42400F582E456
:1058700034005155CB7B837A06791E5155D87B4134
:105880007A03794A7D01514BD87B837A06792E5170
:1058900055D87B417A03794B7D01514BD87B837A74
:1058A00006793E5155D87B417A03794D7D04514BA1
:1058B000D87B837A06794E5155D87B837A06795EF8
:1058C0005155D87B837A0679675155D87B837A0600
:1058D000796A5155D87B837A0579C34155D8D3105D
:1058E000AF01C3C0D09040006E5103239040006EC2
:1058F000E0FCA3E0FDA3E0FEA3E0FFAB56AA55A9A0
:1059000054A853C35102B4504EE5562401FFE43568
:1059100055FEE43554FDE43553FCC004C005C00613
:10592000C0079040006EE0F8A3E0F9A3E0FAA3E01E
:10593000FBC374FF9BFF74FF9AFE74FF99FD74FF15
:1059400098FCD003D002D001D000EF2BFFEE3AFE3E
:10595000ED39FDEC38801F9040006EE0F8A3E0F9CF
:10596000A3E0FAA3E0FBC3E5569BFFE5559AFEE5ED
:105970005499FDE55398FC904003785103239040DF
:105980000378E0FCA3E0FDA3E0FEA3E0FFD0D0920B
:10599000AF22E55D700B90400349E020E303415ADC
:1059A000429040030EE070077D017F0951362BE5E0
:1059B0001D6003E4F514E51414604014605A2402D9
:1059C0006003415A42E4F51D904002E304F0E47F95
:1059D00001FEFDFC904002E3E0C39401F9F851029E
:1059E000D8AB07AF1EEB5FFFEF6004751401229088
:1059F0004002E3E004F0E0B409D422904002E3E086
:105A0000FF513A51904002E3E0FF7D0151362BBF38
:105A10000102801275140222904002E3E0FFE4FDCF
:105A200051362BBF011CE47F01FEFDFC904002E3D8
:105A3000E0C39401F9F85102D85102A7EF521EE4D5
:105A4000F514229040007FEEF0A3EFF09040007F2D
:105A5000E0FEA3E07806CEC313CE13D8F99040023F
:105A6000CB5133DF904002CBE0FF7D55516C75E4A4
:105A7000904002CCF09040007FE0FEA3E0FF7C006D
:105A80007D1551005274002FF974403EFA7B01904D
:105A90004002CCE07E0029F9EE3AFA51000CFD906C
:105AA0004002CBE0FF516C75904002CCE004F0E086
:105AB000C3940840C0904002CBE0FF514D19516C97
:105AC0009AC004C005C006C0079040007FE0FEA356
:105AD000E0FF7C007D1551005274092FF974403E9F
