:020000040002F8
:10000000020207AE0002000000037FF0EB7002E77F
:100010002289828A831410E704F593E022F593E4A1
:100020009322BB000327F722F8EB89828A831410FE
:10003000E706F593E028F022F593E4932822BB002D
:1000400002F722BB8000500989828A838B93159323
:10005000F022EF8DF0A4A8F0CF8CF0A428CE8DF084
:10006000A42EFE22BC000BBE0029EF8DF084FFAD54
:10007000F022E4CCF875F008EF2FFFEE33FEEC33FE
:10008000FCEE9DEC984005FCEE9DFE0FD5F0E9E4FA
:10009000CEFD22EDF8F5F0EE008420D21CFEADF08E
:1000A00075F008EF2FFFED33FD4007985006D5F0AF
:1000B000F222C398FD0FD5F0EA22C2D5EC30E70951
:1000C000B2D5E4C39DFDE49CFCEE30E716B2D5E466
:1000D000C39FFFE49EFE12020064C3E49DFDE49C06
:1000E000FC80041202006430D507C3E49FFFE49E45
:1000F000FE22C5F0F8A3E028F0C5F0F8E5821582ED
:1001000070021583E038F022A3F8E0C5F025F0F086
:10011000E582158270021583E0C838F0E822EB70A2
:1001200007E7F5F009E7192289828A831410E708A6
:10013000F593E0F5F0A3E022F593E493F5F0740174
:100140009322BB000B09C5F027F7C5F01937F7223A
:10015000F8EB89828A831410E707F593E80202001E
:10016000F2F59374019325F0F5F0E4933822BB0087
:1001700006F709A7F01922BB8000500D89828A83F7
:100180008B931593F0E5F0A3F022E88FF0A4CC8BCD
:10019000F0A42CFCE98EF0A42CFC8AF0EDA42CFC3D
:1001A000EA8EF0A4CDA8F08BF0A42DCC3825F0FD7C
:1001B000E98FF0A42CCD35F0FCEB8EF0A4FEA9F075
:1001C000EB8FF0A4CFC5F02ECD39FEE43CFCEAA4C1
:1001D0002DCE35F0FDE43CFC2275F008758200EF71
:1001E0002FFFEE33FECD33CDCC33CCC58233C58269
:1001F0009BED9AEC99E58298400CF582EE9BFEED22
:100200009AFDEC99FC0FD5F0D6E4CEFBE4CDFAE4F0
:10021000CCF9A88222B800C1B90059BA002DEC8BE4
:10022000F084CFCECDFCE5F0CBF97818EF2FFFEEC0
:1002300033FEED33FDEC33FCEB33FB10D703994079
:1002400004EB99FB0FD8E5E4F9FA227818EF2FFFB9
:10025000EE33FEED33FDEC33FCC933C910D7059BFB
:10026000E99A4007EC9BFCE99AF90FD8E0E4C9FA57
:10027000E4CCFB2275F010EF2FFFEE33FEED33FDE3
:10028000CC33CCC833C810D7079BEC9AE899400A06
:10029000ED9BFDEC9AFCE899F80FD5F0DAE4CDFB84
:1002A000E4CCFAE4C8F922CFF4CFCEF4CECDF4CD2D
:1002B000CCF4CC22EB9FF5F0EA9E42F0E99D42F0AF
:1002C000E89C45F022E8600FECC313FCED13FDEE53
:1002D00013FEEF13FFD8F122E8600FEFC333FFEEF8
:1002E00033FEED33FDEC33FCD8F122EB7006E9F878
:1002F0000202047C89828A831410E706F5930202C5
:100300000488F59302020494BB0006E9F802020493
:10031000A4BB8000500C89828A838B9315930202C0
:10032000032322ECF0A3EDF0A3EEF0A3EFF022EB19
:100330007006E9F8020204B089828A831410E70685
:10034000F593020204C2F593020204D4BB001CD050
:1003500093D0F0D0E0F8D0E0C9FBD0E0FAD0E0CB09
:10036000C8C0E0C0F0C093020204B9BB80005022B4
:10037000D093D0F0D0E0F8D0E0C9F582D0E0CAF553
:1003800083D0E0CB14C8C0E0C0F0C09388930202D1
:1003900004CBD093D083D082D0E0D0E0D0E0E4731F
:1003A000D093D083D082F8E4937012740193700DCF
:1003B000A3A393F8740193F5828883E47374029382
:1003C0006860EFA3A3A380DFEF4E6022EF60010E11
:1003D000EDBB0007F709DFFCA9F022BB8000500E3F
:1003E00089828A838B931593F0A3DFFCDEFA22EBDC
:1003F0007008E709F608DFFA801B89828A831410E7
:10040000E70AF593E0A3F608DFFA8009F593E49391
:10041000A3F608DFF9ECFAA9F0EDFB2288F0EF6013
:10042000010E4E60F088F0ED60C51410E7E7CB7068
:100430000E88828C838B93E709F0A3DFFA80D614B1
:1004400010E71C88848C858B9589828A83F5937547
:100450008620E0F0A3A3DFFADEF875860080B68878
:10046000848C858B9589828A83F593758620E493A5
:10047000F0A3A3DFF9DEF77586008099E6FC08E6B5
:10048000FD08E6FE08E6FF22E0FCA3E0FDA3E0FE97
:10049000A3E0FF22E493FC740193FD740293FE74C5
:1004A0000393FF22ECF608EDF608EEF608EFF622CD
:1004B000E6FB08E6FA08E6F922EBF608EAF608E9B0
:1004C000F622E0FBA3E0FAA3E0F922EBF0A3EAF0C6
:1004D000A3E9F022E493FB740193FA740293F922E6
:1004E0004842425F5353544154004842425F4C5388
:1004F00054415400554E495F50524F4D00554E499E
:100500005F464C415348004A50445F50524F4D00A3
:100510004A50445F464C415348005044535F505248
:100520004F4D005044535F464C4153480043435F96
:1005300050524F4D0043435F464C4153480055478E
:100540005F50524F4D0055475F464C415348004D58
:100550005F50524F4D004D5F464C41534800504F45
:100560005745525F4F4E0052455345545F434D44EB
:100570000052455345545F50474D00434D444A5542
:100580004D505F46524F4D5F454C53450050474DCF
:100590004A554D505F46524F4D5F454C53450043C1
:1005A0004D444A554D505F46524F4D5F53454C4662
:1005B0000050474D4A554D505F46524F4D5F534591
:1005C0004C46000A3D3D3D3D3D3D3D3D3D3D3D3DB3
:1005D0003D3D3D3D3D3D3D3D3D3D3D3D3D3D3D3D4B
:1005E0003D3D3D3D3D3D3D3D3D3D3D3D3D3D3D3D3B
:1005F0003D3D3D3D3D3D3D3D3D3D3D3D3D000A20B8
:1006000052756E6E696E674D6F64653A20000A2000
:100610005265736574526561736F6E3A20000A20EB
:100620004E6577626F726E416464723A20000A20F0
:100630004C6F676963616C416464723A20000A2000
:1006400056657273696F6E4E756D623A20000A20AE
:10065000436F6D70696C65446174653A2000303594
:100660002F32372F3038002C200031363A35383AC7
:100670003031000A5B436F6E666967457865635D7C
:100680003A200046696C6553746172744164647207
:100690003D002C2046696C65456E64416464723D82
:1006A000000A5B436F6E666967457865635D3A2053
:1006B000496E76616C69642066696C65207374614B
:1006C000727420616464726573732E000A5B436FF9
:1006D0006E666967457865635D3A20496E76616C40
:1006E00069642066696C6520656E6420616464726B
:1006F0006573732E000A5B436F6E666967457865A4
:10070000635D3A20496E76616C696420636F6D6D3C
:10071000616E64206C656E6774682E09000A5B4325
:100720006F6E666967457865635D3A20436F6E66F4
:100730006967206C6F67207370616365206973203F
:1007400066756C6C2E000A2D2D2D2D2D2D2D2D2036
:10075000000A436D646C656E203A20000A436D64A4
:10076000547970653A20000A436D64446174613ABB
:1007700020000A5265734C656E203A20000A5265CB
:1007800073466C61673A20004B4F004F4B000A5292
:100790006573446174613A20004E455854004552D7
:1007A000524F520041424F525400454E440075C7CB
:1007B000AA75C75575923F75C7AA75C75575A21812
:1007C00075C7AA75C755759D0275C7AA75C75575B2
:1007D000C6A0787FE4F6D8FD75815F0202080902A1
:1007E000026C76E493A3F85407240CC8C333C454B2
:1007F0000F4420C8834004F456800146F6DFE480AD
:100800000C0102040810204080900209C2E47E011D
:100810009360CCA3FF543F30E509541FFEE493A33B
:1008200060010ECF54E0B4E026E493FBA3E493FA16
:10083000A3E493F9A3E493C083C0821202003ED0E4
:1008400082D083A309E970010ADFEADEE880BE54A2
:10085000C025E0602B408CE493A3FAE493A3F8E472
:1008600093A3C8C582C8CAC583CA759340F075935F
:1008700002A3C8C582C8CAC583CADFE3DEE1808D92
:10088000E493A3F8E493A34003F68001F208DFF4B5
:100890000202080D0A5B436B73436F6D70757465DC
:1008A0005D3A2046696C654C6F636174696F6E20B8
:1008B0003D000A5B436B73436F6D707574655D3A01
:1008C0002046696C655374617274416464723D00C2
:1008D0000A5B436B73436F6D707574655D3A2046B8
:1008E000696C65456E644164647220203D000A5B5A
:1008F000436B73436F6D707574655D3A2046696C28
:1009000065436865636B53756D313D000A5B436BEE
:1009100073436F6D707574655D3A2046696C6553FD
:1009200074617274416464722069732077726F6EAF
:10093000672E000A5B436B73436F6D707574655D62
:100940003A2046696C65456E64416464722069733F
:100950002077726F6E672E000A5B436B73436F6D77
:10096000707574655D3A2046696C65436865636BB4
:1009700053756D323D000A5B416463526561645D8D
:10098000204368616E6E656C3D000A5B4164635292
:100990006561645D204368697053656C3D000A5B66
:1009A000416463526561645D20436F6E74726F6C65
:1009B0003D000A5B416463526561645D20523132DF
:1009C0003D00602A00158304E08304EA8304F48375
:1009D00004FD83050783051083051A83052383051A
:1009E0002D83053583053E83054683054F830556D4
:1009F00055000083055E83056783057183057B834E
:100A0000058D83059F8305B10030352F32372F3098
:100A1000380031363A35383A303100AF1FEF75F0D3
:100A20001CA424AEF9740035F0FA7B4151032F90D9
:100A3000400097EBF0A3EAF0A3E9F090400097E0C4
:100A4000FBA3E0FAA3E02406F9E43AFA51000C54BF
:100A5000F0FFBFF03DAF1FEF75F01CA424B1F97497
:100A60000035F0FA7B4151032F90400097EBF0A343
:100A7000EAF0A3E9F090400097E0FBA3E0FAA3E0DE
:100A80002406F9E43AFA51000C54F064F070034182
:100A9000124990400097E0FBA3E0FAA3E02402F99A
:100AA000E43AFA51000C9040009AF090400097E030
:100AB000FBA3E0FAA3E02406F9E43AFA51000CC4DF
:100AC000540F9040009BF09040009AE0540F9040EB
:100AD000009CF09040009BE0700341111B9040008F
:100AE0009AE0546024E07003410C2D24E07003412F
:100AF0000DF024E07003410F382460600341124977
:100B0000AF1F7E00749E2FF9EE3400FA7B41510036
:100B10000C64C06014AF1F749E2FF9EE3400FA51BC
:100B2000000C64806003410D2BAF1F7E00749E2F6C
:100B3000F9EE3400FA7B41748051003EAF1F748E91
:100B40002FF9EE3401FA7B4151000CFF9040009CDC
:100B5000E06F60034111AAAF1FEF75F01CA424BA27
:100B6000F9740035F0FA7B4151011EFF9040009B63
:100B7000E02FFFE435F0FED3EF9400EE9420400325
:100B8000410CADAF1FEF75F01CA424B7F97400350C
:100B9000F0FA7B4151032FC003C002C00190400016
:100BA00097E0FBA3E0FAA3E02407F9E43AFA9040C7
:100BB000004AEBF0A3EAF0A3E9F09040009BE0903C
:100BC00040004DF0D001D002D0035167F8904000B2
:100BD0009BE0FDAF1FEF75F01CA424BAF97400353B
:100BE000F0FA7B41E48DF05101429040009BE0FD22
:100BF000AF1FEF75F01CA424B7F9740035F0FA09A3
:100C0000E970010AE48DF05101429040009AE054ED
:100C100004FFE51F04FD513F98EF9040009C30E138
:100C200006E04430411115E04410411115AF1F7E1C
:100C300000749E2FF9EE3400FA7B4151000C64C021
:100C40006014AF1F749E2FF9EE3400FA51000C644B
:100C5000806003410D2BAF1F7E00749E2FF9EE3490
:100C600000FA7B4174A051003EAF1F748E2FF9EE45
:100C70003401FA7B4151000CFF9040009CE06F6012
:100C8000034111AAAF1FEF75F01CA424BAF9740038
:100C900035F0FA7B4151011EFF9040009BE02FFF91
:100CA000E435F0FED3EF9400EE94204004A341110C
:100CB000AAAF1FEF75F01CA424B7F9740035F0FA41
:100CC0007B4151032FC003C002C00190400097E058
:100CD000FBA3E0FAA3E02407F9E43AFA9040004AC3
:100CE000EBF0A3EAF0A3E9F09040009BE090400015
:100CF0004DF0D001D002D0035167F89040009BE046
:100D0000FDAF1FEF75F01CA424BAF9740035F0FA9A
:100D10007B41E48DF05101429040009AE05404FF81
:100D2000E51F04FD513F98EF30E1079040009C41E2
:100D300011AA90400377E004F0AF1FEF75F01CA4F8
:100D400024BAF9740035F0FA7B4151011EF52B8568
:100D5000F02AAF1FEF75F01CA424B4F9740035F02D
:100D6000FA51032F8B258A268927AF1FEF75F01CB8
:100D7000A424C2F9740035F0FA7B4151032F8B2172
:100D80008A228923AF1F7E0074A62FF9EE3400FA61
:100D90007B4151000CFF515B8AAF1FEF75F01CA423
:100DA00024C8F9740035F0FA7B41E5288529F05113
:100DB000016EAB21AA22A923C003C002C001AF1F4C
:100DC000EF75F01CA424C5F9740035F0FA7B41518D
:100DD000034CD3E5299408E528940040034110F51D
:100DE000E52945289040009C7003411112411109EA
:100DF000AF1F7E00749E2FF9EE3400FA7B4174C061
:100E000051003E9040009CE0FFAE1FEE7C00248E1F
:100E1000F9EC3401FA7B41EF51003E90400097E03D
:100E2000FBA3E0FAA3E02407F9E43AFA51000CFF2F
:100E3000AE1FEE24A6F9EC3400FA7B41EF51003EE0
:100E4000AF1F7E0074A62FF9EE3400FA51000CC4D7
:100E500013135403FFAE1FEE248EF9EC3401FA7B1A
:100E60004151000CFE13131354036F6003410FB57F
:100E70009040009BE014F0AF1FEF75F01CA424B469
:100E8000F9740035F0FA7B4151032FC003C002C052
:100E90000190400097E0FBA3E0FAA3E02408F9E406
:100EA0003AFA9040004AEBF0A3EAF0A3E9F0904050
:100EB000009BE09040004DF0D001D002D00351677C
:100EC000F89040009BE0FDAF1FEF75F01CA424BA22
:100ED000F9740035F0FA7B41E48DF051016EAF1FDB
:100EE000EF75F01CA424B4F9740035F0FA51032F07
:100EF0009040009BE07E0029F9EE3AFAC003C00260
:100F0000C001AF1FEF75F01CA424B7F9740035F0D1
:100F1000FA7B4151034C9040009AE05404FFE51FD6
:100F200004FD513F98EF9040009C30E105E04430D3
:100F30008003E04410411115AF1F7E00749E2FF90D
:100F4000EE3400FA7B4174E051003E9040009CE09A
:100F5000FFAE1FEE7C00248EF9EC3401FA7B41EFEA
:100F600051003E90400097E0FBA3E0FAA3E0240785
:100F7000F9E43AFA51000CFFAE1FEE24A6F9EC3466
:100F800000FA7B41EF51003EAF1F7E0074A62FF99F
:100F9000EE3400FA51000CC413135403FFAE1FEEDD
:100FA000248EF9EC3401FA7B4151000CFE1313132B
:100FB00054036F600A9040009CE04430411115904A
:100FC00040009BE014F0AF1FEF75F01CA424B4F9AF
:100FD000740035F0FA7B4151032FC003C002C001F9
:100FE00090400097E0FBA3E0FAA3E02408F9E43A7C
:100FF000FA9040004AEBF0A3EAF0A3E9F090400039
:101000009BE09040004DF0D001D002D0035167F832
:101010009040009BE0FDAF1FEF75F01CA424BAF9CF
:10102000740035F0FA7B41E48DF051016E90400080
:101030009AE05404FFE51F04FD513F98EF30E10AA8
:101040009040009CE0443041111590400377E0044B
:10105000F0AF1FEF75F01CA424BAF9740035F0FA54
:101060007B4151011EF52B85F02AAF1FEF75F01C57
:10107000A424B4F9740035F0FA51032F8B258A2685
:101080008927AF1FEF75F01CA424C2F9740035F056
:10109000FA7B4151032F8B218A228923AF1F7E00C7
:1010A00074A62FF9EE3400FA7B4151000CFF515B1E
:1010B0008AAF1FEF75F01CA424C8F9740035F0FA4C
:1010C0007B41E5288529F051016EAB21AA22A92395
:1010D000C003C002C001AF1FEF75F01CA424C5F906
:1010E000740035F0FA7B4151034CD3E5299408E5AF
:1010F000289400400A9040009CE044504111F6E5DD
:101100002945289040009C6009E04470FFAD2941CA
:101110001246E0452CFFE4FD4112469040009AE063
:10112000546024E0700341123C24E0700341123CFF
:1011300024E0700341123C24606003411249AF1F58
:101140007E00749E2FF9EE3400FA7B4151000C644E
:10115000E0602DAF1F749E2FF9EE3400FA51000CA1
:1011600064A0601CAF1F749E2FF9EE3400FA51008A
:101170000C600D9040009CE04430FFE4FD411246BD
:10118000AF1F7E00749E2FF9EE3400FA7B41E451CC
:10119000003EAF1F748E2FF9EE3401FA7B415100EF
:1011A0000CFF9040009CE06F6009E04430FFE4FDDC
:1011B0004112469040009AE05404FFE51F04FD519F
:1011C0003F98EF30E10C9040009CE04430FFE4FD9C
:1011D0008074AF1FEF75F01CA424C8F9740035F0BB
:1011E000FA7B4151011ED39408E5F09400400C9025
:1011F00040009CE04410FF7D08804BAF1FEF75F06E
:101200001CA424C8F9740035F0FA7B4151011E4535
:10121000F0601DAF1FEF75F01CA424C8F9740035F1
:10122000F0FA51011EFD9040009CE04430FF801612
:101230009040009CE04430FFE4FD800A9040009C18
:10124000E04430FFE4FD5139C7227B827AFF790008
:1012500051000CF5247B0479FF51000CF4FF195167
:10126000000CB5070751000CF52080037520FF9096
:10127000400375E524F0A3E520F0E49040008FF0F2
:101280009040008FE07E00249EF9EE3400FA7B410E
:10129000746051003E9040008FE0248EF9EE3401DE
:1012A000FA7B4174FF51003E9040008FE024A6F984
:1012B000EE3400FA7B4174FF51003E9040008FE015
:1012C00075F010A42410F9741035F0FA7B41C003B6
:1012D000C002C001E075F01CA424AEF9740035F022
:1012E000FA7B4151034C9040008FE075F010A4242C
:1012F00010F9741135F0FA7B41C003C002C001E05F
:1013000075F01CA424B1F9740035F0FA7B41510347
:101310004C9040008FE0C43354E0FEE42400FFE42E
:101320003EFEE43404FDE433FCE42FFFE43EFEED36
:101330003401FDE43CA907AA06AB05C003C002C006
:1013400001E075F01CA424B4F9740035F0FA7B4177
:1013500051034C9040008FE0540375F010A424A07A
:10136000F9741035F0FA7B41C003C002C001E0758A
:10137000F01CA424BCF9740035F0FA7B4151034CF5
:101380009040008FE0540375F010A424A0F974116C
:1013900035F0FA7B41C003C002C001E075F01CA427
:1013A00024BFF9740035F0FA7B4151034C904000A2
:1013B0008FE0C43354E0FEE42400FFE43EFEE43456
:1013C00004FDE433FCE42FFFE43EFEED3401FDE4D4
:1013D0003CFCE42FFFE43EFEED3401FDE43CA907B4
:1013E000AA06AB05C003C002C001E075F01CA4242E
:1013F000C2F9740035F0FA7B4151034C9040008FE4
:10140000E004F0E06408600341128075C7AA75C764
:101410005575A309516FC575C7AA75C75575E309F9
:10142000516FC575C7AA75C75575A301516FC575AD
:10143000C7AA75C75575E301516FC5E49040100008
:10144000F090401100F090401001F090401101F038
:1014500090401002F090401102F090401003F09084
:10146000401103F090401004F090401104F09040BF
:1014700010057414F090401105F09040100674FFB0
:10148000F090401106F090401007F090401107F0E6
:10149000904010087415F090401108F09040100929
:1014A00074FFF090401109F09040100AF090401144
:1014B0000AF0E49040100BF09040110BF0904010B7
:1014C0000C74FFF09040110CF09040100DF0904023
:1014D000110DF09040100EF09040110EF090401061
:1014E0000FF09040110FF0E4F5ABF5EBF5ACF5EC37
:1014F000F5ADF5EDF5AEF5EEF5AFF5EFF5B3F5F3CA
:10150000F5B4F5F4F5B5F5F5F5B6F5F6F5B7F5F787
:10151000F5BBF5FBF5BCF5FCF5BDF5FDF5BEF5FE3F
:10152000F5BFF5FF9040008F04F09040008FE0750C
:10153000F010A42402F9741035F0FA7B41E4510054
:101540003E9040008FE075F010A42402F97411352C
:10155000F0FA7B41E451003E9040008FE075F010BE
:10156000A42403F9741035F0FA7B41E451003E9055
:1015700040008FE075F010A42403F9741135F0FADF
:101580007B41E451003E9040008FE075F010A424B0
:1015900004F9741035F0FA7B41E451003E904000AC
:1015A0008FE075F010A42404F9741135F0FA7B4132
:1015B000E451003E9040008FE075F010A42405F93E
:1015C000741035F0FA7B41E451003E9040008FE00A
:1015D00075F010A42405F9741135F0FA7B41E4513B
:1015E000003E9040008FE075F010A42406F97410BE
:1015F00035F0FA7B41E451003E9040008FE075F0F9
:1016000010A42406F9741135F0FA7B41E451003E30
:101610009040008FE075F010A42407F9741035F0A5
:10162000FA7B41E451003E9040008FE075F010A439
:101630002407F9741135F0FA7B41E451003E9040E3
:10164000008FE075F010A42408F9741035F0FA7BCF
:1016500041E451003E9040008FE075F010A4240852
:10166000F9741135F0FA7B41E451003E9040008F4F
:10167000E075F010A42409F9741035F0FA7B41E408
:1016800051003E9040008FE075F010A42409F974D9
:101690001135F0FA7B41E451003E9040008FE07537
:1016A000F010A4240AF9741035F0FA7B41E45100DB
:1016B0003E9040008FE075F010A4240AF9741135B3
:1016C000F0FA7B41E451003E9040008FE075F0104D
:1016D000A4240BF9741035F0FA7B41E451003E90DC
:1016E00040008FE075F010A4240BF9741135F0FA66
:1016F0007B41E451003E9040008FE075F010A4243F
:101700000CF9741035F0FA7B41E451003E90400032
:101710008FE075F010A4240CF9741135F0FA7B41B8
:10172000E451003E9040008FE075F010A4240DF9C4
:10173000741035F0FA7B41E451003E9040008FE098
:1017400075F010A4240DF9741135F0FA7B41E451C1
:10175000003E9040008FE075F010A4240EF9741044
:1017600035F0FA7B41E451003E9040008FE075F087
:1017700010A4240EF9741135F0FA7B41E451003EB7
:101780009040008FE004F0E06410600341152AE40B
:101790009040008FF09040008FE0C3940450067F8B
:1017A000017D0180047F007D009040008FE075F096
:1017B0001CA424AEF9740035F0FA7B4151032FE9E3
:1017C0002402F9E43AFAED51003E9040008FE054D3
:1017D00003FDE075F01CA424AEF9740035F0FA7B2B
:1017E0004151032FE92403F9E43AFAED51003E9008
:1017F00040008FE0C394045006AF24AD078004AFCF
:1018000020AD079040008FE075F01CA424AEF97461
:101810000035F0FA7B4151032FE92404F9E43AFA48
:10182000ED51003E9040008FE075F01CA424AEF90D
:10183000740035F0FA7B4151032FE92405F9E43AAD
:10184000FA740151003E9040008FE075F01CA42412
:10185000AEF9740035F0FA7B4151032FE92406F903
:10186000E43AFA74F651003E9040008FE0C39404CD
:1018700050067F057D0580047F047D049040008F25
:10188000E075F01CA424B1F9740035F0FA7B4151E5
:10189000032FE92402F9E43AFAED51003E904000AA
:1018A0008FE05403FDE075F01CA424B1F9740035F9
:1018B000F0FA7B4151032FE92403F9E43AFAED51A0
:1018C000003E9040008FE0C394045006AF24AD0763
:1018D0008004AF20AD079040008FE075F01CA42479
:1018E000B1F9740035F0FA7B4151032FE92404F972
:1018F000E43AFAED51003E9040008FE075F01CA4F0
:1019000024B1F9740035F0FA7B4151032FE9240525
:10191000F9E43AFA740151003E9040008FE075F00E
:101920001CA424B1F9740035F0FA7B4151032FE96E
:101930002406F9E43AFA74F651003E9040008FE034
:1019400004F0E064086003411795E524D394034054
:101950001875AB8075EB8075AC8075EC8075AD80CB
:1019600075ED8075AE8075EE80E520D39403401D43
:10197000E520F4601875AF8075EF8075B38075F35E
:101980008075B48075F48075B58075F58075C7AACB
:1019900075C755E4F5A3516FC575C7AA75C755E45A
:1019A000F5E3416FC590400085EEF0A3EFF0904065
:1019B0000085E0FEA3E07806CEC313CE13D8F990DD
:1019C0004002D75135517D55516EF8E4904002D612
:1019D000F090400085E0FEA3E0FF7C007D15510003
:1019E0005274002FF974403EFA7B01904002D6E019
:1019F0007E0029F9EE3AFA51000CFD516EF8904044
:101A000002D6E004F0E0C3940840C67DBE516EF8F3
:101A1000E4F55D904002D6F0904002D7E0FF516BB4
:101A200061904002D6E07C0024D8F9EC3402FA7BC5
:101A300041EF51003E904002D6E07E0024D8F9EEFE
:101A40003402FA51000C655D249BF9EE3401FA7BF7
:101A50004151000CF55D904002D6E004F0E0C394E3
:101A60000940B5904002D8E0904002E3F090400277
:101A7000D9E0904002E2F0904002DCE0904002E6C3
:101A8000F0904002DEE0904002E4F0904002DFE09F
:101A9000904002E5F0904002E3E0FFC00790400074
:101AA00085E0FEA3E0FF7C007D15510052AC06AD41
:101AB00007740D2DF974403CFA7B01D0E051003ED3
:101AC000904002E2E0FFC007740E2DF974403CFA2A
:101AD000D0E051003E904002E6E0FFC00790400099
:101AE00085E0FEA3E0FF7C007D15510052AC06AD01
:101AF00007740F2DF974403CFAD0E051003E90403D
:101B000002E4E0FFC00774102DF974403CFAD0E005
:101B100051003E904002E5E0FFC00790400085E0A4
:101B2000FEA3E0FF7C007D15510052AC06AD0774AA
:101B3000112DF974403CFAD0E051003E74122DF999
:101B400074403CFA748051003E90400085E0FEA352
:101B5000E0FF7C007D1551005274132FF974403E54
:101B6000FA748075F00051016EE55D6003411E7CE2
:101B700074002FF974403EFA7B0151000C64106030
:101B800003411C43904002E2E07009A3E064AA70A4
:101B900003411E7C904002E5E064106003411E7C1E
:101BA000904002E2E06007A3E0D39480500E9040A2
:101BB00002E2E0702EA3E0D3947F5027904002E32E
:101BC000E0FFC00790400085E0FEA3E0FF7C007DC1
:101BD0001551005274122FF974403EFA7B01D0E087
:101BE00051003E904002E3E054FE75F080A4FD9069
:101BF0004002E2E0C4333333548045F0FC904002AD
:101C0000E4E0FFA3E0C39FFFE49400FEEFC4F854B8
:101C10000FC868FFEEC454F0484CFEEF4DFFC007FC
:101C2000C00690400085E0FEA3E0FF7C007D1551DA
:101C3000005274132FF974403EFA7B01D0E0D0F0CB
:101C4000411E7990400085E0FEA3E0FF7C007D15F9
:101C500051005274002FF974403EFA7B0151000C80
:101C600064286003411E7C904002E6E07003411E40
:101C70007C904002E6E0546024E0601824E0601D9F
:101C800024E0602224606003411E7C904002E774DF
:101C900002F08019904002E77404F0801090400236
:101CA000E77408F08007904002E77410F09040025B
:101CB000E2E020E703411DA3E0FEA3E07C00240056
:101CC000FFEC3EFEC3EF9400FFEE9400FEE49401AF
:101CD000FDEC9400FCC004A905AA06AB07904002E5
:101CE000E7E0FD7C007E017F00510064E4FCFDD054
:101CF0000051018A904002D4EEF0A3EFF090400230
:101D0000D4E0FEA3E0FF7C007D805100BAD3ED94C7
:101D100040EC64809480904002D4E0FE4013A3E045
:101D2000FF7C007D805100BAEF2401FFE43EFE807D
:101D30000AA3E0FF7C007D805100BA904002D2EE01
:101D4000F0A3EFF0904002D2E0FEA3E0C39480EE57
:101D50006480947F50067F80C007800A904002D242
:101D6000E0A3E0FFC00790400085E0FEA3E0FF7C19
:101D7000007D15510052AC06AD0774122DF9744068
:101D80003CFA7B01D0E051003E904002D4E0FEA33B
:101D9000E0FF8FF0C00674132DF974403CFAD0E0D8
:101DA000411E79904002E2E0FEA3E07C002400FDA9
:101DB000EC3EFCC004C005904002E7E0FD7C007EE4
:101DC000017F00510064D005D004510052904002C0
:101DD000D4EEF0A3EFF0904002D4E0FEA3E0FF7C4D
:101DE000007D805100BAD3ED9440EC6480948090E3
:101DF0004002D4E0FE4013A3E0FF7C007D80510050
:101E0000BAEF2401FFE43EFE800AA3E0FF7C007DE0
:101E1000805100BA904002D2EEF0A3EFF090400261
:101E2000D2E0FEA3E0D3947FEE6480948040067FEE
:101E300080C007800A904002D2E0A3E0FFC0079074
:101E4000400085E0FEA3E0FF7C007D15510052AC10
:101E500006AD0774122DF974403CFA7B01D0E051B5
:101E6000003E904002D4E0FEA3E0FF8FF0C0067475
:101E7000132DF974403CFAD0E051016E22E4F55B79
:101E8000F55CE55E700B90400374E020E3037F0196
:101E9000227F007E807D037C00512340BF01037FB1
:101EA00001227B047A8079045102EB9040035C515B
:101EB000032379085102EB904003605103237B8395
:101EC0007A0679735157207B837A0679835157209C
:101ED0007B417A03795C7D04514C117B837A0679CE
:101EE000925157207B417A0379607D04514C1190C7
:101EF00040035CE0FCA3E0FDA3E0FEA3E0FF7B0069
:101F00007A8079037800C35102B460097B837A0632
:101F100079A141213C90400360E0FCA3E0FDA3E0F7
:101F2000FEA3E0FF7B0C7A8079037800D35102B4E2
:101F300040097B837A0679CC41213C9040035CE0E8
:101F4000FCA3E0FDA3E0FEA3E0240CFFE43EFEE4DE
:101F50003DFDE43CFC9040035C5103239040035C56
:101F6000A3A3E0FEA3E0FFC00690400360A3A3E0AC
:101F7000FEA3E0AC06D006C39FFFEC9ECF2401CFAA
:101F8000340090400364F0A3EFF090400364E0FE5F
:101F9000A3E04E700341233D9040035CE0FCA3E0CE
:101FA000FDA3E0FEA3E02400FFE43EFEED3401FDCE
:101FB000E43CA907AA06AB05C003C002C0017866CD
:101FC0007C037D41D001D002D0037E007F0251040A
:101FD0001C9040035CE0FCA3E0FDA3E0FEA3E02432
:101FE00002FFE43EFEE43DFDE43CFCE42FFFE43E62
:101FF000FEED3401FDE43CA907AA06AB05C003C011
:1020000002C00178687C037D41D001D002D0037EFC
:10201000007F0151041C90400366E0FEA3E024020F
:10202000FFE43EFE90400364E0FCA3E0FDD3EF9D9F
:10203000EE9C40177B837A0679F55157207B417AD5
:102040000379667D02514C117F012290400366E0C6
:10205000FEA3E0C39401F52BEE9400F52A90400313
:102060005CE0FCA3E0FDA3E0FEA3E02403FFE43E6C
:10207000FEE43DFDE43CFCE42FFFE43EFEED3401D4
:10208000FDE43CA907AA06AB058D258A268927759C
:10209000210275220075230090400368E0FF515B28
:1020A0008A9040035CE0F8A3E0F9A3E0FAA3E0FB28
:1020B00090400366E0FEA3E02402FFE43EFEE4FC61
:1020C000FDEB2FFFEA3EFEED39FDEC38FC904003BE
:1020D0005C51032390400364E0FEA3E0FF904003C3
:1020E00066E0FCA3E02402FDE43CFCC3EF9DFFEEB0
:1020F0009C90400364F0A3EFF0E5292401FEE43551
:102100002890400369F0A3CEF090400366E0FEA360
:10211000E0FF255CCFE55B3ECF2402CF3400FE908C
:10212000400369E0FCA3E02FFFEE3CCF2402CF3454
:1021300000C39480400C7B837A07791D5157207F20
:102140000122E52945287011E52C5460646060097E
:102150009040036B7401F08006E49040036BF07BC9
:10216000417A037966C003C001AE5BAF5C74002F97
:10217000F974203EA801FC7D02D001D0037E007FCF
:102180000251041C7402255CF55CE4355BF55B7B55
:10219000417A037968C003C001AE5BAF5C74002F65
:1021A000F974203EA801FC7D02D001D0037E007F9F
:1021B0000151041C055CE55C7002055BAE2AAF2B87
:1021C000AC5BAD5C74002DF974203CA801FC7D0271
:1021D000AB25AA26A92751041CE52B255CF55CE557
:1021E0002A355BF55B7B417A037969C003C001AE98
:1021F0005BAF5C74002FF974203EA801FC7D02D017
:1022000001D0037E007F0251041C7402255CF55C42
:10221000E4355BF55B7B417A03796BC003C001AEAB
:102220005BAF5C74002FF974203EA801FC7D02D0E6
:1022300001D0037E007F0151041C055CE55C700247
:10224000055BAE28AF29AC5BAD5C74002DF9742042
:102250003CA801FC7D02AB21AA22A92351041CE564
:1022600029255CF55CE528355BF55B7B837A07798E
:10227000465157207B837A0779515157207B417A09
:102280000379667D02514C117B837A07795C515743
:10229000207B417A0379687D01514C117B837A0759
:1022A0007967515720AB25AA26A927AD2B514C1190
:1022B0007B837A0779725157207B417A0379697D54
:1022C00002514C117B837A07797D5157209040034E
:1022D0006BE060087B837A07798880067B837A07C6
:1022E000798B5157207B837A07798E515720AB2108
:1022F000AA22A923AD29514C11E5294528600341A3
:102300001F8AE52C546024E0601724E0601B24E061
:10231000601F24606003411F8A7B837A077999805C
:10232000167B837A07799E800E7B837A0779A48057
:10233000067B837A0779AA515720411F8A7F0022A2
:102340009040006C510323E4FFFE7D06FC904000AA
:102350006CE0F8A3E0F9A3E0FAA3E0FBC35102B4F8
:1023600040037F01229040006CE0FCA3E0FDA3E06D
:10237000FEA3E02404FFE43EFEED3401FDE43CA9AD
:1023800007AA06AB055102EB8F308E2F8D2E8C2DB8
:102390009040006CE0FCA3E0FDA3E0FEA3E0240875
:1023A000FFE43EFEED3401FDE43CA907AA06AB05BF
:1023B0005102EB8F348E338D328C31E5342401FFA2
:1023C000E43533FEE5323401FDE43531A907AA06D0
:1023D000AB0551011EF53685F035E4F537F5387B50
:1023E000837A0879945157207B417A00796C7D0477
:1023F000514C117B837A0879B25157207B007A00C7
:10240000792D7D04514C117B837A0879D051572066
:102410007B007A0079317D04514C117B837A0879F5
:10242000EE5157207B007A0079357D02514C119096
:1024300040006CE0FCA3E0FDA3E0FEA3E0FFAB30B6
:10244000AA2FA92EA82DC35102B46050E4FFFE7D2F
:1024500002FC9040006CE0F8A3E0F9A3E0FAA3E0EE
:10246000FBC35102B4700890400374E04440F07F15
:10247000007E807D037C009040006CE0F8A3E0F9D2
:10248000A3E0FAA3E0FBC35102B4700890400374C8
:10249000E04420F07B837A09790C80769040006CD0
:1024A000E0FCA3E0FDA3E0FEA3E0240CFFE43EFE7D
:1024B000E43DFDE43CFCAB34AA33A932A831C3515E
:1024C00002B45054E4FFFE7D02FC9040006CE0F842
:1024D000A3E0F9A3E0FAA3E0FBC35102B4700890B3
:1024E000400374E04440F07F007E807D037C0090D8
:1024F00040006CE0F8A3E0F9A3E0FAA3E0FBC351CD
:1025000002B4700890400374E04420F07B837A09A1
:1025100079335157207F0122AF30AE2FAD2EAC2D35
:102520009040038A510323C3E5349530FFE533958A
:102530002FFEE532952EFDE531952DFCEF2401FFB0
:10254000E43EFEE43DFDE43CFC9040038E8072B22C
:10255000B49040038EE0FCA3E0FDA3E0FEA3E0FF07
:10256000E47B32FAF9F8C35102B4505A9040038A1E
:10257000E0FCA3E0FDA3E0FEA3E0FF516A31904040
:10258000038EE0FCA3E0FDA3E0FEA3E0C39432FFD2
:10259000EE9400FEED9400FDEC9400FC9040038E60
:1025A0005103239040038AE0FCA3E0FDA3E0FEA3D7
:1025B000E02432FFE43EFEE43DFDE43CFC904003B9
:1025C0008A5103238089E4FFFEFDFC41265290409E
:1025D0000392E0FCA3E0FDA3E0FEA3E0FF90400334
:1025E0008EE0F8A3E0F9A3E0FAA3E0FBD35102B434
:1025F000406A90400392E0FCA3E0FDA3E0FEA3E06C
:10260000FF9040038AE0F8A3E0F9A3E0FAA3E02FEB
:10261000FFEA3EFEE93DFDE83CFCE42FFFE43EFE20
:10262000ED3401FDE43CA907AA06AB0551000C25D9
:1026300038F538E43537F53790400392E0FCA3E0F5
:10264000FDA3E0FEA3E02401FFE43EFEE43DFDE443
:102650003CFC904003925103234125CEE4FFFE7DD4
:1026600002FC9040006CE0F8A3E0F9A3E0FAA3E0DC
:10267000FBC35102B4701AE53665387004E5356560
:1026800037904003746006E04440F08004E054BF9B
:10269000F07F007E807D037C009040006CE0F8A31A
:1026A000E0F9A3E0FAA3E0FBC35102B4701AE536E7
:1026B00065387004E5356537904003746006E04482
:1026C00020F08004E054DFF07B837A097958515779
:1026D000207B007A0079377D02514C117F0022C3A4
:1026E000E52B9405E52A94005003412989AB25AADE
:1026F00026A927E92401F9E43AFA51000CFDAB259B
:10270000AA26A92751000CFFED90400383CFF0A328
:10271000EFF0C3E52B9405FFE52A9400FE904003FB
:1027200083E0FCA3E06F7002EE6C6003412989AB8B
:1027300025AA26A927E92403F9E43AFA51000CFF57
:10274000E4FCFDFE78085102D8C004C005C006C0F4
:1027500007AB25AA26A927E92402F9E43AFA510091
:102760000CFFE4FCFDFE78105102D8D003D002D05B
:1027700001D000EF4BFFEE4AFEED49FDEC48FCA80E
:1027800004C005C006C007AB25AA26A927E9240472
:10279000F9E43AFA51000CFFD003D002D001EF4B1C
:1027A000FFEAFEE9FDE8FC904003855103239040D9
:1027B0000385A3E0FDA3E0FEA3E0FFED540FFDE4DD
:1027C000FC90400385510323AB25AA26A927E924C1
:1027D00002F9E43AFA51000C54F090400389F0E019
:1027E0006008E06440600341298990400383E0FE73
:1027F000A3E0FF90400385E0F8A3E0F9A3E0FAA38B
:10280000E0FBEF2BFFEE3AFEE439FDE438FCE4FB9D
:10281000FA7910F8C35102B450034129899040035A
:1028200089E0601B90400385E0FCA3E0FDA3E0FE8F
:10283000A3E0FFED4440FDEC90400385510323AB42
:1028400025AA26A927E92405F9E43A8B25F5268946
:102850002790400385E0FCA3E0FDA3E0FEA3E0FF9A
:10286000E4FBFA7902F8D35102B440034128FA900C
:10287000400383E0FEA3E0FF90400385E0F8A3E07F
:10288000F9A3E0FAA3E0FBEF2BFFEE3AFEE439FDFB
:10289000E438FCE4FBFA7904F8C35102B4405B90DD
:1028A000400385E0FCA3E0FDA3E0FEA3E02400FFDD
:1028B000E43EFEED3401FDE43CA907AA06AB05C0E9
:1028C00003C002C001AB25AA26A92790400042EB15
:1028D000F0A3EAF0A3E9F090400383E0FFA3E090C7
:1028E000400045CFF0A3EFF0D001D002D003515704
:1028F000E4BF01034129894129F29040038374FF19
:10290000F5F051010845F070034129F2904003852C
:10291000E0FCA3E0FDA3E0FEA3E0FFE4FBFA790204
:10292000F8D35102B4506B90400385E0FCA3E0FD66
:10293000A3E0FEA3E0FFE47904F85102B440539011
:10294000400385E0FCA3E0FDA3E0FEA3E02400FF3C
:10295000E43EFEED3401FDE43CA907AA06AB05C048
:1029600003C002C001AB25AA26A92790400042EB74
:10297000F0A3EAF0A3E9F0A3E4F0A304F0D001D0BF
:1029800002D0035157E4BF013AE4F528F529752C2C
:10299000302290400385E0FCA3E0FDA3E0FEA3E02D
:1029A0002400FFE43EFEED3401FDE43CA907AA0645
:1029B000AB05A807AC06AB25AA26A9277E007F0198
:1029C00051041C90400385E0FCA3E0FDA3E0FEA3BE
:1029D000E02401FFE43EFEE43DFDE43CFC904003C6
:1029E0008551032374012527F527E43526F5264173
:1029F00028FAE4F528F529752C7022E52B640145A9
:102A00002A60028030AB25AA26A92751000C547FEA
:102A1000904003A0F0AB25AA26A92751000C5480B2
:102A2000904003A1F0904003A0E0C394014006E071
:102A3000D394094009E4F528F529752C3022AB25FB
:102A4000AA26A92751000CAB21AA22A92351003E96
:102A5000752800752901904003A0E075F040A4FF9F
:102A6000904003A2E5F0F0A3EFF0E49040039FF064
:102A7000904003A0E07E0024F3F9EE3402FA7B419B
:102A800051000CFF9040039FE0C39F4003412CE79F
:102A9000904003A1E07003412BDDA3E0FEA3E0FF23
:102AA0007C007D15510052740D2FF974403EFA7B65
:102AB0000151000CFFAB21AA22A9230529E529AC6D
:102AC00028700205281429F9EA3CFAEF51003E90DB
:102AD0004003A2E0FEA3E0FF7C00510052740E2FE1
:102AE000F974403EFA7B0151000CFFAB21AA22A9E8
:102AF000230529E529AC28700205281429F9EA3CA8
:102B0000FAEF51003E904003A2E0FEA3E0FF7C00FC
:102B1000510052740F2FF974403EFA7B0151000CA2
:102B2000FFAB21AA22A9230529E529AC28700205BB
:102B3000281429F9EA3CFAEF51003E904003A2E044
:102B4000FEA3E0FF7C0051005274102FF974403E48
:102B5000FA7B0151000CFFAB21AA22A9230529E52C
:102B600029AC28700205281429F9EA3CFAEF510033
:102B70003E904003A2E0FEA3E0FF7C0051005274AF
:102B8000112FF974403EFA7B0151000CFFAB21AAD2
:102B900022A9230529E529AC28700205281429F962
:102BA000EA3CFAEF51003E904003A2E0FEA3E0FFB2
:102BB0007C0051005274122FF974403EFA7B01518F
:102BC000000CFFAB21AA22A9230529E529AC287016
:102BD0000205281429F9EA3CFAEF51003E9040031F
:102BE000A2E0FEA3E0FF7C007D1551005274132F7C
:102BF000F974403EFA7B0151011EE5F0FFAB21AABA
:102C000022A9230529E529AC28700205281429F9F1
:102C1000EA3CFAEF51003E904003A2E0FEA3E0FF41
:102C20007C0051005274132FF974403EFA7B01511D
:102C3000011EFFAB21AA22A9230529E529AC287092
:102C40000205281429F9EA3CFAEF51003E904003AE
:102C5000A2E0FEA3E0FF7C0051005274092FF9743A
:102C6000403EFA7B015102EB515AD6E47BE87A03ED
:102C7000F9F8510215904003A4510323904003A496
:102C8000E0FCA3E0FDA3E0FEA3E0FF78085102C54D
:102C9000AB21AA22A9230529E529AC287002052821
:102CA0001429F9EA3CFAEF51003E904003A4A3A393
:102CB000A3E0FFAB21AA22A9230529E529AC2870AE
:102CC0000205281429F9EA3CFAEF51003E9040032E
:102CD000A3E004F07007904003A2E004F0904003EA
:102CE0009FE004F0412A70E52945287003752C7097
:102CF00022E52B6405452A6003412FDBAB25AA267C
:102D0000A927E92401F9E43AFA51000CFDAB25AA00
:102D100026A92751000CFFED9040037CCFF0A3EFD4
:102D2000F09040037CE0FEA3E0D394FBEE941F40C0
:102D300003412FDBAB25AA26A927E92403F9E43AAE
:102D4000FA51000CFFE4FCFDFE78085102D8C004E3
:102D5000C005C006C007AB25AA26A927E92402F9A9
:102D6000E43AFA51000CFFE4FCFDFE78105102D861
:102D7000D003D002D001D000EF4BFFEE4AFEED4968
:102D8000FDEC48FCA804C005C006C007AB25AA2678
:102D9000A927E92404F9E43AFA51000CFFD003D042
:102DA00002D001EF4BFFEAFEE9FDE8FC9040037E14
:102DB0005103239040037EA3E0FDA3E0FEA3E0FFC8
:102DC000ED540FFDE4FC9040037E510323AB25AA94
:102DD00026A927E92402F9E43AFA51000C54F090AC
:102DE000400382F09040037CE0FEA3E02405F52937
:102DF000E43EF528AB21AA22A923A801AC02AD0329
:102E0000AB25AA26A9277E007F0551041C9040030C
:102E100082E024F07003412EDD24F07003412F691D
:102E200024E0600724406003412FDB9040037CE0F6
:102E3000FEA3E0FF9040037EE0F8A3E0F9A3E0FAF0
:102E4000A3E0FBEF2BFFEE3AFEE439FDE438FCE4AF
:102E5000FBFA7910F8C35102B45003412FDB9040C4
:102E60000382E0601B9040037EE0FCA3E0FDA3E052
:102E7000FEA3E0FFED4440FDEC9040037E510323B0
:102E80009040037CE0FEA3E0FFC006C00790400333
:102E90007EE0FCA3E0FDA3E0FEA3E02400FFE43E0F
:102EA000FEED3401FDE43CA907AA06AB05C003C052
:102EB00002C001AB21AA22A923E92405F9E43AA81A
:102EC00001FCAD03D001D002D003D007D0065104DD
:102ED0001CE52945286003412FE3412FD79040038B
:102EE0007CE0FEA3E0FF9040037EE0F8A3E0F9A3BE
:102EF000E0FAA3E0FBEF2BFFEE3AFEE439FDE43805
:102F0000FCE4FBFA7910F8C35102B45003412FDB03
:102F10009040037CE0FEA3E0FFC006C007904003A2
:102F20007EE0FCA3E0FDA3E0FEA3E02400FFE43E7E
:102F3000FEED3481FDE43CA907AA06AB05C003C041
:102F400002C001AB21AA22A923E92405F9E43AA889
:102F500001FCAD03D001D002D003D007D00651044C
:102F60001CE5294528707C806E9040037CE0FEA320
:102F7000E0FF9040037EE0F8A3E0F9A3E0FAA3E0CD
:102F8000FBEF2BFFEE3AFEE439FDE438FCE4FB7A7C
:102F900001F9F8C35102B4500280409040037CE034
:102FA000FEA3E0FF9040037EA3A3A3E0F97A007B99
:102FB00000C003C002C001AB21AA22A923E9240555
:102FC000F9E43AA801FCAD03D001D002D0035104CA
:102FD0001CE5294528700C752C7022E4F528F5298C
:102FE000752C3022E55E700B90400374E020E30303
:102FF0004132BAE513603FE4F508E47F01FEFDFCD1
:10300000A908A8015102D8A905AA06AB07AF13E485
:10301000FCFDFEEB5FFFEF600AE50804FF5150B3D3
:10302000E4F511E50804FF515E410508E508C39485
:103030000840C7E4F513E51C6003E4F511E51E60E4
:1030400003E4F511E51164026003E4F50BE51114E6
:10305000602C1460781470034131B1147003413254
:10306000A0240460034132BAE4F51C750909F50A8D
:10307000F51AF518E51E60034132BA4132B7AF09BF
:10308000EF75F040A485F00CF50DAF09EF75F04039
:10309000A485F00EF50FE509B4090341327DE47F04
:1030A00001FEFDFCC3E5099401F9F85102D8A90518
:1030B000AA06AB07AF12E4FCFDFEEB5FFFEF603347
:1030C000AF0951562FAF09515E4141329CE4F51AC8
:1030D000F518E509C39409501DE47F01FEFDFCC30A
:1030E000E5099401F9F85102D8AB07AF12EB5FFF85
:1030F000EF70034131FEAF097E0074F32FF9EE3417
:1031000002FA7B4151000CFD7C00AF09EF75F040E5
:10311000A42DFFEC35F0FEC3E50D9FE50C9E4003AA
:103120004131ADAE0CAF0D7C007D155100527408DD
:103130002FF974403EFA7B0151000C6023AE0CAFB6
:103140000D51005274082FF974403EFA51000CC31F
:103150009401FFE50AA807088002C333D8FC600A7F
:10316000050DE50D7090050C808CE47F01FEFDFCE3
:10317000C3E5099401F9F85102D8A905AA06AB07DD
:10318000AF1BE4FCFDEB5FFFEF6003751801AF0DB3
:10319000AE0C515CEF050DE50D7002050C050BE55D
:1031A00018700AE50BC3951550034132BA75110327
:1031B00022E509C39409501CE47F01FEFDFCC3E530
:1031C000099401F9F85102D8AB07AF12EB5FFFEF9A
:1031D0007002802AAF097E0074F32FF9EE3402FAF0
:1031E0007B4151000CFD7C00AF09EF75F040A42D30
:1031F000FFEC35F0FEC3E50F9FE50E9E4004751110
:103200000422AE0EAF0F7C007D1551005274082FC2
:10321000F974403EFA7B0151000C6023AE0EAF0FF3
:1032200051005274082FF974403EFA51000CC394B7
:1032300001FFE50AA807088002C333D8FC600A052D
:103240000FE50F708F050E808BAE0EAF0F7C007DEB
:103250001551005274092FF974403EFA7B01510256
:10326000EB515AD6E47BEE7A02F9F8D35102B4500E
:1032700049E51A600AE50D150D7002150C801DAFA9
:103280000FAE0E5119A5050FE50F7002050EE4F5FE
:1032900018C3E50F950DE50E950C401E7511022221
:1032A000E5090475F00A8485F009E509700205094D
:1032B000E509B40902050A75110122E0FF5132D077
:1032C00090400089E0FF5132D090400089E0FF0D2E
:1032D000EF6409600341338DED6059C2AFC2B5D2CE
:1032E000B5D2AFE4904002A7F0000000000000005B
:1032F00000000000000000000000000000000000CE
:1033000000000000000000000000000000000000BD
:1033100000000000000000000000000000000000AD
:10332000000000000000904002A7E004F0E0B403B9
:10333000B8413504C2AFC2B5E4904002A8F0000025
:10334000000000000000000000000000000000007D
:10335000000000000000000000000000000000006D
:10336000000000000000000000000000000000005D
:103370000000000000000000000000904002A8E0F3
:1033800004F0E0B403B8D2B5D2AF413504C3EF9432
:1033900001FF7401A807088002C333D8FC904002E3
:1033A000AAF0E0F4A3F0ED700341349EC2AFE090C8
:1033B00007F010F0A37401F000000000000000000E
:1033C0000000000000000000E4F000000000000029
:1033D00000000000000000000000000000000000ED
:1033E00000000000000000000000000000000000DD
:1033F00000000000000000000000000000000000CD
:1034000000000000000000000000000000000000BC
:1034100000000000000000000000000000000000AC
:10342000000000000000000000000000000000009C
:10343000000000000000000000000000000000008C
:10344000000000000000000000000000000000007C
:10345000000000000000000000000000000000006C
:10346000000000000000000000000000000000005C
:10347000000000000000000000000000000000004C
:10348000000000000000000000000000000000003C
:1034900000000000000000000000D2AF8066C2AF54
:1034A000904002ABE09007F010F0A37401F0E490BC
:1034B0004002A9F000000000000000000000000031
:1034C00000000000000000000000000000000000FC
:1034D00000000000000000000000000000000000EC
:1034E00000000000000000000000000000000000DC
:1034F00000904002A9E004F0E0B403B8E49007F0C3
:1035000011F0D2AF00000000000000000000000039
:1035100000000000000000000000000000000000AB
:10352000000000000000000000000000000000009B
:10353000000000000000000000000000000000008B
:10354000000000000000000000000000000000007B
:1035500022F0E0FF90400052E4F0A3F0A3F0FBFA69
:10356000F99040004FEBF0A3EAF0A3E9F0EF640913
:103570006003413615C2B59040029BF00000000088
:10358000000000000000000000000000000000003B
:10359000000000000000000000000000000000002B
:1035A000000000000000000000000000000000001B
:1035B0000000000000000000009040029BE004F0CA
:1035C000E0B419B8D2B5E49040029CF000000000CD
:1035D00000000000000000000000000000000000EB
:1035E00000000000000000000000000000000000DB
:1035F00000000000000000000000000000000000CB
:103600000000000000000000009040029CE004F078
:10361000E0B419B822C3EF9401FF7401A807088031
:1036200002C333D8FC9040029FF0E0F4A3F0C2AF95
:10363000E09007F010F0A37401F00000000000001B
:10364000000000000000000000000000000000007A
:10365000000000000000000000000000000000006A
:10366000000000000000000000000000000000005A
:1036700000009007F010E0904002A1F0D2AF90401F
:10368000004FE0FBA3E0FAA3E0F9EA494B600A909F
:103690004002A1E0FFEF51003EE49040029DF000A7
:1036A000000000000000000000000000000000001A
:1036B000000000000000000000000000000000000A
:1036C00000000000000000000000000000000000FA
:1036D0000000000000000000000000009040029D7B
:1036E000E004F0E0B419B8C2AFE49007F011F000C4
:1036F00000000000000000000000000000000000CA
:1037000000000000000000000000000000000000B9
:1037100000000000000000000000000000000000A9
:10372000000000000000009007F010E0904002A1AF
:10373000F0D2AF90400052E0FBA3E0FAA3E0F9EA38
:10374000494B600A904002A1E0FFEF51003EE49037
:1037500040029EF000000000000000000000000099
:103760000000000000000000000000000000000059
:103770000000000000000000000000000000000049
:103780000000000000000000000000000000000039
:10379000009040029EE004F0E0B419B8229040008E
:1037A0008DEFF0ED6008E4904002BBF0A3F0904094
:1037B00002BBE0B401037F0122904002C07401F01B
:1037C000E4A3F0904002C3F0904002C204F0E4F59C
:1037D0005D9040008DE0FF5135549040008DE0FF3A
:1037E0007DF0516EFE904002C3E0C3940840034157
:1037F000391A5144B6904002BEEFF05144B69040A1
:1038000002BFEFF0904002BEE0B4010EA3E0B401AD
:1038100009904002BB7401F0FF22904002BFE0FF1C
:10382000904002BEE06F6008E0904002BDF080581A
:10383000904002BCE0FF904002C0E0C39F501E9049
:103840004002C3E07E0024C4F9EE3402FA7B415109
:10385000000CFF904002C2E05F6019800E904002B1
:10386000BCE0FF904002C0E0B50709904002BD7483
:1038700001F08006E4904002BDF0904002BDE0708F
:1038800007904002C0E0A3F0904002BDE0904002EB
:10389000C36018E07E0024C4F9EE3402FA7B415183
:1038A000000CFF904002C2E04F8017E07E0024C46D
:1038B000F9EE3402FA7B4151000CFF904002C2E065
:1038C000F45F51003E9040008DE0FF904002BDE06B
:1038D000FD5132D0904002C0E004F0904002C2E0BE
:1038E00025E0F0E060034137E5A3E07E0024C4F961
:1038F000EE3402FA7B4151000C655D249BF9EE34F5
:1039000001FA7B4151000CF55D904002C3E004F0E8
:10391000904002C27401F04137E5E55D70079040C8
:1039200002C4E070037F01229040008DE07E0024FD
:10393000F3F9EE3402FA7B4151000CFD7C0090401B
:10394000008DE075F040A42DFEEC35F0904002CEE5
:10395000F0A3CEF0904002CC7409F07B417A02795A
:10396000C4C003C001904002CEE0FEA3E0FF7D157D
:1039700051005274002FF974403EA801FC7D01D023
:1039800001D0037E007F0951041C9040008DE0FFB0
:103990007E0024F3F9EE3402FA7B417401510022D7
:1039A000904002C1E0904002BCF0E0601074F32F40
:1039B000F9EE3402FA51000CC394404007904002E3
:1039C000BB7401F07F002290400082EDF090400037
:1039D00081EFF0AF1F30E10CEF75F01CA424BFF9AC
:1039E0007400800AEF75F01CA424BCF9740035F053
:1039F000FA7B4151032F90400091EBF0A3EAF0A332
:103A0000E9F090400081E0AF1F30E20CEF75F01C50
:103A1000A424B1F97400800AEF75F01CA424AEF957
:103A2000740035F0FA7B4151032F90400094EBF085
:103A3000A3EAF0A3E9F0E51F5403240AFDE4FBFF29
:103A4000515297E51F5403240AFD7F01515297906C
:103A5000400081E05404FFE51F04FD7B8051529734
:103A600090400094E0FBA3E0FAA3E02406F9E43AD6
:103A7000FA74F651003E90400081E0FF90400091C2
:103A8000E0FBA3E0FAA3E02402F9E43AFAEF5100E4
:103A90003EE51FC39404AF205002AF249040009134
:103AA000E0FBA3E0FAA3E02403F9E43AFAEF5100C3
:103AB0003EE51F5403FF90400091E0FBA3E0FAA312
:103AC000E02404F9E43AFAEF51003E90400091E01E
:103AD000FBA3E0FAA3E02405F9E43AFAE451003E3E
:103AE00090400082E07003413B99C454F0440CFFC5
:103AF00090400091E0FBA3E0FAA3E02406F9E43A49
:103B0000FAEF51003E90400091E0FBA3E0FAA3E001
:103B10002407F9E43AFAC003C002C001AF1FEF75F1
:103B2000F01CA424C5F9740035F0FA7B4151032F31
:103B30009040004AEBF0A3EAF0A3E9F09040008245
:103B4000E09040004DF0D001D002D0035167F8AFB3
:103B50001FEF75F01CA424C8F9740035F0FA7B41FE
:103B600051011EFF90400082E0FDC3EF9DFFE5F094
:103B700094008FF051016E90400082E0FDAF1FEF86
:103B800075F01CA424C5F9740035F0FA09E9700138
:103B90000AE48DF0510142801690400091E0FBA3B1
:103BA000E0FAA3E02406F9E43AFA740C51003E90DE
:103BB000400081E05402FFE51F5403240AFD7BC549
:103BC0004152979040008BEFF0E075F040A4FF90D9
:103BD0004002B8E5F0F0A3EFF09040008BE07E00EB
:103BE00024F3F9EE3402FA7B41E451003E904002A6
:103BF000BAF0904002B8E0FEA3E0FF7C007D1551D2
:103C0000005274002FF974403EFA7B01E451003EEB
:103C1000904002B8E0FEA3E0FF51005274012FF97A
:103C200074403EFAE451003E904002B8E0FEA3E04A
:103C3000FF51005274022FF974403EFAE451003EE5
:103C4000904002B8E0FEA3E0FF51005274032FF948
:103C500074403EFAE451003E904002B8E0FEA3E01A
:103C6000FF51005274042FF974403EFAE451003EB3
:103C7000904002B8E0FEA3E0FF51005274052FF916
:103C800074403EFAE451003E904002B8E0FEA3E0EA
:103C9000FF51005274062FF974403EFAE451003E81
:103CA000904002B8E0FEA3E0FF51005274072FF9E4
:103CB00074403EFAE451003E904002B8E0FEA3E0BA
:103CC000FF51005274082FF974403EFAE451003E4F
:103CD000FFFEFDC005C006C007904002B8E0FEA38D
:103CE000E0FF7D1551005274092FF974403EFAD05F
:103CF00007D006D005510308904002B8E0FEA3E0CB
:103D0000FF7C007D15510052740D2FF974403EFA6E
:103D1000E451003E904002B8E0FEA3E0FF510052A3
:103D2000740E2FF974403EFAE451003E904002B800
:103D3000E0FEA3E0FF51005274102FF974403EFAE8
:103D4000E451003E904002B8E0FEA3E0FF51005273
:103D500074112FF974403EFAE451003E904002B8CD
:103D6000E0FEA3E0FF51005274122FF974403EFAB6
:103D7000748051003E904002B8E0FEA3E0FF510085
:103D80005274132FF974403EFA748075F00051019B
:103D90006E904002B9E004F07007904002B8E00471
:103DA000F0904002BAE004F0E064406003413BF26E
:103DB00022755E01E55E9040037370057406F08025
:103DC000037407F074092406F9E4340AFA7B83C00B
:103DD00003C002C00178717C037D41D001D002D0C4
:103DE000037E007F0251041C90400372E0C39430B4
:103DF0009040036CF078717C037D417B837A0A7973
:103E0000097E007F0251041C90400371E0C394308E
:103E100075F00AA4FFA3E0C394302F9040036DF027
:103E200074092403F9E4340AFA7B83C003C002C096
:103E30000178717C037D41D001D002D0037E007FE8
:103E40000251041C90400371E0C3943075F00AA441
:103E5000FFA3E0C394302F9040036EF078717C0391
:103E60007D417B837A0A79127E007F0251041C9087
:103E7000400371E0C3943075F00AA4FFA3E0C3943B
:103E8000302F9040036FF074122403F9E4340AFADF
:103E90007B83C003C002C00178717C037D41D001E7
:103EA000D002D0037E007F0251041C90400371E0D9
:103EB000C3943075F00AA4FFA3E0C394302F904060
:103EC0000370F07B017A00790151000C904003747B
:103ED000F0E451003E9040037774FFF09040036C93
:103EE000E0C454F0FFA3E04F90400378F09040030B
:103EF0006EE090400379F09040036FE09040037AC9
:103F0000F090400370E09040037BF030DE1275C704
:103F1000AA75C755C2DEE490400374F01951003E03
:103F2000E4FFFE7D02FC5123407F007E807D037C08
:103F300000512340E55E704390400374E0540770E5
:103F40001D7B087AF0791451000C20E04890400362
:103F500074E020E640E07B017A00790180157B0166
:103F60007A00790051000C702C90400374E020E638
:103F700024E00951003E516A60801A517338904024
:103F80000374E054077006E04410F080089040038A
:103F900074E054EFF041703490400088EDF0EF6031
:103FA00003414080E014B40F00400341414F9002B0
:103FB0003FBD75F003A4C58325F0C58373413FEA77
:103FC000413FF4413FFE41400841401241401C4105
:103FD000402641403041403A41404441404E4140FA
:103FE0005841406241406C41407690400090E5ABC2
:103FF000F041414F90400090E5ACF041414F90407E
:104000000090E5ADF041414F90400090E5AEF041A9
:10401000414F90400090E5AFF041414F90400090FB
:10402000E5B3F041414F90400090E5B4F041414F7D
:1040300090400090E5B5F041414F90400090E5B6CA
:10404000F041414F90400090E5B7F041414F904022
:104050000090E5BBF041414F90400090E5BCF0413D
:10406000414F90400090E5BDF041414F904000909D
:10407000E5BEF041414F90400090E5BFF041414F17
:1040800090400088E014B40F00400341414F90027B
:10409000409D75F003A4C58325F0C583734140CAD4
:1040A0004140D34140DC4140E54140EE4140F741D1
:1040B000410041410941411241411B4141244141DB
:1040C0002D41413641413F41414890400090E5EB50
:1040D000F0807C90400090E5ECF080739040009080
:1040E000E5EDF0806A90400090E5EEF08061904050
:1040F0000090E5EFF0805890400090E5F3F0804F9D
:1041000090400090E5F4F0804690400090E5F5F096
:10411000803D90400090E5F6F0803490400090E5BE
:10412000F7F0802B90400090E5FBF080229040005B
:1041300090E5FCF0801990400090E5FDF080109033
:10414000400090E5FEF0800790400090E5FFF09081
:10415000400090E0FF229040005BEBF0A3EAF0A368
:10416000E9F051000C904003C6F09040005BE0FB8A
:10417000A3E0FAA3E02401F9E43AFA51000C9040DC
:1041800003C7F09040005BE0FBA3E0FAA3E0240249
:10419000F9E43AFA51000C904003C8F09040005BFB
:1041A000E0FBA3E0FAA3E02403F9E43AFA51000C9F
:1041B000904003C9F0904003C8E0C3942040037FBF
:1041C0000122C291904003C6E07B087AF079045145
:1041D000003E904003C7E00951003E00904003C9F3
:1041E000E014F070F6904003C8E0FF51537F7B0865
:1041F0007AF0790551000C904003CAF0D2919040BA
:10420000005BE0FBA3E0FAA3E0F951000CFF904053
:10421000005EE0FBA3E0FAA3E0F9EF51003E90401E
:10422000005BE0FBA3E0FAA3E02401F9E43AFA51D1
:10423000000CFF9040005EE0FBA3E0FAA3E0240145
:10424000F9E43AFAEF51003E9040005BE0FBA3E056
:10425000FAA3E02402F9E43AFA51000CFF9040007E
:104260005EE0FBA3E0FAA3E02402F9E43AFAEF519E
:10427000003E9040005BE0FBA3E0FAA3E02403F9DA
:10428000E43AFA51000CFF9040005EE0FBA3E0FA34
:10429000A3E02403F9E43AFAEF51003E904003C84A
:1042A000E075F002A42403F9740335F0FA7B415160
:1042B000011EE5F0FF9040005EE0FBA3E0FAA3E002
:1042C0002404F9E43AFAEF51003E904003C8E07547
:1042D000F002A42403F9740335F0FA7B4151011E66
:1042E000FF9040005EE0FBA3E0FAA3E02405F9E4C0
:1042F0003AFAEF51003E904003CAE0FF9040005E62
:10430000E0FBA3E0FAA3E02406F9E43AFAEF510057
:104310003E7F0022E52B6403452A60034143ACAB9A
:1043200025AA26A927E92401F9E43AFA51000CFF4D
:10433000E4FCFDFE78085102D8C004C005C006C0E8
:1043400007AB25AA26A92751000CFFE4FCFDFE7847
:10435000105102D8D003D002D001D000EF4BFFEEB5
:104360004AFEED49FDEC48FCA804C005C006C007A4
:10437000AB25AA26A927E92402F9E43AFA51000C50
:10438000FFD003D002D001EF4BFFEAFEE9FDE8FCCD
:10439000904003CB510323904003CBE0FCA3E0FD0E
:1043A000A3E0FEA3E0FF512340BF0109E4F528F597
:1043B00029752C302275280075290AAF30AE2FAD33
:1043C0002EAC2D78105102C5AB21AA22A923EF51A2
:1043D000003EAF30AE2FAD2EAC2D78085102C5ABEC
:1043E00021AA22A923E92401F9E43AFAEF51003E77
:1043F000AF30AE2FAD2EAC2DAB21AA22A923E924DC
:1044000002F9E43AFAEF51003EAF34AE33AD32ACCC
:104410003178105102C5AB21AA22A923E92403F95E
:10442000E43AFAEF51003EAF34AE33AD32AC3178FE
:10443000085102C5AB21AA22A923E92404F9E43AD0
:10444000FAEF51003EAF34AE33AD32AC31AB21AAFE
:1044500022A923E92405F9E43AFAEF51003EE535B3
:10446000FFAB21AA22A923E92406F9E43AFAEF5185
:10447000003EAF36AB21AA22A923E92407F9E43A8A
:10448000FAEF51003EE537FFAB21AA22A923E92428
:1044900008F9E43AFAEF51003EAF38AB21AA22A95D
:1044A00023E92409F9E43AFAEF51003EE5294528C9
:1044B0007003752C70229040008DE0FFEF6409605E
:1044C0000341456DC2AFC2B500000000000000000E
:1044D0000000000000000000D2B500000000000055
:1044E00000000000000000000000000000000000CC
:1044F00000000000000000000000000000000000BC
:1045000000000000000000000000000000000000AB
:104510000000A2B533904002A6F0D2AFE490400272
:10452000A2F00000000000000000000000000000F9
:10453000000000000000000000000000000000007B
:10454000000000000000000000000000000000006B
:1045500000000000000000000000000000000090CB
:104560004002A2E004F0E0B403B8414645C3EF9432
:1045700001FF7401A807088002C333D8FC904002F1
:10458000A4F0E0F4A3F0C2AFE09007F010F0A37441
:1045900001F000000000000000000000000000002A
:1045A0000000E4F000000000000000000000000037
:1045B00000000000000000000000000000000000FB
:1045C00000000000000000000000000000000000EB
:1045D0000000000000000000000000009007F01044
:1045E000E0904002A6F0D2AFE0FF904002A4E0FECF
:1045F000EF5E904002A6F0E4904002A3F0000000BD
:1046000000000000000000000000000000000000AA
:10461000000000000000000000000000000000009A
:10462000000000000000000000000000000000008A
:1046300000000000000000000000904002A3E00421
:10464000F0E0B403B8904002A6E07F0060027F0172
:1046500022E55E640170034147D490400353E014A7
:10466000607414700341471C8000E49040034BF0D9
:104670009040034BE07E002454F9EE3403FA7B4172
:1046800051000CB401449040034BE0FFE4FCFDFBFF
:104690007A40F9F851018AE42FFFE43EFEED34023E
:1046A000FDE43CFCE42FFFE43EFEED3401FDE43C80
:1046B000A907AA06AB059040034CEDF0A3EAF0A3CE
:1046C000E9F0904003537401F0229040034BE00462
:1046D000F0E0B4089B22C2AF9002055574AAF09096
:1046E0000202AA7455F0900205557480F074AAF085
:1046F000900202AA7455F09040034CE0FBA3E0FA4C
:10470000A3E0F9743051003ED2AF516F23904003C3
:104710004F510323904003537402F0229040034C06
:10472000E0FBA3E0FAA3E0F951000C30E71790405A
:10473000034BE07E002454F9EE3403FA7B41E4514C
:10474000003E4147C89040034CE0FBA3E0FAA3E0E1
:10475000F951000C30E53C9040034CE0FBA3E0FA3B
:10476000A3E0F951000C9040034B30E712E07E00CB
:104770002454F9EE3403FA7B41E451003E8012E008
:104780007E002454F9EE3403FA7B41740251003E5A
:10479000E480359040034FE0FCA3E0FDA3E0FEA3DE
:1047A000E0FF515AD6E47B987A3AF9F8C35102B443
:1047B00050229040034BE07E002454F9EE3403FA7B
:1047C0007B41740251003EE490400353F090020894
:1047D0008874F0F022C3E52B9401FFE52A9400FED3
:1047E0007C007D095100649040039CEFF0C3E52BF1
:1047F0009401E52A94004037E52B9401FFE52A94C3
:1048000000FE7C007D09510064ED4C7022E0D394E1
:10481000404002801AAB25AA26A92751000C9040DF
:10482000039BF0E0C394014006E0D394094009E4FF
:10483000F528F529752C30229040039BE0C39401A4
:10484000FF7401A807088002C333D8FC4213751C0B
:1048500001E47F01FEFDFC9040039BE0C39401F95D
:10486000F85102D85102A7EF521E751D01A3E0FFB7
:104870009040039BE07C0024F3F9EC3402FA7B4186
:10488000EF51003E9040039BE075F040A4FF904044
:10489000039DE5F0F0A3EFF0E49040039AF0904020
:1048A000039CE0FF9040039AE0C39F4003414948C6
:1048B000AB25AA26A927E92401F9E43AFAE075F024
:1048C00009A429F9EA35F0FAC003C0019040039D1C
:1048D000E0FEA3E0FF7C007D1551005274002FF92B
:1048E00074403EA801FC7D01D001D0037E007F0909
:1048F00051041C9040039DE0FEA3E0FF7C007D1569
:1049000051005274082FF974403EFA7B0151000C9B
:10491000D3940940199040039DE0FEA3E0FF5100AD
:104920005274082FF974403EFA740951003E9040C9
:10493000039EE004F070079040039DE004F0904077
:10494000039AE004F041489EE4F528F529752C709F
:104950002290400055EBF0A3EAF0A3E9F09040006C
:1049600055E0FBA3E0FAA3E0F951000CFD540FFF62
:1049700074017E00A807088005C333CE33CED8F972
:10498000F5598E58EDC45407FF7401A8070880023A
:10499000C333D8FCF55A5172BCEF60037F0122513A
:1049A0006D4490400055E0FBA3E0FAA3E0240151E0
:1049B0006E9D90400055E0FBA3E0FAA3E024025175
:1049C0006E9D90400055E0FBA3E0FAA3E024035164
:1049D0006E9D90400055E0FBA3E0FAA3E02404F9AB
:1049E000E43AFA51000CFF516E3F516D7F90400048
:1049F00058E0FBA3E0FAA3E0F9516D7B904000582A
:104A0000E0FBA3E0FAA3E02401516D779040005849
:104A1000E0FBA3E0FAA3E02402516D779040005838
:104A2000E0FBA3E0FAA3E02403F9E43AFAEF510033
:104A30003EE49007F003F090400055E0FBA3E0FA5D
:104A4000A3E02401F9E43AFA51000C547FFF9040AE
:104A50000058E0FBA3E0FAA3E0F951000C6F6014EA
:104A600090400055E0FBA3E0FAA3E0F951000C44AC
:104A70008051003E90400055E0FBA3E0FAA3E02403
:104A800002F9E43AFA51000CFF90400058E0FBA311
:104A9000E0FAA3E02401F9E43AFA51000C6F601443
:104AA00090400055E0FBA3E0FAA3E0F951000C446C
:104AB0008051003E7F0022E52B6401452A7073ABD4
:104AC00025AA26A92751000C904003B0F0E0FF7BF7
:104AD000417A0379B35161B5BF0103414C08752890
:104AE00000752903904003B0E0AB21AA22A923510D
:104AF000003E904003B3E0FEA3E0EEFFAB21AA220C
:104B0000A923E92401F9E43AFAEF51003E90400369
:104B1000B3E0A3E0FFAB21AA22A923E92402F9E430
:104B20003AFAEF51003EE52945286003414C104117
:104B30004C04E52B6403452A6003414C08AB25AACD
:104B400026A92751000C904003B0F0AB25AA26A956
:104B500027E92401F9E43AFA51000CFEAB25AA2614
:104B6000A927E92402F9E43AFA51000C7C00240058
:104B7000FFEC3E904003B1F0A3EFF07528007529DB
:104B800001904003B0E0AB21AA22A92351003E903E
:104B90004003B174FFF5F051010845F060609040AA
:104BA00003B0E0FF7B417A0379B35161B5BF0102E5
:104BB0008056904003B3E0FEA3E0EEFFAB21AA22B3
:104BC000A923AC28AD29E92DF9EA3CFAEF51003EC2
:104BD000904003B3E0A3E0FFAB21AA22A923E5297B
:104BE0002401FDE43528FCE92DF9EA3CFAEF5100F7
:104BF0003E74022529F529E43528F5288091E52918
:104C00004528700C752C7022E4F528F529752C3098
:104C10002290400070EBF0A3EAF0A3E9F0A3EDF0DE
:104C2000E075F002A4FF904003BDE0FCA3E02FFF7D
:104C3000E5F03CFED3EF9440EE941F4003414D510C
:104C4000E4904003B9F090400073E0FF904003B956
:104C5000E0C39F4003414D5190400070E0FBA3E052
:104C6000FAA3E0F9904003B9E0FF7E00E92FF9EEE6
:104C70003AFAC003C002C00178BA7C037D41D0017A
:104C8000D002D0037F0151041C904003BAE0C45409
:104C90000FA3F0904003BAE0540F904003BCF09093
:104CA0004003BBE0C3940A5006E02430F080089033
:104CB0004003BBE02437F0904003BCE0C3940A50AB
:104CC00006E02430F08008904003BCE02437F090E8
:104CD0004003BBE0FFC007904003BDE0FEA3E0FF40
:104CE000E42FFFEE3420FEE433FDE433FCE42FFF39
:104CF000E43EFEED3401FDE43CA907AA06AB05D075
:104D0000E051003E904003BCE0FFC007A3E0FEA3DB
:104D1000E0FFE42FFFEE3420FEE433FDE433FCEF4C
:104D20002401FFE43EFEED3401FDE43CA907AA06A0
:104D3000AB05D0E051003E904003BEE02402F0906D
:104D40004003BDE03400F0904003B9E004F0414C72
:104D50004622AE2AAF2B7C007D05510064904003B3
:104D6000E5EFF0AE2AAF2B7C007D05510064ED4CE1
:104D7000700CE0C394014006E0D3940A4003414E16
:104D800025E4F528F529AB25AA26A927904000613E
:104D9000EBF0A3EAF0A3E9F0AB21AA22A923A3EB4D
:104DA000F0A3EAF0A3E9F0904003E5E075F005A474
:104DB000FFAEF090400064E0FBA3E0FAA3E0F8ACA3
:104DC00002AD0390400061E0FBA3E0FAA3E0F951DB
:104DD000041C904003E5E075F005A4FF90400065D9
:104DE000E5F08FF05100F2E4904003E4F0904003CE
:104DF000E5E0FF904003E4E0C39F5063904000640F
:104E0000E0F9A3E0FAA3E090400058C9F0A3EAF06B
:104E1000A3E9F090400061E0FBA3E0FAA3E0F951C0
:104E20004951BF0109E4F528F529752C302290403D
:104E30000061E0FBA3E0FAA3E02405F9E43AFA906C
:104E4000400061EBF0A3EAF0A3E9F090400065E4D4
:104E500075F0045100F2904003E4E004F0808EAB62
:104E600021AA22A923AE0290400064A3E0FAA3E0A5
:104E7000AC02C399F529EC9EF528E5294528700375
:104E8000752C702290400089EFF0FBE47F01FEFD5D
:104E9000FCC3EB9401F9F85102D8A804A905AA06AD
:104EA000AB07AF1BE4FCFDFEEB5FFFEF7003414F70
:104EB000925132BB90400089E0FF1D5132D09040AA
:104EC00000895132BB90400089E0C39401FF740116
:104ED000A807088002C333D8FC904002ADF0E0F48C
:104EE000A3F0C2AFE09007F010F0A37401F0E490DB
:104EF0004002ACF0000000000000000000000000D4
:104F000000000000000000000000000000000000A1
:104F10000000000000000000000000000000000091
:104F20000000000000000000000000000000000081
:104F300000904002ACE004F0E0B403B89007F01039
:104F400074FFF0D2AF00000000000000000000007D
:104F50000000000000000000000000000000000051
:104F60000000000000000000000000000000000041
:104F70000000000000000000000000000000000031
:104F80000000000000000000000000000000000021
:104F9000002290400089E0FF7D44516EFE22E52B07
:104FA000452A6009E4F528F529752C302290400344
:104FB000EC7401F0904003ECE0FF51562F90400359
:104FC000ECE004F0E0D3940940EA75280075290864
:104FD000AB21AA22A923E51251003EAB21AA22A9A6
:104FE00023E92401F9E43AFAE51551003E90400224
:104FF000EBE0C454F0FF904002EAE0C4333354C005
:105000004FFF904002ECE025E025E04FFFA3E04F8A
:10501000FFAB21AA22A923E92402F9E43AFAEF51CD
:10502000003E904002EFE0C454F0FF904002EEE0FA
:10503000C4333354C04FFF904002F0E025E025E038
:105040004FFFA3E04FFFAB21AA22A923E92403F9D4
:10505000E43AFAEF51003E904002F2E0C433335498
:10506000C0FFAB21AA22A923E92404F9E43AFAEF0C
:1050700051003EAB21AA22A923E92405F9E43AFA1A
:10508000E51651003EAB21AA22A923E92406F9E442
:105090003AFAE51051003EAB21AA22A923E92407E0
:1050A000F9E43AFAE51B51003EE5294528700375FD
:1050B0002C7022EF75F040A4FF904002B5E5F0F0AF
:1050C000A3EFF0E4904002B7F0E4FFFEFDFCC00562
:1050D000C006C007904002B5E0FEA3E0FF7D155179
:1050E000005274092FF974403EFA7B01D007D006B4
:1050F000D005510308904002B5E0FEA3E0FF7C001C
:105100007D15510052740D2FF974403EFAE45100A0
:105110003E904002B5E0FEA3E0FF510052740E2F16
:10512000F974403EFAE451003E904002B5E0FEA31F
:10513000E0FF51005274102FF974403EFAE4510020
:105140003E904002B5E0FEA3E0FF51005274112FE3
:10515000F974403EFAE451003E904002B5E0FEA3EF
:10516000E0FF51005274122FF974403EFA748051DE
:10517000003E904002B5E0FEA3E0FF5100527413E0
:105180002FF974403EFA748075F00051016E904022
:1051900002B6E004F07007904002B5E004F09040E1
:1051A00002B7E004F0E0644060034150C922E52BFF
:1051B0006401452A600341528EAB25AA26A92751D6
:1051C000000C904003E8F0E0705CAB21AA22A92318
:1051D00051003E904003DAE0FFAB21AA22A923E967
:1051E0002401F9E43AFAEF51003E904003DBE0FF7E
:1051F000AB21AA22A923E92402F9E43AFAEF5100EB
:105200003E904003DCE0FFAB21AA22A923E924035E
:10521000F9E43AFAEF51003E752800752904E529B2
:10522000452870728064904003E8E06401705FABD1
:1052300021AA22A9230451003E904003DDE0FFABE8
:1052400021AA22A923E92401F9E43AFAEF51003E08
:10525000904003DEE0FFAB21AA22A923E92402F952
:10526000E43AFAEF51003E904003DFE0FFAB21AAA1
:1052700022A923E92403F9E43AFAEF51003E752804
:1052800000752904E5294528700C752C7022E4F579
:1052900028F529752C3022EF7073ED14B40F0040FF
:1052A0000341537E900252B375F003A4C58325F0E9
:1052B000C583734152E04152E34152E64152E94114
:1052C00052EC4152EF4152F24152F54152F84152F3
:1052D000FB4152FE41530141530441530741530ADC
:1052E0008BAB228BAC228BAD228BAE228BAF228B71
:1052F000B3228BB4228BB5228BB6228BB7228BBB09
:10530000228BBC228BBD228BBE228BBF22ED14B41C
:105310000F00506A9002532375F003A4C58325F053
:10532000C5837341535041535341535641535941DF
:10533000535C41535F41536241536541536841534C
:105340006B41536E41537141537441537741537ACA
:105350008BEB228BEC228BED228BEE228BEF228BC0
:10536000F3228BF4228BF5228BF6228BF7228BFB18
:10537000228BFC228BFD228BFE22AF038FFF22D3D8
:1053800010AF01C3C0D090400087EFF0E0C394207D
:10539000400341546090400087E0FF131313541FF3
:1053A000FE7401A806088002C333D8FC904002FDB9
:1053B000F0EF54077E002443F9EE3403FA7B4151A9
:1053C000000C904002FEF0904002FDE09007F00CCF
:1053D000F0904002FEE0FF516CDE516FC55167ABAB
:1053E000AC06AD0790400087E075F002A42403F9F5
:1053F000740335F0FA7B41EC8DF051016EE49007B7
:10540000F00CF07B837A0979765157207B417A0042
:1054100079877D01514C117B837A09798A51572014
:105420007B417A0279FD7D01514C117B837A0979A8
:105430009E5157207B417A0279FE7D01514C117BB0
:10544000837A0979B251572090400087E075F002C5
:10545000A42403F9740335F0FA7B417D02514C1109
:10546000D0D092AF22E52B6401452A6002801AABAE
:1054700025AA26A92751000C90400397F0E0C39479
:10548000014006E0D394094009E4F528F529752C7C
:10549000302290400397E0AB21AA22A92351003E7D
:1054A00075280075290190400397E075F040A4FF2E
:1054B000A3E5F0F0A3EFF0E490400396F0904003F2
:1054C00097E07E0024F3F9EE3402FA7B4151000CA0
:1054D000FF90400396E0C39F506690400398E0FE23
:1054E000A3E0FF7C007D1551005274002FF9744039
:1054F0003EFA7B01C003C002C001AB21AA22A9234E
:10550000AE28AF29E92FF9EA3EA801FCAD03D0018E
:10551000D002D0037E007F0951041C74092529F5AF
:1055200029E43528F52890400399E004F0700790AD
:10553000400398E004F090400396E004F04154BD2D
:10554000E52945287003752C7022E52B6401452A56
:105550006002801AAB25AA26A92751000C904003AF
:10556000D4F0E0C394014006E0D394094009E4F587
:1055700028F529752C3022AB25AA26A92751000C25
:10558000AB21AA22A92351003E752800752901905C
:105590004003D4E075F040A4FFA3E5F0F0A3EFF0E2
:1055A000E4904003D3F0904003D4E07E0024F3F96C
:1055B000EE3402FA7B4151000CFF904003D3E0C36C
:1055C0009F5062904003D5E0FEA3E0FF7C007D1574
:1055D00051005274122FF974403EFA7B01C003C08F
:1055E00002C001AB21AA22A923AE28AF29E92FF9D5
:1055F000EA3EA801FCAD03D001D002D0037E007FBB
:105600000151041C0529E52970020528904003D6A4
:10561000E004F07007904003D5E004F0904003D31D
:10562000E004F08081E52945287003752C702290F4
:1056300040008AEFF0E0FF7C0024E9F9EC3402FA44
:105640007B41E451003EEF64097003415712E518B5
:105650006003751A019040008AE0FFC39401FE7454
:1056600001A806088002C333D8FC904002AFF07B4B
:10567000417A0279B0C003C002C0010990400052D3
:105680007441F0A37402F0A3E9F0D001D002D0037A
:10569000513561904002AFE0FFA3E05FFF90400210
:1056A000AFE0B507149040008AE07E0024E9F9EEEF
:1056B0003402FA7B4174028056904002AFE0FF90C2
:1056C0004002B1E05F70149040008AE07E0024E95F
:1056D000F9EE3402FA7B41740180349040008AE094
:1056E000FF7DCC516EFE9040008AE0FF7DB4516E8C
:1056F000FE9040008AE0FF5144BCEF7015904000DE
:105700008AE07E0024E9F9EE3402FA7B4174035109
:10571000003E22F583759340E0FBA3E0FAA3E0F995
:1057200090400078EBF0A3EAF0A3E9F0E4904003A6
:10573000B8F090400078E0FBA3E0FAA3E0F99040D5
:1057400003B8E0FFE92FF9E43AFA51000C60169033
:105750004003B8E0D3946440034157E3904003B85A
:10576000E004F080CD904003B8E0FF904003BDE03E
:10577000FCA3E0FDEF2DFFE43CFED3EF9440EE945C
:105780001F5060904003B8E0FF7E00C006C0079045
:105790004003BDE0FEA3E0FFE42FFFEE3420FEE473
:1057A00033FDE433FCE42FFFE43EFEED3401FDE481
:1057B0003CA907AA06AB05A807AC0690400078E014
:1057C000FBA3E0FAA3E0F9D007D00651041C9040F7
:1057D00003B8E0FF904003BEE02FF0904003BDE02F
:1057E0003400F0229040003FEBF0A3EAF0A3E9F090
:1057F000E55EB401037F012290400045E07002A302
:10580000E0700A9002088874F0F07F0022C2AF9026
:1058100002055574AAF0900202AA7455F090020590
:105820005574A0F090400042E0FBA3E0FAA3E0F939
:1058300051000CFF9040003FE0FBA3E0FAA3E0F929
:10584000EF51003ED2AFE4F55FE55FC394C8504F1F
:1058500090400042E0FBA3E0FAA3E0F951000CFF06
:105860009040003FE0FBA3E0FAA3E0F951000CB543
:10587000072990400046E024FFF090400045E034C6
:10588000FFF090400040E475F0015100F2904000BC
:1058900043E475F0015100F24157F8055F80AA908A
:1058A00002088874F0F07F0122E52B6404452A6029
:1058B0000341595DAB25AA26A92751000C9040034E
:1058C000E9F0E07044AB25AA26A927E92401F9E410
:1058D0003AFA51000C904003DAF0AB25AA26A9272A
:1058E000E92402F9E43AFA51000C904003DBF0ABF2
:1058F00025AA26A927E92403F9E43AFA51000C90D5
:105900004003DCF0516892804B904003E9E0640171
:10591000704BAB25AA26A927E92401F9E43AFA51EC
:10592000000C904003DDF0AB25AA26A927E924024C
:10593000F9E43AFA51000C904003DEF0AB25AA26B8
:10594000A927E92403F9E43AFA51000C904003DF57
:10595000F05168DDE4F528F529752C7022E4F5286E
:10596000F529752C3022E4904003BDF0A3F07B8331
:105970007A0579C35157207B837A0579FE515720E8
:1059800090400373E075F00E84E5F075F003A424F5
:1059900015F582E434005157137B837A06790E5152
:1059A000572090400374E0540775F003A42400F5D9
:1059B00082E434005157137B837A06791E515720B5
:1059C0007B417A0379757D01514C117B837A06798D
:1059D0002E5157207B417A0379767D01514C117B02
:1059E000837A06793E5157207B417A0379787D048A
:1059F000514C117B837A06794E5157207B837A066E
:105A0000795E5157207B837A0679675157207B83D3
:105A10007A06796A5157207B837A0579C3415720EA
:105A2000D310AF01C3C0D09040007CECF0A3EDF0E8
:105A30009040007BEFF0C394104003415AD1904056
:105A4000007CE0FEA3E0FFEE30E703415AD1EE54C4
:105A50000F9040007CF0A3EFF09040007CE0FAA3B0
:105A6000E0FD9040007BE075F002A42400F9740191
:105A700035F07B01CA8DF051016E9040007CE0FC56
:105A8000A3E0FDEC540FFF9040007BE05403FEC404
:105A9000333354C044304F904003D7F0EDA3F0901F
:105AA00040007BE01313543FFF7401A807088002F5
:105AB000C333D8FC9007F008F0904003D7E0FF51C3
:105AC0006D11904003D8E0FF516D11E49007F0088C
:105AD000F0D0D092AF22D310AF01C3C0D09040001D
